

Microchip MPLAB XC8 Assembler V2.10 build 88905656 
                                                                                               Thu Nov 21 11:40:08 2019

Microchip MPLAB XC8 C Compiler v2.10 (Free license) build 20190730164152 Og1 
     1                           	processor	18F26K83
     2                           	fnconf	rparam,??,?,0
     3                           	opt	pw 120
     4                           	opt	flic
     5                           	psect	idataCOMRAM,global,class=CODE,delta=1,noexec
     6                           	psect	idataBANK0,global,class=CODE,delta=1,noexec
     7                           	psect	nvBANK0,global,class=BANK0,space=1,delta=1,lowdata,noexec
     8                           	psect	cinit,global,reloc=2,class=CODE,delta=1
     9                           	psect	bssCOMRAM,global,class=COMRAM,space=1,delta=1,noexec
    10                           	psect	dataCOMRAM,global,class=COMRAM,space=1,delta=1,noexec
    11                           	psect	bssBANK0,global,class=BANK0,space=1,delta=1,lowdata,noexec
    12                           	psect	dataBANK0,global,class=BANK0,space=1,delta=1,lowdata,noexec
    13                           	psect	bssBANK1,global,class=BANK1,space=1,delta=1,lowdata,noexec
    14                           	psect	cstackCOMRAM,global,class=COMRAM,space=1,delta=1,noexec
    15                           	psect	text0,global,reloc=2,class=CODE,delta=1
    16                           	psect	text1,global,reloc=2,class=CODE,delta=1
    17                           	psect	text2,global,reloc=2,class=CODE,delta=1
    18                           	psect	text3,global,reloc=2,class=CODE,delta=1
    19                           	psect	text4,global,reloc=2,class=CODE,delta=1
    20                           	psect	text5,global,reloc=2,class=CODE,delta=1
    21                           	psect	text6,global,reloc=2,class=CODE,delta=1
    22                           	psect	text7,global,reloc=2,class=CODE,delta=1
    23                           	psect	text8,global,reloc=2,class=CODE,delta=1
    24                           	psect	text9,global,reloc=2,class=CODE,delta=1
    25                           	psect	text10,global,reloc=2,class=CODE,delta=1
    26                           	psect	text11,global,reloc=2,class=CODE,delta=1
    27                           	psect	text12,global,reloc=2,class=CODE,delta=1
    28                           	psect	text13,global,reloc=2,class=CODE,delta=1
    29                           	psect	text14,global,reloc=2,class=CODE,delta=1
    30                           	psect	text15,global,reloc=2,class=CODE,delta=1
    31                           	psect	text16,global,reloc=2,class=CODE,delta=1,group=2
    32                           	psect	text17,global,reloc=2,class=CODE,delta=1,group=2
    33                           	psect	text18,global,reloc=2,class=CODE,delta=1
    34                           	psect	text19,global,reloc=2,class=CODE,delta=1
    35                           	psect	text20,global,reloc=2,class=CODE,delta=1
    36                           	psect	text21,global,reloc=2,class=CODE,delta=1
    37                           	psect	text22,global,reloc=2,class=CODE,delta=1
    38                           	psect	text23,global,reloc=2,class=CODE,delta=1
    39                           	psect	text24,global,reloc=2,class=CODE,delta=1
    40                           	psect	text25,global,reloc=2,class=CODE,delta=1
    41                           	psect	text26,global,reloc=2,class=CODE,delta=1
    42                           	psect	text27,global,reloc=2,class=CODE,delta=1
    43                           	psect	text28,global,reloc=2,class=CODE,delta=1
    44                           	psect	text29,global,reloc=2,class=CODE,delta=1
    45                           	psect	text30,global,reloc=2,class=CODE,delta=1
    46                           	psect	text31,global,reloc=2,class=CODE,delta=1
    47                           	psect	text32,global,reloc=2,class=CODE,delta=1
    48                           	psect	text33,global,reloc=2,class=CODE,delta=1
    49                           	psect	text34,global,reloc=2,class=CODE,delta=1
    50                           	psect	text35,global,reloc=2,class=CODE,delta=1
    51                           	psect	text36,global,reloc=2,class=CODE,delta=1
    52                           	psect	text37,global,reloc=2,class=CODE,delta=1
    53                           	psect	text38,global,reloc=2,class=CODE,delta=1
    54                           	psect	text39,global,reloc=2,class=CODE,delta=1
    55                           	psect	text40,global,reloc=2,class=CODE,delta=1
    56                           	psect	text41,global,reloc=2,class=CODE,delta=1
    57                           	psect	text42,global,reloc=2,class=CODE,delta=1
    58                           	psect	text43,global,reloc=2,class=CODE,delta=1
    59                           	psect	text44,global,reloc=2,class=CODE,delta=1
    60                           	psect	text45,global,reloc=2,class=CODE,delta=1
    61                           	psect	text46,global,reloc=2,class=CODE,delta=1
    62                           	psect	text47,global,reloc=2,class=CODE,delta=1
    63                           	psect	text48,global,reloc=2,class=CODE,delta=1
    64                           	psect	text49,global,reloc=2,class=CODE,delta=1
    65                           	psect	text50,global,reloc=2,class=CODE,delta=1
    66                           	psect	ivt0x8,global,reloc=2,class=CODE,delta=1,noexec,keep,optim=
    67                           	psect	intsave_regs,global,class=BIGRAM,space=1,delta=1,noexec
    68                           	psect	text51,global,reloc=2,class=CODE,delta=1
    69                           	psect	rparam,global,class=COMRAM,space=1,delta=1,noexec
    70  0000                     
    71                           ; Version 2.10
    72                           ; Generated 31/07/2019 GMT
    73                           ; 
    74                           ; Copyright © 2019, Microchip Technology Inc. and its subsidiaries ("Microchip")
    75                           ; All rights reserved.
    76                           ; 
    77                           ; This software is developed by Microchip Technology Inc. and its subsidiaries ("Microch
      +                          ip").
    78                           ; 
    79                           ; Redistribution and use in source and binary forms, with or without modification, are
    80                           ; permitted provided that the following conditions are met:
    81                           ; 
    82                           ;     1. Redistributions of source code must retain the above copyright notice, this lis
      +                          t of
    83                           ;        conditions and the following disclaimer.
    84                           ; 
    85                           ;     2. Redistributions in binary form must reproduce the above copyright notice, this 
      +                          list
    86                           ;        of conditions and the following disclaimer in the documentation and/or other
    87                           ;        materials provided with the distribution.
    88                           ; 
    89                           ;     3. Microchip's name may not be used to endorse or promote products derived from th
      +                          is
    90                           ;        software without specific prior written permission.
    91                           ; 
    92                           ; THIS SOFTWARE IS PROVIDED BY MICROCHIP "AS IS" AND ANY EXPRESS OR IMPLIED WARRANTIES,
    93                           ; INCLUDING, BUT NOT LIMITED TO, THE IMPLIED WARRANTIES OF MERCHANTABILITY AND FITNESS F
      +                          OR
    94                           ; PURPOSE ARE DISCLAIMED.  IN NO EVENT SHALL MICROCHIP BE LIABLE FOR ANY DIRECT, INDIREC
      +                          T,
    95                           ; INCIDENTAL, SPECIAL, EXEMPLARY, OR CONSEQUENTIAL DAMAGES (INCLUDING BUT NOT LIMITED TO
    96                           ; PROCUREMENT OF SUBSTITUTE GOODS OR SERVICES; LOSS OF USE, DATA OR PROFITS; OR BUSINESS
    97                           ; INTERRUPTION) HOWSOEVER CAUSED AND ON ANY THEORY OF LIABILITY, WHETHER IN CONTRACT, ST
      +                          RICT
    98                           ; LIABILITY, OR TORT (INCLUDING NEGLIGENCE OR OTHERWISE) ARISING IN ANY WAY OUT OF THE U
      +                          SE OF
    99                           ; THIS SOFTWARE, EVEN IF ADVISED OF THE POSSIBILITY OF SUCH DAMAGE.
   100                           ; 
   101                           ; 
   102                           ; Code-generator required, PIC18F26K83 Definitions
   103                           ; 
   104                           ; SFR Addresses
   105  0000                     
   106                           	psect	idataCOMRAM
   107  00231C                     __pidataCOMRAM:
   108                           	opt callstack 0
   109                           
   110                           ;initializer for _dest
   111  00231C  01                 	db	1
   112                           
   113                           	psect	idataBANK0
   114  0022FC                     __pidataBANK0:
   115                           	opt callstack 0
   116                           
   117                           ;initializer for _msTick
   118  0022FC  0001               	dw	1
   119  0022FE  0000               	dw	0
   120                           
   121                           ;initializer for _sender
   122  002300  EF                 	db	239
   123  002301  EE                 	db	238
   124  002302  ED                 	db	237
   125                           
   126                           ;initializer for _message
   127  002303  0032               	dw	50
   128                           
   129                           	psect	nvBANK0
   130  0000C5                     __pnvBANK0:
   131                           	opt callstack 0
   132  0000C5                     _TMR6_InterruptHandler:
   133                           	opt callstack 0
   134  0000C5                     	ds	2
   135  0000C7                     _UART1_ErrorHandler:
   136                           	opt callstack 0
   137  0000C7                     	ds	2
   138  0000C9                     _UART1_OverrunErrorHandler:
   139                           	opt callstack 0
   140  0000C9                     	ds	2
   141  0000CB                     _UART1_FramingErrorHandler:
   142                           	opt callstack 0
   143  0000CB                     	ds	2
   144  0000CD                     _UART1_TxInterruptHandler:
   145                           	opt callstack 0
   146  0000CD                     	ds	2
   147  0000CF                     _UART1_RxInterruptHandler:
   148                           	opt callstack 0
   149  0000CF                     	ds	2
   150  0000D1                     _uart1TxBufferRemaining:
   151                           	opt callstack 0
   152  0000D1                     	ds	1
   153  0000                     _RXB1D7	set	14333
   154  0000                     _RXB1D6	set	14332
   155  0000                     _RXB1D5	set	14331
   156  0000                     _RXB1D4	set	14330
   157  0000                     _RXB1D3	set	14329
   158  0000                     _RXB1D2	set	14328
   159  0000                     _RXB1D1	set	14327
   160  0000                     _RXB1D0	set	14326
   161  0000                     _RXB1DLC	set	14325
   162  0000                     _RXB1SIDH	set	14321
   163  0000                     _RXB1EIDL	set	14324
   164  0000                     _RXB1EIDH	set	14323
   165  0000                     _RXB1SIDL	set	14322
   166  0000                     _RXB1CONbits	set	14320
   167  0000                     _TXB2D7	set	14285
   168  0000                     _TXB2D6	set	14284
   169  0000                     _TXB2D5	set	14283
   170  0000                     _TXB2D4	set	14282
   171  0000                     _TXB2D3	set	14281
   172  0000                     _TXB2D2	set	14280
   173  0000                     _TXB2D1	set	14279
   174  0000                     _TXB2D0	set	14278
   175  0000                     _TXB2DLC	set	14277
   176  0000                     _TXB2SIDL	set	14274
   177  0000                     _TXB2SIDH	set	14273
   178  0000                     _TXB2EIDL	set	14276
   179  0000                     _TXB2EIDH	set	14275
   180  0000                     _TXB2CONbits	set	14272
   181  0000                     _TXB1D7	set	14301
   182  0000                     _TXB1D6	set	14300
   183  0000                     _TXB1D5	set	14299
   184  0000                     _TXB1D4	set	14298
   185  0000                     _TXB1D3	set	14297
   186  0000                     _TXB1D2	set	14296
   187  0000                     _TXB1D1	set	14295
   188  0000                     _TXB1D0	set	14294
   189  0000                     _TXB1DLC	set	14293
   190  0000                     _TXB1SIDL	set	14290
   191  0000                     _TXB1SIDH	set	14289
   192  0000                     _TXB1EIDL	set	14292
   193  0000                     _TXB1EIDH	set	14291
   194  0000                     _TXB1CONbits	set	14288
   195  0000                     _TXB0D7	set	14317
   196  0000                     _TXB0D6	set	14316
   197  0000                     _TXB0D5	set	14315
   198  0000                     _TXB0D4	set	14314
   199  0000                     _TXB0D3	set	14313
   200  0000                     _TXB0D2	set	14312
   201  0000                     _TXB0D1	set	14311
   202  0000                     _TXB0D0	set	14310
   203  0000                     _TXB0DLC	set	14309
   204  0000                     _TXB0SIDL	set	14306
   205  0000                     _TXB0SIDH	set	14305
   206  0000                     _TXB0EIDL	set	14308
   207  0000                     _TXB0EIDH	set	14307
   208  0000                     _TXB0CONbits	set	14304
   209  0000                     _BRGCON3	set	14085
   210  0000                     _BRGCON2	set	14084
   211  0000                     _BRGCON1	set	14083
   212  0000                     _RXF5SIDL	set	14261
   213  0000                     _RXF5SIDH	set	14260
   214  0000                     _RXF5EIDL	set	14263
   215  0000                     _RXF5EIDH	set	14262
   216  0000                     _RXF4SIDL	set	14257
   217  0000                     _RXF4SIDH	set	14256
   218  0000                     _RXF4EIDL	set	14259
   219  0000                     _RXF4EIDH	set	14258
   220  0000                     _RXF3SIDL	set	14253
   221  0000                     _RXF3SIDH	set	14252
   222  0000                     _RXF3EIDL	set	14255
   223  0000                     _RXF3EIDH	set	14254
   224  0000                     _RXF2SIDL	set	14249
   225  0000                     _RXF2SIDH	set	14248
   226  0000                     _RXF2EIDL	set	14251
   227  0000                     _RXF2EIDH	set	14250
   228  0000                     _RXF1SIDL	set	14245
   229  0000                     _RXF1SIDH	set	14244
   230  0000                     _RXF1EIDL	set	14247
   231  0000                     _RXF1EIDH	set	14246
   232  0000                     _RXF0SIDL	set	14241
   233  0000                     _RXF0SIDH	set	14240
   234  0000                     _RXF0EIDL	set	14243
   235  0000                     _RXF0EIDH	set	14242
   236  0000                     _RXM1SIDL	set	14269
   237  0000                     _RXM1SIDH	set	14268
   238  0000                     _RXM1EIDL	set	14271
   239  0000                     _RXM1EIDH	set	14270
   240  0000                     _RXM0SIDL	set	14265
   241  0000                     _RXM0SIDH	set	14264
   242  0000                     _RXM0EIDL	set	14267
   243  0000                     _RXM0EIDH	set	14266
   244  0000                     _CIOCON	set	14080
   245  0000                     _PMD7	set	14791
   246  0000                     _PMD6	set	14790
   247  0000                     _PMD5	set	14789
   248  0000                     _PMD4	set	14788
   249  0000                     _PMD3	set	14787
   250  0000                     _PMD2	set	14786
   251  0000                     _PMD1	set	14785
   252  0000                     _PMD0	set	14784
   253  0000                     _OSCTUNE	set	14814
   254  0000                     _OSCFRQ	set	14815
   255  0000                     _OSCEN	set	14813
   256  0000                     _OSCCON3	set	14811
   257  0000                     _OSCCON1	set	14809
   258  0000                     _PIR3bits	set	14755
   259  0000                     _PIE3bits	set	14739
   260  0000                     _PIR9bits	set	14761
   261  0000                     _PIE9bits	set	14745
   262  0000                     _PIE5bits	set	14741
   263  0000                     _PIR5bits	set	14757
   264  0000                     _U1RXPPS	set	15079
   265  0000                     _RC6PPS	set	14870
   266  0000                     _CANRXPPS	set	15085
   267  0000                     _RB2PPS	set	14858
   268  0000                     _INLVLE	set	14980
   269  0000                     _INLVLC	set	14948
   270  0000                     _INLVLB	set	14932
   271  0000                     _INLVLA	set	14916
   272  0000                     _SLRCONC	set	14947
   273  0000                     _SLRCONB	set	14931
   274  0000                     _SLRCONA	set	14915
   275  0000                     _ODCONC	set	14946
   276  0000                     _ODCONB	set	14930
   277  0000                     _ODCONA	set	14914
   278  0000                     _WPUC	set	14945
   279  0000                     _WPUA	set	14913
   280  0000                     _WPUB	set	14929
   281  0000                     _WPUE	set	14977
   282  0000                     _ANSELA	set	14912
   283  0000                     _ANSELB	set	14928
   284  0000                     _ANSELC	set	14944
   285  0000                     _U1RXB	set	15848
   286  0000                     _U1TXB	set	15850
   287  0000                     _U1ERRIRbits	set	15865
   288  0000                     _U1ERRIE	set	15866
   289  0000                     _U1ERRIR	set	15865
   290  0000                     _U1UIR	set	15864
   291  0000                     _U1FIFO	set	15863
   292  0000                     _U1BRGH	set	15862
   293  0000                     _U1BRGL	set	15861
   294  0000                     _U1CON2	set	15860
   295  0000                     _U1CON1	set	15859
   296  0000                     _U1CON0	set	15858
   297  0000                     _U1P3H	set	15857
   298  0000                     _U1P3L	set	15856
   299  0000                     _U1P2H	set	15855
   300  0000                     _U1P2L	set	15854
   301  0000                     _U1P1H	set	15853
   302  0000                     _U1P1L	set	15852
   303  0000                     _PORTCbits	set	16332
   304  0000                     _PCON0	set	16368
   305  0000                     _LATAbits	set	16314
   306  0000                     _PR6	set	16275
   307  0000                     _TMR6	set	16274
   308  0000                     _T6CONbits	set	16276
   309  0000                     _T6RSTbits	set	16279
   310  0000                     _T6HLTbits	set	16277
   311  0000                     _T6CON	set	16276
   312  0000                     _T6TMR	set	16274
   313  0000                     _T6PR	set	16275
   314  0000                     _T6RST	set	16279
   315  0000                     _T6HLT	set	16277
   316  0000                     _T6CLKCON	set	16278
   317  0000                     _TRISC	set	16324
   318  0000                     _TRISB	set	16323
   319  0000                     _TRISA	set	16322
   320  0000                     _LATC	set	16316
   321  0000                     _LATB	set	16315
   322  0000                     _LATA	set	16314
   323  0000                     _INTCON0bits	set	16338
   324  0000                     _COMSTATbits	set	16272
   325  0000                     _RXB0D7	set	16269
   326  0000                     _RXB0D6	set	16268
   327  0000                     _RXB0D5	set	16267
   328  0000                     _RXB0D4	set	16266
   329  0000                     _RXB0D3	set	16265
   330  0000                     _RXB0D2	set	16264
   331  0000                     _RXB0D1	set	16263
   332  0000                     _RXB0D0	set	16262
   333  0000                     _RXB0DLC	set	16261
   334  0000                     _RXB0SIDH	set	16257
   335  0000                     _RXB0EIDL	set	16260
   336  0000                     _RXB0EIDH	set	16259
   337  0000                     _RXB0SIDL	set	16258
   338  0000                     _RXB0CONbits	set	16256
   339  0000                     _ECANCON	set	16273
   340  0000                     _CANSTAT	set	16270
   341  0000                     _CANCON	set	16271
   342                           
   343                           ; #config settings
   344  0000                     
   345                           	psect	cinit
   346  001E24                     __pcinit:
   347                           	opt callstack 0
   348  001E24                     start_initialization:
   349                           	opt callstack 0
   350  001E24                     __initialization:
   351                           	opt callstack 0
   352                           
   353                           ; Initialize objects allocated to BANK0 (9 bytes)
   354                           ; load TBLPTR registers with __pidataBANK0
   355  001E24  0EFC               	movlw	low __pidataBANK0
   356  001E26  6EF6               	movwf	tblptrl,c
   357  001E28  0E22               	movlw	high __pidataBANK0
   358  001E2A  6EF7               	movwf	tblptrh,c
   359  001E2C  0E00               	movlw	low (__pidataBANK0 shr (0+16))
   360  001E2E  6EF8               	movwf	tblptru,c
   361  001E30  EE00  F0D2         	lfsr	0,__pdataBANK0
   362  001E34  EE10 F009          	lfsr	1,9
   363  001E38                     copy_data0:
   364  001E38  0009               	tblrd		*+
   365  001E3A  006F FFD7 FFEE     	movff	tablat,postinc0
   366  001E40  50E5               	movf	postdec1,w,c
   367  001E42  50E1               	movf	fsr1l,w,c
   368  001E44  E1F9               	bnz	copy_data0
   369                           
   370                           ; Initialize objects allocated to COMRAM (1 bytes)
   371                           ; load TBLPTR registers with __pidataCOMRAM
   372  001E46  0E1C               	movlw	low __pidataCOMRAM
   373  001E48  6EF6               	movwf	tblptrl,c
   374  001E4A  0E23               	movlw	high __pidataCOMRAM
   375  001E4C  6EF7               	movwf	tblptrh,c
   376  001E4E  0E00               	movlw	low (__pidataCOMRAM shr (0+16))
   377  001E50  6EF8               	movwf	tblptru,c
   378  001E52  0009               	tblrd		*+	;fetch initializer
   379  001E54  006F FFD4  F05F    	movff	tablat,__pdataCOMRAM
   380                           
   381                           ; Clear objects allocated to BANK1 (40 bytes)
   382  001E5A  EE00  F100         	lfsr	0,__pbssBANK1
   383  001E5E  0E28               	movlw	40
   384  001E60                     clear_0:
   385  001E60  6AEE               	clrf	postinc0,c
   386  001E62  06E8               	decf	wreg,f,c
   387  001E64  E1FD               	bnz	clear_0
   388                           
   389                           ; Clear objects allocated to BANK0 (101 bytes)
   390  001E66  EE00  F060         	lfsr	0,__pbssBANK0
   391  001E6A  0E65               	movlw	101
   392  001E6C                     clear_1:
   393  001E6C  6AEE               	clrf	postinc0,c
   394  001E6E  06E8               	decf	wreg,f,c
   395  001E70  E1FD               	bnz	clear_1
   396                           
   397                           ; Clear objects allocated to COMRAM (6 bytes)
   398  001E72  6A5E               	clrf	(__pbssCOMRAM+5)& (0+255),c
   399  001E74  6A5D               	clrf	(__pbssCOMRAM+4)& (0+255),c
   400  001E76  6A5C               	clrf	(__pbssCOMRAM+3)& (0+255),c
   401  001E78  6A5B               	clrf	(__pbssCOMRAM+2)& (0+255),c
   402  001E7A  6A5A               	clrf	(__pbssCOMRAM+1)& (0+255),c
   403  001E7C  6A59               	clrf	__pbssCOMRAM& (0+255),c
   404                           
   405                           ;
   406                           ; Setup IVTBASE
   407                           ;
   408  001E7E  0E08               	movlw	(ivt0x8_base shr 0)& (0+255)
   409  001E80  6ED5               	movwf	213,c
   410  001E82  0E00               	movlw	(ivt0x8_base shr (0+8))& (0+255)
   411  001E84  6ED6               	movwf	214,c
   412  001E86  0E00               	movlw	(ivt0x8_base shr (0+16))& (0+255)
   413  001E88  6ED7               	movwf	215,c
   414  001E8A                     end_of_initialization:
   415                           	opt callstack 0
   416  001E8A                     __end_of__initialization:
   417                           	opt callstack 0
   418  001E8A  0E00               	movlw	low (__Lmediumconst shr (0+16))
   419  001E8C  6EF8               	movwf	tblptru,c
   420  001E8E  0100               	movlb	0
   421  001E90  EFB1  F006         	goto	_main	;jump to C main() function
   422                           
   423                           	psect	bssCOMRAM
   424  000059                     __pbssCOMRAM:
   425                           	opt callstack 0
   426  000059                     _uart1RxLastError:
   427                           	opt callstack 0
   428  000059                     	ds	1
   429  00005A                     _uart1RxCount:
   430                           	opt callstack 0
   431  00005A                     	ds	1
   432  00005B                     _uart1RxTail:
   433                           	opt callstack 0
   434  00005B                     	ds	1
   435  00005C                     _uart1RxHead:
   436                           	opt callstack 0
   437  00005C                     	ds	1
   438  00005D                     _uart1TxTail:
   439                           	opt callstack 0
   440  00005D                     	ds	1
   441  00005E                     _uart1TxHead:
   442                           	opt callstack 0
   443  00005E                     	ds	1
   444                           
   445                           	psect	dataCOMRAM
   446  00005F                     __pdataCOMRAM:
   447                           	opt callstack 0
   448  00005F                     _dest:
   449                           	opt callstack 0
   450  00005F                     	ds	1
   451                           
   452                           	psect	bssBANK0
   453  000060                     __pbssBANK0:
   454                           	opt callstack 0
   455  000060                     atexAwaitingData@F22982:
   456                           	opt callstack 0
   457  000060                     	ds	10
   458  00006A                     _uart1RxStatusBuffer:
   459                           	opt callstack 0
   460  00006A                     	ds	8
   461  000072                     _uart1RxBuffer:
   462                           	opt callstack 0
   463  000072                     	ds	8
   464  00007A                     _uart1TxBuffer:
   465                           	opt callstack 0
   466  00007A                     	ds	8
   467  000082                     atexPerformChecks@atexLastGood:
   468                           	opt callstack 0
   469  000082                     	ds	4
   470  000086                     _failedAquired:
   471                           	opt callstack 0
   472  000086                     	ds	4
   473  00008A                     main@LEDtimer:
   474                           	opt callstack 0
   475  00008A                     	ds	4
   476  00008E                     _powerPermitUnsafeTime:
   477                           	opt callstack 0
   478  00008E                     	ds	4
   479  000092                     _travelFlags:
   480                           	opt callstack 0
   481  000092                     	ds	1
   482  000093                     _travelFlagsAtexVerifyPressure:
   483                           	opt callstack 0
   484  000093                     	ds	1
   485  000094                     _travelFlagsAtexVerifyTimeStamps:
   486                           	opt callstack 0
   487  000094                     	ds	1
   488  000095                     _travelFlagsAtexAquire:
   489                           	opt callstack 0
   490  000095                     	ds	1
   491  000096                     _travelFLagsAtexAwaitingData:
   492                           	opt callstack 0
   493  000096                     	ds	1
   494  000097                     _eAtexPerformChecks:
   495                           	opt callstack 0
   496  000097                     	ds	1
   497  000098                     _eAtexVerifyPressures:
   498                           	opt callstack 0
   499  000098                     	ds	1
   500  000099                     _eatexVerifyTimeStamps:
   501                           	opt callstack 0
   502  000099                     	ds	1
   503  00009A                     _eAtexVerifyStat:
   504                           	opt callstack 0
   505  00009A                     	ds	1
   506  00009B                     _eAtexAquire:
   507                           	opt callstack 0
   508  00009B                     	ds	1
   509  00009C                     _eAtexData:
   510                           	opt callstack 0
   511  00009C                     	ds	1
   512  00009D                     _atexAquireGrp:
   513                           	opt callstack 0
   514  00009D                     	ds	40
   515                           
   516                           	psect	dataBANK0
   517  0000D2                     __pdataBANK0:
   518                           	opt callstack 0
   519  0000D2                     _msTick:
   520                           	opt callstack 0
   521  0000D2                     	ds	4
   522  0000D6                     _sender:
   523                           	opt callstack 0
   524  0000D6                     	ds	3
   525  0000D9                     _message:
   526                           	opt callstack 0
   527  0000D9                     	ds	2
   528                           
   529                           	psect	bssBANK1
   530  000100                     __pbssBANK1:
   531                           	opt callstack 0
   532  000100                     _atexAwaitingDataGrp:
   533                           	opt callstack 0
   534  000100                     	ds	40
   535                           
   536                           	psect	cstackCOMRAM
   537  000001                     __pcstackCOMRAM:
   538                           	opt callstack 0
   539  000001                     ??_notifyAtexUnsafe:
   540  000001                     ??_ECAN_Initialize:
   541  000001                     ?_Can_rxCreateArrayFilterTenBit:
   542                           	opt callstack 0
   543  000001                     ?_Can_rxCreateArrayMaskTenBit:
   544                           	opt callstack 0
   545  000001                     ?_convertReg2ExtendedCANid:
   546                           	opt callstack 0
   547  000001                     ?_convertReg2StandardCANid:
   548                           	opt callstack 0
   549  000001                     ?_msTickGet:
   550                           	opt callstack 0
   551  000001                     ?_Can_rxJoin:
   552                           	opt callstack 0
   553  000001                     convertReg2ExtendedCANid@tempRXBn_EIDL:
   554                           	opt callstack 0
   555  000001                     convertReg2StandardCANid@tempRXBn_SIDL:
   556                           	opt callstack 0
   557  000001                     Can_rxJoin@destination:
   558                           	opt callstack 0
   559  000001                     UART1_SetFramingErrorHandler@interruptHandler:
   560                           	opt callstack 0
   561  000001                     UART1_SetOverrunErrorHandler@interruptHandler:
   562                           	opt callstack 0
   563  000001                     UART1_SetErrorHandler@interruptHandler:
   564                           	opt callstack 0
   565  000001                     UART1_SetRxInterruptHandler@InterruptHandler:
   566                           	opt callstack 0
   567  000001                     UART1_SetTxInterruptHandler@InterruptHandler:
   568                           	opt callstack 0
   569  000001                     TMR6_SetInterruptHandler@InterruptHandler:
   570                           	opt callstack 0
   571  000001                     Can_rxCreateArrayFilter@arr:
   572                           	opt callstack 0
   573  000001                     Can_rxCreateArrayFilterTenBit@arr:
   574                           	opt callstack 0
   575  000001                     Can_rxCreateArrayMask@arr:
   576                           	opt callstack 0
   577  000001                     Can_rxCreateArrayMaskTenBit@arr:
   578                           	opt callstack 0
   579  000001                     memcpy@d1:
   580                           	opt callstack 0
   581  000001                     memset@dest:
   582                           	opt callstack 0
   583  000001                     CAN_filterToReg@filter:
   584                           	opt callstack 0
   585  000001                     CAN_maskToReg@filter:
   586                           	opt callstack 0
   587                           
   588                           ; 4 bytes @ 0x0
   589  000001                     	ds	1
   590  000002                     ??_atexVerifyStat:
   591  000002                     convertReg2ExtendedCANid@tempRXBn_SIDH:
   592                           	opt callstack 0
   593  000002                     Can_rxJoin@messageID:
   594                           	opt callstack 0
   595                           
   596                           ; 2 bytes @ 0x1
   597  000002                     	ds	1
   598  000003                     convertReg2ExtendedCANid@tempRXBn_SIDL:
   599                           	opt callstack 0
   600  000003                     Can_rxCreateArrayFilter@num:
   601                           	opt callstack 0
   602  000003                     Can_rxCreateArrayMask@num:
   603                           	opt callstack 0
   604  000003                     Can_rxCreateArrayFilterTenBit@num:
   605                           	opt callstack 0
   606  000003                     Can_rxCreateArrayMaskTenBit@num:
   607                           	opt callstack 0
   608  000003                     memcpy@s1:
   609                           	opt callstack 0
   610  000003                     memset@c:
   611                           	opt callstack 0
   612                           
   613                           ; 2 bytes @ 0x2
   614  000003                     	ds	1
   615  000004                     Can_rxJoin@seq:
   616                           	opt callstack 0
   617  000004                     Can_rxCreateArrayFilter@filterRet:
   618                           	opt callstack 0
   619  000004                     Can_rxCreateArrayMask@filterRet:
   620                           	opt callstack 0
   621  000004                     atexVerifyStat@returnVal:
   622                           	opt callstack 0
   623                           
   624                           ; 1 bytes @ 0x3
   625  000004                     	ds	1
   626  000005                     ??_convertReg2ExtendedCANid:
   627  000005                     ??_convertReg2StandardCANid:
   628  000005                     ??_CAN_filterToReg:
   629  000005                     ??_CAN_maskToReg:
   630  000005                     Can_rxJoin@motorReel:
   631                           	opt callstack 0
   632  000005                     Can_rxCreateArrayFilter@i:
   633                           	opt callstack 0
   634  000005                     Can_rxCreateArrayMask@i:
   635                           	opt callstack 0
   636  000005                     atexVerifyStat@avsState:
   637                           	opt callstack 0
   638  000005                     Can_rxCreateArrayFilterTenBit@filterRet:
   639                           	opt callstack 0
   640  000005                     Can_rxCreateArrayMaskTenBit@filterRet:
   641                           	opt callstack 0
   642  000005                     memcpy@n:
   643                           	opt callstack 0
   644  000005                     memset@n:
   645                           	opt callstack 0
   646  000005                     msTickGet@tempTick:
   647                           	opt callstack 0
   648                           
   649                           ; 4 bytes @ 0x4
   650  000005                     	ds	1
   651  000006                     ??_Can_rxJoin:
   652  000006                     atexVerifyStat@i:
   653                           	opt callstack 0
   654                           
   655                           ; 1 bytes @ 0x5
   656  000006                     	ds	1
   657  000007                     ??_memset:
   658  000007                     convertReg2StandardCANid@tempRXBn_SIDH:
   659                           	opt callstack 0
   660  000007                     Can_rxCreateArrayFilterTenBit@i:
   661                           	opt callstack 0
   662  000007                     Can_rxCreateArrayMaskTenBit@i:
   663                           	opt callstack 0
   664  000007                     memcpy@d:
   665                           	opt callstack 0
   666                           
   667                           ; 2 bytes @ 0x6
   668  000007                     	ds	1
   669  000008                     convertReg2StandardCANid@returnValue:
   670                           	opt callstack 0
   671                           
   672                           ; 4 bytes @ 0x7
   673  000008                     	ds	1
   674  000009                     ??_atexPowerPermit:
   675  000009                     convertReg2ExtendedCANid@tempRXBn_EIDH:
   676                           	opt callstack 0
   677  000009                     memcpy@s:
   678                           	opt callstack 0
   679  000009                     memset@k:
   680                           	opt callstack 0
   681                           
   682                           ; 2 bytes @ 0x8
   683  000009                     	ds	1
   684  00000A                     Can_rxJoin@sender:
   685                           	opt callstack 0
   686  00000A                     convertReg2ExtendedCANid@returnValue:
   687                           	opt callstack 0
   688  00000A                     atexPowerPermit@LEDtimer:
   689                           	opt callstack 0
   690                           
   691                           ; 4 bytes @ 0x9
   692  00000A                     	ds	1
   693  00000B                     memcpy@tmp:
   694                           	opt callstack 0
   695  00000B                     memset@s:
   696                           	opt callstack 0
   697  00000B                     Can_rxJoin@mask:
   698                           	opt callstack 0
   699                           
   700                           ; 4 bytes @ 0xA
   701  00000B                     	ds	1
   702  00000C                     convertReg2StandardCANid@ConvertedID:
   703                           	opt callstack 0
   704                           
   705                           ; 4 bytes @ 0xB
   706  00000C                     	ds	1
   707  00000D                     ??_atexAquire:
   708  00000D                     ??_atexVerifyTimeStamps:
   709  00000D                     atexAwaitingData@atexMsg:
   710                           	opt callstack 0
   711                           
   712                           ; 2 bytes @ 0xC
   713  00000D                     	ds	1
   714  00000E                     convertReg2ExtendedCANid@CAN_standardLo_ID_lo2bits:
   715                           	opt callstack 0
   716  00000E                     atexPowerPermit@timeNow:
   717                           	opt callstack 0
   718                           
   719                           ; 4 bytes @ 0xD
   720  00000E                     	ds	1
   721  00000F                     ??_atexAwaitingData:
   722  00000F                     convertReg2ExtendedCANid@CAN_standardLo_ID_hi3bits:
   723                           	opt callstack 0
   724  00000F                     Can_rxJoin@shiftDump:
   725                           	opt callstack 0
   726                           
   727                           ; 4 bytes @ 0xE
   728  00000F                     	ds	1
   729  000010                     convertReg2ExtendedCANid@ConvertedID:
   730                           	opt callstack 0
   731                           
   732                           ; 4 bytes @ 0xF
   733  000010                     	ds	1
   734  000011                     atexAquire@returnVal:
   735                           	opt callstack 0
   736  000011                     atexVerifyTimeStamps@currentTimeStamp:
   737                           	opt callstack 0
   738                           
   739                           ; 4 bytes @ 0x10
   740  000011                     	ds	1
   741  000012                     atexAquire@aaState:
   742                           	opt callstack 0
   743                           
   744                           ; 1 bytes @ 0x11
   745  000012                     	ds	1
   746  000013                     atexAwaitingData@localConsec:
   747                           	opt callstack 0
   748  000013                     atexAquire@i:
   749                           	opt callstack 0
   750  000013                     Can_setFilters@msgID:
   751                           	opt callstack 0
   752                           
   753                           ; 2 bytes @ 0x12
   754  000013                     	ds	1
   755  000014                     atexAwaitingData@i:
   756                           	opt callstack 0
   757  000014                     CAN_receive@tempCanMsg:
   758                           	opt callstack 0
   759                           
   760                           ; 2 bytes @ 0x13
   761  000014                     	ds	1
   762  000015                     atexAwaitingData@adState:
   763                           	opt callstack 0
   764  000015                     atexVerifyTimeStamps@returnVal:
   765                           	opt callstack 0
   766  000015                     Can_setFilters@msgSize:
   767                           	opt callstack 0
   768                           
   769                           ; 2 bytes @ 0x14
   770  000015                     	ds	1
   771  000016                     CAN_receive@returnValue:
   772                           	opt callstack 0
   773  000016                     atexAwaitingData@arrayMod:
   774                           	opt callstack 0
   775  000016                     atexVerifyTimeStamps@minTimeStamp:
   776                           	opt callstack 0
   777                           
   778                           ; 4 bytes @ 0x15
   779  000016                     	ds	1
   780  000017                     ??_notifyAtexUnsafeWithOverride:
   781  000017                     Can_setFilters@send:
   782                           	opt callstack 0
   783  000017                     atexAwaitingData@localPress:
   784                           	opt callstack 0
   785                           
   786                           ; 10 bytes @ 0x16
   787  000017                     	ds	1
   788  000018                     notifyAtexUnsafeWithOverride@ledTimer:
   789                           	opt callstack 0
   790                           
   791                           ; 4 bytes @ 0x17
   792  000018                     	ds	1
   793  000019                     Can_setFilters@sendSize:
   794                           	opt callstack 0
   795                           
   796                           ; 1 bytes @ 0x18
   797  000019                     	ds	1
   798  00001A                     Can_setFilters@dest:
   799                           	opt callstack 0
   800  00001A                     atexVerifyTimeStamps@maxTimeStamp:
   801                           	opt callstack 0
   802                           
   803                           ; 4 bytes @ 0x19
   804  00001A                     	ds	2
   805  00001C                     Can_setFilters@destSize:
   806                           	opt callstack 0
   807  00001C                     notifyAtexUnsafeWithOverride@timeNow:
   808                           	opt callstack 0
   809                           
   810                           ; 4 bytes @ 0x1B
   811  00001C                     	ds	1
   812  00001D                     Can_setFilters@seq:
   813                           	opt callstack 0
   814                           
   815                           ; 1 bytes @ 0x1C
   816  00001D                     	ds	1
   817  00001E                     Can_setFilters@motorReel:
   818                           	opt callstack 0
   819  00001E                     atexVerifyTimeStamps@i_1847:
   820                           	opt callstack 0
   821                           
   822                           ; 1 bytes @ 0x1D
   823  00001E                     	ds	1
   824  00001F                     atexVerifyTimeStamps@avtState:
   825                           	opt callstack 0
   826  00001F                     Can_setFilters@masterFilt:
   827                           	opt callstack 0
   828                           
   829                           ; 4 bytes @ 0x1E
   830  00001F                     	ds	1
   831  000020                     atexVerifyTimeStamps@i:
   832                           	opt callstack 0
   833  000020                     notifyAtexUnsafeWithOverride@atexDump:
   834                           	opt callstack 0
   835                           
   836                           ; 14 bytes @ 0x1F
   837  000020                     	ds	1
   838  000021                     atexVerifyTimeStamps@i_1845:
   839                           	opt callstack 0
   840                           
   841                           ; 1 bytes @ 0x20
   842  000021                     	ds	2
   843  000023                     Can_setFilters@masterMask:
   844                           	opt callstack 0
   845                           
   846                           ; 4 bytes @ 0x22
   847  000023                     	ds	4
   848  000027                     Can_setFilters@msgFilt:
   849                           	opt callstack 0
   850                           
   851                           ; 2 bytes @ 0x26
   852  000027                     	ds	2
   853  000029                     Can_setFilters@destFilt:
   854                           	opt callstack 0
   855                           
   856                           ; 1 bytes @ 0x28
   857  000029                     	ds	1
   858  00002A                     Can_setFilters@sendFilt:
   859                           	opt callstack 0
   860                           
   861                           ; 1 bytes @ 0x29
   862  00002A                     	ds	1
   863  00002B                     Can_setFilters@msgMask:
   864                           	opt callstack 0
   865                           
   866                           ; 2 bytes @ 0x2A
   867  00002B                     	ds	2
   868  00002D                     Can_setFilters@destMask:
   869                           	opt callstack 0
   870                           
   871                           ; 1 bytes @ 0x2C
   872  00002D                     	ds	1
   873  00002E                     ??_atexVerifyPressures:
   874  00002E                     Can_setFilters@sendMask:
   875                           	opt callstack 0
   876                           
   877                           ; 1 bytes @ 0x2D
   878  00002E                     	ds	1
   879  00002F                     
   880                           ; 1 bytes @ 0x2E
   881  00002F                     	ds	6
   882  000035                     atexVerifyPressures@returnVal:
   883                           	opt callstack 0
   884                           
   885                           ; 1 bytes @ 0x34
   886  000035                     	ds	1
   887  000036                     atexVerifyPressures@minPressure:
   888                           	opt callstack 0
   889                           
   890                           ; 1 bytes @ 0x35
   891  000036                     	ds	1
   892  000037                     atexVerifyPressures@maxPressure:
   893                           	opt callstack 0
   894                           
   895                           ; 1 bytes @ 0x36
   896  000037                     	ds	1
   897  000038                     atexVerifyPressures@minPressure_1859:
   898                           	opt callstack 0
   899                           
   900                           ; 1 bytes @ 0x37
   901  000038                     	ds	1
   902  000039                     atexVerifyPressures@maxPressure_1860:
   903                           	opt callstack 0
   904                           
   905                           ; 1 bytes @ 0x38
   906  000039                     	ds	1
   907  00003A                     atexVerifyPressures@i:
   908                           	opt callstack 0
   909                           
   910                           ; 1 bytes @ 0x39
   911  00003A                     	ds	1
   912  00003B                     atexVerifyPressures@i_1857:
   913                           	opt callstack 0
   914                           
   915                           ; 1 bytes @ 0x3A
   916  00003B                     	ds	1
   917  00003C                     atexVerifyPressures@i_1858:
   918                           	opt callstack 0
   919                           
   920                           ; 1 bytes @ 0x3B
   921  00003C                     	ds	1
   922  00003D                     atexVerifyPressures@i_1862:
   923                           	opt callstack 0
   924                           
   925                           ; 1 bytes @ 0x3C
   926  00003D                     	ds	1
   927  00003E                     atexVerifyPressures@i_1863:
   928                           	opt callstack 0
   929                           
   930                           ; 1 bytes @ 0x3D
   931  00003E                     	ds	1
   932  00003F                     atexVerifyPressures@avState:
   933                           	opt callstack 0
   934                           
   935                           ; 1 bytes @ 0x3E
   936  00003F                     	ds	1
   937  000040                     atexVerifyPressures@i_1853:
   938                           	opt callstack 0
   939                           
   940                           ; 1 bytes @ 0x3F
   941  000040                     	ds	1
   942  000041                     ??_atexPerformChecks:
   943                           
   944                           ; 1 bytes @ 0x40
   945  000041                     	ds	4
   946  000045                     atexPerformChecks@apState:
   947                           	opt callstack 0
   948                           
   949                           ; 1 bytes @ 0x44
   950  000045                     	ds	1
   951  000046                     ??_main:
   952                           
   953                           ; 1 bytes @ 0x45
   954  000046                     	ds	1
   955  000047                     main@timeNow:
   956                           	opt callstack 0
   957                           
   958                           ; 4 bytes @ 0x46
   959  000047                     	ds	4
   960  00004B                     main@atexPressure:
   961                           	opt callstack 0
   962                           
   963                           ; 14 bytes @ 0x4A
   964  00004B                     	ds	14
   965                           
   966 ;;
   967 ;;Main: autosize = 0, tempsize = 1, incstack = 0, save=0
   968 ;;
   969 ;; *************** function _main *****************
   970 ;; Defined at:
   971 ;;		line 84 in file "main.c"
   972 ;; Parameters:    Size  Location     Type
   973 ;;		None
   974 ;; Auto vars:     Size  Location     Type
   975 ;;  atexPressure   14   74[COMRAM] struct .
   976 ;;  timeNow         4   70[COMRAM] unsigned long 
   977 ;; Return value:  Size  Location     Type
   978 ;;                  1    wreg      void 
   979 ;; Registers used:
   980 ;;		wreg, fsr1l, fsr1h, fsr2l, fsr2h, status,2, status,0, prodl, prodh, cstack
   981 ;; Tracked objects:
   982 ;;		On entry : 0/0
   983 ;;		On exit  : 0/0
   984 ;;		Unchanged: 0/0
   985 ;; Data sizes:     COMRAM   BANK0   BANK1   BANK2   BANK3   BANK4   BANK5   BANK6   BANK7   BANK8   BANK9  BANK10  BANK1
      +1  BANK12  BANK13  BANK14  BANK15
   986 ;;      Params:         0       0       0       0       0       0       0       0       0       0       0       0       
      +0       0       0       0       0
   987 ;;      Locals:        18       0       0       0       0       0       0       0       0       0       0       0       
      +0       0       0       0       0
   988 ;;      Temps:          1       0       0       0       0       0       0       0       0       0       0       0       
      +0       0       0       0       0
   989 ;;      Totals:        19       0       0       0       0       0       0       0       0       0       0       0       
      +0       0       0       0       0
   990 ;;Total ram usage:       19 bytes
   991 ;; Hardware stack levels required when called:   10
   992 ;; This function calls:
   993 ;;		_CAN_receive
   994 ;;		_Can_setFiltersSimple
   995 ;;		_SYSTEM_Initialize
   996 ;;		_TMR6_SetInterruptHandler
   997 ;;		_atexAwaitingData
   998 ;;		_atexPerformChecks
   999 ;;		_atexPowerPermit
  1000 ;;		_msTickGet
  1001 ;;		_notifyAtexUnsafe
  1002 ;; This function is called by:
  1003 ;;		Startup code after reset
  1004 ;; This function uses a non-reentrant model
  1005 ;;
  1006                           
  1007                           	psect	text0
  1008  000D62                     __ptext0:
  1009                           	opt callstack 0
  1010  000D62                     _main:
  1011                           	opt callstack 21
  1012  000D62                     
  1013                           ;main.c: 86:     uCAN_MSG atexPressure;;main.c: 92:     SYSTEM_Initialize();
  1014  000D62  EC31  F011         	call	_SYSTEM_Initialize	;wreg free
  1015  000D66  8ABA               	bsf	186,5,c	;volatile
  1016  000D68                     
  1017                           ;main.c: 100:     Can_setFiltersSimple();
  1018  000D68  ECAE  F010         	call	_Can_setFiltersSimple	;wreg free
  1019  000D6C                     
  1020                           ;main.c: 103:     TMR6_SetInterruptHandler(&IRQ_TIM6);
  1021  000D6C  0E98               	movlw	low _IRQ_TIM6
  1022  000D6E  6E01               	movwf	TMR6_SetInterruptHandler@InterruptHandler^0,c
  1023  000D70  0E22               	movlw	high _IRQ_TIM6
  1024  000D72  6E02               	movwf	(TMR6_SetInterruptHandler@InterruptHandler+1)^0,c
  1025  000D74  EC77  F011         	call	_TMR6_SetInterruptHandler	;wreg free
  1026  000D78                     
  1027                           ;main.c: 112:     if((PCON0 & 0x10) == 0)
  1028  000D78  B8F0               	btfsc	240,4,c	;volatile
  1029  000D7A  EFC1  F006         	goto	u2451
  1030  000D7E  EFC3  F006         	goto	u2450
  1031  000D82                     u2451:
  1032  000D82  EFC6  F006         	goto	l737
  1033  000D86                     u2450:
  1034  000D86                     
  1035                           ;main.c: 113:     {;main.c: 114:         PCON0 |= 0x10;
  1036  000D86  88F0               	bsf	240,4,c	;volatile
  1037  000D88                     
  1038                           ;main.c: 115:         notifyAtexUnsafe();
  1039  000D88  EC01  F00E         	call	_notifyAtexUnsafe	;wreg free
  1040  000D8C                     l737:
  1041  000D8C  0004               	clrwdt		;# 
  1042  000D8E                     
  1043                           ;main.c: 131:     static uint32_t LEDtimer= 0;;main.c: 138:     (INTCON0bits.GIE = 1);
  1044  000D8E  8ED2               	bsf	210,7,c	;volatile
  1045  000D90                     
  1046                           ;main.c: 142:     uint32_t timeNow = msTickGet();
  1047  000D90  EC18  F010         	call	_msTickGet	;wreg free
  1048  000D94  0060  F004  F047   	movff	?_msTickGet,main@timeNow
  1049  000D9A  0060  F008  F048   	movff	?_msTickGet+1,main@timeNow+1
  1050  000DA0  0060  F00C  F049   	movff	?_msTickGet+2,main@timeNow+2
  1051  000DA6  0060  F010  F04A   	movff	?_msTickGet+3,main@timeNow+3
  1052  000DAC                     
  1053                           ;main.c: 143:     LEDtimer = timeNow + 3000;
  1054  000DAC  0EB8               	movlw	184
  1055  000DAE  2447               	addwf	main@timeNow^0,w,c
  1056  000DB0  0100               	movlb	0	; () banked
  1057  000DB2  6F8A               	movwf	main@LEDtimer& (0+255),b
  1058  000DB4  0E0B               	movlw	11
  1059  000DB6  2048               	addwfc	(main@timeNow+1)^0,w,c
  1060  000DB8  6F8B               	movwf	(main@LEDtimer+1)& (0+255),b
  1061  000DBA  0E00               	movlw	0
  1062  000DBC  2049               	addwfc	(main@timeNow+2)^0,w,c
  1063  000DBE  6F8C               	movwf	(main@LEDtimer+2)& (0+255),b
  1064  000DC0  0E00               	movlw	0
  1065  000DC2  204A               	addwfc	(main@timeNow+3)^0,w,c
  1066  000DC4  6F8D               	movwf	(main@LEDtimer+3)& (0+255),b
  1067                           
  1068                           ;main.c: 146:     while(LEDtimer>timeNow)
  1069  000DC6  EF05  F007         	goto	l4378
  1070  000DCA                     l741:
  1071                           
  1072                           ; BSR set to: 0
  1073  000DCA  0004               	clrwdt		;# 
  1074  000DCC                     
  1075                           ;main.c: 149:         timeNow = msTickGet();
  1076  000DCC  EC18  F010         	call	_msTickGet	;wreg free
  1077  000DD0  0060  F004  F047   	movff	?_msTickGet,main@timeNow
  1078  000DD6  0060  F008  F048   	movff	?_msTickGet+1,main@timeNow+1
  1079  000DDC  0060  F00C  F049   	movff	?_msTickGet+2,main@timeNow+2
  1080  000DE2  0060  F010  F04A   	movff	?_msTickGet+3,main@timeNow+3
  1081  000DE8  B8BA               	btfsc	186,4,c	;volatile
  1082  000DEA  EFF9  F006         	goto	u2461
  1083  000DEE  EFFC  F006         	goto	u2460
  1084  000DF2                     u2461:
  1085  000DF2  0E01               	movlw	1
  1086  000DF4  EFFD  F006         	goto	u2466
  1087  000DF8                     u2460:
  1088  000DF8  0E00               	movlw	0
  1089  000DFA                     u2466:
  1090  000DFA  0AFF               	xorlw	255
  1091  000DFC  6E46               	movwf	??_main^0,c
  1092  000DFE  3A46               	swapf	??_main^0,f,c
  1093  000E00  50BA               	movf	186,w,c	;volatile
  1094  000E02  1846               	xorwf	??_main^0,w,c
  1095  000E04  0BEF               	andlw	-17
  1096  000E06  1846               	xorwf	??_main^0,w,c
  1097  000E08  6EBA               	movwf	186,c	;volatile
  1098  000E0A                     l4378:
  1099                           
  1100                           ;main.c: 146:     while(LEDtimer>timeNow)
  1101  000E0A  0100               	movlb	0	; () banked
  1102  000E0C  518A               	movf	main@LEDtimer& (0+255),w,b
  1103  000E0E  5C47               	subwf	main@timeNow^0,w,c
  1104  000E10  518B               	movf	(main@LEDtimer+1)& (0+255),w,b
  1105  000E12  5848               	subwfb	(main@timeNow+1)^0,w,c
  1106  000E14  518C               	movf	(main@LEDtimer+2)& (0+255),w,b
  1107  000E16  5849               	subwfb	(main@timeNow+2)^0,w,c
  1108  000E18  518D               	movf	(main@LEDtimer+3)& (0+255),w,b
  1109  000E1A  584A               	subwfb	(main@timeNow+3)^0,w,c
  1110  000E1C  A0D8               	btfss	status,0,c
  1111  000E1E  EF13  F007         	goto	u2471
  1112  000E22  EF15  F007         	goto	u2470
  1113  000E26                     u2471:
  1114  000E26  EFE5  F006         	goto	l741
  1115  000E2A                     u2470:
  1116  000E2A                     
  1117                           ; BSR set to: 0
  1118                           ;main.c: 154:     atexPowerPermit();
  1119  000E2A  EC00  F00D         	call	_atexPowerPermit	;wreg free
  1120  000E2E                     l4382:
  1121  000E2E  0E4B               	movlw	low main@atexPressure
  1122  000E30  6E14               	movwf	CAN_receive@tempCanMsg^0,c
  1123  000E32  0E00               	movlw	high main@atexPressure
  1124  000E34  6E15               	movwf	(CAN_receive@tempCanMsg+1)^0,c
  1125  000E36  ECD6  F001         	call	_CAN_receive	;wreg free
  1126  000E3A  0900               	iorlw	0
  1127  000E3C  A4D8               	btfss	status,2,c
  1128  000E3E  EF23  F007         	goto	u2481
  1129  000E42  EF25  F007         	goto	u2480
  1130  000E46                     u2481:
  1131  000E46  EF17  F007         	goto	l4382
  1132  000E4A                     u2480:
  1133  000E4A  82BA               	bsf	186,1,c	;volatile
  1134  000E4C                     l750:
  1135  000E4C  0004               	clrwdt		;# 
  1136  000E4E                     
  1137                           ;main.c: 163:         timeNow = msTickGet();
  1138  000E4E  EC18  F010         	call	_msTickGet	;wreg free
  1139  000E52  0060  F004  F047   	movff	?_msTickGet,main@timeNow
  1140  000E58  0060  F008  F048   	movff	?_msTickGet+1,main@timeNow+1
  1141  000E5E  0060  F00C  F049   	movff	?_msTickGet+2,main@timeNow+2
  1142  000E64  0060  F010  F04A   	movff	?_msTickGet+3,main@timeNow+3
  1143  000E6A                     
  1144                           ;main.c: 166:         if(timeNow>LEDtimer)
  1145  000E6A  5047               	movf	main@timeNow^0,w,c
  1146  000E6C  0100               	movlb	0	; () banked
  1147  000E6E  5D8A               	subwf	main@LEDtimer& (0+255),w,b
  1148  000E70  5048               	movf	(main@timeNow+1)^0,w,c
  1149  000E72  598B               	subwfb	(main@LEDtimer+1)& (0+255),w,b
  1150  000E74  5049               	movf	(main@timeNow+2)^0,w,c
  1151  000E76  598C               	subwfb	(main@LEDtimer+2)& (0+255),w,b
  1152  000E78  504A               	movf	(main@timeNow+3)^0,w,c
  1153  000E7A  598D               	subwfb	(main@LEDtimer+3)& (0+255),w,b
  1154  000E7C  B0D8               	btfsc	status,0,c
  1155  000E7E  EF43  F007         	goto	u2491
  1156  000E82  EF45  F007         	goto	u2490
  1157  000E86                     u2491:
  1158  000E86  EF6A  F007         	goto	l4392
  1159  000E8A                     u2490:
  1160  000E8A                     
  1161                           ; BSR set to: 0
  1162  000E8A  B8BA               	btfsc	186,4,c	;volatile
  1163  000E8C  EF4A  F007         	goto	u2501
  1164  000E90  EF4D  F007         	goto	u2500
  1165  000E94                     u2501:
  1166  000E94  0E01               	movlw	1
  1167  000E96  EF4E  F007         	goto	u2506
  1168  000E9A                     u2500:
  1169  000E9A  0E00               	movlw	0
  1170  000E9C                     u2506:
  1171  000E9C  0AFF               	xorlw	255
  1172  000E9E  6E46               	movwf	??_main^0,c
  1173  000EA0  3A46               	swapf	??_main^0,f,c
  1174  000EA2  50BA               	movf	186,w,c	;volatile
  1175  000EA4  1846               	xorwf	??_main^0,w,c
  1176  000EA6  0BEF               	andlw	-17
  1177  000EA8  1846               	xorwf	??_main^0,w,c
  1178  000EAA  6EBA               	movwf	186,c	;volatile
  1179  000EAC                     
  1180                           ; BSR set to: 0
  1181                           ;main.c: 170:             LEDtimer = timeNow + 500;
  1182  000EAC  0EF4               	movlw	244
  1183  000EAE  2447               	addwf	main@timeNow^0,w,c
  1184  000EB0  6F8A               	movwf	main@LEDtimer& (0+255),b
  1185  000EB2  0E01               	movlw	1
  1186  000EB4  2048               	addwfc	(main@timeNow+1)^0,w,c
  1187  000EB6  6F8B               	movwf	(main@LEDtimer+1)& (0+255),b
  1188  000EB8  0E00               	movlw	0
  1189  000EBA  2049               	addwfc	(main@timeNow+2)^0,w,c
  1190  000EBC  6F8C               	movwf	(main@LEDtimer+2)& (0+255),b
  1191  000EBE  0E00               	movlw	0
  1192  000EC0  204A               	addwfc	(main@timeNow+3)^0,w,c
  1193  000EC2  6F8D               	movwf	(main@LEDtimer+3)& (0+255),b
  1194  000EC4  EF6A  F007         	goto	l4392
  1195  000EC8                     l4390:
  1196                           
  1197                           ;main.c: 174:         {;main.c: 175:             atexAwaitingData(&atexPressure);
  1198  000EC8  0E4B               	movlw	low main@atexPressure
  1199  000ECA  6E0D               	movwf	atexAwaitingData@atexMsg^0,c
  1200  000ECC  0E00               	movlw	high main@atexPressure
  1201  000ECE  6E0E               	movwf	(atexAwaitingData@atexMsg+1)^0,c
  1202  000ED0  EC32  F003         	call	_atexAwaitingData	;wreg free
  1203  000ED4                     l4392:
  1204                           
  1205                           ;main.c: 173:         while(CAN_receive(&atexPressure))
  1206  000ED4  0E4B               	movlw	low main@atexPressure
  1207  000ED6  6E14               	movwf	CAN_receive@tempCanMsg^0,c
  1208  000ED8  0E00               	movlw	high main@atexPressure
  1209  000EDA  6E15               	movwf	(CAN_receive@tempCanMsg+1)^0,c
  1210  000EDC  ECD6  F001         	call	_CAN_receive	;wreg free
  1211  000EE0  0900               	iorlw	0
  1212  000EE2  A4D8               	btfss	status,2,c
  1213  000EE4  EF76  F007         	goto	u2511
  1214  000EE8  EF78  F007         	goto	u2510
  1215  000EEC                     u2511:
  1216  000EEC  EF64  F007         	goto	l4390
  1217  000EF0                     u2510:
  1218  000EF0                     
  1219                           ;main.c: 188:         if(powerPermitUnsafeTime < timeNow)
  1220  000EF0  5047               	movf	main@timeNow^0,w,c
  1221  000EF2  0100               	movlb	0	; () banked
  1222  000EF4  5D8E               	subwf	_powerPermitUnsafeTime& (0+255),w,b
  1223  000EF6  5048               	movf	(main@timeNow+1)^0,w,c
  1224  000EF8  598F               	subwfb	(_powerPermitUnsafeTime+1)& (0+255),w,b
  1225  000EFA  5049               	movf	(main@timeNow+2)^0,w,c
  1226  000EFC  5990               	subwfb	(_powerPermitUnsafeTime+2)& (0+255),w,b
  1227  000EFE  504A               	movf	(main@timeNow+3)^0,w,c
  1228  000F00  5991               	subwfb	(_powerPermitUnsafeTime+3)& (0+255),w,b
  1229  000F02  B0D8               	btfsc	status,0,c
  1230  000F04  EF86  F007         	goto	u2521
  1231  000F08  EF88  F007         	goto	u2520
  1232  000F0C                     u2521:
  1233  000F0C  EF26  F007         	goto	l750
  1234  000F10                     u2520:
  1235  000F10                     
  1236                           ; BSR set to: 0
  1237                           ;main.c: 189:         {;main.c: 190:             atexPerformChecks();
  1238  000F10  EC5A  F008         	call	_atexPerformChecks	;wreg free
  1239  000F14  EF26  F007         	goto	l750
  1240  000F18  EF0D  F000         	goto	start
  1241  000F1C                     __end_of_main:
  1242                           	opt callstack 0
  1243                           
  1244 ;; *************** function _atexPerformChecks *****************
  1245 ;; Defined at:
  1246 ;;		line 518 in file "C:/Users/Robert.Finch/OneDrive - Mini-Cam Ltd/Pic/Atex/PCB-005-419.X/Atex.c"
  1247 ;; Parameters:    Size  Location     Type
  1248 ;;		None
  1249 ;; Auto vars:     Size  Location     Type
  1250 ;;  apState         1   68[COMRAM] unsigned char 
  1251 ;; Return value:  Size  Location     Type
  1252 ;;                  1    wreg      void 
  1253 ;; Registers used:
  1254 ;;		wreg, fsr2l, fsr2h, status,2, status,0, prodl, prodh, cstack
  1255 ;; Tracked objects:
  1256 ;;		On entry : 0/0
  1257 ;;		On exit  : 0/0
  1258 ;;		Unchanged: 0/0
  1259 ;; Data sizes:     COMRAM   BANK0   BANK1   BANK2   BANK3   BANK4   BANK5   BANK6   BANK7   BANK8   BANK9  BANK10  BANK1
      +1  BANK12  BANK13  BANK14  BANK15
  1260 ;;      Params:         0       0       0       0       0       0       0       0       0       0       0       0       
      +0       0       0       0       0
  1261 ;;      Locals:         1       0       0       0       0       0       0       0       0       0       0       0       
      +0       0       0       0       0
  1262 ;;      Temps:          4       0       0       0       0       0       0       0       0       0       0       0       
      +0       0       0       0       0
  1263 ;;      Totals:         5       0       0       0       0       0       0       0       0       0       0       0       
      +0       0       0       0       0
  1264 ;;Total ram usage:        5 bytes
  1265 ;; Hardware stack levels used:    1
  1266 ;; Hardware stack levels required when called:    9
  1267 ;; This function calls:
  1268 ;;		_atexAquire
  1269 ;;		_atexVerifyPressures
  1270 ;;		_atexVerifyStat
  1271 ;;		_atexVerifyTimeStamps
  1272 ;;		_msTickGet
  1273 ;;		_notifyAtexSafe
  1274 ;;		_notifyAtexUnsafe
  1275 ;;		_notifyAtexUnsafeWithOverride
  1276 ;; This function is called by:
  1277 ;;		_main
  1278 ;; This function uses a non-reentrant model
  1279 ;;
  1280                           
  1281                           	psect	text1
  1282  0010B4                     __ptext1:
  1283                           	opt callstack 0
  1284  0010B4                     _atexPerformChecks:
  1285                           	opt callstack 21
  1286  0010B4                     
  1287                           ;C:/Users/Robert.Finch/OneDrive - Mini-Cam Ltd/Pic/Atex/PCB-005-419.X/Atex.c: 520:  stat
      +                          ic uint32_t atexLastGood = 0;;C:/Users/Robert.Finch/OneDrive - Mini-Cam Ltd/Pic/Atex/PCB
      +                          -005-419.X/Atex.c: 521:  uint8_t apState = apAquire;
  1288  0010B4  0E01               	movlw	1
  1289  0010B6  6E45               	movwf	atexPerformChecks@apState^0,c
  1290                           
  1291                           ;C:/Users/Robert.Finch/OneDrive - Mini-Cam Ltd/Pic/Atex/PCB-005-419.X/Atex.c: 522:     t
      +                          ravelFlags = 0;
  1292  0010B8  0E00               	movlw	0
  1293  0010BA  0100               	movlb	0	; () banked
  1294  0010BC  6F92               	movwf	_travelFlags& (0+255),b
  1295                           
  1296                           ;C:/Users/Robert.Finch/OneDrive - Mini-Cam Ltd/Pic/Atex/PCB-005-419.X/Atex.c: 524:  whil
      +                          e(apState)
  1297  0010BE  EF19  F009         	goto	l4296
  1298  0010C2                     l4238:
  1299                           
  1300                           ;C:/Users/Robert.Finch/OneDrive - Mini-Cam Ltd/Pic/Atex/PCB-005-419.X/Atex.c: 529:    {;
      +                          C:/Users/Robert.Finch/OneDrive - Mini-Cam Ltd/Pic/Atex/PCB-005-419.X/Atex.c: 530:     tr
      +                          avelFlags |= 0x1;
  1301  0010C2  0100               	movlb	0	; () banked
  1302  0010C4  8192               	bsf	_travelFlags& (0+255),0,b
  1303  0010C6                     
  1304                           ; BSR set to: 0
  1305                           ;C:/Users/Robert.Finch/OneDrive - Mini-Cam Ltd/Pic/Atex/PCB-005-419.X/Atex.c: 531:     a
      +                          pState = apUnsafe;
  1306  0010C6  0E06               	movlw	6
  1307  0010C8  6E45               	movwf	atexPerformChecks@apState^0,c
  1308  0010CA                     
  1309                           ; BSR set to: 0
  1310                           ;C:/Users/Robert.Finch/OneDrive - Mini-Cam Ltd/Pic/Atex/PCB-005-419.X/Atex.c: 532:     i
      +                          f(atexAquire())
  1311  0010CA  EC49  F00B         	call	_atexAquire	;wreg free
  1312  0010CE  0900               	iorlw	0
  1313  0010D0  B4D8               	btfsc	status,2,c
  1314  0010D2  EF6D  F008         	goto	u2261
  1315  0010D6  EF6F  F008         	goto	u2260
  1316  0010DA                     u2261:
  1317  0010DA  EF19  F009         	goto	l4296
  1318  0010DE                     u2260:
  1319  0010DE                     
  1320                           ;C:/Users/Robert.Finch/OneDrive - Mini-Cam Ltd/Pic/Atex/PCB-005-419.X/Atex.c: 533:     {
      +                          ;C:/Users/Robert.Finch/OneDrive - Mini-Cam Ltd/Pic/Atex/PCB-005-419.X/Atex.c: 534:      
      +                          apState = apVerifyStat;
  1321  0010DE  0E02               	movlw	2
  1322  0010E0  6E45               	movwf	atexPerformChecks@apState^0,c
  1323  0010E2  EF19  F009         	goto	l4296
  1324  0010E6                     l4246:
  1325                           
  1326                           ;C:/Users/Robert.Finch/OneDrive - Mini-Cam Ltd/Pic/Atex/PCB-005-419.X/Atex.c: 540:    {;
      +                          C:/Users/Robert.Finch/OneDrive - Mini-Cam Ltd/Pic/Atex/PCB-005-419.X/Atex.c: 541:     tr
      +                          avelFlags |= 0x2;
  1327  0010E6  0100               	movlb	0	; () banked
  1328  0010E8  8392               	bsf	_travelFlags& (0+255),1,b
  1329  0010EA                     
  1330                           ; BSR set to: 0
  1331                           ;C:/Users/Robert.Finch/OneDrive - Mini-Cam Ltd/Pic/Atex/PCB-005-419.X/Atex.c: 542:     a
      +                          pState = apUnsafe;
  1332  0010EA  0E06               	movlw	6
  1333  0010EC  6E45               	movwf	atexPerformChecks@apState^0,c
  1334  0010EE                     
  1335                           ; BSR set to: 0
  1336                           ;C:/Users/Robert.Finch/OneDrive - Mini-Cam Ltd/Pic/Atex/PCB-005-419.X/Atex.c: 543:     i
      +                          f(atexVerifyStat())
  1337  0010EE  EC3E  F00C         	call	_atexVerifyStat	;wreg free
  1338  0010F2  0900               	iorlw	0
  1339  0010F4  B4D8               	btfsc	status,2,c
  1340  0010F6  EF7F  F008         	goto	u2271
  1341  0010FA  EF81  F008         	goto	u2270
  1342  0010FE                     u2271:
  1343  0010FE  EF19  F009         	goto	l4296
  1344  001102                     u2270:
  1345  001102                     
  1346                           ;C:/Users/Robert.Finch/OneDrive - Mini-Cam Ltd/Pic/Atex/PCB-005-419.X/Atex.c: 544:     {
      +                          ;C:/Users/Robert.Finch/OneDrive - Mini-Cam Ltd/Pic/Atex/PCB-005-419.X/Atex.c: 545:      
      +                          apState = apVerifyTimeStamps;
  1347  001102  0E03               	movlw	3
  1348  001104  6E45               	movwf	atexPerformChecks@apState^0,c
  1349  001106  EF19  F009         	goto	l4296
  1350  00110A                     l4254:
  1351                           
  1352                           ;C:/Users/Robert.Finch/OneDrive - Mini-Cam Ltd/Pic/Atex/PCB-005-419.X/Atex.c: 551:    {;
      +                          C:/Users/Robert.Finch/OneDrive - Mini-Cam Ltd/Pic/Atex/PCB-005-419.X/Atex.c: 552:     tr
      +                          avelFlags |= 0x4;
  1353  00110A  0100               	movlb	0	; () banked
  1354  00110C  8592               	bsf	_travelFlags& (0+255),2,b
  1355  00110E                     
  1356                           ; BSR set to: 0
  1357                           ;C:/Users/Robert.Finch/OneDrive - Mini-Cam Ltd/Pic/Atex/PCB-005-419.X/Atex.c: 553:     a
      +                          pState = apUnsafe;
  1358  00110E  0E06               	movlw	6
  1359  001110  6E45               	movwf	atexPerformChecks@apState^0,c
  1360  001112                     
  1361                           ; BSR set to: 0
  1362                           ;C:/Users/Robert.Finch/OneDrive - Mini-Cam Ltd/Pic/Atex/PCB-005-419.X/Atex.c: 554:     i
      +                          f(atexVerifyTimeStamps())
  1363  001112  EC77  F004         	call	_atexVerifyTimeStamps	;wreg free
  1364  001116  0900               	iorlw	0
  1365  001118  B4D8               	btfsc	status,2,c
  1366  00111A  EF91  F008         	goto	u2281
  1367  00111E  EF93  F008         	goto	u2280
  1368  001122                     u2281:
  1369  001122  EF19  F009         	goto	l4296
  1370  001126                     u2280:
  1371  001126                     
  1372                           ;C:/Users/Robert.Finch/OneDrive - Mini-Cam Ltd/Pic/Atex/PCB-005-419.X/Atex.c: 555:     {
      +                          ;C:/Users/Robert.Finch/OneDrive - Mini-Cam Ltd/Pic/Atex/PCB-005-419.X/Atex.c: 556:      
      +                          apState = apVerifyPressures;
  1373  001126  0E04               	movlw	4
  1374  001128  6E45               	movwf	atexPerformChecks@apState^0,c
  1375  00112A  EF19  F009         	goto	l4296
  1376  00112E                     l4262:
  1377                           
  1378                           ;C:/Users/Robert.Finch/OneDrive - Mini-Cam Ltd/Pic/Atex/PCB-005-419.X/Atex.c: 562:    {;
      +                          C:/Users/Robert.Finch/OneDrive - Mini-Cam Ltd/Pic/Atex/PCB-005-419.X/Atex.c: 563:     tr
      +                          avelFlags |= 0x08;
  1379  00112E  0100               	movlb	0	; () banked
  1380  001130  8792               	bsf	_travelFlags& (0+255),3,b
  1381  001132                     
  1382                           ; BSR set to: 0
  1383                           ;C:/Users/Robert.Finch/OneDrive - Mini-Cam Ltd/Pic/Atex/PCB-005-419.X/Atex.c: 564:     a
      +                          pState = apExit;
  1384  001132  0E00               	movlw	0
  1385  001134  6E45               	movwf	atexPerformChecks@apState^0,c
  1386  001136                     
  1387                           ; BSR set to: 0
  1388                           ;C:/Users/Robert.Finch/OneDrive - Mini-Cam Ltd/Pic/Atex/PCB-005-419.X/Atex.c: 565:     i
      +                          f(atexVerifyPressures())
  1389  001136  EC0F  F000         	call	_atexVerifyPressures	;wreg free
  1390  00113A  0900               	iorlw	0
  1391  00113C  B4D8               	btfsc	status,2,c
  1392  00113E  EFA3  F008         	goto	u2291
  1393  001142  EFA5  F008         	goto	u2290
  1394  001146                     u2291:
  1395  001146  EF19  F009         	goto	l4296
  1396  00114A                     u2290:
  1397  00114A                     
  1398                           ;C:/Users/Robert.Finch/OneDrive - Mini-Cam Ltd/Pic/Atex/PCB-005-419.X/Atex.c: 566:     {
      +                          ;C:/Users/Robert.Finch/OneDrive - Mini-Cam Ltd/Pic/Atex/PCB-005-419.X/Atex.c: 567:      
      +                          apState = apAtexSafe;
  1399  00114A  0E05               	movlw	5
  1400  00114C  6E45               	movwf	atexPerformChecks@apState^0,c
  1401  00114E  EF19  F009         	goto	l4296
  1402  001152                     l4270:
  1403                           
  1404                           ;C:/Users/Robert.Finch/OneDrive - Mini-Cam Ltd/Pic/Atex/PCB-005-419.X/Atex.c: 573:    {;
      +                          C:/Users/Robert.Finch/OneDrive - Mini-Cam Ltd/Pic/Atex/PCB-005-419.X/Atex.c: 574:     ap
      +                          State = apExit;
  1405  001152  0E00               	movlw	0
  1406  001154  6E45               	movwf	atexPerformChecks@apState^0,c
  1407                           
  1408                           ;C:/Users/Robert.Finch/OneDrive - Mini-Cam Ltd/Pic/Atex/PCB-005-419.X/Atex.c: 575:     b
      +                          reak;
  1409  001156  EF19  F009         	goto	l4296
  1410  00115A                     l4272:
  1411                           
  1412                           ;C:/Users/Robert.Finch/OneDrive - Mini-Cam Ltd/Pic/Atex/PCB-005-419.X/Atex.c: 579:    {;
      +                          C:/Users/Robert.Finch/OneDrive - Mini-Cam Ltd/Pic/Atex/PCB-005-419.X/Atex.c: 580:     tr
      +                          avelFlags |= 0x80;
  1413  00115A  0100               	movlb	0	; () banked
  1414  00115C  8F92               	bsf	_travelFlags& (0+255),7,b
  1415  00115E                     
  1416                           ; BSR set to: 0
  1417                           ;C:/Users/Robert.Finch/OneDrive - Mini-Cam Ltd/Pic/Atex/PCB-005-419.X/Atex.c: 581:     a
      +                          pState = apExit;
  1418  00115E  0E00               	movlw	0
  1419  001160  6E45               	movwf	atexPerformChecks@apState^0,c
  1420  001162                     
  1421                           ; BSR set to: 0
  1422                           ;C:/Users/Robert.Finch/OneDrive - Mini-Cam Ltd/Pic/Atex/PCB-005-419.X/Atex.c: 582:     a
      +                          texLastGood = msTickGet() + 5000;
  1423  001162  EC18  F010         	call	_msTickGet	;wreg free
  1424  001166  0E88               	movlw	136
  1425  001168  2401               	addwf	?_msTickGet^0,w,c
  1426  00116A  0100               	movlb	0	; () banked
  1427  00116C  6F82               	movwf	atexPerformChecks@atexLastGood& (0+255),b
  1428  00116E  0E13               	movlw	19
  1429  001170  2002               	addwfc	(?_msTickGet+1)^0,w,c
  1430  001172  6F83               	movwf	(atexPerformChecks@atexLastGood+1)& (0+255),b
  1431  001174  0E00               	movlw	0
  1432  001176  2003               	addwfc	(?_msTickGet+2)^0,w,c
  1433  001178  6F84               	movwf	(atexPerformChecks@atexLastGood+2)& (0+255),b
  1434  00117A  0E00               	movlw	0
  1435  00117C  2004               	addwfc	(?_msTickGet+3)^0,w,c
  1436  00117E  6F85               	movwf	(atexPerformChecks@atexLastGood+3)& (0+255),b
  1437  001180                     
  1438                           ; BSR set to: 0
  1439                           ;C:/Users/Robert.Finch/OneDrive - Mini-Cam Ltd/Pic/Atex/PCB-005-419.X/Atex.c: 583:     n
      +                          otifyAtexSafe();
  1440  001180  EC83  F011         	call	_notifyAtexSafe	;wreg free
  1441                           
  1442                           ;C:/Users/Robert.Finch/OneDrive - Mini-Cam Ltd/Pic/Atex/PCB-005-419.X/Atex.c: 585:     b
      +                          reak;
  1443  001184  EF19  F009         	goto	l4296
  1444  001188                     l4280:
  1445                           
  1446                           ;C:/Users/Robert.Finch/OneDrive - Mini-Cam Ltd/Pic/Atex/PCB-005-419.X/Atex.c: 589:    {;
      +                          C:/Users/Robert.Finch/OneDrive - Mini-Cam Ltd/Pic/Atex/PCB-005-419.X/Atex.c: 590:     ap
      +                          State = apExit;
  1447  001188  0E00               	movlw	0
  1448  00118A  6E45               	movwf	atexPerformChecks@apState^0,c
  1449  00118C                     
  1450                           ;C:/Users/Robert.Finch/OneDrive - Mini-Cam Ltd/Pic/Atex/PCB-005-419.X/Atex.c: 591:      
      +                                     travelFlags |= 0x10;
  1451  00118C  0100               	movlb	0	; () banked
  1452  00118E  8992               	bsf	_travelFlags& (0+255),4,b
  1453  001190                     
  1454                           ; BSR set to: 0
  1455                           ;C:/Users/Robert.Finch/OneDrive - Mini-Cam Ltd/Pic/Atex/PCB-005-419.X/Atex.c: 592:     i
      +                          f(atexLastGood < (msTickGet() - 5000))
  1456  001190  EC18  F010         	call	_msTickGet	;wreg free
  1457  001194  0E78               	movlw	120
  1458  001196  2401               	addwf	?_msTickGet^0,w,c
  1459  001198  6E41               	movwf	??_atexPerformChecks^0,c
  1460  00119A  0EEC               	movlw	236
  1461  00119C  2002               	addwfc	(?_msTickGet+1)^0,w,c
  1462  00119E  6E42               	movwf	(??_atexPerformChecks+1)^0,c
  1463  0011A0  0EFF               	movlw	255
  1464  0011A2  2003               	addwfc	(?_msTickGet+2)^0,w,c
  1465  0011A4  6E43               	movwf	(??_atexPerformChecks+2)^0,c
  1466  0011A6  0EFF               	movlw	255
  1467  0011A8  2004               	addwfc	(?_msTickGet+3)^0,w,c
  1468  0011AA  6E44               	movwf	(??_atexPerformChecks+3)^0,c
  1469  0011AC  5041               	movf	??_atexPerformChecks^0,w,c
  1470  0011AE  0100               	movlb	0	; () banked
  1471  0011B0  5D82               	subwf	atexPerformChecks@atexLastGood& (0+255),w,b
  1472  0011B2  5042               	movf	(??_atexPerformChecks+1)^0,w,c
  1473  0011B4  5983               	subwfb	(atexPerformChecks@atexLastGood+1)& (0+255),w,b
  1474  0011B6  5043               	movf	(??_atexPerformChecks+2)^0,w,c
  1475  0011B8  5984               	subwfb	(atexPerformChecks@atexLastGood+2)& (0+255),w,b
  1476  0011BA  5044               	movf	(??_atexPerformChecks+3)^0,w,c
  1477  0011BC  5985               	subwfb	(atexPerformChecks@atexLastGood+3)& (0+255),w,b
  1478  0011BE  B0D8               	btfsc	status,0,c
  1479  0011C0  EFE4  F008         	goto	u2301
  1480  0011C4  EFE6  F008         	goto	u2300
  1481  0011C8                     u2301:
  1482  0011C8  EF19  F009         	goto	l4296
  1483  0011CC                     u2300:
  1484  0011CC                     
  1485                           ; BSR set to: 0
  1486                           ;C:/Users/Robert.Finch/OneDrive - Mini-Cam Ltd/Pic/Atex/PCB-005-419.X/Atex.c: 593:     {
      +                          ;C:/Users/Robert.Finch/OneDrive - Mini-Cam Ltd/Pic/Atex/PCB-005-419.X/Atex.c: 594:      
      +                          notifyAtexUnsafeWithOverride();
  1487  0011CC  ECB4  F005         	call	_notifyAtexUnsafeWithOverride	;wreg free
  1488  0011D0  EF19  F009         	goto	l4296
  1489  0011D4                     l4288:
  1490                           
  1491                           ;C:/Users/Robert.Finch/OneDrive - Mini-Cam Ltd/Pic/Atex/PCB-005-419.X/Atex.c: 602:    {;
      +                          C:/Users/Robert.Finch/OneDrive - Mini-Cam Ltd/Pic/Atex/PCB-005-419.X/Atex.c: 603:     tr
      +                          avelFlags |= 0x20;
  1492  0011D4  0100               	movlb	0	; () banked
  1493  0011D6  8B92               	bsf	_travelFlags& (0+255),5,b
  1494  0011D8                     
  1495                           ; BSR set to: 0
  1496                           ;C:/Users/Robert.Finch/OneDrive - Mini-Cam Ltd/Pic/Atex/PCB-005-419.X/Atex.c: 604:     n
      +                          otifyAtexUnsafe();
  1497  0011D8  EC01  F00E         	call	_notifyAtexUnsafe	;wreg free
  1498                           
  1499                           ;C:/Users/Robert.Finch/OneDrive - Mini-Cam Ltd/Pic/Atex/PCB-005-419.X/Atex.c: 606:     b
      +                          reak;
  1500  0011DC  EF19  F009         	goto	l4296
  1501  0011E0                     l4294:
  1502  0011E0  5045               	movf	atexPerformChecks@apState^0,w,c
  1503  0011E2  6E41               	movwf	??_atexPerformChecks^0,c
  1504  0011E4  6A42               	clrf	(??_atexPerformChecks+1)^0,c
  1505                           
  1506                           ; Switch on 2 bytes has been partitioned into a top level switch of size 1, and 1 sub-sw
      +                          itches
  1507                           ; Switch size 1, requested type "simple"
  1508                           ; Number of cases is 1, Range of values is 0 to 0
  1509                           ; switch strategies available:
  1510                           ; Name         Instructions Cycles
  1511                           ; simple_byte            4     3 (average)
  1512                           ;	Chosen strategy is simple_byte
  1513  0011E6  5042               	movf	(??_atexPerformChecks+1)^0,w,c
  1514  0011E8  0A00               	xorlw	0	; case 0
  1515  0011EA  B4D8               	btfsc	status,2,c
  1516  0011EC  EFFA  F008         	goto	l4518
  1517  0011F0  EFEA  F008         	goto	l4288
  1518  0011F4                     l4518:
  1519                           
  1520                           ; Switch size 1, requested type "simple"
  1521                           ; Number of cases is 7, Range of values is 0 to 6
  1522                           ; switch strategies available:
  1523                           ; Name         Instructions Cycles
  1524                           ; simple_byte           22    12 (average)
  1525                           ;	Chosen strategy is simple_byte
  1526  0011F4  5041               	movf	??_atexPerformChecks^0,w,c
  1527  0011F6  0A00               	xorlw	0	; case 0
  1528  0011F8  B4D8               	btfsc	status,2,c
  1529  0011FA  EFA9  F008         	goto	l4270
  1530  0011FE  0A01               	xorlw	1	; case 1
  1531  001200  B4D8               	btfsc	status,2,c
  1532  001202  EF61  F008         	goto	l4238
  1533  001206  0A03               	xorlw	3	; case 2
  1534  001208  B4D8               	btfsc	status,2,c
  1535  00120A  EF73  F008         	goto	l4246
  1536  00120E  0A01               	xorlw	1	; case 3
  1537  001210  B4D8               	btfsc	status,2,c
  1538  001212  EF85  F008         	goto	l4254
  1539  001216  0A07               	xorlw	7	; case 4
  1540  001218  B4D8               	btfsc	status,2,c
  1541  00121A  EF97  F008         	goto	l4262
  1542  00121E  0A01               	xorlw	1	; case 5
  1543  001220  B4D8               	btfsc	status,2,c
  1544  001222  EFAD  F008         	goto	l4272
  1545  001226  0A03               	xorlw	3	; case 6
  1546  001228  B4D8               	btfsc	status,2,c
  1547  00122A  EFC4  F008         	goto	l4280
  1548  00122E  EFEA  F008         	goto	l4288
  1549  001232                     l4296:
  1550                           
  1551                           ;C:/Users/Robert.Finch/OneDrive - Mini-Cam Ltd/Pic/Atex/PCB-005-419.X/Atex.c: 524:  whil
      +                          e(apState)
  1552  001232  5045               	movf	atexPerformChecks@apState^0,w,c
  1553  001234  A4D8               	btfss	status,2,c
  1554  001236  EF1F  F009         	goto	u2311
  1555  00123A  EF21  F009         	goto	u2310
  1556  00123E                     u2311:
  1557  00123E  EFF0  F008         	goto	l4294
  1558  001242                     u2310:
  1559  001242  0012               	return		;funcret
  1560  001244                     __end_of_atexPerformChecks:
  1561                           	opt callstack 0
  1562                           
  1563 ;; *************** function _notifyAtexSafe *****************
  1564 ;; Defined at:
  1565 ;;		line 721 in file "C:/Users/Robert.Finch/OneDrive - Mini-Cam Ltd/Pic/Atex/PCB-005-419.X/Atex.c"
  1566 ;; Parameters:    Size  Location     Type
  1567 ;;		None
  1568 ;; Auto vars:     Size  Location     Type
  1569 ;;		None
  1570 ;; Return value:  Size  Location     Type
  1571 ;;                  1    wreg      void 
  1572 ;; Registers used:
  1573 ;;		None
  1574 ;; Tracked objects:
  1575 ;;		On entry : 0/0
  1576 ;;		On exit  : 0/0
  1577 ;;		Unchanged: 0/0
  1578 ;; Data sizes:     COMRAM   BANK0   BANK1   BANK2   BANK3   BANK4   BANK5   BANK6   BANK7   BANK8   BANK9  BANK10  BANK1
      +1  BANK12  BANK13  BANK14  BANK15
  1579 ;;      Params:         0       0       0       0       0       0       0       0       0       0       0       0       
      +0       0       0       0       0
  1580 ;;      Locals:         0       0       0       0       0       0       0       0       0       0       0       0       
      +0       0       0       0       0
  1581 ;;      Temps:          0       0       0       0       0       0       0       0       0       0       0       0       
      +0       0       0       0       0
  1582 ;;      Totals:         0       0       0       0       0       0       0       0       0       0       0       0       
      +0       0       0       0       0
  1583 ;;Total ram usage:        0 bytes
  1584 ;; Hardware stack levels used:    1
  1585 ;; Hardware stack levels required when called:    4
  1586 ;; This function calls:
  1587 ;;		Nothing
  1588 ;; This function is called by:
  1589 ;;		_atexPerformChecks
  1590 ;; This function uses a non-reentrant model
  1591 ;;
  1592                           
  1593                           	psect	text2
  1594  002306                     __ptext2:
  1595                           	opt callstack 0
  1596  002306                     _notifyAtexSafe:
  1597                           	opt callstack 25
  1598  002306  8ABA               	bsf	186,5,c	;volatile
  1599  002308  82BA               	bsf	186,1,c	;volatile
  1600  00230A  0012               	return		;funcret
  1601  00230C                     __end_of_notifyAtexSafe:
  1602                           	opt callstack 0
  1603                           
  1604 ;; *************** function _atexVerifyTimeStamps *****************
  1605 ;; Defined at:
  1606 ;;		line 256 in file "C:/Users/Robert.Finch/OneDrive - Mini-Cam Ltd/Pic/Atex/PCB-005-419.X/Atex.c"
  1607 ;; Parameters:    Size  Location     Type
  1608 ;;		None
  1609 ;; Auto vars:     Size  Location     Type
  1610 ;;  i               1   29[COMRAM] unsigned char 
  1611 ;;  i               1   32[COMRAM] unsigned char 
  1612 ;;  i               1   31[COMRAM] unsigned char 
  1613 ;;  currentTimeS    4   16[COMRAM] unsigned long 
  1614 ;;  maxTimeStamp    4   25[COMRAM] unsigned long 
  1615 ;;  minTimeStamp    4   21[COMRAM] unsigned long 
  1616 ;;  avtState        1   30[COMRAM] unsigned char 
  1617 ;;  returnVal       1   20[COMRAM] unsigned char 
  1618 ;; Return value:  Size  Location     Type
  1619 ;;                  1    wreg      unsigned char 
  1620 ;; Registers used:
  1621 ;;		wreg, fsr2l, fsr2h, status,2, status,0, prodl, prodh, cstack
  1622 ;; Tracked objects:
  1623 ;;		On entry : 0/0
  1624 ;;		On exit  : 0/0
  1625 ;;		Unchanged: 0/0
  1626 ;; Data sizes:     COMRAM   BANK0   BANK1   BANK2   BANK3   BANK4   BANK5   BANK6   BANK7   BANK8   BANK9  BANK10  BANK1
      +1  BANK12  BANK13  BANK14  BANK15
  1627 ;;      Params:         0       0       0       0       0       0       0       0       0       0       0       0       
      +0       0       0       0       0
  1628 ;;      Locals:        17       0       0       0       0       0       0       0       0       0       0       0       
      +0       0       0       0       0
  1629 ;;      Temps:          4       0       0       0       0       0       0       0       0       0       0       0       
      +0       0       0       0       0
  1630 ;;      Totals:        21       0       0       0       0       0       0       0       0       0       0       0       
      +0       0       0       0       0
  1631 ;;Total ram usage:       21 bytes
  1632 ;; Hardware stack levels used:    1
  1633 ;; Hardware stack levels required when called:    5
  1634 ;; This function calls:
  1635 ;;		_memset
  1636 ;;		_msTickGet
  1637 ;;		_notifyAtexUnsafe
  1638 ;; This function is called by:
  1639 ;;		_atexPerformChecks
  1640 ;; This function uses a non-reentrant model
  1641 ;;
  1642                           
  1643                           	psect	text3
  1644  0008EE                     __ptext3:
  1645                           	opt callstack 0
  1646  0008EE                     _atexVerifyTimeStamps:
  1647                           	opt callstack 24
  1648  0008EE                     
  1649                           ;C:/Users/Robert.Finch/OneDrive - Mini-Cam Ltd/Pic/Atex/PCB-005-419.X/Atex.c: 258:  uint
      +                          8_t avtState = avtCheckTimeStampRange,
  1650  0008EE  0E01               	movlw	1
  1651  0008F0  6E1F               	movwf	atexVerifyTimeStamps@avtState^0,c
  1652                           
  1653                           ;C:/Users/Robert.Finch/OneDrive - Mini-Cam Ltd/Pic/Atex/PCB-005-419.X/Atex.c: 259:    re
      +                          turnVal = 0;
  1654  0008F2  0E00               	movlw	0
  1655  0008F4  6E15               	movwf	atexVerifyTimeStamps@returnVal^0,c
  1656                           
  1657                           ;C:/Users/Robert.Finch/OneDrive - Mini-Cam Ltd/Pic/Atex/PCB-005-419.X/Atex.c: 261:     t
      +                          ravelFlagsAtexVerifyTimeStamps = 0;
  1658  0008F6  0E00               	movlw	0
  1659  0008F8  0100               	movlb	0	; () banked
  1660  0008FA  6F94               	movwf	_travelFlagsAtexVerifyTimeStamps& (0+255),b
  1661                           
  1662                           ;C:/Users/Robert.Finch/OneDrive - Mini-Cam Ltd/Pic/Atex/PCB-005-419.X/Atex.c: 263:  whil
      +                          e(avtState)
  1663  0008FC  EFAA  F005         	goto	l3920
  1664  000900                     l3834:
  1665                           
  1666                           ;C:/Users/Robert.Finch/OneDrive - Mini-Cam Ltd/Pic/Atex/PCB-005-419.X/Atex.c: 268:    {;
      +                          C:/Users/Robert.Finch/OneDrive - Mini-Cam Ltd/Pic/Atex/PCB-005-419.X/Atex.c: 269:       
      +                                    travelFlagsAtexVerifyTimeStamps |= 0x01;
  1667  000900  0100               	movlb	0	; () banked
  1668  000902  8194               	bsf	_travelFlagsAtexVerifyTimeStamps& (0+255),0,b
  1669  000904                     
  1670                           ; BSR set to: 0
  1671                           ;C:/Users/Robert.Finch/OneDrive - Mini-Cam Ltd/Pic/Atex/PCB-005-419.X/Atex.c: 270:     a
      +                          vtState = avtCheckTimeStampAge;
  1672  000904  0E02               	movlw	2
  1673  000906  6E1F               	movwf	atexVerifyTimeStamps@avtState^0,c
  1674  000908                     
  1675                           ; BSR set to: 0
  1676                           ;C:/Users/Robert.Finch/OneDrive - Mini-Cam Ltd/Pic/Atex/PCB-005-419.X/Atex.c: 272:     u
      +                          int32_t minTimeStamp = 0xFFFFFFFF,
  1677  000908  6816               	setf	atexVerifyTimeStamps@minTimeStamp^0,c
  1678  00090A  6817               	setf	(atexVerifyTimeStamps@minTimeStamp+1)^0,c
  1679  00090C  6818               	setf	(atexVerifyTimeStamps@minTimeStamp+2)^0,c
  1680  00090E  6819               	setf	(atexVerifyTimeStamps@minTimeStamp+3)^0,c
  1681  000910                     
  1682                           ; BSR set to: 0
  1683                           ;C:/Users/Robert.Finch/OneDrive - Mini-Cam Ltd/Pic/Atex/PCB-005-419.X/Atex.c: 273:      
      +                            maxTimeStamp = 0;
  1684  000910  0E00               	movlw	0
  1685  000912  6E1A               	movwf	atexVerifyTimeStamps@maxTimeStamp^0,c
  1686  000914  0E00               	movlw	0
  1687  000916  6E1B               	movwf	(atexVerifyTimeStamps@maxTimeStamp+1)^0,c
  1688  000918  0E00               	movlw	0
  1689  00091A  6E1C               	movwf	(atexVerifyTimeStamps@maxTimeStamp+2)^0,c
  1690  00091C  0E00               	movlw	0
  1691  00091E  6E1D               	movwf	(atexVerifyTimeStamps@maxTimeStamp+3)^0,c
  1692  000920                     
  1693                           ; BSR set to: 0
  1694                           ;C:/Users/Robert.Finch/OneDrive - Mini-Cam Ltd/Pic/Atex/PCB-005-419.X/Atex.c: 276:     f
      +                          or(uint8_t i =0;i<((sizeof(atexAquireGrp))/(sizeof(atexPressure)));i++)
  1695  000920  0E00               	movlw	0
  1696  000922  6E20               	movwf	atexVerifyTimeStamps@i^0,c
  1697  000924                     l3848:
  1698                           
  1699                           ;C:/Users/Robert.Finch/OneDrive - Mini-Cam Ltd/Pic/Atex/PCB-005-419.X/Atex.c: 277:     {
      +                          ;C:/Users/Robert.Finch/OneDrive - Mini-Cam Ltd/Pic/Atex/PCB-005-419.X/Atex.c: 278:      
      +                          if(atexAquireGrp[i].timeStamp < minTimeStamp)
  1700  000924  5020               	movf	atexVerifyTimeStamps@i^0,w,c
  1701  000926  0D0A               	mullw	10
  1702  000928  0EA3               	movlw	low (_atexAquireGrp+6)
  1703  00092A  24F3               	addwf	243,w,c
  1704  00092C  6ED9               	movwf	fsr2l,c
  1705  00092E  0E00               	movlw	high (_atexAquireGrp+6)
  1706  000930  20F4               	addwfc	prodh,w,c
  1707  000932  6EDA               	movwf	fsr2h,c
  1708  000934  5016               	movf	atexVerifyTimeStamps@minTimeStamp^0,w,c
  1709  000936  5CDE               	subwf	postinc2,w,c
  1710  000938  5017               	movf	(atexVerifyTimeStamps@minTimeStamp+1)^0,w,c
  1711  00093A  58DE               	subwfb	postinc2,w,c
  1712  00093C  5018               	movf	(atexVerifyTimeStamps@minTimeStamp+2)^0,w,c
  1713  00093E  58DE               	subwfb	postinc2,w,c
  1714  000940  5019               	movf	(atexVerifyTimeStamps@minTimeStamp+3)^0,w,c
  1715  000942  58DE               	subwfb	postinc2,w,c
  1716  000944  B0D8               	btfsc	status,0,c
  1717  000946  EFA7  F004         	goto	u1841
  1718  00094A  EFA9  F004         	goto	u1840
  1719  00094E                     u1841:
  1720  00094E  EFBD  F004         	goto	l3852
  1721  000952                     u1840:
  1722  000952                     
  1723                           ;C:/Users/Robert.Finch/OneDrive - Mini-Cam Ltd/Pic/Atex/PCB-005-419.X/Atex.c: 279:      
      +                          {;C:/Users/Robert.Finch/OneDrive - Mini-Cam Ltd/Pic/Atex/PCB-005-419.X/Atex.c: 280:     
      +                            minTimeStamp = atexAquireGrp[i].timeStamp;
  1724  000952  5020               	movf	atexVerifyTimeStamps@i^0,w,c
  1725  000954  0D0A               	mullw	10
  1726  000956  0EA3               	movlw	low (_atexAquireGrp+6)
  1727  000958  24F3               	addwf	243,w,c
  1728  00095A  6ED9               	movwf	fsr2l,c
  1729  00095C  0E00               	movlw	high (_atexAquireGrp+6)
  1730  00095E  20F4               	addwfc	prodh,w,c
  1731  000960  6EDA               	movwf	fsr2h,c
  1732  000962  006F FF78  F016    	movff	postinc2,atexVerifyTimeStamps@minTimeStamp
  1733  000968  006F FF78  F017    	movff	postinc2,atexVerifyTimeStamps@minTimeStamp+1
  1734  00096E  006F FF78  F018    	movff	postinc2,atexVerifyTimeStamps@minTimeStamp+2
  1735  000974  006F FF78  F019    	movff	postinc2,atexVerifyTimeStamps@minTimeStamp+3
  1736  00097A                     l3852:
  1737                           
  1738                           ;C:/Users/Robert.Finch/OneDrive - Mini-Cam Ltd/Pic/Atex/PCB-005-419.X/Atex.c: 282:     }
  1739  00097A  2A20               	incf	atexVerifyTimeStamps@i^0,f,c
  1740  00097C  0E03               	movlw	3
  1741  00097E  6420               	cpfsgt	atexVerifyTimeStamps@i^0,c
  1742  000980  EFC4  F004         	goto	u1851
  1743  000984  EFC6  F004         	goto	u1850
  1744  000988                     u1851:
  1745  000988  EF92  F004         	goto	l3848
  1746  00098C                     u1850:
  1747  00098C                     
  1748                           ;C:/Users/Robert.Finch/OneDrive - Mini-Cam Ltd/Pic/Atex/PCB-005-419.X/Atex.c: 285:     f
      +                          or(uint8_t i =0;i<((sizeof(atexAquireGrp))/(sizeof(atexPressure)));i++)
  1749  00098C  0E00               	movlw	0
  1750  00098E  6E21               	movwf	atexVerifyTimeStamps@i_1845^0,c
  1751  000990                     l3862:
  1752                           
  1753                           ;C:/Users/Robert.Finch/OneDrive - Mini-Cam Ltd/Pic/Atex/PCB-005-419.X/Atex.c: 286:     {
      +                          ;C:/Users/Robert.Finch/OneDrive - Mini-Cam Ltd/Pic/Atex/PCB-005-419.X/Atex.c: 287:      
      +                          if(atexAquireGrp[i].timeStamp > maxTimeStamp)
  1754  000990  5021               	movf	atexVerifyTimeStamps@i_1845^0,w,c
  1755  000992  0D0A               	mullw	10
  1756  000994  0EA3               	movlw	low (_atexAquireGrp+6)
  1757  000996  24F3               	addwf	243,w,c
  1758  000998  6ED9               	movwf	fsr2l,c
  1759  00099A  0E00               	movlw	high (_atexAquireGrp+6)
  1760  00099C  20F4               	addwfc	prodh,w,c
  1761  00099E  6EDA               	movwf	fsr2h,c
  1762  0009A0  50DE               	movf	postinc2,w,c
  1763  0009A2  5C1A               	subwf	atexVerifyTimeStamps@maxTimeStamp^0,w,c
  1764  0009A4  50DE               	movf	postinc2,w,c
  1765  0009A6  581B               	subwfb	(atexVerifyTimeStamps@maxTimeStamp+1)^0,w,c
  1766  0009A8  50DE               	movf	postinc2,w,c
  1767  0009AA  581C               	subwfb	(atexVerifyTimeStamps@maxTimeStamp+2)^0,w,c
  1768  0009AC  50DE               	movf	postinc2,w,c
  1769  0009AE  581D               	subwfb	(atexVerifyTimeStamps@maxTimeStamp+3)^0,w,c
  1770  0009B0  B0D8               	btfsc	status,0,c
  1771  0009B2  EFDD  F004         	goto	u1861
  1772  0009B6  EFDF  F004         	goto	u1860
  1773  0009BA                     u1861:
  1774  0009BA  EFF3  F004         	goto	l3866
  1775  0009BE                     u1860:
  1776  0009BE                     
  1777                           ;C:/Users/Robert.Finch/OneDrive - Mini-Cam Ltd/Pic/Atex/PCB-005-419.X/Atex.c: 288:      
      +                          {;C:/Users/Robert.Finch/OneDrive - Mini-Cam Ltd/Pic/Atex/PCB-005-419.X/Atex.c: 289:     
      +                            maxTimeStamp = atexAquireGrp[i].timeStamp;
  1778  0009BE  5021               	movf	atexVerifyTimeStamps@i_1845^0,w,c
  1779  0009C0  0D0A               	mullw	10
  1780  0009C2  0EA3               	movlw	low (_atexAquireGrp+6)
  1781  0009C4  24F3               	addwf	243,w,c
  1782  0009C6  6ED9               	movwf	fsr2l,c
  1783  0009C8  0E00               	movlw	high (_atexAquireGrp+6)
  1784  0009CA  20F4               	addwfc	prodh,w,c
  1785  0009CC  6EDA               	movwf	fsr2h,c
  1786  0009CE  006F FF78  F01A    	movff	postinc2,atexVerifyTimeStamps@maxTimeStamp
  1787  0009D4  006F FF78  F01B    	movff	postinc2,atexVerifyTimeStamps@maxTimeStamp+1
  1788  0009DA  006F FF78  F01C    	movff	postinc2,atexVerifyTimeStamps@maxTimeStamp+2
  1789  0009E0  006F FF78  F01D    	movff	postinc2,atexVerifyTimeStamps@maxTimeStamp+3
  1790  0009E6                     l3866:
  1791                           
  1792                           ;C:/Users/Robert.Finch/OneDrive - Mini-Cam Ltd/Pic/Atex/PCB-005-419.X/Atex.c: 291:     }
  1793  0009E6  2A21               	incf	atexVerifyTimeStamps@i_1845^0,f,c
  1794  0009E8  0E03               	movlw	3
  1795  0009EA  6421               	cpfsgt	atexVerifyTimeStamps@i_1845^0,c
  1796  0009EC  EFFA  F004         	goto	u1871
  1797  0009F0  EFFC  F004         	goto	u1870
  1798  0009F4                     u1871:
  1799  0009F4  EFC8  F004         	goto	l3862
  1800  0009F8                     u1870:
  1801  0009F8                     
  1802                           ;C:/Users/Robert.Finch/OneDrive - Mini-Cam Ltd/Pic/Atex/PCB-005-419.X/Atex.c: 293:     i
      +                          f(maxTimeStamp > (5000 + minTimeStamp))
  1803  0009F8  0E88               	movlw	136
  1804  0009FA  2416               	addwf	atexVerifyTimeStamps@minTimeStamp^0,w,c
  1805  0009FC  6E0D               	movwf	??_atexVerifyTimeStamps^0,c
  1806  0009FE  0E13               	movlw	19
  1807  000A00  2017               	addwfc	(atexVerifyTimeStamps@minTimeStamp+1)^0,w,c
  1808  000A02  6E0E               	movwf	(??_atexVerifyTimeStamps+1)^0,c
  1809  000A04  0E00               	movlw	0
  1810  000A06  2018               	addwfc	(atexVerifyTimeStamps@minTimeStamp+2)^0,w,c
  1811  000A08  6E0F               	movwf	(??_atexVerifyTimeStamps+2)^0,c
  1812  000A0A  0E00               	movlw	0
  1813  000A0C  2019               	addwfc	(atexVerifyTimeStamps@minTimeStamp+3)^0,w,c
  1814  000A0E  6E10               	movwf	(??_atexVerifyTimeStamps+3)^0,c
  1815  000A10  501A               	movf	atexVerifyTimeStamps@maxTimeStamp^0,w,c
  1816  000A12  5C0D               	subwf	??_atexVerifyTimeStamps^0,w,c
  1817  000A14  501B               	movf	(atexVerifyTimeStamps@maxTimeStamp+1)^0,w,c
  1818  000A16  580E               	subwfb	(??_atexVerifyTimeStamps+1)^0,w,c
  1819  000A18  501C               	movf	(atexVerifyTimeStamps@maxTimeStamp+2)^0,w,c
  1820  000A1A  580F               	subwfb	(??_atexVerifyTimeStamps+2)^0,w,c
  1821  000A1C  501D               	movf	(atexVerifyTimeStamps@maxTimeStamp+3)^0,w,c
  1822  000A1E  5810               	subwfb	(??_atexVerifyTimeStamps+3)^0,w,c
  1823  000A20  B0D8               	btfsc	status,0,c
  1824  000A22  EF15  F005         	goto	u1881
  1825  000A26  EF17  F005         	goto	u1880
  1826  000A2A                     u1881:
  1827  000A2A  EFAA  F005         	goto	l3920
  1828  000A2E                     u1880:
  1829  000A2E                     
  1830                           ;C:/Users/Robert.Finch/OneDrive - Mini-Cam Ltd/Pic/Atex/PCB-005-419.X/Atex.c: 294:     {
      +                          ;C:/Users/Robert.Finch/OneDrive - Mini-Cam Ltd/Pic/Atex/PCB-005-419.X/Atex.c: 295:      
      +                          avtState = avtUnsafe;
  1831  000A2E  0E04               	movlw	4
  1832  000A30  6E1F               	movwf	atexVerifyTimeStamps@avtState^0,c
  1833  000A32  EFAA  F005         	goto	l3920
  1834  000A36                     l3874:
  1835                           
  1836                           ;C:/Users/Robert.Finch/OneDrive - Mini-Cam Ltd/Pic/Atex/PCB-005-419.X/Atex.c: 302:      
      +                                 {;C:/Users/Robert.Finch/OneDrive - Mini-Cam Ltd/Pic/Atex/PCB-005-419.X/Atex.c: 30
      +                          3:                 uint32_t currentTimeStamp = msTickGet();
  1837  000A36  EC18  F010         	call	_msTickGet	;wreg free
  1838  000A3A  0060  F004  F011   	movff	?_msTickGet,atexVerifyTimeStamps@currentTimeStamp
  1839  000A40  0060  F008  F012   	movff	?_msTickGet+1,atexVerifyTimeStamps@currentTimeStamp+1
  1840  000A46  0060  F00C  F013   	movff	?_msTickGet+2,atexVerifyTimeStamps@currentTimeStamp+2
  1841  000A4C  0060  F010  F014   	movff	?_msTickGet+3,atexVerifyTimeStamps@currentTimeStamp+3
  1842  000A52                     
  1843                           ;C:/Users/Robert.Finch/OneDrive - Mini-Cam Ltd/Pic/Atex/PCB-005-419.X/Atex.c: 304:      
      +                                     travelFlagsAtexVerifyTimeStamps |= 0x02;
  1844  000A52  0100               	movlb	0	; () banked
  1845  000A54  8394               	bsf	_travelFlagsAtexVerifyTimeStamps& (0+255),1,b
  1846  000A56                     
  1847                           ; BSR set to: 0
  1848                           ;C:/Users/Robert.Finch/OneDrive - Mini-Cam Ltd/Pic/Atex/PCB-005-419.X/Atex.c: 306:      
      +                                     avtState = avtAtexSafe;
  1849  000A56  0E03               	movlw	3
  1850  000A58  6E1F               	movwf	atexVerifyTimeStamps@avtState^0,c
  1851  000A5A                     
  1852                           ; BSR set to: 0
  1853                           ;C:/Users/Robert.Finch/OneDrive - Mini-Cam Ltd/Pic/Atex/PCB-005-419.X/Atex.c: 307:     f
      +                          or(uint8_t i =0;i<((sizeof(atexAquireGrp))/(sizeof(atexPressure)));i++)
  1854  000A5A  0E00               	movlw	0
  1855  000A5C  6E1E               	movwf	atexVerifyTimeStamps@i_1847^0,c
  1856  000A5E                     l3886:
  1857                           
  1858                           ;C:/Users/Robert.Finch/OneDrive - Mini-Cam Ltd/Pic/Atex/PCB-005-419.X/Atex.c: 308:     {
      +                          ;C:/Users/Robert.Finch/OneDrive - Mini-Cam Ltd/Pic/Atex/PCB-005-419.X/Atex.c: 309:      
      +                          if((atexAquireGrp[i].timeStamp + 5000) < (currentTimeStamp))
  1859  000A5E  501E               	movf	atexVerifyTimeStamps@i_1847^0,w,c
  1860  000A60  0D0A               	mullw	10
  1861  000A62  0EA3               	movlw	low (_atexAquireGrp+6)
  1862  000A64  24F3               	addwf	243,w,c
  1863  000A66  6ED9               	movwf	fsr2l,c
  1864  000A68  0E00               	movlw	high (_atexAquireGrp+6)
  1865  000A6A  20F4               	addwfc	prodh,w,c
  1866  000A6C  6EDA               	movwf	fsr2h,c
  1867  000A6E  0E88               	movlw	136
  1868  000A70  24DE               	addwf	postinc2,w,c
  1869  000A72  6E0D               	movwf	??_atexVerifyTimeStamps^0,c
  1870  000A74  0E13               	movlw	19
  1871  000A76  20DE               	addwfc	postinc2,w,c
  1872  000A78  6E0E               	movwf	(??_atexVerifyTimeStamps+1)^0,c
  1873  000A7A  0E00               	movlw	0
  1874  000A7C  20DE               	addwfc	postinc2,w,c
  1875  000A7E  6E0F               	movwf	(??_atexVerifyTimeStamps+2)^0,c
  1876  000A80  0E00               	movlw	0
  1877  000A82  20DE               	addwfc	postinc2,w,c
  1878  000A84  6E10               	movwf	(??_atexVerifyTimeStamps+3)^0,c
  1879  000A86  5011               	movf	atexVerifyTimeStamps@currentTimeStamp^0,w,c
  1880  000A88  5C0D               	subwf	??_atexVerifyTimeStamps^0,w,c
  1881  000A8A  5012               	movf	(atexVerifyTimeStamps@currentTimeStamp+1)^0,w,c
  1882  000A8C  580E               	subwfb	(??_atexVerifyTimeStamps+1)^0,w,c
  1883  000A8E  5013               	movf	(atexVerifyTimeStamps@currentTimeStamp+2)^0,w,c
  1884  000A90  580F               	subwfb	(??_atexVerifyTimeStamps+2)^0,w,c
  1885  000A92  5014               	movf	(atexVerifyTimeStamps@currentTimeStamp+3)^0,w,c
  1886  000A94  5810               	subwfb	(??_atexVerifyTimeStamps+3)^0,w,c
  1887  000A96  B0D8               	btfsc	status,0,c
  1888  000A98  EF50  F005         	goto	u1891
  1889  000A9C  EF52  F005         	goto	u1890
  1890  000AA0                     u1891:
  1891  000AA0  EF54  F005         	goto	l3890
  1892  000AA4                     u1890:
  1893  000AA4                     
  1894                           ;C:/Users/Robert.Finch/OneDrive - Mini-Cam Ltd/Pic/Atex/PCB-005-419.X/Atex.c: 310:      
      +                          {;C:/Users/Robert.Finch/OneDrive - Mini-Cam Ltd/Pic/Atex/PCB-005-419.X/Atex.c: 311:     
      +                            avtState = avtUnsafe;
  1895  000AA4  0E04               	movlw	4
  1896  000AA6  6E1F               	movwf	atexVerifyTimeStamps@avtState^0,c
  1897  000AA8                     l3890:
  1898                           
  1899                           ;C:/Users/Robert.Finch/OneDrive - Mini-Cam Ltd/Pic/Atex/PCB-005-419.X/Atex.c: 313:     }
  1900  000AA8  2A1E               	incf	atexVerifyTimeStamps@i_1847^0,f,c
  1901  000AAA  0E03               	movlw	3
  1902  000AAC  641E               	cpfsgt	atexVerifyTimeStamps@i_1847^0,c
  1903  000AAE  EF5B  F005         	goto	u1901
  1904  000AB2  EF5D  F005         	goto	u1900
  1905  000AB6                     u1901:
  1906  000AB6  EF2F  F005         	goto	l3886
  1907  000ABA                     u1900:
  1908  000ABA  EFAA  F005         	goto	l3920
  1909  000ABE                     l3894:
  1910                           
  1911                           ;C:/Users/Robert.Finch/OneDrive - Mini-Cam Ltd/Pic/Atex/PCB-005-419.X/Atex.c: 319:    {;
      +                          C:/Users/Robert.Finch/OneDrive - Mini-Cam Ltd/Pic/Atex/PCB-005-419.X/Atex.c: 320:       
      +                                    travelFlagsAtexVerifyTimeStamps |= 0x04;
  1912  000ABE  0100               	movlb	0	; () banked
  1913  000AC0  8594               	bsf	_travelFlagsAtexVerifyTimeStamps& (0+255),2,b
  1914  000AC2                     
  1915                           ; BSR set to: 0
  1916                           ;C:/Users/Robert.Finch/OneDrive - Mini-Cam Ltd/Pic/Atex/PCB-005-419.X/Atex.c: 321:     a
      +                          vtState = avtExit;
  1917  000AC2  0E00               	movlw	0
  1918  000AC4  6E1F               	movwf	atexVerifyTimeStamps@avtState^0,c
  1919                           
  1920                           ;C:/Users/Robert.Finch/OneDrive - Mini-Cam Ltd/Pic/Atex/PCB-005-419.X/Atex.c: 322:     b
      +                          reak;
  1921  000AC6  EFAA  F005         	goto	l3920
  1922  000ACA                     l3898:
  1923                           
  1924                           ;C:/Users/Robert.Finch/OneDrive - Mini-Cam Ltd/Pic/Atex/PCB-005-419.X/Atex.c: 326:    {;
      +                          C:/Users/Robert.Finch/OneDrive - Mini-Cam Ltd/Pic/Atex/PCB-005-419.X/Atex.c: 327:       
      +                                    travelFlagsAtexVerifyTimeStamps |= 0x08;
  1925  000ACA  0100               	movlb	0	; () banked
  1926  000ACC  8794               	bsf	_travelFlagsAtexVerifyTimeStamps& (0+255),3,b
  1927  000ACE                     
  1928                           ; BSR set to: 0
  1929                           ;C:/Users/Robert.Finch/OneDrive - Mini-Cam Ltd/Pic/Atex/PCB-005-419.X/Atex.c: 328:     a
      +                          vtState = avtExit;
  1930  000ACE  0E00               	movlw	0
  1931  000AD0  6E1F               	movwf	atexVerifyTimeStamps@avtState^0,c
  1932  000AD2                     
  1933                           ; BSR set to: 0
  1934                           ;C:/Users/Robert.Finch/OneDrive - Mini-Cam Ltd/Pic/Atex/PCB-005-419.X/Atex.c: 329:     r
      +                          eturnVal = 1;
  1935  000AD2  0E01               	movlw	1
  1936  000AD4  6E15               	movwf	atexVerifyTimeStamps@returnVal^0,c
  1937                           
  1938                           ;C:/Users/Robert.Finch/OneDrive - Mini-Cam Ltd/Pic/Atex/PCB-005-419.X/Atex.c: 330:     b
      +                          reak;
  1939  000AD6  EFAA  F005         	goto	l3920
  1940  000ADA                     l3904:
  1941                           
  1942                           ;C:/Users/Robert.Finch/OneDrive - Mini-Cam Ltd/Pic/Atex/PCB-005-419.X/Atex.c: 334:    {;
      +                          C:/Users/Robert.Finch/OneDrive - Mini-Cam Ltd/Pic/Atex/PCB-005-419.X/Atex.c: 335:       
      +                                    travelFlagsAtexVerifyTimeStamps |= 0x10;
  1943  000ADA  0100               	movlb	0	; () banked
  1944  000ADC  8994               	bsf	_travelFlagsAtexVerifyTimeStamps& (0+255),4,b
  1945  000ADE                     
  1946                           ; BSR set to: 0
  1947                           ;C:/Users/Robert.Finch/OneDrive - Mini-Cam Ltd/Pic/Atex/PCB-005-419.X/Atex.c: 336:      
      +                                     memset(&atexAquireGrp,0,sizeof(atexAquireGrp));
  1948  000ADE  0E9D               	movlw	low _atexAquireGrp
  1949  000AE0  6E01               	movwf	memset@dest^0,c
  1950  000AE2  0E00               	movlw	high _atexAquireGrp
  1951  000AE4  6E02               	movwf	(memset@dest+1)^0,c
  1952  000AE6  0E00               	movlw	0
  1953  000AE8  6E04               	movwf	(memset@c+1)^0,c
  1954  000AEA  0E00               	movlw	0
  1955  000AEC  6E03               	movwf	memset@c^0,c
  1956  000AEE  0E00               	movlw	0
  1957  000AF0  6E06               	movwf	(memset@n+1)^0,c
  1958  000AF2  0E28               	movlw	40
  1959  000AF4  6E05               	movwf	memset@n^0,c
  1960  000AF6  EC8E  F007         	call	_memset	;wreg free
  1961  000AFA                     
  1962                           ;C:/Users/Robert.Finch/OneDrive - Mini-Cam Ltd/Pic/Atex/PCB-005-419.X/Atex.c: 337:     a
      +                          vtState = avtExit;
  1963  000AFA  0E00               	movlw	0
  1964  000AFC  6E1F               	movwf	atexVerifyTimeStamps@avtState^0,c
  1965  000AFE                     
  1966                           ;C:/Users/Robert.Finch/OneDrive - Mini-Cam Ltd/Pic/Atex/PCB-005-419.X/Atex.c: 338:     r
      +                          eturnVal = 0;
  1967  000AFE  0E00               	movlw	0
  1968  000B00  6E15               	movwf	atexVerifyTimeStamps@returnVal^0,c
  1969                           
  1970                           ;C:/Users/Robert.Finch/OneDrive - Mini-Cam Ltd/Pic/Atex/PCB-005-419.X/Atex.c: 340:     b
      +                          reak;
  1971  000B02  EFAA  F005         	goto	l3920
  1972  000B06                     l3912:
  1973                           
  1974                           ;C:/Users/Robert.Finch/OneDrive - Mini-Cam Ltd/Pic/Atex/PCB-005-419.X/Atex.c: 345:    {;
      +                          C:/Users/Robert.Finch/OneDrive - Mini-Cam Ltd/Pic/Atex/PCB-005-419.X/Atex.c: 346:     tr
      +                          avelFlagsAtexVerifyTimeStamps |= 0x80;
  1975  000B06  0100               	movlb	0	; () banked
  1976  000B08  8F94               	bsf	_travelFlagsAtexVerifyTimeStamps& (0+255),7,b
  1977  000B0A                     
  1978                           ; BSR set to: 0
  1979                           ;C:/Users/Robert.Finch/OneDrive - Mini-Cam Ltd/Pic/Atex/PCB-005-419.X/Atex.c: 347:     n
      +                          otifyAtexUnsafe();
  1980  000B0A  EC01  F00E         	call	_notifyAtexUnsafe	;wreg free
  1981                           
  1982                           ;C:/Users/Robert.Finch/OneDrive - Mini-Cam Ltd/Pic/Atex/PCB-005-419.X/Atex.c: 349:     b
      +                          reak;
  1983  000B0E  EFAA  F005         	goto	l3920
  1984  000B12                     l3918:
  1985  000B12  501F               	movf	atexVerifyTimeStamps@avtState^0,w,c
  1986  000B14  6E0D               	movwf	??_atexVerifyTimeStamps^0,c
  1987  000B16  6A0E               	clrf	(??_atexVerifyTimeStamps+1)^0,c
  1988                           
  1989                           ; Switch on 2 bytes has been partitioned into a top level switch of size 1, and 1 sub-sw
      +                          itches
  1990                           ; Switch size 1, requested type "simple"
  1991                           ; Number of cases is 1, Range of values is 0 to 0
  1992                           ; switch strategies available:
  1993                           ; Name         Instructions Cycles
  1994                           ; simple_byte            4     3 (average)
  1995                           ;	Chosen strategy is simple_byte
  1996  000B18  500E               	movf	(??_atexVerifyTimeStamps+1)^0,w,c
  1997  000B1A  0A00               	xorlw	0	; case 0
  1998  000B1C  B4D8               	btfsc	status,2,c
  1999  000B1E  EF93  F005         	goto	l4520
  2000  000B22  EF83  F005         	goto	l3912
  2001  000B26                     l4520:
  2002                           
  2003                           ; Switch size 1, requested type "simple"
  2004                           ; Number of cases is 5, Range of values is 0 to 4
  2005                           ; switch strategies available:
  2006                           ; Name         Instructions Cycles
  2007                           ; simple_byte           16     9 (average)
  2008                           ;	Chosen strategy is simple_byte
  2009  000B26  500D               	movf	??_atexVerifyTimeStamps^0,w,c
  2010  000B28  0A00               	xorlw	0	; case 0
  2011  000B2A  B4D8               	btfsc	status,2,c
  2012  000B2C  EF5F  F005         	goto	l3894
  2013  000B30  0A01               	xorlw	1	; case 1
  2014  000B32  B4D8               	btfsc	status,2,c
  2015  000B34  EF80  F004         	goto	l3834
  2016  000B38  0A03               	xorlw	3	; case 2
  2017  000B3A  B4D8               	btfsc	status,2,c
  2018  000B3C  EF1B  F005         	goto	l3874
  2019  000B40  0A01               	xorlw	1	; case 3
  2020  000B42  B4D8               	btfsc	status,2,c
  2021  000B44  EF65  F005         	goto	l3898
  2022  000B48  0A07               	xorlw	7	; case 4
  2023  000B4A  B4D8               	btfsc	status,2,c
  2024  000B4C  EF6D  F005         	goto	l3904
  2025  000B50  EF83  F005         	goto	l3912
  2026  000B54                     l3920:
  2027                           
  2028                           ;C:/Users/Robert.Finch/OneDrive - Mini-Cam Ltd/Pic/Atex/PCB-005-419.X/Atex.c: 263:  whil
      +                          e(avtState)
  2029  000B54  501F               	movf	atexVerifyTimeStamps@avtState^0,w,c
  2030  000B56  A4D8               	btfss	status,2,c
  2031  000B58  EFB0  F005         	goto	u1911
  2032  000B5C  EFB2  F005         	goto	u1910
  2033  000B60                     u1911:
  2034  000B60  EF89  F005         	goto	l3918
  2035  000B64                     u1910:
  2036  000B64                     
  2037                           ;C:/Users/Robert.Finch/OneDrive - Mini-Cam Ltd/Pic/Atex/PCB-005-419.X/Atex.c: 354:  retu
      +                          rn returnVal;
  2038  000B64  5015               	movf	atexVerifyTimeStamps@returnVal^0,w,c
  2039  000B66  0012               	return		;funcret
  2040  000B68                     __end_of_atexVerifyTimeStamps:
  2041                           	opt callstack 0
  2042                           
  2043 ;; *************** function _atexVerifyStat *****************
  2044 ;; Defined at:
  2045 ;;		line 197 in file "C:/Users/Robert.Finch/OneDrive - Mini-Cam Ltd/Pic/Atex/PCB-005-419.X/Atex.c"
  2046 ;; Parameters:    Size  Location     Type
  2047 ;;		None
  2048 ;; Auto vars:     Size  Location     Type
  2049 ;;  i               1    5[COMRAM] unsigned char 
  2050 ;;  avsState        1    4[COMRAM] unsigned char 
  2051 ;;  returnVal       1    3[COMRAM] unsigned char 
  2052 ;; Return value:  Size  Location     Type
  2053 ;;                  1    wreg      unsigned char 
  2054 ;; Registers used:
  2055 ;;		wreg, fsr2l, fsr2h, status,2, status,0, prodl, prodh, cstack
  2056 ;; Tracked objects:
  2057 ;;		On entry : 0/0
  2058 ;;		On exit  : 0/0
  2059 ;;		Unchanged: 0/0
  2060 ;; Data sizes:     COMRAM   BANK0   BANK1   BANK2   BANK3   BANK4   BANK5   BANK6   BANK7   BANK8   BANK9  BANK10  BANK1
      +1  BANK12  BANK13  BANK14  BANK15
  2061 ;;      Params:         0       0       0       0       0       0       0       0       0       0       0       0       
      +0       0       0       0       0
  2062 ;;      Locals:         3       0       0       0       0       0       0       0       0       0       0       0       
      +0       0       0       0       0
  2063 ;;      Temps:          2       0       0       0       0       0       0       0       0       0       0       0       
      +0       0       0       0       0
  2064 ;;      Totals:         5       0       0       0       0       0       0       0       0       0       0       0       
      +0       0       0       0       0
  2065 ;;Total ram usage:        5 bytes
  2066 ;; Hardware stack levels used:    1
  2067 ;; Hardware stack levels required when called:    5
  2068 ;; This function calls:
  2069 ;;		_notifyAtexUnsafe
  2070 ;; This function is called by:
  2071 ;;		_atexPerformChecks
  2072 ;; This function uses a non-reentrant model
  2073 ;;
  2074                           
  2075                           	psect	text4
  2076  00187C                     __ptext4:
  2077                           	opt callstack 0
  2078  00187C                     _atexVerifyStat:
  2079                           	opt callstack 24
  2080  00187C                     
  2081                           ;C:/Users/Robert.Finch/OneDrive - Mini-Cam Ltd/Pic/Atex/PCB-005-419.X/Atex.c: 199:  uint
      +                          8_t avsState = avsCheckStatFlag,
  2082  00187C  0E01               	movlw	1
  2083  00187E  6E05               	movwf	atexVerifyStat@avsState^0,c
  2084                           
  2085                           ;C:/Users/Robert.Finch/OneDrive - Mini-Cam Ltd/Pic/Atex/PCB-005-419.X/Atex.c: 200:    re
      +                          turnVal = 0;
  2086  001880  0E00               	movlw	0
  2087  001882  6E04               	movwf	atexVerifyStat@returnVal^0,c
  2088                           
  2089                           ;C:/Users/Robert.Finch/OneDrive - Mini-Cam Ltd/Pic/Atex/PCB-005-419.X/Atex.c: 202:  whil
      +                          e(avsState)
  2090  001884  EF96  F00C         	goto	l3822
  2091  001888                     l3796:
  2092                           
  2093                           ;C:/Users/Robert.Finch/OneDrive - Mini-Cam Ltd/Pic/Atex/PCB-005-419.X/Atex.c: 207:    {;
      +                          C:/Users/Robert.Finch/OneDrive - Mini-Cam Ltd/Pic/Atex/PCB-005-419.X/Atex.c: 208:     av
      +                          sState = avsAtexSafe;
  2094  001888  0E02               	movlw	2
  2095  00188A  6E05               	movwf	atexVerifyStat@avsState^0,c
  2096                           
  2097                           ;C:/Users/Robert.Finch/OneDrive - Mini-Cam Ltd/Pic/Atex/PCB-005-419.X/Atex.c: 209:     f
      +                          or(uint8_t i =0;i<((sizeof(atexAquireGrp))/(sizeof(atexPressure)));i++)
  2098  00188C  0E00               	movlw	0
  2099  00188E  6E06               	movwf	atexVerifyStat@i^0,c
  2100  001890                     l3802:
  2101                           
  2102                           ;C:/Users/Robert.Finch/OneDrive - Mini-Cam Ltd/Pic/Atex/PCB-005-419.X/Atex.c: 210:     {
      +                          ;C:/Users/Robert.Finch/OneDrive - Mini-Cam Ltd/Pic/Atex/PCB-005-419.X/Atex.c: 211:      
      +                          if(atexAquireGrp[i].stat != 0)
  2103  001890  5006               	movf	atexVerifyStat@i^0,w,c
  2104  001892  0D0A               	mullw	10
  2105  001894  0EA1               	movlw	low (_atexAquireGrp+4)
  2106  001896  24F3               	addwf	243,w,c
  2107  001898  6ED9               	movwf	fsr2l,c
  2108  00189A  0E00               	movlw	high (_atexAquireGrp+4)
  2109  00189C  20F4               	addwfc	prodh,w,c
  2110  00189E  6EDA               	movwf	fsr2h,c
  2111  0018A0  50DF               	movf	indf2,w,c
  2112  0018A2  B4D8               	btfsc	status,2,c
  2113  0018A4  EF56  F00C         	goto	u1811
  2114  0018A8  EF58  F00C         	goto	u1810
  2115  0018AC                     u1811:
  2116  0018AC  EF5A  F00C         	goto	l3806
  2117  0018B0                     u1810:
  2118  0018B0                     
  2119                           ;C:/Users/Robert.Finch/OneDrive - Mini-Cam Ltd/Pic/Atex/PCB-005-419.X/Atex.c: 212:      
      +                          {;C:/Users/Robert.Finch/OneDrive - Mini-Cam Ltd/Pic/Atex/PCB-005-419.X/Atex.c: 213:     
      +                            avsState = avsUnsafe;
  2120  0018B0  0E03               	movlw	3
  2121  0018B2  6E05               	movwf	atexVerifyStat@avsState^0,c
  2122  0018B4                     l3806:
  2123                           
  2124                           ;C:/Users/Robert.Finch/OneDrive - Mini-Cam Ltd/Pic/Atex/PCB-005-419.X/Atex.c: 215:     }
  2125  0018B4  2A06               	incf	atexVerifyStat@i^0,f,c
  2126  0018B6  0E03               	movlw	3
  2127  0018B8  6406               	cpfsgt	atexVerifyStat@i^0,c
  2128  0018BA  EF61  F00C         	goto	u1821
  2129  0018BE  EF63  F00C         	goto	u1820
  2130  0018C2                     u1821:
  2131  0018C2  EF48  F00C         	goto	l3802
  2132  0018C6                     u1820:
  2133  0018C6  EF96  F00C         	goto	l3822
  2134  0018CA                     l3810:
  2135                           
  2136                           ;C:/Users/Robert.Finch/OneDrive - Mini-Cam Ltd/Pic/Atex/PCB-005-419.X/Atex.c: 220:    {;
      +                          C:/Users/Robert.Finch/OneDrive - Mini-Cam Ltd/Pic/Atex/PCB-005-419.X/Atex.c: 221:     av
      +                          sState = avsExit;
  2137  0018CA  0E00               	movlw	0
  2138  0018CC  6E05               	movwf	atexVerifyStat@avsState^0,c
  2139                           
  2140                           ;C:/Users/Robert.Finch/OneDrive - Mini-Cam Ltd/Pic/Atex/PCB-005-419.X/Atex.c: 222:     b
      +                          reak;
  2141  0018CE  EF96  F00C         	goto	l3822
  2142  0018D2                     l3812:
  2143                           
  2144                           ;C:/Users/Robert.Finch/OneDrive - Mini-Cam Ltd/Pic/Atex/PCB-005-419.X/Atex.c: 226:    {;
      +                          C:/Users/Robert.Finch/OneDrive - Mini-Cam Ltd/Pic/Atex/PCB-005-419.X/Atex.c: 227:     av
      +                          sState = avsExit;
  2145  0018D2  0E00               	movlw	0
  2146  0018D4  6E05               	movwf	atexVerifyStat@avsState^0,c
  2147                           
  2148                           ;C:/Users/Robert.Finch/OneDrive - Mini-Cam Ltd/Pic/Atex/PCB-005-419.X/Atex.c: 229:     r
      +                          eturnVal = 1;
  2149  0018D6  0E01               	movlw	1
  2150  0018D8  6E04               	movwf	atexVerifyStat@returnVal^0,c
  2151                           
  2152                           ;C:/Users/Robert.Finch/OneDrive - Mini-Cam Ltd/Pic/Atex/PCB-005-419.X/Atex.c: 230:     b
      +                          reak;
  2153  0018DA  EF96  F00C         	goto	l3822
  2154  0018DE                     l3814:
  2155                           
  2156                           ;C:/Users/Robert.Finch/OneDrive - Mini-Cam Ltd/Pic/Atex/PCB-005-419.X/Atex.c: 234:    {;
      +                          C:/Users/Robert.Finch/OneDrive - Mini-Cam Ltd/Pic/Atex/PCB-005-419.X/Atex.c: 235:     av
      +                          sState = avsExit;
  2157  0018DE  0E00               	movlw	0
  2158  0018E0  6E05               	movwf	atexVerifyStat@avsState^0,c
  2159                           
  2160                           ;C:/Users/Robert.Finch/OneDrive - Mini-Cam Ltd/Pic/Atex/PCB-005-419.X/Atex.c: 236:     r
      +                          eturnVal = 0;
  2161  0018E2  0E00               	movlw	0
  2162  0018E4  6E04               	movwf	atexVerifyStat@returnVal^0,c
  2163                           
  2164                           ;C:/Users/Robert.Finch/OneDrive - Mini-Cam Ltd/Pic/Atex/PCB-005-419.X/Atex.c: 238:     b
      +                          reak;
  2165  0018E6  EF96  F00C         	goto	l3822
  2166  0018EA                     l3816:
  2167                           
  2168                           ;C:/Users/Robert.Finch/OneDrive - Mini-Cam Ltd/Pic/Atex/PCB-005-419.X/Atex.c: 243:    {;
      +                          C:/Users/Robert.Finch/OneDrive - Mini-Cam Ltd/Pic/Atex/PCB-005-419.X/Atex.c: 245:     no
      +                          tifyAtexUnsafe();
  2169  0018EA  EC01  F00E         	call	_notifyAtexUnsafe	;wreg free
  2170                           
  2171                           ;C:/Users/Robert.Finch/OneDrive - Mini-Cam Ltd/Pic/Atex/PCB-005-419.X/Atex.c: 247:     b
      +                          reak;
  2172  0018EE  EF96  F00C         	goto	l3822
  2173  0018F2                     l3820:
  2174  0018F2  5005               	movf	atexVerifyStat@avsState^0,w,c
  2175  0018F4  6E02               	movwf	??_atexVerifyStat^0,c
  2176  0018F6  6A03               	clrf	(??_atexVerifyStat+1)^0,c
  2177                           
  2178                           ; Switch on 2 bytes has been partitioned into a top level switch of size 1, and 1 sub-sw
      +                          itches
  2179                           ; Switch size 1, requested type "simple"
  2180                           ; Number of cases is 1, Range of values is 0 to 0
  2181                           ; switch strategies available:
  2182                           ; Name         Instructions Cycles
  2183                           ; simple_byte            4     3 (average)
  2184                           ;	Chosen strategy is simple_byte
  2185  0018F8  5003               	movf	(??_atexVerifyStat+1)^0,w,c
  2186  0018FA  0A00               	xorlw	0	; case 0
  2187  0018FC  B4D8               	btfsc	status,2,c
  2188  0018FE  EF83  F00C         	goto	l4522
  2189  001902  EF75  F00C         	goto	l3816
  2190  001906                     l4522:
  2191                           
  2192                           ; Switch size 1, requested type "simple"
  2193                           ; Number of cases is 4, Range of values is 0 to 3
  2194                           ; switch strategies available:
  2195                           ; Name         Instructions Cycles
  2196                           ; simple_byte           13     7 (average)
  2197                           ;	Chosen strategy is simple_byte
  2198  001906  5002               	movf	??_atexVerifyStat^0,w,c
  2199  001908  0A00               	xorlw	0	; case 0
  2200  00190A  B4D8               	btfsc	status,2,c
  2201  00190C  EF65  F00C         	goto	l3810
  2202  001910  0A01               	xorlw	1	; case 1
  2203  001912  B4D8               	btfsc	status,2,c
  2204  001914  EF44  F00C         	goto	l3796
  2205  001918  0A03               	xorlw	3	; case 2
  2206  00191A  B4D8               	btfsc	status,2,c
  2207  00191C  EF69  F00C         	goto	l3812
  2208  001920  0A01               	xorlw	1	; case 3
  2209  001922  B4D8               	btfsc	status,2,c
  2210  001924  EF6F  F00C         	goto	l3814
  2211  001928  EF75  F00C         	goto	l3816
  2212  00192C                     l3822:
  2213                           
  2214                           ;C:/Users/Robert.Finch/OneDrive - Mini-Cam Ltd/Pic/Atex/PCB-005-419.X/Atex.c: 202:  whil
      +                          e(avsState)
  2215  00192C  5005               	movf	atexVerifyStat@avsState^0,w,c
  2216  00192E  A4D8               	btfss	status,2,c
  2217  001930  EF9C  F00C         	goto	u1831
  2218  001934  EF9E  F00C         	goto	u1830
  2219  001938                     u1831:
  2220  001938  EF79  F00C         	goto	l3820
  2221  00193C                     u1830:
  2222  00193C                     
  2223                           ;C:/Users/Robert.Finch/OneDrive - Mini-Cam Ltd/Pic/Atex/PCB-005-419.X/Atex.c: 252:  retu
      +                          rn returnVal;
  2224  00193C  5004               	movf	atexVerifyStat@returnVal^0,w,c
  2225  00193E  0012               	return		;funcret
  2226  001940                     __end_of_atexVerifyStat:
  2227                           	opt callstack 0
  2228                           
  2229 ;; *************** function _atexVerifyPressures *****************
  2230 ;; Defined at:
  2231 ;;		line 359 in file "C:/Users/Robert.Finch/OneDrive - Mini-Cam Ltd/Pic/Atex/PCB-005-419.X/Atex.c"
  2232 ;; Parameters:    Size  Location     Type
  2233 ;;		None
  2234 ;; Auto vars:     Size  Location     Type
  2235 ;;  i               1   61[COMRAM] unsigned char 
  2236 ;;  i               1   60[COMRAM] unsigned char 
  2237 ;;  i               1   59[COMRAM] unsigned char 
  2238 ;;  i               1   58[COMRAM] unsigned char 
  2239 ;;  i               1   63[COMRAM] unsigned char 
  2240 ;;  i               1   57[COMRAM] unsigned char 
  2241 ;;  maxPressure     1   56[COMRAM] unsigned char 
  2242 ;;  minPressure     1   55[COMRAM] unsigned char 
  2243 ;;  maxPressureL    1    0        unsigned char 
  2244 ;;  maxPressure     1   54[COMRAM] unsigned char 
  2245 ;;  minPressure     1   53[COMRAM] unsigned char 
  2246 ;;  maxPressureL    1    0        unsigned char 
  2247 ;;  avState         1   62[COMRAM] unsigned char 
  2248 ;;  returnVal       1   52[COMRAM] unsigned char 
  2249 ;; Return value:  Size  Location     Type
  2250 ;;                  1    wreg      unsigned char 
  2251 ;; Registers used:
  2252 ;;		wreg, fsr2l, fsr2h, status,2, status,0, prodl, prodh, cstack
  2253 ;; Tracked objects:
  2254 ;;		On entry : 0/0
  2255 ;;		On exit  : 0/0
  2256 ;;		Unchanged: 0/0
  2257 ;; Data sizes:     COMRAM   BANK0   BANK1   BANK2   BANK3   BANK4   BANK5   BANK6   BANK7   BANK8   BANK9  BANK10  BANK1
      +1  BANK12  BANK13  BANK14  BANK15
  2258 ;;      Params:         0       0       0       0       0       0       0       0       0       0       0       0       
      +0       0       0       0       0
  2259 ;;      Locals:        14       0       0       0       0       0       0       0       0       0       0       0       
      +0       0       0       0       0
  2260 ;;      Temps:          5       0       0       0       0       0       0       0       0       0       0       0       
      +0       0       0       0       0
  2261 ;;      Totals:        19       0       0       0       0       0       0       0       0       0       0       0       
      +0       0       0       0       0
  2262 ;;Total ram usage:       19 bytes
  2263 ;; Hardware stack levels used:    1
  2264 ;; Hardware stack levels required when called:    8
  2265 ;; This function calls:
  2266 ;;		_memset
  2267 ;;		_notifyAtexUnsafe
  2268 ;;		_notifyAtexUnsafeWithOverride
  2269 ;; This function is called by:
  2270 ;;		_atexPerformChecks
  2271 ;; This function uses a non-reentrant model
  2272 ;;
  2273                           
  2274                           	psect	text5
  2275  00001E                     __ptext5:
  2276                           	opt callstack 0
  2277  00001E                     _atexVerifyPressures:
  2278                           	opt callstack 21
  2279  00001E                     
  2280                           ;C:/Users/Robert.Finch/OneDrive - Mini-Cam Ltd/Pic/Atex/PCB-005-419.X/Atex.c: 361:  uint
      +                          8_t avState = avCheckMinPressure,
  2281  00001E  0E01               	movlw	1
  2282  000020  6E3F               	movwf	atexVerifyPressures@avState^0,c
  2283                           
  2284                           ;C:/Users/Robert.Finch/OneDrive - Mini-Cam Ltd/Pic/Atex/PCB-005-419.X/Atex.c: 362:    re
      +                          turnVal = 0;
  2285  000022  0E00               	movlw	0
  2286  000024  6E35               	movwf	atexVerifyPressures@returnVal^0,c
  2287                           
  2288                           ;C:/Users/Robert.Finch/OneDrive - Mini-Cam Ltd/Pic/Atex/PCB-005-419.X/Atex.c: 364:  trav
      +                          elFlagsAtexVerifyPressure = 0x00;
  2289  000026  0E00               	movlw	0
  2290  000028  0100               	movlb	0	; () banked
  2291  00002A  6F93               	movwf	_travelFlagsAtexVerifyPressure& (0+255),b
  2292                           
  2293                           ;C:/Users/Robert.Finch/OneDrive - Mini-Cam Ltd/Pic/Atex/PCB-005-419.X/Atex.c: 366:  whil
      +                          e(avState)
  2294  00002C  EFCC  F001         	goto	l4086
  2295  000030                     l3932:
  2296                           
  2297                           ;C:/Users/Robert.Finch/OneDrive - Mini-Cam Ltd/Pic/Atex/PCB-005-419.X/Atex.c: 371:    {;
      +                          C:/Users/Robert.Finch/OneDrive - Mini-Cam Ltd/Pic/Atex/PCB-005-419.X/Atex.c: 372:       
      +                                    travelFlagsAtexVerifyPressure |= 0x01;
  2298  000030  0100               	movlb	0	; () banked
  2299  000032  8193               	bsf	_travelFlagsAtexVerifyPressure& (0+255),0,b
  2300  000034                     
  2301                           ; BSR set to: 0
  2302                           ;C:/Users/Robert.Finch/OneDrive - Mini-Cam Ltd/Pic/Atex/PCB-005-419.X/Atex.c: 373:     a
      +                          vState = avCheckMaxPressure;
  2303  000034  0E02               	movlw	2
  2304  000036  6E3F               	movwf	atexVerifyPressures@avState^0,c
  2305  000038                     
  2306                           ; BSR set to: 0
  2307                           ;C:/Users/Robert.Finch/OneDrive - Mini-Cam Ltd/Pic/Atex/PCB-005-419.X/Atex.c: 375:     f
      +                          or(uint8_t i =0;i<((sizeof(atexAquireGrp))/(sizeof(atexPressure)));i++)
  2308  000038  0E00               	movlw	0
  2309  00003A  6E3A               	movwf	atexVerifyPressures@i^0,c
  2310  00003C                     l3942:
  2311                           
  2312                           ;C:/Users/Robert.Finch/OneDrive - Mini-Cam Ltd/Pic/Atex/PCB-005-419.X/Atex.c: 376:     {
      +                          ;C:/Users/Robert.Finch/OneDrive - Mini-Cam Ltd/Pic/Atex/PCB-005-419.X/Atex.c: 377:      
      +                          if(atexAquireGrp[i].kPa < 107)
  2313  00003C  503A               	movf	atexVerifyPressures@i^0,w,c
  2314  00003E  0D0A               	mullw	10
  2315  000040  0E9F               	movlw	low (_atexAquireGrp+2)
  2316  000042  24F3               	addwf	243,w,c
  2317  000044  6ED9               	movwf	fsr2l,c
  2318  000046  0E00               	movlw	high (_atexAquireGrp+2)
  2319  000048  20F4               	addwfc	prodh,w,c
  2320  00004A  6EDA               	movwf	fsr2h,c
  2321  00004C  0E6B               	movlw	107
  2322  00004E  60DF               	cpfslt	indf2,c
  2323  000050  EF2C  F000         	goto	u1921
  2324  000054  EF2E  F000         	goto	u1920
  2325  000058                     u1921:
  2326  000058  EF30  F000         	goto	l3946
  2327  00005C                     u1920:
  2328  00005C                     
  2329                           ;C:/Users/Robert.Finch/OneDrive - Mini-Cam Ltd/Pic/Atex/PCB-005-419.X/Atex.c: 378:      
      +                          {;C:/Users/Robert.Finch/OneDrive - Mini-Cam Ltd/Pic/Atex/PCB-005-419.X/Atex.c: 379:     
      +                            avState = avUnsafe;
  2330  00005C  0E06               	movlw	6
  2331  00005E  6E3F               	movwf	atexVerifyPressures@avState^0,c
  2332  000060                     l3946:
  2333                           
  2334                           ;C:/Users/Robert.Finch/OneDrive - Mini-Cam Ltd/Pic/Atex/PCB-005-419.X/Atex.c: 381:     }
  2335  000060  2A3A               	incf	atexVerifyPressures@i^0,f,c
  2336  000062  0E03               	movlw	3
  2337  000064  643A               	cpfsgt	atexVerifyPressures@i^0,c
  2338  000066  EF37  F000         	goto	u1931
  2339  00006A  EF39  F000         	goto	u1930
  2340  00006E                     u1931:
  2341  00006E  EF1E  F000         	goto	l3942
  2342  000072                     u1930:
  2343  000072  EFCC  F001         	goto	l4086
  2344  000076                     l3950:
  2345                           
  2346                           ;C:/Users/Robert.Finch/OneDrive - Mini-Cam Ltd/Pic/Atex/PCB-005-419.X/Atex.c: 386:    {;
      +                          C:/Users/Robert.Finch/OneDrive - Mini-Cam Ltd/Pic/Atex/PCB-005-419.X/Atex.c: 387:       
      +                                    travelFlagsAtexVerifyPressure |= 0x02;
  2347  000076  0100               	movlb	0	; () banked
  2348  000078  8393               	bsf	_travelFlagsAtexVerifyPressure& (0+255),1,b
  2349  00007A                     
  2350                           ; BSR set to: 0
  2351                           ;C:/Users/Robert.Finch/OneDrive - Mini-Cam Ltd/Pic/Atex/PCB-005-419.X/Atex.c: 388:     a
      +                          vState = avCheckPressureRangeGroupOne;
  2352  00007A  0E03               	movlw	3
  2353  00007C  6E3F               	movwf	atexVerifyPressures@avState^0,c
  2354  00007E                     
  2355                           ; BSR set to: 0
  2356                           ;C:/Users/Robert.Finch/OneDrive - Mini-Cam Ltd/Pic/Atex/PCB-005-419.X/Atex.c: 389:     f
      +                          or(uint8_t i =0;i<((sizeof(atexAquireGrp))/(sizeof(atexPressure)));i++)
  2357  00007E  0E00               	movlw	0
  2358  000080  6E40               	movwf	atexVerifyPressures@i_1853^0,c
  2359  000082                     l3960:
  2360                           
  2361                           ;C:/Users/Robert.Finch/OneDrive - Mini-Cam Ltd/Pic/Atex/PCB-005-419.X/Atex.c: 390:     {
      +                          ;C:/Users/Robert.Finch/OneDrive - Mini-Cam Ltd/Pic/Atex/PCB-005-419.X/Atex.c: 391:      
      +                          if(atexAquireGrp[i].kPa > (atexAquireGrp[i].mp + 100))
  2362  000082  5040               	movf	atexVerifyPressures@i_1853^0,w,c
  2363  000084  0D0A               	mullw	10
  2364  000086  0E9F               	movlw	low (_atexAquireGrp+2)
  2365  000088  24F3               	addwf	243,w,c
  2366  00008A  6ED9               	movwf	fsr2l,c
  2367  00008C  0E00               	movlw	high (_atexAquireGrp+2)
  2368  00008E  20F4               	addwfc	prodh,w,c
  2369  000090  6EDA               	movwf	fsr2h,c
  2370  000092  50DF               	movf	indf2,w,c
  2371  000094  6E2E               	movwf	??_atexVerifyPressures^0,c
  2372  000096  6A2F               	clrf	(??_atexVerifyPressures+1)^0,c
  2373  000098  5040               	movf	atexVerifyPressures@i_1853^0,w,c
  2374  00009A  0D0A               	mullw	10
  2375  00009C  0EA2               	movlw	low (_atexAquireGrp+5)
  2376  00009E  24F3               	addwf	243,w,c
  2377  0000A0  6ED9               	movwf	fsr2l,c
  2378  0000A2  0E00               	movlw	high (_atexAquireGrp+5)
  2379  0000A4  20F4               	addwfc	prodh,w,c
  2380  0000A6  6EDA               	movwf	fsr2h,c
  2381  0000A8  50DF               	movf	indf2,w,c
  2382  0000AA  6E30               	movwf	(??_atexVerifyPressures+2)^0,c
  2383  0000AC  6A31               	clrf	(??_atexVerifyPressures+3)^0,c
  2384  0000AE  0E64               	movlw	100
  2385  0000B0  2630               	addwf	(??_atexVerifyPressures+2)^0,f,c
  2386  0000B2  0E00               	movlw	0
  2387  0000B4  2231               	addwfc	(??_atexVerifyPressures+3)^0,f,c
  2388  0000B6  502E               	movf	??_atexVerifyPressures^0,w,c
  2389  0000B8  5C30               	subwf	(??_atexVerifyPressures+2)^0,w,c
  2390  0000BA  5031               	movf	(??_atexVerifyPressures+3)^0,w,c
  2391  0000BC  0A80               	xorlw	128
  2392  0000BE  6E32               	movwf	(??_atexVerifyPressures+4)^0,c
  2393  0000C0  502F               	movf	(??_atexVerifyPressures+1)^0,w,c
  2394  0000C2  0A80               	xorlw	128
  2395  0000C4  5832               	subwfb	(??_atexVerifyPressures+4)^0,w,c
  2396  0000C6  B0D8               	btfsc	status,0,c
  2397  0000C8  EF68  F000         	goto	u1941
  2398  0000CC  EF6A  F000         	goto	u1940
  2399  0000D0                     u1941:
  2400  0000D0  EF6C  F000         	goto	l3964
  2401  0000D4                     u1940:
  2402  0000D4                     
  2403                           ;C:/Users/Robert.Finch/OneDrive - Mini-Cam Ltd/Pic/Atex/PCB-005-419.X/Atex.c: 392:      
      +                          {;C:/Users/Robert.Finch/OneDrive - Mini-Cam Ltd/Pic/Atex/PCB-005-419.X/Atex.c: 393:     
      +                            avState = avUnsafe;
  2404  0000D4  0E06               	movlw	6
  2405  0000D6  6E3F               	movwf	atexVerifyPressures@avState^0,c
  2406  0000D8                     l3964:
  2407                           
  2408                           ;C:/Users/Robert.Finch/OneDrive - Mini-Cam Ltd/Pic/Atex/PCB-005-419.X/Atex.c: 395:      
      +                                         if(atexAquireGrp[i].mp > 250)
  2409  0000D8  5040               	movf	atexVerifyPressures@i_1853^0,w,c
  2410  0000DA  0D0A               	mullw	10
  2411  0000DC  0EA2               	movlw	low (_atexAquireGrp+5)
  2412  0000DE  24F3               	addwf	243,w,c
  2413  0000E0  6ED9               	movwf	fsr2l,c
  2414  0000E2  0E00               	movlw	high (_atexAquireGrp+5)
  2415  0000E4  20F4               	addwfc	prodh,w,c
  2416  0000E6  6EDA               	movwf	fsr2h,c
  2417  0000E8  0EFA               	movlw	250
  2418  0000EA  64DF               	cpfsgt	indf2,c
  2419  0000EC  EF7A  F000         	goto	u1951
  2420  0000F0  EF7C  F000         	goto	u1950
  2421  0000F4                     u1951:
  2422  0000F4  EF7E  F000         	goto	l3968
  2423  0000F8                     u1950:
  2424  0000F8                     
  2425                           ;C:/Users/Robert.Finch/OneDrive - Mini-Cam Ltd/Pic/Atex/PCB-005-419.X/Atex.c: 396:      
      +                                         {;C:/Users/Robert.Finch/OneDrive - Mini-Cam Ltd/Pic/Atex/PCB-005-419.X/At
      +                          ex.c: 397:                         avState = avUnsafe;
  2426  0000F8  0E06               	movlw	6
  2427  0000FA  6E3F               	movwf	atexVerifyPressures@avState^0,c
  2428  0000FC                     l3968:
  2429                           
  2430                           ;C:/Users/Robert.Finch/OneDrive - Mini-Cam Ltd/Pic/Atex/PCB-005-419.X/Atex.c: 399:     }
  2431  0000FC  2A40               	incf	atexVerifyPressures@i_1853^0,f,c
  2432  0000FE  0E03               	movlw	3
  2433  000100  6440               	cpfsgt	atexVerifyPressures@i_1853^0,c
  2434  000102  EF85  F000         	goto	u1961
  2435  000106  EF87  F000         	goto	u1960
  2436  00010A                     u1961:
  2437  00010A  EF41  F000         	goto	l3960
  2438  00010E                     u1960:
  2439  00010E  EFCC  F001         	goto	l4086
  2440  000112                     l3972:
  2441                           
  2442                           ;C:/Users/Robert.Finch/OneDrive - Mini-Cam Ltd/Pic/Atex/PCB-005-419.X/Atex.c: 405:    {;
      +                          C:/Users/Robert.Finch/OneDrive - Mini-Cam Ltd/Pic/Atex/PCB-005-419.X/Atex.c: 406:       
      +                                    travelFlagsAtexVerifyPressure |= 0x04;
  2443  000112  0100               	movlb	0	; () banked
  2444  000114  8593               	bsf	_travelFlagsAtexVerifyPressure& (0+255),2,b
  2445  000116                     
  2446                           ; BSR set to: 0
  2447                           ;C:/Users/Robert.Finch/OneDrive - Mini-Cam Ltd/Pic/Atex/PCB-005-419.X/Atex.c: 407:     a
      +                          vState = avUnsafe;
  2448  000116  0E06               	movlw	6
  2449  000118  6E3F               	movwf	atexVerifyPressures@avState^0,c
  2450  00011A                     
  2451                           ; BSR set to: 0
  2452                           ;C:/Users/Robert.Finch/OneDrive - Mini-Cam Ltd/Pic/Atex/PCB-005-419.X/Atex.c: 409:     u
      +                          int8_t minPressure = 0xFF,
  2453  00011A  6836               	setf	atexVerifyPressures@minPressure^0,c
  2454  00011C                     
  2455                           ; BSR set to: 0
  2456                           ;C:/Users/Robert.Finch/OneDrive - Mini-Cam Ltd/Pic/Atex/PCB-005-419.X/Atex.c: 410:      
      +                           maxPressure = 0,
  2457  00011C  0E00               	movlw	0
  2458  00011E  6E37               	movwf	atexVerifyPressures@maxPressure^0,c
  2459  000120                     
  2460                           ; BSR set to: 0
  2461                           ;C:/Users/Robert.Finch/OneDrive - Mini-Cam Ltd/Pic/Atex/PCB-005-419.X/Atex.c: 414:     f
      +                          or(uint8_t i =0;i<(((sizeof(atexAquireGrp))/(sizeof(atexPressure)))/2);i++)
  2462  000120  0E00               	movlw	0
  2463  000122  6E3B               	movwf	atexVerifyPressures@i_1857^0,c
  2464  000124                     l3988:
  2465                           
  2466                           ;C:/Users/Robert.Finch/OneDrive - Mini-Cam Ltd/Pic/Atex/PCB-005-419.X/Atex.c: 415:     {
      +                          ;C:/Users/Robert.Finch/OneDrive - Mini-Cam Ltd/Pic/Atex/PCB-005-419.X/Atex.c: 416:      
      +                          if(atexAquireGrp[i].kPa < minPressure)
  2467  000124  503B               	movf	atexVerifyPressures@i_1857^0,w,c
  2468  000126  0D0A               	mullw	10
  2469  000128  0E9F               	movlw	low (_atexAquireGrp+2)
  2470  00012A  24F3               	addwf	243,w,c
  2471  00012C  6ED9               	movwf	fsr2l,c
  2472  00012E  0E00               	movlw	high (_atexAquireGrp+2)
  2473  000130  20F4               	addwfc	prodh,w,c
  2474  000132  6EDA               	movwf	fsr2h,c
  2475  000134  5036               	movf	atexVerifyPressures@minPressure^0,w,c
  2476  000136  5CDE               	subwf	postinc2,w,c
  2477  000138  B0D8               	btfsc	status,0,c
  2478  00013A  EFA1  F000         	goto	u1971
  2479  00013E  EFA3  F000         	goto	u1970
  2480  000142                     u1971:
  2481  000142  EFAD  F000         	goto	l3992
  2482  000146                     u1970:
  2483  000146                     
  2484                           ;C:/Users/Robert.Finch/OneDrive - Mini-Cam Ltd/Pic/Atex/PCB-005-419.X/Atex.c: 417:      
      +                          {;C:/Users/Robert.Finch/OneDrive - Mini-Cam Ltd/Pic/Atex/PCB-005-419.X/Atex.c: 418:     
      +                            minPressure = atexAquireGrp[i].kPa;
  2485  000146  503B               	movf	atexVerifyPressures@i_1857^0,w,c
  2486  000148  0D0A               	mullw	10
  2487  00014A  0E9F               	movlw	low (_atexAquireGrp+2)
  2488  00014C  24F3               	addwf	243,w,c
  2489  00014E  6ED9               	movwf	fsr2l,c
  2490  000150  0E00               	movlw	high (_atexAquireGrp+2)
  2491  000152  20F4               	addwfc	prodh,w,c
  2492  000154  6EDA               	movwf	fsr2h,c
  2493  000156  50DF               	movf	indf2,w,c
  2494  000158  6E36               	movwf	atexVerifyPressures@minPressure^0,c
  2495  00015A                     l3992:
  2496                           
  2497                           ;C:/Users/Robert.Finch/OneDrive - Mini-Cam Ltd/Pic/Atex/PCB-005-419.X/Atex.c: 420:     }
  2498  00015A  2A3B               	incf	atexVerifyPressures@i_1857^0,f,c
  2499  00015C  0E01               	movlw	1
  2500  00015E  643B               	cpfsgt	atexVerifyPressures@i_1857^0,c
  2501  000160  EFB4  F000         	goto	u1981
  2502  000164  EFB6  F000         	goto	u1980
  2503  000168                     u1981:
  2504  000168  EF92  F000         	goto	l3988
  2505  00016C                     u1980:
  2506  00016C                     
  2507                           ;C:/Users/Robert.Finch/OneDrive - Mini-Cam Ltd/Pic/Atex/PCB-005-419.X/Atex.c: 423:     f
      +                          or(uint8_t i =0;i<(((sizeof(atexAquireGrp))/(sizeof(atexPressure)))/2);i++)
  2508  00016C  0E00               	movlw	0
  2509  00016E  6E3C               	movwf	atexVerifyPressures@i_1858^0,c
  2510  000170                     l4002:
  2511                           
  2512                           ;C:/Users/Robert.Finch/OneDrive - Mini-Cam Ltd/Pic/Atex/PCB-005-419.X/Atex.c: 424:     {
      +                          ;C:/Users/Robert.Finch/OneDrive - Mini-Cam Ltd/Pic/Atex/PCB-005-419.X/Atex.c: 425:      
      +                          if(atexAquireGrp[i].kPa > maxPressure)
  2513  000170  503C               	movf	atexVerifyPressures@i_1858^0,w,c
  2514  000172  0D0A               	mullw	10
  2515  000174  0E9F               	movlw	low (_atexAquireGrp+2)
  2516  000176  24F3               	addwf	243,w,c
  2517  000178  6ED9               	movwf	fsr2l,c
  2518  00017A  0E00               	movlw	high (_atexAquireGrp+2)
  2519  00017C  20F4               	addwfc	prodh,w,c
  2520  00017E  6EDA               	movwf	fsr2h,c
  2521  000180  50DE               	movf	postinc2,w,c
  2522  000182  5C37               	subwf	atexVerifyPressures@maxPressure^0,w,c
  2523  000184  B0D8               	btfsc	status,0,c
  2524  000186  EFC7  F000         	goto	u1991
  2525  00018A  EFC9  F000         	goto	u1990
  2526  00018E                     u1991:
  2527  00018E  EFD3  F000         	goto	l4006
  2528  000192                     u1990:
  2529  000192                     
  2530                           ;C:/Users/Robert.Finch/OneDrive - Mini-Cam Ltd/Pic/Atex/PCB-005-419.X/Atex.c: 426:      
      +                          {;C:/Users/Robert.Finch/OneDrive - Mini-Cam Ltd/Pic/Atex/PCB-005-419.X/Atex.c: 427:     
      +                            maxPressure = atexAquireGrp[i].kPa;
  2531  000192  503C               	movf	atexVerifyPressures@i_1858^0,w,c
  2532  000194  0D0A               	mullw	10
  2533  000196  0E9F               	movlw	low (_atexAquireGrp+2)
  2534  000198  24F3               	addwf	243,w,c
  2535  00019A  6ED9               	movwf	fsr2l,c
  2536  00019C  0E00               	movlw	high (_atexAquireGrp+2)
  2537  00019E  20F4               	addwfc	prodh,w,c
  2538  0001A0  6EDA               	movwf	fsr2h,c
  2539  0001A2  50DF               	movf	indf2,w,c
  2540  0001A4  6E37               	movwf	atexVerifyPressures@maxPressure^0,c
  2541  0001A6                     l4006:
  2542                           
  2543                           ;C:/Users/Robert.Finch/OneDrive - Mini-Cam Ltd/Pic/Atex/PCB-005-419.X/Atex.c: 429:     }
  2544  0001A6  2A3C               	incf	atexVerifyPressures@i_1858^0,f,c
  2545  0001A8  0E01               	movlw	1
  2546  0001AA  643C               	cpfsgt	atexVerifyPressures@i_1858^0,c
  2547  0001AC  EFDA  F000         	goto	u2001
  2548  0001B0  EFDC  F000         	goto	u2000
  2549  0001B4                     u2001:
  2550  0001B4  EFB8  F000         	goto	l4002
  2551  0001B8                     u2000:
  2552  0001B8                     
  2553                           ;C:/Users/Robert.Finch/OneDrive - Mini-Cam Ltd/Pic/Atex/PCB-005-419.X/Atex.c: 431:     i
      +                          f(maxPressure < (5 + minPressure))
  2554  0001B8  5036               	movf	atexVerifyPressures@minPressure^0,w,c
  2555  0001BA  6E2E               	movwf	??_atexVerifyPressures^0,c
  2556  0001BC  6A2F               	clrf	(??_atexVerifyPressures+1)^0,c
  2557  0001BE  0E05               	movlw	5
  2558  0001C0  262E               	addwf	??_atexVerifyPressures^0,f,c
  2559  0001C2  0E00               	movlw	0
  2560  0001C4  222F               	addwfc	(??_atexVerifyPressures+1)^0,f,c
  2561  0001C6  5037               	movf	atexVerifyPressures@maxPressure^0,w,c
  2562  0001C8  6E30               	movwf	(??_atexVerifyPressures+2)^0,c
  2563  0001CA  6A31               	clrf	(??_atexVerifyPressures+3)^0,c
  2564  0001CC  502E               	movf	??_atexVerifyPressures^0,w,c
  2565  0001CE  5C30               	subwf	(??_atexVerifyPressures+2)^0,w,c
  2566  0001D0  5031               	movf	(??_atexVerifyPressures+3)^0,w,c
  2567  0001D2  0A80               	xorlw	128
  2568  0001D4  6E32               	movwf	(??_atexVerifyPressures+4)^0,c
  2569  0001D6  502F               	movf	(??_atexVerifyPressures+1)^0,w,c
  2570  0001D8  0A80               	xorlw	128
  2571  0001DA  5832               	subwfb	(??_atexVerifyPressures+4)^0,w,c
  2572  0001DC  B0D8               	btfsc	status,0,c
  2573  0001DE  EFF3  F000         	goto	u2011
  2574  0001E2  EFF5  F000         	goto	u2010
  2575  0001E6                     u2011:
  2576  0001E6  EFCC  F001         	goto	l4086
  2577  0001EA                     u2010:
  2578  0001EA                     
  2579                           ;C:/Users/Robert.Finch/OneDrive - Mini-Cam Ltd/Pic/Atex/PCB-005-419.X/Atex.c: 432:     {
      +                          ;C:/Users/Robert.Finch/OneDrive - Mini-Cam Ltd/Pic/Atex/PCB-005-419.X/Atex.c: 433:      
      +                          avState = avCheckPressureRangeGroupTwo;
  2580  0001EA  0E04               	movlw	4
  2581  0001EC  6E3F               	movwf	atexVerifyPressures@avState^0,c
  2582  0001EE  EFCC  F001         	goto	l4086
  2583  0001F2                     l4014:
  2584                           
  2585                           ;C:/Users/Robert.Finch/OneDrive - Mini-Cam Ltd/Pic/Atex/PCB-005-419.X/Atex.c: 440:    {;
      +                          C:/Users/Robert.Finch/OneDrive - Mini-Cam Ltd/Pic/Atex/PCB-005-419.X/Atex.c: 441:       
      +                                    travelFlagsAtexVerifyPressure |= 0x08;
  2586  0001F2  0100               	movlb	0	; () banked
  2587  0001F4  8793               	bsf	_travelFlagsAtexVerifyPressure& (0+255),3,b
  2588  0001F6                     
  2589                           ; BSR set to: 0
  2590                           ;C:/Users/Robert.Finch/OneDrive - Mini-Cam Ltd/Pic/Atex/PCB-005-419.X/Atex.c: 442:     a
      +                          vState = avUnsafe;
  2591  0001F6  0E06               	movlw	6
  2592  0001F8  6E3F               	movwf	atexVerifyPressures@avState^0,c
  2593  0001FA                     
  2594                           ; BSR set to: 0
  2595                           ;C:/Users/Robert.Finch/OneDrive - Mini-Cam Ltd/Pic/Atex/PCB-005-419.X/Atex.c: 444:     u
      +                          int8_t minPressure = 0xFF,
  2596  0001FA  6838               	setf	atexVerifyPressures@minPressure_1859^0,c
  2597  0001FC                     
  2598                           ; BSR set to: 0
  2599                           ;C:/Users/Robert.Finch/OneDrive - Mini-Cam Ltd/Pic/Atex/PCB-005-419.X/Atex.c: 445:      
      +                           maxPressure = 0,
  2600  0001FC  0E00               	movlw	0
  2601  0001FE  6E39               	movwf	atexVerifyPressures@maxPressure_1860^0,c
  2602  000200                     
  2603                           ; BSR set to: 0
  2604                           ;C:/Users/Robert.Finch/OneDrive - Mini-Cam Ltd/Pic/Atex/PCB-005-419.X/Atex.c: 449:     f
      +                          or(uint8_t i =2;i<(((sizeof(atexAquireGrp))/(sizeof(atexPressure)))/1);i++)
  2605  000200  0E02               	movlw	2
  2606  000202  6E3D               	movwf	atexVerifyPressures@i_1862^0,c
  2607  000204                     l4030:
  2608                           
  2609                           ;C:/Users/Robert.Finch/OneDrive - Mini-Cam Ltd/Pic/Atex/PCB-005-419.X/Atex.c: 450:     {
      +                          ;C:/Users/Robert.Finch/OneDrive - Mini-Cam Ltd/Pic/Atex/PCB-005-419.X/Atex.c: 451:      
      +                          if(atexAquireGrp[i].kPa < minPressure)
  2610  000204  503D               	movf	atexVerifyPressures@i_1862^0,w,c
  2611  000206  0D0A               	mullw	10
  2612  000208  0E9F               	movlw	low (_atexAquireGrp+2)
  2613  00020A  24F3               	addwf	243,w,c
  2614  00020C  6ED9               	movwf	fsr2l,c
  2615  00020E  0E00               	movlw	high (_atexAquireGrp+2)
  2616  000210  20F4               	addwfc	prodh,w,c
  2617  000212  6EDA               	movwf	fsr2h,c
  2618  000214  5038               	movf	atexVerifyPressures@minPressure_1859^0,w,c
  2619  000216  5CDE               	subwf	postinc2,w,c
  2620  000218  B0D8               	btfsc	status,0,c
  2621  00021A  EF11  F001         	goto	u2021
  2622  00021E  EF13  F001         	goto	u2020
  2623  000222                     u2021:
  2624  000222  EF1D  F001         	goto	l4034
  2625  000226                     u2020:
  2626  000226                     
  2627                           ;C:/Users/Robert.Finch/OneDrive - Mini-Cam Ltd/Pic/Atex/PCB-005-419.X/Atex.c: 452:      
      +                          {;C:/Users/Robert.Finch/OneDrive - Mini-Cam Ltd/Pic/Atex/PCB-005-419.X/Atex.c: 453:     
      +                            minPressure = atexAquireGrp[i].kPa;
  2628  000226  503D               	movf	atexVerifyPressures@i_1862^0,w,c
  2629  000228  0D0A               	mullw	10
  2630  00022A  0E9F               	movlw	low (_atexAquireGrp+2)
  2631  00022C  24F3               	addwf	243,w,c
  2632  00022E  6ED9               	movwf	fsr2l,c
  2633  000230  0E00               	movlw	high (_atexAquireGrp+2)
  2634  000232  20F4               	addwfc	prodh,w,c
  2635  000234  6EDA               	movwf	fsr2h,c
  2636  000236  50DF               	movf	indf2,w,c
  2637  000238  6E38               	movwf	atexVerifyPressures@minPressure_1859^0,c
  2638  00023A                     l4034:
  2639                           
  2640                           ;C:/Users/Robert.Finch/OneDrive - Mini-Cam Ltd/Pic/Atex/PCB-005-419.X/Atex.c: 455:     }
  2641  00023A  2A3D               	incf	atexVerifyPressures@i_1862^0,f,c
  2642  00023C  0E03               	movlw	3
  2643  00023E  643D               	cpfsgt	atexVerifyPressures@i_1862^0,c
  2644  000240  EF24  F001         	goto	u2031
  2645  000244  EF26  F001         	goto	u2030
  2646  000248                     u2031:
  2647  000248  EF02  F001         	goto	l4030
  2648  00024C                     u2030:
  2649  00024C                     
  2650                           ;C:/Users/Robert.Finch/OneDrive - Mini-Cam Ltd/Pic/Atex/PCB-005-419.X/Atex.c: 458:     f
      +                          or(uint8_t i =2;i<(((sizeof(atexAquireGrp))/(sizeof(atexPressure)))/1);i++)
  2651  00024C  0E02               	movlw	2
  2652  00024E  6E3E               	movwf	atexVerifyPressures@i_1863^0,c
  2653  000250                     l4044:
  2654                           
  2655                           ;C:/Users/Robert.Finch/OneDrive - Mini-Cam Ltd/Pic/Atex/PCB-005-419.X/Atex.c: 459:     {
      +                          ;C:/Users/Robert.Finch/OneDrive - Mini-Cam Ltd/Pic/Atex/PCB-005-419.X/Atex.c: 460:      
      +                          if(atexAquireGrp[i].kPa > maxPressure)
  2656  000250  503E               	movf	atexVerifyPressures@i_1863^0,w,c
  2657  000252  0D0A               	mullw	10
  2658  000254  0E9F               	movlw	low (_atexAquireGrp+2)
  2659  000256  24F3               	addwf	243,w,c
  2660  000258  6ED9               	movwf	fsr2l,c
  2661  00025A  0E00               	movlw	high (_atexAquireGrp+2)
  2662  00025C  20F4               	addwfc	prodh,w,c
  2663  00025E  6EDA               	movwf	fsr2h,c
  2664  000260  50DE               	movf	postinc2,w,c
  2665  000262  5C39               	subwf	atexVerifyPressures@maxPressure_1860^0,w,c
  2666  000264  B0D8               	btfsc	status,0,c
  2667  000266  EF37  F001         	goto	u2041
  2668  00026A  EF39  F001         	goto	u2040
  2669  00026E                     u2041:
  2670  00026E  EF43  F001         	goto	l4048
  2671  000272                     u2040:
  2672  000272                     
  2673                           ;C:/Users/Robert.Finch/OneDrive - Mini-Cam Ltd/Pic/Atex/PCB-005-419.X/Atex.c: 461:      
      +                          {;C:/Users/Robert.Finch/OneDrive - Mini-Cam Ltd/Pic/Atex/PCB-005-419.X/Atex.c: 462:     
      +                            maxPressure = atexAquireGrp[i].kPa;
  2674  000272  503E               	movf	atexVerifyPressures@i_1863^0,w,c
  2675  000274  0D0A               	mullw	10
  2676  000276  0E9F               	movlw	low (_atexAquireGrp+2)
  2677  000278  24F3               	addwf	243,w,c
  2678  00027A  6ED9               	movwf	fsr2l,c
  2679  00027C  0E00               	movlw	high (_atexAquireGrp+2)
  2680  00027E  20F4               	addwfc	prodh,w,c
  2681  000280  6EDA               	movwf	fsr2h,c
  2682  000282  50DF               	movf	indf2,w,c
  2683  000284  6E39               	movwf	atexVerifyPressures@maxPressure_1860^0,c
  2684  000286                     l4048:
  2685                           
  2686                           ;C:/Users/Robert.Finch/OneDrive - Mini-Cam Ltd/Pic/Atex/PCB-005-419.X/Atex.c: 464:     }
  2687  000286  2A3E               	incf	atexVerifyPressures@i_1863^0,f,c
  2688  000288  0E03               	movlw	3
  2689  00028A  643E               	cpfsgt	atexVerifyPressures@i_1863^0,c
  2690  00028C  EF4A  F001         	goto	u2051
  2691  000290  EF4C  F001         	goto	u2050
  2692  000294                     u2051:
  2693  000294  EF28  F001         	goto	l4044
  2694  000298                     u2050:
  2695  000298                     
  2696                           ;C:/Users/Robert.Finch/OneDrive - Mini-Cam Ltd/Pic/Atex/PCB-005-419.X/Atex.c: 466:     i
      +                          f(maxPressure < (5 + minPressure))
  2697  000298  5038               	movf	atexVerifyPressures@minPressure_1859^0,w,c
  2698  00029A  6E2E               	movwf	??_atexVerifyPressures^0,c
  2699  00029C  6A2F               	clrf	(??_atexVerifyPressures+1)^0,c
  2700  00029E  0E05               	movlw	5
  2701  0002A0  262E               	addwf	??_atexVerifyPressures^0,f,c
  2702  0002A2  0E00               	movlw	0
  2703  0002A4  222F               	addwfc	(??_atexVerifyPressures+1)^0,f,c
  2704  0002A6  5039               	movf	atexVerifyPressures@maxPressure_1860^0,w,c
  2705  0002A8  6E30               	movwf	(??_atexVerifyPressures+2)^0,c
  2706  0002AA  6A31               	clrf	(??_atexVerifyPressures+3)^0,c
  2707  0002AC  502E               	movf	??_atexVerifyPressures^0,w,c
  2708  0002AE  5C30               	subwf	(??_atexVerifyPressures+2)^0,w,c
  2709  0002B0  5031               	movf	(??_atexVerifyPressures+3)^0,w,c
  2710  0002B2  0A80               	xorlw	128
  2711  0002B4  6E32               	movwf	(??_atexVerifyPressures+4)^0,c
  2712  0002B6  502F               	movf	(??_atexVerifyPressures+1)^0,w,c
  2713  0002B8  0A80               	xorlw	128
  2714  0002BA  5832               	subwfb	(??_atexVerifyPressures+4)^0,w,c
  2715  0002BC  B0D8               	btfsc	status,0,c
  2716  0002BE  EF63  F001         	goto	u2061
  2717  0002C2  EF65  F001         	goto	u2060
  2718  0002C6                     u2061:
  2719  0002C6  EFCC  F001         	goto	l4086
  2720  0002CA                     u2060:
  2721  0002CA                     
  2722                           ;C:/Users/Robert.Finch/OneDrive - Mini-Cam Ltd/Pic/Atex/PCB-005-419.X/Atex.c: 467:     {
      +                          ;C:/Users/Robert.Finch/OneDrive - Mini-Cam Ltd/Pic/Atex/PCB-005-419.X/Atex.c: 468:      
      +                          avState = avAtexSafe;
  2723  0002CA  0E05               	movlw	5
  2724  0002CC  6E3F               	movwf	atexVerifyPressures@avState^0,c
  2725  0002CE  EFCC  F001         	goto	l4086
  2726  0002D2                     l4056:
  2727                           
  2728                           ;C:/Users/Robert.Finch/OneDrive - Mini-Cam Ltd/Pic/Atex/PCB-005-419.X/Atex.c: 475:    {;
      +                          C:/Users/Robert.Finch/OneDrive - Mini-Cam Ltd/Pic/Atex/PCB-005-419.X/Atex.c: 476:       
      +                                    travelFlagsAtexVerifyPressure |= 0x10;
  2729  0002D2  0100               	movlb	0	; () banked
  2730  0002D4  8993               	bsf	_travelFlagsAtexVerifyPressure& (0+255),4,b
  2731  0002D6                     
  2732                           ; BSR set to: 0
  2733                           ;C:/Users/Robert.Finch/OneDrive - Mini-Cam Ltd/Pic/Atex/PCB-005-419.X/Atex.c: 477:     a
      +                          vState = avExit;
  2734  0002D6  0E00               	movlw	0
  2735  0002D8  6E3F               	movwf	atexVerifyPressures@avState^0,c
  2736                           
  2737                           ;C:/Users/Robert.Finch/OneDrive - Mini-Cam Ltd/Pic/Atex/PCB-005-419.X/Atex.c: 478:     b
      +                          reak;
  2738  0002DA  EFCC  F001         	goto	l4086
  2739  0002DE                     l4060:
  2740                           
  2741                           ;C:/Users/Robert.Finch/OneDrive - Mini-Cam Ltd/Pic/Atex/PCB-005-419.X/Atex.c: 482:    {;
      +                          C:/Users/Robert.Finch/OneDrive - Mini-Cam Ltd/Pic/Atex/PCB-005-419.X/Atex.c: 483:       
      +                                    travelFlagsAtexVerifyPressure |= 0x20;
  2742  0002DE  0100               	movlb	0	; () banked
  2743  0002E0  8B93               	bsf	_travelFlagsAtexVerifyPressure& (0+255),5,b
  2744  0002E2                     
  2745                           ; BSR set to: 0
  2746                           ;C:/Users/Robert.Finch/OneDrive - Mini-Cam Ltd/Pic/Atex/PCB-005-419.X/Atex.c: 484:      
      +                                     memset(&atexAquireGrp,0,sizeof(atexAquireGrp));
  2747  0002E2  0E9D               	movlw	low _atexAquireGrp
  2748  0002E4  6E01               	movwf	memset@dest^0,c
  2749  0002E6  0E00               	movlw	high _atexAquireGrp
  2750  0002E8  6E02               	movwf	(memset@dest+1)^0,c
  2751  0002EA  0E00               	movlw	0
  2752  0002EC  6E04               	movwf	(memset@c+1)^0,c
  2753  0002EE  0E00               	movlw	0
  2754  0002F0  6E03               	movwf	memset@c^0,c
  2755  0002F2  0E00               	movlw	0
  2756  0002F4  6E06               	movwf	(memset@n+1)^0,c
  2757  0002F6  0E28               	movlw	40
  2758  0002F8  6E05               	movwf	memset@n^0,c
  2759  0002FA  EC8E  F007         	call	_memset	;wreg free
  2760  0002FE                     
  2761                           ;C:/Users/Robert.Finch/OneDrive - Mini-Cam Ltd/Pic/Atex/PCB-005-419.X/Atex.c: 485:     a
      +                          vState = avExit;
  2762  0002FE  0E00               	movlw	0
  2763  000300  6E3F               	movwf	atexVerifyPressures@avState^0,c
  2764  000302                     
  2765                           ;C:/Users/Robert.Finch/OneDrive - Mini-Cam Ltd/Pic/Atex/PCB-005-419.X/Atex.c: 486:     r
      +                          eturnVal = 1;
  2766  000302  0E01               	movlw	1
  2767  000304  6E35               	movwf	atexVerifyPressures@returnVal^0,c
  2768                           
  2769                           ;C:/Users/Robert.Finch/OneDrive - Mini-Cam Ltd/Pic/Atex/PCB-005-419.X/Atex.c: 487:     b
      +                          reak;
  2770  000306  EFCC  F001         	goto	l4086
  2771  00030A                     l4068:
  2772                           
  2773                           ;C:/Users/Robert.Finch/OneDrive - Mini-Cam Ltd/Pic/Atex/PCB-005-419.X/Atex.c: 491:    {;
      +                          C:/Users/Robert.Finch/OneDrive - Mini-Cam Ltd/Pic/Atex/PCB-005-419.X/Atex.c: 492:       
      +                                    travelFlagsAtexVerifyPressure |= 0x40;
  2774  00030A  0100               	movlb	0	; () banked
  2775  00030C  8D93               	bsf	_travelFlagsAtexVerifyPressure& (0+255),6,b
  2776  00030E                     
  2777                           ; BSR set to: 0
  2778                           ;C:/Users/Robert.Finch/OneDrive - Mini-Cam Ltd/Pic/Atex/PCB-005-419.X/Atex.c: 493:      
      +                                     memset(&atexAquireGrp,0,sizeof(atexAquireGrp));
  2779  00030E  0E9D               	movlw	low _atexAquireGrp
  2780  000310  6E01               	movwf	memset@dest^0,c
  2781  000312  0E00               	movlw	high _atexAquireGrp
  2782  000314  6E02               	movwf	(memset@dest+1)^0,c
  2783  000316  0E00               	movlw	0
  2784  000318  6E04               	movwf	(memset@c+1)^0,c
  2785  00031A  0E00               	movlw	0
  2786  00031C  6E03               	movwf	memset@c^0,c
  2787  00031E  0E00               	movlw	0
  2788  000320  6E06               	movwf	(memset@n+1)^0,c
  2789  000322  0E28               	movlw	40
  2790  000324  6E05               	movwf	memset@n^0,c
  2791  000326  EC8E  F007         	call	_memset	;wreg free
  2792  00032A                     
  2793                           ;C:/Users/Robert.Finch/OneDrive - Mini-Cam Ltd/Pic/Atex/PCB-005-419.X/Atex.c: 494:     a
      +                          vState = avExit;
  2794  00032A  0E00               	movlw	0
  2795  00032C  6E3F               	movwf	atexVerifyPressures@avState^0,c
  2796  00032E                     
  2797                           ;C:/Users/Robert.Finch/OneDrive - Mini-Cam Ltd/Pic/Atex/PCB-005-419.X/Atex.c: 495:     r
      +                          eturnVal = 0;
  2798  00032E  0E00               	movlw	0
  2799  000330  6E35               	movwf	atexVerifyPressures@returnVal^0,c
  2800  000332                     
  2801                           ;C:/Users/Robert.Finch/OneDrive - Mini-Cam Ltd/Pic/Atex/PCB-005-419.X/Atex.c: 497:     n
      +                          otifyAtexUnsafeWithOverride();
  2802  000332  ECB4  F005         	call	_notifyAtexUnsafeWithOverride	;wreg free
  2803                           
  2804                           ;C:/Users/Robert.Finch/OneDrive - Mini-Cam Ltd/Pic/Atex/PCB-005-419.X/Atex.c: 498:     b
      +                          reak;
  2805  000336  EFCC  F001         	goto	l4086
  2806  00033A                     l4078:
  2807                           
  2808                           ;C:/Users/Robert.Finch/OneDrive - Mini-Cam Ltd/Pic/Atex/PCB-005-419.X/Atex.c: 503:    {;
      +                          C:/Users/Robert.Finch/OneDrive - Mini-Cam Ltd/Pic/Atex/PCB-005-419.X/Atex.c: 504:     tr
      +                          avelFlagsAtexVerifyPressure |= 0x80;
  2809  00033A  0100               	movlb	0	; () banked
  2810  00033C  8F93               	bsf	_travelFlagsAtexVerifyPressure& (0+255),7,b
  2811  00033E                     
  2812                           ; BSR set to: 0
  2813                           ;C:/Users/Robert.Finch/OneDrive - Mini-Cam Ltd/Pic/Atex/PCB-005-419.X/Atex.c: 505:     n
      +                          otifyAtexUnsafe();
  2814  00033E  EC01  F00E         	call	_notifyAtexUnsafe	;wreg free
  2815                           
  2816                           ;C:/Users/Robert.Finch/OneDrive - Mini-Cam Ltd/Pic/Atex/PCB-005-419.X/Atex.c: 507:     b
      +                          reak;
  2817  000342  EFCC  F001         	goto	l4086
  2818  000346                     l4084:
  2819  000346  503F               	movf	atexVerifyPressures@avState^0,w,c
  2820  000348  6E2E               	movwf	??_atexVerifyPressures^0,c
  2821  00034A  6A2F               	clrf	(??_atexVerifyPressures+1)^0,c
  2822                           
  2823                           ; Switch on 2 bytes has been partitioned into a top level switch of size 1, and 1 sub-sw
      +                          itches
  2824                           ; Switch size 1, requested type "simple"
  2825                           ; Number of cases is 1, Range of values is 0 to 0
  2826                           ; switch strategies available:
  2827                           ; Name         Instructions Cycles
  2828                           ; simple_byte            4     3 (average)
  2829                           ;	Chosen strategy is simple_byte
  2830  00034C  502F               	movf	(??_atexVerifyPressures+1)^0,w,c
  2831  00034E  0A00               	xorlw	0	; case 0
  2832  000350  B4D8               	btfsc	status,2,c
  2833  000352  EFAD  F001         	goto	l4524
  2834  000356  EF9D  F001         	goto	l4078
  2835  00035A                     l4524:
  2836                           
  2837                           ; Switch size 1, requested type "simple"
  2838                           ; Number of cases is 7, Range of values is 0 to 6
  2839                           ; switch strategies available:
  2840                           ; Name         Instructions Cycles
  2841                           ; simple_byte           22    12 (average)
  2842                           ;	Chosen strategy is simple_byte
  2843  00035A  502E               	movf	??_atexVerifyPressures^0,w,c
  2844  00035C  0A00               	xorlw	0	; case 0
  2845  00035E  B4D8               	btfsc	status,2,c
  2846  000360  EF69  F001         	goto	l4056
  2847  000364  0A01               	xorlw	1	; case 1
  2848  000366  B4D8               	btfsc	status,2,c
  2849  000368  EF18  F000         	goto	l3932
  2850  00036C  0A03               	xorlw	3	; case 2
  2851  00036E  B4D8               	btfsc	status,2,c
  2852  000370  EF3B  F000         	goto	l3950
  2853  000374  0A01               	xorlw	1	; case 3
  2854  000376  B4D8               	btfsc	status,2,c
  2855  000378  EF89  F000         	goto	l3972
  2856  00037C  0A07               	xorlw	7	; case 4
  2857  00037E  B4D8               	btfsc	status,2,c
  2858  000380  EFF9  F000         	goto	l4014
  2859  000384  0A01               	xorlw	1	; case 5
  2860  000386  B4D8               	btfsc	status,2,c
  2861  000388  EF6F  F001         	goto	l4060
  2862  00038C  0A03               	xorlw	3	; case 6
  2863  00038E  B4D8               	btfsc	status,2,c
  2864  000390  EF85  F001         	goto	l4068
  2865  000394  EF9D  F001         	goto	l4078
  2866  000398                     l4086:
  2867                           
  2868                           ;C:/Users/Robert.Finch/OneDrive - Mini-Cam Ltd/Pic/Atex/PCB-005-419.X/Atex.c: 366:  whil
      +                          e(avState)
  2869  000398  503F               	movf	atexVerifyPressures@avState^0,w,c
  2870  00039A  A4D8               	btfss	status,2,c
  2871  00039C  EFD2  F001         	goto	u2071
  2872  0003A0  EFD4  F001         	goto	u2070
  2873  0003A4                     u2071:
  2874  0003A4  EFA3  F001         	goto	l4084
  2875  0003A8                     u2070:
  2876  0003A8                     
  2877                           ;C:/Users/Robert.Finch/OneDrive - Mini-Cam Ltd/Pic/Atex/PCB-005-419.X/Atex.c: 512: retur
      +                          n returnVal;
  2878  0003A8  5035               	movf	atexVerifyPressures@returnVal^0,w,c
  2879  0003AA  0012               	return		;funcret
  2880  0003AC                     __end_of_atexVerifyPressures:
  2881                           	opt callstack 0
  2882                           
  2883 ;; *************** function _notifyAtexUnsafeWithOverride *****************
  2884 ;; Defined at:
  2885 ;;		line 659 in file "C:/Users/Robert.Finch/OneDrive - Mini-Cam Ltd/Pic/Atex/PCB-005-419.X/Atex.c"
  2886 ;; Parameters:    Size  Location     Type
  2887 ;;		None
  2888 ;; Auto vars:     Size  Location     Type
  2889 ;;  atexDump       14   31[COMRAM] struct .
  2890 ;;  timeNow         4   27[COMRAM] unsigned long 
  2891 ;;  ledTimer        4   23[COMRAM] unsigned long 
  2892 ;; Return value:  Size  Location     Type
  2893 ;;                  1    wreg      void 
  2894 ;; Registers used:
  2895 ;;		wreg, fsr2l, fsr2h, status,2, status,0, cstack
  2896 ;; Tracked objects:
  2897 ;;		On entry : 0/0
  2898 ;;		On exit  : 0/0
  2899 ;;		Unchanged: 0/0
  2900 ;; Data sizes:     COMRAM   BANK0   BANK1   BANK2   BANK3   BANK4   BANK5   BANK6   BANK7   BANK8   BANK9  BANK10  BANK1
      +1  BANK12  BANK13  BANK14  BANK15
  2901 ;;      Params:         0       0       0       0       0       0       0       0       0       0       0       0       
      +0       0       0       0       0
  2902 ;;      Locals:        22       0       0       0       0       0       0       0       0       0       0       0       
      +0       0       0       0       0
  2903 ;;      Temps:          1       0       0       0       0       0       0       0       0       0       0       0       
      +0       0       0       0       0
  2904 ;;      Totals:        23       0       0       0       0       0       0       0       0       0       0       0       
      +0       0       0       0       0
  2905 ;;Total ram usage:       23 bytes
  2906 ;; Hardware stack levels used:    1
  2907 ;; Hardware stack levels required when called:    7
  2908 ;; This function calls:
  2909 ;;		_CAN_receive
  2910 ;;		_atexPowerPermit
  2911 ;;		_memset
  2912 ;;		_msTickGet
  2913 ;; This function is called by:
  2914 ;;		_atexVerifyPressures
  2915 ;;		_atexPerformChecks
  2916 ;; This function uses a non-reentrant model
  2917 ;;
  2918                           
  2919                           	psect	text6
  2920  000B68                     __ptext6:
  2921                           	opt callstack 0
  2922  000B68                     _notifyAtexUnsafeWithOverride:
  2923                           	opt callstack 22
  2924  000B68                     
  2925                           ;C:/Users/Robert.Finch/OneDrive - Mini-Cam Ltd/Pic/Atex/PCB-005-419.X/Atex.c: 661:     u
      +                          CAN_MSG atexDump;;C:/Users/Robert.Finch/OneDrive - Mini-Cam Ltd/Pic/Atex/PCB-005-419.X/A
      +                          tex.c: 662:     uint32_t ledTimer = 0,
  2926  000B68  0E00               	movlw	0
  2927  000B6A  6E18               	movwf	notifyAtexUnsafeWithOverride@ledTimer^0,c
  2928  000B6C  0E00               	movlw	0
  2929  000B6E  6E19               	movwf	(notifyAtexUnsafeWithOverride@ledTimer+1)^0,c
  2930  000B70  0E00               	movlw	0
  2931  000B72  6E1A               	movwf	(notifyAtexUnsafeWithOverride@ledTimer+2)^0,c
  2932  000B74  0E00               	movlw	0
  2933  000B76  6E1B               	movwf	(notifyAtexUnsafeWithOverride@ledTimer+3)^0,c
  2934  000B78  92BA               	bcf	186,1,c	;volatile
  2935  000B7A  88BA               	bsf	186,4,c	;volatile
  2936  000B7C  8ABA               	bsf	186,5,c	;volatile
  2937  000B7E                     
  2938                           ;C:/Users/Robert.Finch/OneDrive - Mini-Cam Ltd/Pic/Atex/PCB-005-419.X/Atex.c: 672:     m
      +                          emset(&atexAquireGrp,0,sizeof(atexAquireGrp));
  2939  000B7E  0E9D               	movlw	low _atexAquireGrp
  2940  000B80  6E01               	movwf	memset@dest^0,c
  2941  000B82  0E00               	movlw	high _atexAquireGrp
  2942  000B84  6E02               	movwf	(memset@dest+1)^0,c
  2943  000B86  0E00               	movlw	0
  2944  000B88  6E04               	movwf	(memset@c+1)^0,c
  2945  000B8A  0E00               	movlw	0
  2946  000B8C  6E03               	movwf	memset@c^0,c
  2947  000B8E  0E00               	movlw	0
  2948  000B90  6E06               	movwf	(memset@n+1)^0,c
  2949  000B92  0E28               	movlw	40
  2950  000B94  6E05               	movwf	memset@n^0,c
  2951  000B96  EC8E  F007         	call	_memset	;wreg free
  2952  000B9A                     
  2953                           ;C:/Users/Robert.Finch/OneDrive - Mini-Cam Ltd/Pic/Atex/PCB-005-419.X/Atex.c: 673:     m
      +                          emset(&atexAwaitingDataGrp,0,sizeof(atexAwaitingDataGrp));
  2954  000B9A  0E00               	movlw	low _atexAwaitingDataGrp
  2955  000B9C  6E01               	movwf	memset@dest^0,c
  2956  000B9E  0E01               	movlw	high _atexAwaitingDataGrp
  2957  000BA0  6E02               	movwf	(memset@dest+1)^0,c
  2958  000BA2  0E00               	movlw	0
  2959  000BA4  6E04               	movwf	(memset@c+1)^0,c
  2960  000BA6  0E00               	movlw	0
  2961  000BA8  6E03               	movwf	memset@c^0,c
  2962  000BAA  0E00               	movlw	0
  2963  000BAC  6E06               	movwf	(memset@n+1)^0,c
  2964  000BAE  0E28               	movlw	40
  2965  000BB0  6E05               	movwf	memset@n^0,c
  2966  000BB2  EC8E  F007         	call	_memset	;wreg free
  2967                           
  2968                           ;C:/Users/Robert.Finch/OneDrive - Mini-Cam Ltd/Pic/Atex/PCB-005-419.X/Atex.c: 675:     w
      +                          hile(!PORTCbits.RC1)
  2969  000BB6  EF28  F006         	goto	l3592
  2970  000BBA                     l1063:
  2971  000BBA  0004               	clrwdt		;# 
  2972  000BBC                     
  2973                           ;C:/Users/Robert.Finch/OneDrive - Mini-Cam Ltd/Pic/Atex/PCB-005-419.X/Atex.c: 681:      
      +                                 timeNow = msTickGet();
  2974  000BBC  EC18  F010         	call	_msTickGet	;wreg free
  2975  000BC0  0060  F004  F01C   	movff	?_msTickGet,notifyAtexUnsafeWithOverride@timeNow
  2976  000BC6  0060  F008  F01D   	movff	?_msTickGet+1,notifyAtexUnsafeWithOverride@timeNow+1
  2977  000BCC  0060  F00C  F01E   	movff	?_msTickGet+2,notifyAtexUnsafeWithOverride@timeNow+2
  2978  000BD2  0060  F010  F01F   	movff	?_msTickGet+3,notifyAtexUnsafeWithOverride@timeNow+3
  2979  000BD8                     
  2980                           ;C:/Users/Robert.Finch/OneDrive - Mini-Cam Ltd/Pic/Atex/PCB-005-419.X/Atex.c: 682:      
      +                                 if(ledTimer < timeNow)
  2981  000BD8  501C               	movf	notifyAtexUnsafeWithOverride@timeNow^0,w,c
  2982  000BDA  5C18               	subwf	notifyAtexUnsafeWithOverride@ledTimer^0,w,c
  2983  000BDC  501D               	movf	(notifyAtexUnsafeWithOverride@timeNow+1)^0,w,c
  2984  000BDE  5819               	subwfb	(notifyAtexUnsafeWithOverride@ledTimer+1)^0,w,c
  2985  000BE0  501E               	movf	(notifyAtexUnsafeWithOverride@timeNow+2)^0,w,c
  2986  000BE2  581A               	subwfb	(notifyAtexUnsafeWithOverride@ledTimer+2)^0,w,c
  2987  000BE4  501F               	movf	(notifyAtexUnsafeWithOverride@timeNow+3)^0,w,c
  2988  000BE6  581B               	subwfb	(notifyAtexUnsafeWithOverride@ledTimer+3)^0,w,c
  2989  000BE8  B0D8               	btfsc	status,0,c
  2990  000BEA  EFF9  F005         	goto	u1661
  2991  000BEE  EFFB  F005         	goto	u1660
  2992  000BF2                     u1661:
  2993  000BF2  EF19  F006         	goto	l3588
  2994  000BF6                     u1660:
  2995  000BF6  BABA               	btfsc	186,5,c	;volatile
  2996  000BF8  EF00  F006         	goto	u1671
  2997  000BFC  EF03  F006         	goto	u1670
  2998  000C00                     u1671:
  2999  000C00  0E01               	movlw	1
  3000  000C02  EF04  F006         	goto	u1676
  3001  000C06                     u1670:
  3002  000C06  0E00               	movlw	0
  3003  000C08                     u1676:
  3004  000C08  0AFF               	xorlw	255
  3005  000C0A  6E17               	movwf	??_notifyAtexUnsafeWithOverride^0,c
  3006  000C0C  3A17               	swapf	??_notifyAtexUnsafeWithOverride^0,f,c
  3007  000C0E  4617               	rlncf	??_notifyAtexUnsafeWithOverride^0,f,c
  3008  000C10  50BA               	movf	186,w,c	;volatile
  3009  000C12  1817               	xorwf	??_notifyAtexUnsafeWithOverride^0,w,c
  3010  000C14  0BDF               	andlw	-33
  3011  000C16  1817               	xorwf	??_notifyAtexUnsafeWithOverride^0,w,c
  3012  000C18  6EBA               	movwf	186,c	;volatile
  3013  000C1A                     
  3014                           ;C:/Users/Robert.Finch/OneDrive - Mini-Cam Ltd/Pic/Atex/PCB-005-419.X/Atex.c: 685:      
      +                                     ledTimer = timeNow + 50;
  3015  000C1A  0E32               	movlw	50
  3016  000C1C  241C               	addwf	notifyAtexUnsafeWithOverride@timeNow^0,w,c
  3017  000C1E  6E18               	movwf	notifyAtexUnsafeWithOverride@ledTimer^0,c
  3018  000C20  0E00               	movlw	0
  3019  000C22  201D               	addwfc	(notifyAtexUnsafeWithOverride@timeNow+1)^0,w,c
  3020  000C24  6E19               	movwf	(notifyAtexUnsafeWithOverride@ledTimer+1)^0,c
  3021  000C26  0E00               	movlw	0
  3022  000C28  201E               	addwfc	(notifyAtexUnsafeWithOverride@timeNow+2)^0,w,c
  3023  000C2A  6E1A               	movwf	(notifyAtexUnsafeWithOverride@ledTimer+2)^0,c
  3024  000C2C  0E00               	movlw	0
  3025  000C2E  201F               	addwfc	(notifyAtexUnsafeWithOverride@timeNow+3)^0,w,c
  3026  000C30  6E1B               	movwf	(notifyAtexUnsafeWithOverride@ledTimer+3)^0,c
  3027  000C32                     l3588:
  3028                           
  3029                           ;C:/Users/Robert.Finch/OneDrive - Mini-Cam Ltd/Pic/Atex/PCB-005-419.X/Atex.c: 677:      
      +                             while(!PORTCbits.RC1)
  3030  000C32  A2CC               	btfss	204,1,c	;volatile
  3031  000C34  EF1E  F006         	goto	u1681
  3032  000C38  EF20  F006         	goto	u1680
  3033  000C3C                     u1681:
  3034  000C3C  EFDD  F005         	goto	l1063
  3035  000C40                     u1680:
  3036  000C40                     
  3037                           ;C:/Users/Robert.Finch/OneDrive - Mini-Cam Ltd/Pic/Atex/PCB-005-419.X/Atex.c: 689:      
      +                             _delay((unsigned long)((10)*(10000000/4000.0)));
  3038  000C40  0E21               	movlw	33
  3039  000C42  6E17               	movwf	??_notifyAtexUnsafeWithOverride^0,c
  3040  000C44  0E76               	movlw	118
  3041  000C46                     u2537:
  3042  000C46  2EE8               	decfsz	wreg,f,c
  3043  000C48  D7FE               	bra	u2537
  3044  000C4A  2E17               	decfsz	??_notifyAtexUnsafeWithOverride^0,f,c
  3045  000C4C  D7FC               	bra	u2537
  3046  000C4E  D000               	nop2	
  3047  000C50                     l3592:
  3048                           
  3049                           ;C:/Users/Robert.Finch/OneDrive - Mini-Cam Ltd/Pic/Atex/PCB-005-419.X/Atex.c: 675:     w
      +                          hile(!PORTCbits.RC1)
  3050  000C50  A2CC               	btfss	204,1,c	;volatile
  3051  000C52  EF2D  F006         	goto	u1691
  3052  000C56  EF2F  F006         	goto	u1690
  3053  000C5A                     u1691:
  3054  000C5A  EF19  F006         	goto	l3588
  3055  000C5E                     u1690:
  3056  000C5E  82BA               	bsf	186,1,c	;volatile
  3057  000C60  9ABA               	bcf	186,5,c	;volatile
  3058  000C62  88BA               	bsf	186,4,c	;volatile
  3059  000C64                     
  3060                           ;C:/Users/Robert.Finch/OneDrive - Mini-Cam Ltd/Pic/Atex/PCB-005-419.X/Atex.c: 695:     l
      +                          edTimer = 0;
  3061  000C64  0E00               	movlw	0
  3062  000C66  6E18               	movwf	notifyAtexUnsafeWithOverride@ledTimer^0,c
  3063  000C68  0E00               	movlw	0
  3064  000C6A  6E19               	movwf	(notifyAtexUnsafeWithOverride@ledTimer+1)^0,c
  3065  000C6C  0E00               	movlw	0
  3066  000C6E  6E1A               	movwf	(notifyAtexUnsafeWithOverride@ledTimer+2)^0,c
  3067  000C70  0E00               	movlw	0
  3068  000C72  6E1B               	movwf	(notifyAtexUnsafeWithOverride@ledTimer+3)^0,c
  3069                           
  3070                           ;C:/Users/Robert.Finch/OneDrive - Mini-Cam Ltd/Pic/Atex/PCB-005-419.X/Atex.c: 697:     w
      +                          hile(PORTCbits.RC1)
  3071  000C74  EF98  F006         	goto	l3606
  3072  000C78                     l1078:
  3073  000C78  0004               	clrwdt		;# 
  3074  000C7A                     
  3075                           ;C:/Users/Robert.Finch/OneDrive - Mini-Cam Ltd/Pic/Atex/PCB-005-419.X/Atex.c: 703:      
      +                                 timeNow = msTickGet();
  3076  000C7A  EC18  F010         	call	_msTickGet	;wreg free
  3077  000C7E  0060  F004  F01C   	movff	?_msTickGet,notifyAtexUnsafeWithOverride@timeNow
  3078  000C84  0060  F008  F01D   	movff	?_msTickGet+1,notifyAtexUnsafeWithOverride@timeNow+1
  3079  000C8A  0060  F00C  F01E   	movff	?_msTickGet+2,notifyAtexUnsafeWithOverride@timeNow+2
  3080  000C90  0060  F010  F01F   	movff	?_msTickGet+3,notifyAtexUnsafeWithOverride@timeNow+3
  3081  000C96                     
  3082                           ;C:/Users/Robert.Finch/OneDrive - Mini-Cam Ltd/Pic/Atex/PCB-005-419.X/Atex.c: 704:      
      +                                 if(ledTimer < timeNow)
  3083  000C96  501C               	movf	notifyAtexUnsafeWithOverride@timeNow^0,w,c
  3084  000C98  5C18               	subwf	notifyAtexUnsafeWithOverride@ledTimer^0,w,c
  3085  000C9A  501D               	movf	(notifyAtexUnsafeWithOverride@timeNow+1)^0,w,c
  3086  000C9C  5819               	subwfb	(notifyAtexUnsafeWithOverride@ledTimer+1)^0,w,c
  3087  000C9E  501E               	movf	(notifyAtexUnsafeWithOverride@timeNow+2)^0,w,c
  3088  000CA0  581A               	subwfb	(notifyAtexUnsafeWithOverride@ledTimer+2)^0,w,c
  3089  000CA2  501F               	movf	(notifyAtexUnsafeWithOverride@timeNow+3)^0,w,c
  3090  000CA4  581B               	subwfb	(notifyAtexUnsafeWithOverride@ledTimer+3)^0,w,c
  3091  000CA6  B0D8               	btfsc	status,0,c
  3092  000CA8  EF58  F006         	goto	u1701
  3093  000CAC  EF5A  F006         	goto	u1700
  3094  000CB0                     u1701:
  3095  000CB0  EF89  F006         	goto	l3602
  3096  000CB4                     u1700:
