:020000040000FA
:040000000DEF00F010
:0400080075EF0BF095
:10001800FF0090EF0DF0000E166E80AE16EF00F0A8
:1000280018EF00F0BDEF00F082A61DEF00F01FEF03
:1000380000F047EF00F0600053F0D9FF600057F080
:10004800DAFF020EDF6E6F0010FE01F06F0004FE93
:1000580002F06F0008FE03F083505DEC07F020EE1D
:1000680001F01450D9261550DA22600007F0DEFF9F
:1000780060000BF0DEFF60000FF0DEFF600013F0A1
:10008800DEFF67EF00F0600053F0D9FF600057F023
:10009800DAFF010EDF6E6F0008FE01F08150C5EC3B
:1000A8000BF020EE01F01450D9261550DA2260002A
:1000B80007F0DEFF60000BF0DEFF60000FF0DEFFF0
:1000C800600013F0DEFF20EE05F01450D92615501D
:1000D800DA226F0017FEDFFF20EE06F01450D92653
:1000E8001550DA226F001BFEDFFF20EE07F01450D8
:1000F800D9261550DA226F001FFEDFFF20EE08F028
:100108001450D9261550DA226F0023FEDFFF20EEA7
:1001180009F01450D9261550DA226F0027FEDFFFA8
:1001280020EE0AF01450D9261550DA226F002BFE63
:10013800DFFF20EE0BF01450D9261550DA226F009D
:100148002FFEDFFF20EE0CF01450D9261550DA22CE
:100158006F0033FEDFFF20EE0DF01450D926155046
:10016800DA226F0037FEDFFF809E010E166E69EF00
:1001780001F03701F0AFC3EF00F0C5EF00F069EF11
:1001880001F0F2A7CAEF00F0CCEF00F0F4EF00F0B6
:10019800600053F0D9FF600057F0DAFF020EDF6EFF
:1001A8006D00D0FF01F06D00C4FF02F06D00C8FFC4
:1001B80003F0F3515DEC07F020EE01F01450D9265E
:1001C8001550DA22600007F0DEFF60000BF0DEFF5A
:1001D80060000FF0DEFF600013F0DEFF14EF01F0A7
:1001E800600053F0D9FF600057F0DAFF010EDF6EB0
:1001F8006D00C8FF01F0F151C5EC0BF020EE01F0E5
:100208001450D9261550DA22600007F0DEFF60008E
:100218000BF0DEFF60000FF0DEFF600013F0DEFF82
:1002280020EE05F01450D9261550DA226D00D7FFBC
:10023800DFFF20EE06F01450D9261550DA226D00A3
:10024800DBFFDFFF20EE07F01450D9261550DA2225
:100258006D00DFFFDFFF20EE08F01450D92615509F
:10026800DA226D00E3FFDFFF20EE09F01450D926F3
:100278001550DA226D00E7FFDFFF20EE0AF0145078
:10028800D9261550DA226D00EBFFDFFF20EE0BF0C8
:100298001450D9261550DA226D00EFFFDFFF20EE4B
:1002A8000CF01450D9261550DA226D00F3FFDFFF49
:1002B80020EE0DF01450D9261550DA226D00F7FF04
:1002C800DFFF3701F09FB9EF00F01650120020EE63
:1002D80060F010EE17F0090E6F006FFFE3FFE806FD
:1002E800FBE220EE06F00D50D9260E50DA22DF5040
:1002F800176E20EE07F00D50D9260E50DA22DF5087
:10030800186E20EE08F00D50D9260E50DA22DF5074
:10031800196E20EE09F00D50D9260E50DA22DF5062
:100328001A6E20EE0AF00D50D9260E50DA22DF5050
:100338001B6E20EE0BF00D50D9260E50DA22DF503E
:100348001C6E000E1D6E000E1E6E000E1F6E000E3F
:10035800206EB9EC0EF0600004F01DF0600008F0AB
:100368001EF060000CF01FF0600010F020F0000E8E
:10037800166E010E156E60005CF00FF0300E0F1651
:10038800D8B4C9EF01F0CBEF01F0CDEF01F0020EC8
:10039800166E17500F0B1624166EA4EF02F01650A7
:1003A8000A0DB40EF324D96E000EF420DA6EDE5076
:1003B800DE10DE10DE10D8A4E4EF01F0E6EF01F065
:1003C800EAEF01F0040E156EA4EF02F0020E156EAE
:1003D800A4EF02F0600060F013F01306050E156E2E
:1003E800000E146E130616500A0DAF0EF324D96EC4
:1003F800000EF420DA6EDF500F6E0F041318D8A425
:1004080008EF02F00AEF02F00EEF02F0030E156E8D
:10041800A4EF02F0142A0A0E146415EF02F017EF85
:1004280002F0F6EF01F0A4EF02F0050E156E16507B
:100438000A0DB40EF324D96E000EF420DA6E1D50A6
:10044800DE5C1E50DE581F50DE582050DE58D8B0F3
:1004580030EF02F032EF02F0A4EF02F0E6EF01F025
:1004680016500A0DAE0EF324016E000EF420026E33
:10047800170E036E000E046E000E066E0A0E056E51
:100488002EEC0DF0000E156EA4EF02F0820E16246D
:10049800D96EDA6A000EDA22DF2A820E1624D96EA5
:1004A800DA6A000EDA22040EDF645DEF02F05FEF15
:1004B80002F046EF02F016500A0DAE0EF324016E5C
:1004C800000EF420026E000E046E000E036E000E85
:1004D800066E0A0E056E0CEC05F0820E1624D96E17
:1004E800DA6A000EDA22000EDF6E46EF02F003EC45
:1004F8000FF0A4EF02F015500F6E106A1050000AAA
:10050800D8B489EF02F07BEF02F00F50000AD8B49C
:1005180046EF02F0010AD8B4D3EF01F0030AD8B4C9
:10052800EEEF01F0010AD8B419EF02F0070AD8B4C7
:1005380034EF02F0010AD8B44AEF02F07BEF02F080
:100548001550D8A4AAEF02F0ACEF02F07FEF02F04A
:100558001200010E146E000E0E6EE2EF03F0020E92
:10056800146E000E136E13500A0D880EF324D96E04
:10057800000EF420DA6E6B0EDF60C5EF02F0C7EFF5
:1005880002F0C9EF02F0050E146E132A030E13646D
:10059800D0EF02F0D2EF02F0B7EF02F0E2EF03F093
:1005A800030E146E000E156E15500A0D880EF324F6
:1005B800D96E000EF420DA6EDF50086E096A155005
:1005C8000A0D8B0EF324D96E000EF420DA6EDF507C
:1005D8000A6E0B6A640E0A26000E0B2208500A5C8B
:1005E8000B50800A0C6E0950800A0C58D8B0FFEFE7
:1005F80002F001EF03F003EF03F0050E146E152A65
:10060800030E15640AEF03F00CEF03F0D8EF02F0C5
:10061800E2EF03F0050E146E0F68000E106E000E68
:10062800166E16500A0D880EF324D96E000EF420AB
:10063800DA6E0F50DE5CD8B024EF03F026EF03F03B
:1006480030EF03F016500A0D880EF324D96E000E11
:10065800F420DA6EDF500F6E162A030E166437EF99
:1006680003F039EF03F015EF03F0000E176E175083
:100678000A0D880EF324D96E000EF420DA6EDE50CF
:10068800105CD8B04AEF03F04CEF03F056EF03F0DC
:1006980017500A0D880EF324D96E000EF420DA6E76
:1006A800DF50106E17500A0D8B0EF324D96E000E12
:1006B800F420DA6EDF500D6E172A030E176467EF09
:1006C80003F069EF03F03BEF03F0F90E0D24116E10
:1006D800126AFF0E1222600044F001F0600048F038
:1006E80002F0000E046E140E036E53EC0EF0600060
:1006F80004F011F0600008F012F0600044F001F01E
:10070800600048F002F0000E046E640E036E8AEC7E
:100718000CF0600004F011F0600008F012F00F50C7
:100728001124086E000E1220096E10500A6E0B6A12
:1007380008500A5C09500B58D8B0A5EF03F0A7EF92
:1007480003F0E2EF03F0040E146EE2EF03F0000E84
:10075800146EE2EF03F0000E146E010E0E6EE2EF5F
:1007680003F0000E146E000E0E6E03EC0FF0E2EFB5
:1007780003F01450086E096A0950000AD8B4C7EF8C
:1007880003F0B9EF03F00850000AD8B4ABEF03F058
:10079800010AD8B4B3EF02F0030AD8B4D4EF02F0D8
:1007A800010AD8B40EEF03F0070AD8B4AFEF03F08C
:1007B800010AD8B4B5EF03F0B9EF03F01450D8A488
:1007C800E8EF03F0EAEF03F0BDEF03F00E5012007C
:1007D800010E1B6E000E116E02EF05F0020E1B6E6D
:1007E8001268136814681568000E166E000E176EEE
:1007F800000E186E000E196E000E1C6E1C500A0DAD
:100808008C0EF324D96E000EF420DA6E1250DE5CE2
:100818001350DE581450DE581550DE58D8B017EF74
:1008280004F019EF04F02DEF04F01C500A0D8C0EA3
:10083800F324D96E000EF420DA6E6F0078FF12F000
:100848006F0078FF13F06F0078FF14F06F0078FFE7
:1008580015F01C2A030E1C6434EF04F036EF04F084
:1008680002EF04F0000E1D6E1D500A0D8C0EF324CD
:10087800D96E000EF420DA6EDE50165CDE50175882
:10088800DE501858DE501958D8B04DEF04F04FEF2D
:1008980004F063EF04F01D500A0D8C0EF324D96E9A
:1008A800000EF420DA6E6F0078FF16F06F0078FF04
:1008B80017F06F0078FF18F06F0078FF19F01D2A05
:1008C800030E1D646AEF04F06CEF04F038EF04F0D7
:1008D800880E1224056E130E1320066E000E1420C7
:1008E800076E000E1520086E1650055C1750065846
:1008F8001850075819500858D8B085EF04F087EFFA
:1009080004F002EF05F0030E1B6E02EF05F0B9ECE0
:100918000EF0600004F00DF0600008F00EF06000CA
:100928000CF00FF0600010F010F0030E1B6E000EBC
:100938001A6E1A500A0D8C0EF324D96E000EF4208C
:10094800DA6E880E0D24096E130E0E200A6E000E44
:100958000F200B6E000E10200C6EDE50095CDE506E
:100968000A58DE500B58DE500C58D8B0BEEF04F0D1
:10097800C0EF04F0C2EF04F0040E1B6E1A2A030E37
:100988001A64C9EF04F0CBEF04F09DEF04F002EF16
:1009980005F0000E1B6E02EF05F0000E1B6E010E37
:1009A800116E02EF05F0000E1B6E000E116E02EFC5
:1009B80005F003EC0FF002EF05F01B50056E066A18
:1009C8000650000AD8B4EBEF04F0DDEF04F0055050
:1009D800000AD8B4CDEF04F0010AD8B4F2EF03F05E
:1009E800030AD8B48BEF04F0010AD8B4D1EF04F0AD
:1009F800070AD8B4D7EF04F0DDEF04F01B50D8A4F1
:100A080008EF05F00AEF05F0E1EF04F011501200CD
:100A1800600004F00BF0600008F00CF005500610C0
:100A2800D8A419EF05F01BEF05F01DEF05F0D7EF7F
:100A380005F060002FF0D9FF600033F0DAFF6000A6
:100A48000FF0DFFF05500B24076E06500C20086ED0
:100A5800FF0E0724D96EFF0E0820DA6E60000FF033
:100A6800DFFF065007E1030E055CD8B03EEF05F046
:100A780040EF05F042EF05F0D7EF05F020EE01F06A
:100A88000B50D9260C50DA2260000FF0DFFF20EE61
:100A980002F00B50D9260C50DA2260000FF0DFFF6D
:100AA80005500B24076E06500C20086EFE0E072416
:100AB800D96EFF0E0820DA6E60000FF0DFFF0550D8
:100AC8000B24076E06500C20086EFD0E0724D96E05
:100AD800FF0E0820DA6E60000FF0DFFF065007E116
:100AE800070E055CD8B07BEF05F07DEF05F07FEFD2
:100AF80005F0D7EF05F020EE03F00B50D9260C5087
:100B0800DA2260000FF0DFFF05500B24076E065055
:100B18000C20086EFC0E0724D96EFF0E0820DA6E32
:100B280060000FF0DFFF065007E1090E055CD8B042
:100B3800A0EF05F0A2EF05F0A4EF05F0D7EF05F060
:100B480060002CF007F0600030F008F0071E081E67
:100B5800074A082A030E0714096E0A6A09500B2669
:100B68000A500C220950055E0A50065AFC0E05165A
:100B7800FF0E0616CEEF05F060002FF0D9FF6000DB
:100B880033F0DAFF60000FF0DFFF0506D8A0060695
:100B98000B4A0C2A05500610D8A4D5EF05F0D7EF5C
:100BA80005F0C0EF05F01200600068F001F0600089
:100BB8006CF002F0600070F003F0DAEC0DF0296ED2
:100BC800600068F001F060006CF002F0600070F006
:100BD80003F0B8EC0DF02D6E60005CF001F06000E1
:100BE80060F002F0600064F003F0DAEC0DF02A6EB9
:100BF80060005CF001F0600060F002F0600064F0FA
:100C080003F0B8EC0DF02E6E60004CF001F06000BF
:100C180050F002F0600054F003F0600058F004F067
:100C2800FAEC0CF0600004F027F0600008F028F0FF
:100C380060004CF001F0600050F002F0600054F0E9
:100C480003F0600058F004F0C6EC0CF0600004F00B
:100C58002BF0600008F02CF02D5029182D6E2E5026
:100C68002A182E6E27502B182B6E28502C182C6EF5
:100C78002D1E2E1EFF0E2B182B6E030E2C182C6EFD
:100C88006000A4F001F060009CF002F06000A0F0A9
:100C980003F0600074F004F0600078F005F02A506A
:100CA800D6EC08F0600004F01FF0600008F020F0B7
:100CB80060000CF021F0600010F022F06000B4F049
:100CC80001F06000ACF002F06000B0F003F01D50DD
:100CD800030A046E1E50010A056E2E50D6EC08F069
:100CE800600004F023F0600008F024F060000CF0CD
:100CF80025F0600010F026F060007CF001F0600044
:100D080080F002F0600084F003F0600088F004F0E6
:100D18004BEC0CF060008CF001F0600090F002F0F9
:100D2800600094F003F0600098F004F00CEC0CF014
:100D38001200000E39015B6FA8EC0EF0BA8A1EECA7
:100D48000EF0F80E016E1D0E026EF5EC0EF0F0B608
:100D5800B0EF06F0B2EF06F0B4EF06F003EC0FF0D8
:100D68000400D28EE9EF06F00400B9EC0EF0015051
:100D7800465C025047580350485804504958D8B068
:100D8800C8EF06F0CAEF06F0E9EF06F0BAB8CFEF01
:100D980006F0D2EF06F0010ED3EF06F0000EFF0AC0
:100DA8002F6E2F3ABA502F18EF0B2F18BA6E640E09
:100DB800B9EC0EF00124466E000E0220476E000EBC
:100DC8000320486E000E0420496ECCA0EEEF06F01A
:100DD800F0EF06F0B8EF06F0B9EC0EF0880E01243B
:100DE800426E130E0220436E000E0320446E000E66
:100DF8000420456EBA820400B9EC0EF00150465C3E
:100E0800025047580350485804504958D8B00FEF7B
:100E180007F011EF07F038EF07F0BAB816EF07F050
:100E280019EF07F0010E1AEF07F0000EFF0A2F6EF8
:100E38002F3ABA502F18EF0B2F18BA6EB9EC0EF0E4
:100E4800F40E0124466E010E0220476E000E0320A8
:100E5800486E000E0420496E38EF07F0300E0D6E14
:100E6800000E0E6E6BEC01F0300E146E000E156E57
:100E78000FEC00F00009D8A444EF07F046EF07F0A4
:100E880032EF07F0B9EC0EF00150425C02504358C3
:100E98000350445804504558D8B055EF07F057EF61
:100EA80007F0FFEF06F01AEC08F0FFEF06F00DEF81
:100EB80000F0096E000E106E000E116E000E126E1C
:100EC800000E136E0350030B0E6E0338E842070B37
:100ED8000F6E0250056E066AD89005360636D89011
:100EE80005360636D89005360636600014F010F040
:100EF800600018F011F0000E11BEFF0E126E136E96
:100F08000F501024106E000E1120116E000E1220CA
:100F1800126E000E1320136E600040F005F06000A2
:100F280044F006F0600048F007F060004CF008F06C
:100F3800020ED8900536063607360836E82E9DEF9D
:100F480007F0600014F010F0600018F011F0600075
:100F58001CF012F0600020F013F00E501024106EF8
:100F6800000E1120116E000E1220126E000E1320BA
:100F7800136E600040F006F0600044F007F0600077
:100F880048F008F0056A600014F010F0600018F0EE
:100F980011F060001CF012F0600020F013F009500E
:100FA8001024106E000E1120116E000E1220126E09
:100FB800000E1320136E600040F006F0600044F04D
:100FC80007F0600048F008F0056A600014F010F0BF
:100FD800600018F011F060001CF012F0600020F0C2
:100FE80013F001501024106E000E1120116E000E27
:100FF8001220126E000E1320136E600040F00AF0EB
:10100800600044F00BF0600048F00CF060004CF019
:101018000DF0600028F001F060002CF002F0600094
:1010280030F003F0600034F004F01200010E226E7C
:10103800000E4A6ECDEF08F04A80060E226E7BEC59
:1010480009F00009D8B42BEF08F02DEF08F0CDEF28
:1010580008F0020E226ECDEF08F04A82060E226ECC
:1010680061EC0AF00009D8B43CEF08F03EEF08F054
:10107800CDEF08F0030E226ECDEF08F04A84060E7D
:10108800226EECEC03F00009D8B44DEF08F04FEFF6
:1010980008F0CDEF08F0040E226ECDEF08F04A8676
:1010A800060E226EADEC02F00009D8B45EEF08F02F
:1010B80060EF08F0CDEF08F0050E226ECDEF08F0D6
:1010C800000E226ECDEF08F04A8E000E226EB9ECAB
:1010D8000EF0880E01243E6E130E02203F6E000EA5
:1010E8000320406E000E0420416E13EC0FF0CDEF8C
:1010F80008F0000E226E4A88B9EC0EF0780E012432
:101108001E6EEC0E02201F6EFF0E0320206EFF0ED7
:101118000420216E1E503E5C1F503F5820504058FE
:1011280021504158D8B09BEF08F09DEF08F0CDEF63
:1011380008F003EC0FF0CDEF08F04A8A9DEF08F0B5
:1011480022501E6E1F6A1F50000AD8B4AEEF08F076
:10115800A1EF08F01E50000AD8B464EF08F0010AA5
:10116800D8B420EF08F0030AD8B431EF08F0010A28
:10117800D8B442EF08F0070AD8B453EF08F0010AD0
:10118800D8B468EF08F0030AD8B47DEF08F0A1EFEF
:1011980008F02250D8A4D3EF08F0D5EF08F0A4EF58
:1011A80008F012000A6E05500F6E106A116A126A72
:1011B800010E0F14066E000E1014076E000E1114A7
:1011C800086E000E1214096E1C0ED89006360736EB
:1011D80008360936E82EE9EF08F0600018F00BF041
:1011E80060001CF00CF0600020F00DF0600024F0AE
:1011F8000EF0600008F00FF060000CF010F0116ABB
:10120800126AFF0E0F14066E030E1014076E000EFE
:101218001114086E000E1214096E120ED8900636BC
:10122800073608360936E82E12EF09F006500B1279
:1012380007500C1208500D1209500E1201500F6E73
:10124800106A116A126AFF0E0F14066E000E10144F
:10125800076E000E1114086E000E1214096E0A0EA5
:10126800D8900636073608360936E82E34EF09F0E6
:1012780006500B1207500C1208500D1209500E128E
:1012880004500F6E106A116A126A030E0F14066E6C
:10129800000E1014076E000E1114086E000E1214C2
:1012A800096E600020F009F060001CF008F0600092
:1012B80018F007F0066A06500B1207500C12085077
:1012C8000D1209500E120A500F6E106A116A126A36
:1012D8000F500B1260002CF001F0600030F002F0AB
:1012E800600034F003F0600038F004F01200010EE2
:1012F800126E000E116EF4EF09F0020E126E000E5F
:10130800136E13500A0DB40EF324D96E000EF42098
:10131800DA6EDE50DE10DE10DE10D8A496EF09F08B
:1013280098EF09F09CEF09F0030E126EF4EF09F044
:10133800132A030E1364A3EF09F0A5EF09F085EF54
:1013480009F0F4EF09F0000E126E860E016E000E21
:10135800026EAE0E036E000E046E000E066E280EB0
:10136800056E2EEC0DF0AE0E016E000E026E000E34
:10137800046E000E036E000E066E280E056E0CEC51
:1013880005F0010E116EF4EF09F0000E126EF4EF85
:1013980009F0000E126E000E116EF4EF09F003EC66
:1013A8000FF0F4EF09F012500D6E0E6A0E50000A9D
:1013B800D8B4E1EF09F0D3EF09F00D50000AD8B422
:1013C800C9EF09F0010AD8B481EF09F0030AD8B4CB
:1013D800A7EF09F0010AD8B4CDEF09F0D3EF09F06F
:1013E8001250D8A4FAEF09F0FCEF09F0D7EF09F092
:1013F800115012006A0E4E24D96EDA6A000EDA22F3
:10140800000EDF6E3D01F9A70CEF0AF00EEF0AF0AF
:1014180023EF0AF06A0E4E24D96EDA6A000EDA2239
:101428000001DF8202D823EF0AF00500FA6EDC51D2
:10143800FD6EDD51FE6EF850FF6EFA5012003D0150
:10144800F9A329EF0AF02BEF0AF040EF0AF06A0E31
:101458004E24D96EDA6A000EDA220001DF8402D83F
:1014680040EF0AF00500FA6EDA51FD6EDB51FE6EB0
:10147800F850FF6EFA5012006A0E4E24D96EDA6ADE
:10148800000EDA22DF50D8B44CEF0AF04EEF0AF023
:101498005EEF0AF002D85CEF0AF005000001FA6E70
:1014A800D851FD6ED951FE6EF850FF6EFA501200F9
:1014B80060EF0AF080EC0EF01200010E046E000ED0
:1014C800036EB9EF0AF0020E046E000E056E0550A9
:1014D8000A0D8A0EF324D96E000EF420DA6EDF505E
:1014E800D8B479EF0AF07BEF0AF07DEF0AF0030E2B
:1014F800046E052A030E056484EF0AF086EF0AF0ED
:101508006BEF0AF0B9EF0AF0000E046EB9EF0AF0BB
:10151800000E046E010E036EB9EF0AF0000E046EA1
:10152800000E036EB9EF0AF003EC0FF0B9EF0AF002
:101538000450016E026A0250000AD8B4A6EF0AF0FD
:1015480098EF0AF00150000AD8B488EF0AF0010AAF
:10155800D8B467EF0AF0030AD8B48CEF0AF0010A8E
:10156800D8B492EF0AF098EF0AF00450D8A4BFEF6D
:101578000AF0C1EF0AF09CEF0AF003501200800E47
:101588008F6E8E50E00B800AD8A4CDEF0AF0CFEF13
:101598000AF0C5EF0AF0000E916E000E3701006FD9
:1015A800BA69BB69B869E30EB96FBE69BF69BC693E
:1015B800E30EBD6F010EA26F230EA36F000EA06F86
:1015C800080EA16F000EA66F000EA76F000EA46F85
:1015D800000EA56F000EAA6F000EAB6F000EA86F6D
:1015E800000EA96F000EAE6F000EAF6F000EAC6F4D
:1015F800000EAD6F000EB26F000EB36F000EB06F2D
:10160800000EB16F000EB66F000EB76F000EB46F0C
:10161800000EB56F000E036FBF0E046F470E056F07
:10162800000E8F6E6F0038FE01F0E00E0116D8A490
:1016380020EF0BF022EF0BF016EF0BF01200390140
:101648009397FC0E016E130E026ED9EC0EF0390161
:101658009399F80E016E1B0E026ED2EC0EF0000E7E
:101668003D01EC6F000EED6F000EEE6F000EEF6F98
:10167800000EF06F000EF16FB00EF26F800EF36F78
:10168800000EF46F400EF56F000EF66F000EF76F48
:10169800000EF86F000EF96F000EFA6F380E016E2B
:1016A8001E0E026EE7EC0EF0360E016E1E0E026E76
:1016B800E0EC0EF02C0E016E1E0E026EEEEC0EF03B
:1016C800000E4B6E000E506E000E4F6E080E5F6ED1
:1016D800000E4E6E000E4D6E000E4C6E3901938753
:1016E8001200390199A37BEF0BF07DEF0BF088EF27
:1016F8000BF0A9A382EF0BF084EF0BF088EF0BF04F
:1017080039EC0EF0C4EF0BF093A98DEF0BF08FEFCF
:101718000BF0A6EF0BF0A3A994EF0BF096EF0BF0EC
:10172800A6EF0BF002D8A4EF0BF005000001FA6E4B
:10173800DE51FD6EDF51FE6EF850FF6EFA5012005A
:10174800C4EF0BF093A7ABEF0BF0ADEF0BF0C4EFCA
:101758000BF0A3A7B2EF0BF0B4EF0BF0C4EF0BF054
:1017680002D8C2EF0BF005000001FA6EE051FD6EE1
:10177800E151FE6EF850FF6EFA501200C4EF0BF004
:101788001100076E0750056E066AD89005360636B2
:10179800D89005360636D89005360636600014F01F
:1017A8000CF0600018F00DF0000E0DBEFF0E0E6E6E
:1017B8000F6E600004F005F0050E066ED890053235
:1017C800062EE2EF0BF005500C240C6E000E0D20D7
:1017D8000D6E000E0E200E6E000E0F200F6E6000B4
:1017E80030F008F0600034F009F0600038F00AF0DA
:1017F80060003CF00BF0600020F001F0600024F085
:1018080002F0600028F003F060002CF004F01200F1
:10181800600007F0BBF760000BF0BAF70350030B4A
:101828003701B96F600004F005F0600008F006F0B9
:1018380060000CF007F0600010F008F00E0E2AEFC0
:101848000CF0D8900832073206320532E82E25EF20
:101858000CF00550E00BB913B987600004F005F0EF
:10186800600008F006F060000CF007F0600010F06F
:1018780008F0160E45EF0CF0D89008320732063201
:101888000532E82E40EF0CF00550B86F12006000EA
:1018980007F0A3F760000BF0A2F70350030B370122
:1018A800A16F600004F005F0600008F006F0600029
:1018B8000CF007F0600010F008F00E0E69EF0CF065
:1018C800D8900832073206320532E82E64EF0CF061
:1018D8000550E00BA113A187600004F005F060003B
:1018E80008F006F060000CF007F0600010F008F057
:1018F800160E84EF0CF0D890083207320632053203
:10190800E82E7FEF0CF00550A06F1200000E066E57
:10191800000E056E03500410D8B495EF0CF097EF45
:101928000CF0BFEF0CF0010E076E9FEF0CF0D89093
:1019380003360436072A04AEA4EF0CF0A6EF0CF029
:101948009BEF0CF0D890053606360350015C045026
:101958000258D8A0B2EF0CF0B4EF0CF0B9EF0CF0CD
:101968000350015E0450025A0580D89004320332B5
:10197800072EA6EF0CF0600014F001F0600018F0DC
:1019880002F01200600007F0D9FF60000BF0DAFFE8
:101998006F0078FF05F06F0074FF06F0000E086E08
:1019A800010E076EE8EF0CF0600007F0D9FF600049
:1019B8000BF0DAFFDE500512DD500612020E01268A
:1019C800000E0222074A082A0350075C04500858F0
:1019D800D8A0F1EF0CF0F3EF0CF0D8EF0CF0FF0EFD
:1019E8000514016E030E0614026E1200600007F063
:1019F800D9FF60000BF0DAFF6F0078FF05F06F0089
:101A080074FF06F0000E086E010E076E1CEF0DF055
:101A1800600007F0D9FF60000BF0DAFFDE50051612
:101A2800DD500616020E0126000E0222074A082A79
:101A38000350075C04500858D8A025EF0DF027EF95
:101A48000DF00CEF0DF0FF0E0514016E030E0614D9
:101A5800026E120060000CF009F0600010F00AF04D
:101A6800600004F007F0600008F008F051EF0DF096
:101A7800600027F0D9FF60002BF0DAFFDF500B6E13
:101A8800094A0A2A60001FF0D9FF600023F0DAFF34
:101A980060002FF0DFFF074A082A0506D8A00606CF
:101AA800052806E10628D8A45CEF0DF05EEF0DF0DE
:101AB8003CEF0DF01200000EBA6E000EBB6E000E69
:101AC800BC6ECD0EC26EFB0EC36EBF0EC46E700E22
:101AD8003A01606FF70E506F4069000E816F000E7B
:101AE800516F000E416F000E616F000E426F000EC5
:101AF800526F000E626F43695369636944695469A0
:101B08006469080E846F330E0A6F0B0EED6F130EA7
:101B1800166F170EE76F12001E0EF66E1E0EF76E8A
:101B2800000EF86E00EE57F010EE08F009006F0096
:101B3800D7FFEEFFE550E150F9E100EE60F0760ED8
:101B4800EE6AE806FDE100EE3EF0190EEE6AE806E0
:101B5800FDE1080ED56E000ED66E000ED76E000E93
:101B6800F86E00019DEF06F0600007F0D9FF6000F5
:101B78000BF0DAFFDF50046E010E056ECFEF0DF0AB
:101B8800600007F0D9FF60000BF0DAFFDF500412A5
:101B9800014A022A052A0350055CD8A0D6EF0DF0A9
:101BA800D8EF0DF0C4EF0DF004501200600007F0FC
:101BB800D9FF60000BF0DAFFDF50046E010E056EEE
:101BC800F1EF0DF0600007F0D9FF60000BF0DAFFCD
:101BD800DF500416014A022A052A0350055CD8A0E2
:101BE800F8EF0DF0FAEF0DF0E6EF0DF004501200EB
:101BF800080E5F6002EF0EF004EF0EF01BEF0EF020
:101C08007A0E4F24D96EDA6A000EDA22DF503D01CF
:101C1800EA6F4F2A070E4F6414EF0EF016EF0EF01E
:101C280018EF0EF0000E4F6E5F2A1DEF0EF039010F
:101C3800939912005B0E136E000E146E000E166E52
:101C4800010E156E5E0E176E000E186E010E196EDF
:101C58005D0E1A6E000E1B6E010E1C6E000E1D6EC0
:101C6800000E1E6ED8EC05F012003901A993000190
:101C7800D651D711D8B443EF0EF045EF0EF052EF1E
:101C88000EF002D852EF0EF00500FA6ED651FD6E36
:101C9800D751FE6EF850FF6EFA5012001200015034
:101CA80003026F00CCFF05F06F00D0FF06F0015073
:101CB8000402F350062602500302F3500626600081
:101CC80014F001F0600018F002F01200030E966E96
:101CD800000E956E000E976E3E0E936E000E926E7D
:101CE8003901A99399833A0E016E1E0E026EF5EC26
:101CF8000EF0F00E946E1200720E4E24D96EDA6A4F
:101D0800000EDA226F00A3F7DFFF4E2A070E4E649B
:101D180090EF0EF092EF0EF094EF0EF0000E4E6E74
:101D28004C2A1200000E3901C06F000EC16F000E60
:101D3800C26F000EC36F000EC46F000EC56F000E99
:101D4800C66F000EC76F120019EC0FF096EC0EF07C
:101D58005FEC0DF0C6EC0EF009EC0FF06AEC0EF03B
:101D680023EC0BF0C3EC0AF0120060005CF101F008
:101D7800600060F102F0600064F103F0600068F157
:101D880004F01200720E3901D96F000EDB6F000EDD
:101D9800DD6F030EDF6F000EDE6F1200600004F0CF
:101DA800DEF0600008F0DFF01200600004F0E0F000
:101DB800600008F0E1F01200600004F0DAF0600062
:101DC80008F0DBF01200600004F0DCF0600008F0BE
:101DD800DDF01200600004F0D8F0600008F0D9F0DF
:101DE8001200600004F0D6F0600008F0D7F012008E
:101DF800010E5726000E582259225A221200BA9272
:101E0800BA9A040005EF0FF01200000E39015B6F5B
:101E1800070E5C6F120001000000320001EEBA8A62
:101E2800BA82120080EC0EF01200D29A1200120050
:041E38001200120082
:020000040020DA
:10000000FF0FFF0FFF0FFF0FFF0FFF0FFF0FFF0F80
:020000040030CA
:0A000000FFFFF7FFA0C7FFFFFFFF9F
:00000001FF
