Microchip MPLAB XC8 Compiler V2.10 ()

Linker command line:

-W-3 --edf=C:\Program Files (x86)\Microchip\xc8\v2.10\pic\dat\en_msgs.txt \
  -pivt0x8=08h -cs -h+dist/default/production\PCB-005-419.X.production.sym \
  --cmf=dist/default/production\PCB-005-419.X.production.cmf -z -Q18F26K83 \
  -oC:\Users\ROBERT~1.FIN\AppData\Local\Temp\s1g4.2 \
  --defsym=__MPLAB_BUILD=1 \
  -Mdist/default/production/PCB-005-419.X.production.map -E1 -ver=XC8 \
  --acfsm=1493 -ASTACK=0FDh-0FFFh -pstack=STACK -ACODE=00h-0FFFFh \
  -ACONST=00h-0FFFFh -ASMALLCONST=01000h-010FFhx240 \
  -AMEDIUMCONST=01000h-0FFFFh -ACOMRAM=01h-05Fh -AABS1=00h-0FFFh \
  -ABIGRAM=01h-0FFFh -ARAM=060h-0FFh,0100h-01FFhx15 -ABANK0=060h-0FFh \
  -ABANK1=0100h-01FFh -ABANK2=0200h-02FFh -ABANK3=0300h-03FFh \
  -ABANK4=0400h-04FFh -ABANK5=0500h-05FFh -ABANK6=0600h-06FFh \
  -ABANK7=0700h-07FFh -ABANK8=0800h-08FFh -ABANK9=0900h-09FFh \
  -ABANK10=0A00h-0AFFh -ABANK11=0B00h-0BFFh -ABANK12=0C00h-0CFFh \
  -ABANK13=0D00h-0DFFh -ABANK14=0E00h-0EFFh -ABANK15=0F00h-0FFFh \
  -ASFR=03700h-037FFhx8,03F00h-03F5Fh,03F60h-03FFFh -preset_vec=00h \
  -ppowerup=CODE,init -pramtop=01000h -psmallconst=SMALLCONST \
  -pmediumconst=MEDIUMCONST -pconst=CONST -AFARRAM=00h-00h \
  -ACONFIG=0300000h-0300009h -pconfig=CONFIG -AIDLOC=0200000h-020000Fh \
  -pidloc=IDLOC -AEEDATA=0310000h-03103FFh -peeprom_data=EEDATA \
  -prdata=COMRAM,nvrram=COMRAM,nvbit=COMRAM,rbss=COMRAM,rbit=COMRAM \
  -pfarbss=FARRAM,fardata=FARRAM,nvFARRAM=FARRAM \
  -pintsave_regs=BIGRAM,bigbss=BIGRAM,bigdata=BIGRAM -pbss=RAM \
  -pidata=CODE,irdata=CODE,ibigdata=CODE,ifardata=CODE -prparam=COMRAM \
  C:\Users\ROBERT~1.FIN\AppData\Local\Temp\s1g4.o \
  dist/default/production\PCB-005-419.X.production.o 

Object code version is 3.11

Machine type is 18F26K83

Call graph: (short form)




                Name                               Link     Load   Length Selector   Space Scale
C:\Users\ROBERT~1.FIN\AppData\Local\Temp\s1g4.o
                init                                 1A       1A        4        4       0
                reset_vec                             0        0        4        0       0
                idloc                            200000   200000       10   200000       0
                config                           300000   300000        A   300000       0
dist/default/production\PCB-005-419.X.production.o
                ivt0x8                                8        8       12        4       0
                text50                             21F0     21F0        2     10EE       0
                text49                             216E     216E       10        4       0
                text48                             2068     2068       34        4       0
                text47                             20C8     20C8       2C        4       0
                text46                             21E2     21E2        6     10EE       0
                text45                             21EE     21EE        2     10EE       0
                text44                             21EC     21EC        2     10EE       0
                text43                             1698     1698       C6        4       0
                text42                             1FA6     1FA6       48        4       0
                text41                             1A44     1A44       A0        4       0
                text40                             1C88     1C88       7E        4       0
                text39                             1C0A     1C0A       7E        4       0
                text38                             1F5E     1F5E       48        4       0
                text37                             1D06     1D06       70        4       0
                text36                             1FEE     1FEE       44        4       0
                text35                             1D76     1D76       68        4       0
                text34                             1446     1446      14A        4       0
                text33                              FE4      FE4      18A        4       0
                text32                             2032     2032       36        4       0
                text31                             1822     1822       C0        4       0
                text30                             21E8     21E8        4     10EE       0
                text29                             2156     2156       18        4       0
                text28                             1EA4     1EA4       62        4       0
                text27                             20F4     20F4       24        4       0
                text26                             21C4     21C4        E        4       0
                text25                             209C     209C       2C        4       0
                text24                             21B6     21B6        E        4       0
                text23                             21A8     21A8        E        4       0
                text22                             219A     219A        E        4       0
                text21                             218C     218C        E        4       0
                text20                             217E     217E        E        4       0
                text19                             199E     199E       A6        4       0
                text18                             2138     2138       1E        4       0
                text17                             1E42     1E42       62        4       0
                text16                             1F06     1F06       58        4       0
                text15                             1AE4     1AE4       98        4       0
                text14                              890      890      228        4       0
                text13                             1590     1590      108        4       0
                text12                             116E     116E      17A        4       0
                text11                             1B7C     1B7C       8E        4       0
                text10                              37A      37A      2B8        4       0
                text9                              2118     2118       20        4       0
                text8                              18E2     18E2       BC        4       0
                text7                               E4C      E4C      198        4       0
                text6                               AB8      AB8      1FA        4       0
                text5                                1E       1E      35C        4       0
                text4                              175E     175E       C4        4       0
                text3                               632      632      25E        4       0
                text2                              21DC     21DC        6     10EE       0
                text1                              12E8     12E8      15E        4       0
                text0                               CB2      CB2      19A        4       0
                cstackCOMRAM                          1        1       56        1       1
                dataBANK0                            F4       F4        9       60       1
                bssBANK0                             60       60       87       60       1
                dataCOMRAM                           5F       5F        1        1       1
                bssCOMRAM                            57       57        8        1       1
                cinit                              1DDE     1DDE       64        4       0
                nvBANK0                              E7       E7        D       60       1
                idataBANK0                         21D2     21D2        9        4       0
                idataCOMRAM                        21F2     21F2        1     10EE       0

TOTAL           Name                               Link     Load   Length     Space
        CLASS   STACK          

        CLASS   CODE           
                init                                 1A       1A        4         0
                reset_vec                             0        0        4         0
                ivt0x8                                8        8       12         0
                text50                             21F0     21F0        2         0
                text49                             216E     216E       10         0
                text48                             2068     2068       34         0
                text47                             20C8     20C8       2C         0
                text46                             21E2     21E2        6         0
                text45                             21EE     21EE        2         0
                text44                             21EC     21EC        2         0
                text43                             1698     1698       C6         0
                text42                             1FA6     1FA6       48         0
                text41                             1A44     1A44       A0         0
                text40                             1C88     1C88       7E         0
                text39                             1C0A     1C0A       7E         0
                text38                             1F5E     1F5E       48         0
                text37                             1D06     1D06       70         0
                text36                             1FEE     1FEE       44         0
                text35                             1D76     1D76       68         0
                text34                             1446     1446      14A         0
                text33                              FE4      FE4      18A         0
                text32                             2032     2032       36         0
                text31                             1822     1822       C0         0
                text30                             21E8     21E8        4         0
                text29                             2156     2156       18         0
                text28                             1EA4     1EA4       62         0
                text27                             20F4     20F4       24         0
                text26                             21C4     21C4        E         0
                text25                             209C     209C       2C         0
                text24                             21B6     21B6        E         0
                text23                             21A8     21A8        E         0
                text22                             219A     219A        E         0
                text21                             218C     218C        E         0
                text20                             217E     217E        E         0
                text19                             199E     199E       A6         0
                text18                             2138     2138       1E         0
                text17                             1E42     1E42       62         0
                text16                             1F06     1F06       58         0
                text15                             1AE4     1AE4       98         0
                text14                              890      890      228         0
                text13                             1590     1590      108         0
                text12                             116E     116E      17A         0
                text11                             1B7C     1B7C       8E         0
                text10                              37A      37A      2B8         0
                text9                              2118     2118       20         0
                text8                              18E2     18E2       BC         0
                text7                               E4C      E4C      198         0
                text6                               AB8      AB8      1FA         0
                text5                                1E       1E      35C         0
                text4                              175E     175E       C4         0
                text3                               632      632      25E         0
                text2                              21DC     21DC        6         0
                text1                              12E8     12E8      15E         0
                text0                               CB2      CB2      19A         0
                cinit                              1DDE     1DDE       64         0
                idataBANK0                         21D2     21D2        9         0
                idataCOMRAM                        21F2     21F2        1         0

        CLASS   CONST          

        CLASS   SMALLCONST     

        CLASS   MEDIUMCONST    

        CLASS   COMRAM         
                cstackCOMRAM                          1        1       56         1
                dataCOMRAM                           5F       5F        1         1
                bssCOMRAM                            57       57        8         1

        CLASS   ABS1           

        CLASS   BIGRAM         

        CLASS   RAM            

        CLASS   BANK0          
                dataBANK0                            F4       F4        9         1
                bssBANK0                             60       60       87         1
                nvBANK0                              E7       E7        D         1

        CLASS   BANK1          

        CLASS   BANK2          

        CLASS   BANK3          

        CLASS   BANK4          

        CLASS   BANK5          

        CLASS   BANK6          

        CLASS   BANK7          

        CLASS   BANK8          

        CLASS   BANK9          

        CLASS   BANK10         

        CLASS   BANK11         

        CLASS   BANK12         

        CLASS   BANK13         

        CLASS   BANK14         

        CLASS   BANK15         

        CLASS   SFR            

        CLASS   FARRAM         

        CLASS   CONFIG         
                config                           300000   300000        A         0

        CLASS   IDLOC          
                idloc                            200000   200000       10         0

        CLASS   EEDATA         



SEGMENTS        Name                           Load    Length   Top    Selector   Space  Class

                reset_vec                      000000  000004  000004         0       0  CODE    
                cstackCOMRAM                   000001  00005F  000060         1       1  COMRAM  
                ivt0x8                         000008  0021D3  0021DB         4       0  CODE    
                bssBANK0                       000060  00009D  0000FD        60       1  BANK0   
                text2                          0021DC  000017  0021F3      10EE       0  CODE    
                idloc                          200000  000010  200010    200000       0  IDLOC   
                config                         300000  00000A  30000A    300000       0  CONFIG  


UNUSED ADDRESS RANGES

        Name                Unused          Largest block    Delta
        BANK0            0000FD-0000FF                3
        BANK1            000100-0001FF              100
        BANK10           000A00-000AFF              100
        BANK11           000B00-000BFF              100
        BANK12           000C00-000CFF              100
        BANK13           000D00-000DFF              100
        BANK14           000E00-000EFF              100
        BANK15           000F00-000FFF              100
        BANK2            000200-0002FF              100
        BANK3            000300-0003FF              100
        BANK4            000400-0004FF              100
        BANK5            000500-0005FF              100
        BANK6            000600-0006FF              100
        BANK7            000700-0007FF              100
        BANK8            000800-0008FF              100
        BANK9            000900-0009FF              100
        BIGRAM           0000FD-000FFF              F03
        CODE             000004-000007                4
                         0021DB-0021DB                1
                         0021F3-00FFFF             DE0D
        CONST            000004-000007                4
                         0021DB-0021DB                1
                         0021F3-00FFFF             DE0D
        EEDATA           310000-3103FF              400
        MEDIUMCONST      0021DB-0021DB                1
                         0021F3-00FFFF             DE0D
        RAM              0000FD-000FFF              100
        SFR              003700-003FFF              100
        SMALLCONST       0021DB-0021DB                1
                         0021F3-00FFFF              100
        STACK            0000FD-000FFF              F03

                                  Symbol Table

?_Can_rxCreateArrayFilterTenBit                    cstackCOMRAM 000001
?_Can_rxCreateArrayMaskTenBit                      cstackCOMRAM 000001
?_Can_rxJoin                                       cstackCOMRAM 000001
?_convertReg2ExtendedCANid                         cstackCOMRAM 000001
?_convertReg2StandardCANid                         cstackCOMRAM 000001
?_msTickGet                                        cstackCOMRAM 000001
CAN_filterToReg@filter                             cstackCOMRAM 000001
CAN_maskToReg@filter                               cstackCOMRAM 000001
CAN_receive@returnValue                            cstackCOMRAM 000016
CAN_receive@tempCanMsg                             cstackCOMRAM 000014
Can_rxCreateArrayFilter@arr                        cstackCOMRAM 000001
Can_rxCreateArrayFilter@filterRet                  cstackCOMRAM 000004
Can_rxCreateArrayFilter@i                          cstackCOMRAM 000005
Can_rxCreateArrayFilter@num                        cstackCOMRAM 000003
Can_rxCreateArrayFilterTenBit@arr                  cstackCOMRAM 000001
Can_rxCreateArrayFilterTenBit@filterRet            cstackCOMRAM 000005
Can_rxCreateArrayFilterTenBit@i                    cstackCOMRAM 000007
Can_rxCreateArrayFilterTenBit@num                  cstackCOMRAM 000003
Can_rxCreateArrayMask@arr                          cstackCOMRAM 000001
Can_rxCreateArrayMask@filterRet                    cstackCOMRAM 000004
Can_rxCreateArrayMask@i                            cstackCOMRAM 000005
Can_rxCreateArrayMask@num                          cstackCOMRAM 000003
Can_rxCreateArrayMaskTenBit@arr                    cstackCOMRAM 000001
Can_rxCreateArrayMaskTenBit@filterRet              cstackCOMRAM 000005
Can_rxCreateArrayMaskTenBit@i                      cstackCOMRAM 000007
Can_rxCreateArrayMaskTenBit@num                    cstackCOMRAM 000003
Can_rxJoin@destination                             cstackCOMRAM 000001
Can_rxJoin@mask                                    cstackCOMRAM 00000B
Can_rxJoin@messageID                               cstackCOMRAM 000002
Can_rxJoin@motorReel                               cstackCOMRAM 000005
Can_rxJoin@sender                                  cstackCOMRAM 00000A
Can_rxJoin@seq                                     cstackCOMRAM 000004
Can_rxJoin@shiftDump                               cstackCOMRAM 00000F
Can_setFilters@dest                                cstackCOMRAM 00001A
Can_setFilters@destFilt                            cstackCOMRAM 000029
Can_setFilters@destMask                            cstackCOMRAM 00002D
Can_setFilters@destSize                            cstackCOMRAM 00001C
Can_setFilters@masterFilt                          cstackCOMRAM 00001F
Can_setFilters@masterMask                          cstackCOMRAM 000023
Can_setFilters@motorReel                           cstackCOMRAM 00001E
Can_setFilters@msgFilt                             cstackCOMRAM 000027
Can_setFilters@msgID                               cstackCOMRAM 000013
Can_setFilters@msgMask                             cstackCOMRAM 00002B
Can_setFilters@msgSize                             cstackCOMRAM 000015
Can_setFilters@send                                cstackCOMRAM 000017
Can_setFilters@sendFilt                            cstackCOMRAM 00002A
Can_setFilters@sendMask                            cstackCOMRAM 00002E
Can_setFilters@sendSize                            cstackCOMRAM 000019
Can_setFilters@seq                                 cstackCOMRAM 00001D
IVTBASEH                                           (abs)        003FD6
IVTBASEL                                           (abs)        003FD5
IVTBASEU                                           (abs)        003FD7
TMR6_SetInterruptHandler@InterruptHandler          cstackCOMRAM 000001
UART1_SetErrorHandler@interruptHandler             cstackCOMRAM 000001
UART1_SetFramingErrorHandler@interruptHandler      cstackCOMRAM 000001
UART1_SetOverrunErrorHandler@interruptHandler      cstackCOMRAM 000001
UART1_SetRxInterruptHandler@InterruptHandler       cstackCOMRAM 000001
UART1_SetTxInterruptHandler@InterruptHandler       cstackCOMRAM 000001
_ANSELA                                            (abs)        003A40
_ANSELB                                            (abs)        003A50
_ANSELC                                            (abs)        003A60
_BRGCON1                                           (abs)        003703
_BRGCON2                                           (abs)        003704
_BRGCON3                                           (abs)        003705
_CANCON                                            (abs)        003F8F
_CANRXPPS                                          (abs)        003AED
_CANSTAT                                           (abs)        003F8E
_CAN_filterToReg                                   text40       001C88
_CAN_maskToReg                                     text39       001C0A
_CAN_receive                                       text10       00037A
_CIOCON                                            (abs)        003700
_COMSTATbits                                       (abs)        003F90
_Can_rxCreateArrayFilter                           text38       001F5E
_Can_rxCreateArrayFilterTenBit                     text37       001D06
_Can_rxCreateArrayMask                             text36       001FEE
_Can_rxCreateArrayMaskTenBit                       text35       001D76
_Can_rxJoin                                        text34       001446
_Can_setFilters                                    text33       000FE4
_Can_setFiltersSimple                              text32       002032
_ECANCON                                           (abs)        003F91
_ECAN_Initialize                                   text31       001822
_INLVLA                                            (abs)        003A44
_INLVLB                                            (abs)        003A54
_INLVLC                                            (abs)        003A64
_INLVLE                                            (abs)        003A84
_INTCON0bits                                       (abs)        003FD2
_INTERRUPT_Initialize                              text30       0021E8
_INTERRUPT_InterruptManager                        text41       001A44
_IRQ_TIM6                                          text49       00216E
_LATA                                              (abs)        003FBA
_LATAbits                                          (abs)        003FBA
_LATB                                              (abs)        003FBB
_LATC                                              (abs)        003FBC
_ODCONA                                            (abs)        003A42
_ODCONB                                            (abs)        003A52
_ODCONC                                            (abs)        003A62
_OSCCON1                                           (abs)        0039D9
_OSCCON3                                           (abs)        0039DB
_OSCEN                                             (abs)        0039DD
_OSCFRQ                                            (abs)        0039DF
_OSCILLATOR_Initialize                             text29       002156
_OSCTUNE                                           (abs)        0039DE
_PCON0                                             (abs)        003FF0
_PIE3bits                                          (abs)        003993
_PIE5bits                                          (abs)        003995
_PIE9bits                                          (abs)        003999
_PIN_MANAGER_Initialize                            text28       001EA4
_PIR3bits                                          (abs)        0039A3
_PIR5bits                                          (abs)        0039A5
_PIR9bits                                          (abs)        0039A9
_PMD0                                              (abs)        0039C0
_PMD1                                              (abs)        0039C1
_PMD2                                              (abs)        0039C2
_PMD3                                              (abs)        0039C3
_PMD4                                              (abs)        0039C4
_PMD5                                              (abs)        0039C5
_PMD6                                              (abs)        0039C6
_PMD7                                              (abs)        0039C7
_PMD_Initialize                                    text27       0020F4
_PORTCbits                                         (abs)        003FCC
_PR6                                               (abs)        003F93
_RB2PPS                                            (abs)        003A0A
_RC6PPS                                            (abs)        003A16
_RXB0CONbits                                       (abs)        003F80
_RXB0D0                                            (abs)        003F86
_RXB0D1                                            (abs)        003F87
_RXB0D2                                            (abs)        003F88
_RXB0D3                                            (abs)        003F89
_RXB0D4                                            (abs)        003F8A
_RXB0D5                                            (abs)        003F8B
_RXB0D6                                            (abs)        003F8C
_RXB0D7                                            (abs)        003F8D
_RXB0DLC                                           (abs)        003F85
_RXB0EIDH                                          (abs)        003F83
_RXB0EIDL                                          (abs)        003F84
_RXB0SIDH                                          (abs)        003F81
_RXB0SIDL                                          (abs)        003F82
_RXB1CONbits                                       (abs)        0037F0
_RXB1D0                                            (abs)        0037F6
_RXB1D1                                            (abs)        0037F7
_RXB1D2                                            (abs)        0037F8
_RXB1D3                                            (abs)        0037F9
_RXB1D4                                            (abs)        0037FA
_RXB1D5                                            (abs)        0037FB
_RXB1D6                                            (abs)        0037FC
_RXB1D7                                            (abs)        0037FD
_RXB1DLC                                           (abs)        0037F5
_RXB1EIDH                                          (abs)        0037F3
_RXB1EIDL                                          (abs)        0037F4
_RXB1SIDH                                          (abs)        0037F1
_RXB1SIDL                                          (abs)        0037F2
_RXF0EIDH                                          (abs)        0037A2
_RXF0EIDL                                          (abs)        0037A3
_RXF0SIDH                                          (abs)        0037A0
_RXF0SIDL                                          (abs)        0037A1
_RXF1EIDH                                          (abs)        0037A6
_RXF1EIDL                                          (abs)        0037A7
_RXF1SIDH                                          (abs)        0037A4
_RXF1SIDL                                          (abs)        0037A5
_RXF2EIDH                                          (abs)        0037AA
_RXF2EIDL                                          (abs)        0037AB
_RXF2SIDH                                          (abs)        0037A8
_RXF2SIDL                                          (abs)        0037A9
_RXF3EIDH                                          (abs)        0037AE
_RXF3EIDL                                          (abs)        0037AF
_RXF3SIDH                                          (abs)        0037AC
_RXF3SIDL                                          (abs)        0037AD
_RXF4EIDH                                          (abs)        0037B2
_RXF4EIDL                                          (abs)        0037B3
_RXF4SIDH                                          (abs)        0037B0
_RXF4SIDL                                          (abs)        0037B1
_RXF5EIDH                                          (abs)        0037B6
_RXF5EIDL                                          (abs)        0037B7
_RXF5SIDH                                          (abs)        0037B4
_RXF5SIDL                                          (abs)        0037B5
_RXM0EIDH                                          (abs)        0037BA
_RXM0EIDL                                          (abs)        0037BB
_RXM0SIDH                                          (abs)        0037B8
_RXM0SIDL                                          (abs)        0037B9
_RXM1EIDH                                          (abs)        0037BE
_RXM1EIDL                                          (abs)        0037BF
_RXM1SIDH                                          (abs)        0037BC
_RXM1SIDL                                          (abs)        0037BD
_SLRCONA                                           (abs)        003A43
_SLRCONB                                           (abs)        003A53
_SLRCONC                                           (abs)        003A63
_SYSTEM_Initialize                                 text18       002138
_T6CLKCON                                          (abs)        003F96
_T6CON                                             (abs)        003F94
_T6CONbits                                         (abs)        003F94
_T6HLT                                             (abs)        003F95
_T6HLTbits                                         (abs)        003F95
_T6PR                                              (abs)        003F93
_T6RST                                             (abs)        003F97
_T6RSTbits                                         (abs)        003F97
_T6TMR                                             (abs)        003F92
_TMR6                                              (abs)        003F92
_TMR6_DefaultInterruptHandler                      text50       0021F0
_TMR6_ISR                                          text48       002068
_TMR6_Initialize                                   text25       00209C
_TMR6_InterruptHandler                             nvBANK0      0000E7
_TMR6_SetInterruptHandler                          text26       0021C4
_TRISA                                             (abs)        003FC2
_TRISB                                             (abs)        003FC3
_TRISC                                             (abs)        003FC4
_TXB0CONbits                                       (abs)        0037E0
_TXB0D0                                            (abs)        0037E6
_TXB0D1                                            (abs)        0037E7
_TXB0D2                                            (abs)        0037E8
_TXB0D3                                            (abs)        0037E9
_TXB0D4                                            (abs)        0037EA
_TXB0D5                                            (abs)        0037EB
_TXB0D6                                            (abs)        0037EC
_TXB0D7                                            (abs)        0037ED
_TXB0DLC                                           (abs)        0037E5
_TXB0EIDH                                          (abs)        0037E3
_TXB0EIDL                                          (abs)        0037E4
_TXB0SIDH                                          (abs)        0037E1
_TXB0SIDL                                          (abs)        0037E2
_TXB1CONbits                                       (abs)        0037D0
_TXB1D0                                            (abs)        0037D6
_TXB1D1                                            (abs)        0037D7
_TXB1D2                                            (abs)        0037D8
_TXB1D3                                            (abs)        0037D9
_TXB1D4                                            (abs)        0037DA
_TXB1D5                                            (abs)        0037DB
_TXB1D6                                            (abs)        0037DC
_TXB1D7                                            (abs)        0037DD
_TXB1DLC                                           (abs)        0037D5
_TXB1EIDH                                          (abs)        0037D3
_TXB1EIDL                                          (abs)        0037D4
_TXB1SIDH                                          (abs)        0037D1
_TXB1SIDL                                          (abs)        0037D2
_TXB2CONbits                                       (abs)        0037C0
_TXB2D0                                            (abs)        0037C6
_TXB2D1                                            (abs)        0037C7
_TXB2D2                                            (abs)        0037C8
_TXB2D3                                            (abs)        0037C9
_TXB2D4                                            (abs)        0037CA
_TXB2D5                                            (abs)        0037CB
_TXB2D6                                            (abs)        0037CC
_TXB2D7                                            (abs)        0037CD
_TXB2DLC                                           (abs)        0037C5
_TXB2EIDH                                          (abs)        0037C3
_TXB2EIDL                                          (abs)        0037C4
_TXB2SIDH                                          (abs)        0037C1
_TXB2SIDL                                          (abs)        0037C2
_U1BRGH                                            (abs)        003DF6
_U1BRGL                                            (abs)        003DF5
_U1CON0                                            (abs)        003DF2
_U1CON1                                            (abs)        003DF3
_U1CON2                                            (abs)        003DF4
_U1ERRIE                                           (abs)        003DFA
_U1ERRIR                                           (abs)        003DF9
_U1ERRIRbits                                       (abs)        003DF9
_U1FIFO                                            (abs)        003DF7
_U1P1H                                             (abs)        003DED
_U1P1L                                             (abs)        003DEC
_U1P2H                                             (abs)        003DEF
_U1P2L                                             (abs)        003DEE
_U1P3H                                             (abs)        003DF1
_U1P3L                                             (abs)        003DF0
_U1RXB                                             (abs)        003DE8
_U1RXPPS                                           (abs)        003AE7
_U1TXB                                             (abs)        003DEA
_U1UIR                                             (abs)        003DF8
_UART1_DefaultErrorHandler                         text46       0021E2
_UART1_DefaultFramingErrorHandler                  text45       0021EE
_UART1_DefaultOverrunErrorHandler                  text44       0021EC
_UART1_ErrorHandler                                nvBANK0      0000E9
_UART1_FramingErrorHandler                         nvBANK0      0000ED
_UART1_Initialize                                  text19       00199E
_UART1_OverrunErrorHandler                         nvBANK0      0000EB
_UART1_Receive_ISR                                 text43       001698
_UART1_RxDataHandler                               text47       0020C8
_UART1_RxInterruptHandler                          nvBANK0      0000F1
_UART1_SetErrorHandler                             text24       0021B6
_UART1_SetFramingErrorHandler                      text23       0021A8
_UART1_SetOverrunErrorHandler                      text22       00219A
_UART1_SetRxInterruptHandler                       text21       00218C
_UART1_SetTxInterruptHandler                       text20       00217E
_UART1_Transmit_ISR                                text42       001FA6
_UART1_TxInterruptHandler                          nvBANK0      0000EF
_WPUA                                              (abs)        003A41
_WPUB                                              (abs)        003A51
_WPUC                                              (abs)        003A61
_WPUE                                              (abs)        003A81
__CFG_BBEN$OFF                                     (abs)        000000
__CFG_BBSIZE$BBSIZE_512                            (abs)        000000
__CFG_BOREN$SBORDIS                                (abs)        000000
__CFG_BORV$VBOR_2P45                               (abs)        000000
__CFG_CLKOUTEN$OFF                                 (abs)        000000
__CFG_CP$OFF                                       (abs)        000000
__CFG_CSWEN$ON                                     (abs)        000000
__CFG_DEBUG$OFF                                    (abs)        000000
__CFG_FCMEN$ON                                     (abs)        000000
__CFG_FEXTOSC$ECH                                  (abs)        000000
__CFG_IVT1WAY$ON                                   (abs)        000000
__CFG_LPBOREN$OFF                                  (abs)        000000
__CFG_LVP$ON                                       (abs)        000000
__CFG_MCLRE$EXTMCLR                                (abs)        000000
__CFG_MVECEN$OFF                                   (abs)        000000
__CFG_PPS1WAY$ON                                   (abs)        000000
__CFG_PR1WAY$ON                                    (abs)        000000
__CFG_PWRTS$PWRT_OFF                               (abs)        000000
__CFG_RSTOSC$EXTOSC                                (abs)        000000
__CFG_SAFEN$OFF                                    (abs)        000000
__CFG_STVREN$ON                                    (abs)        000000
__CFG_WDTCCS$LFINTOSC                              (abs)        000000
__CFG_WDTCPS$WDTCPS_9                              (abs)        000000
__CFG_WDTCWS$WDTCWS_7                              (abs)        000000
__CFG_WDTE$ON                                      (abs)        000000
__CFG_WRTAPP$OFF                                   (abs)        000000
__CFG_WRTB$OFF                                     (abs)        000000
__CFG_WRTC$OFF                                     (abs)        000000
__CFG_WRTD$OFF                                     (abs)        000000
__CFG_WRTSAF$OFF                                   (abs)        000000
__CFG_XINST$OFF                                    (abs)        000000
__CFG_ZCD$OFF                                      (abs)        000000
__HRAM                                             (abs)        000000
__Habs1                                            abs1         000000
__Hbank0                                           bank0        000000
__Hbank1                                           bank1        000000
__Hbank10                                          bank10       000000
__Hbank11                                          bank11       000000
__Hbank12                                          bank12       000000
__Hbank13                                          bank13       000000
__Hbank14                                          bank14       000000
__Hbank15                                          bank15       000000
__Hbank2                                           bank2        000000
__Hbank3                                           bank3        000000
__Hbank4                                           bank4        000000
__Hbank5                                           bank5        000000
__Hbank6                                           bank6        000000
__Hbank7                                           bank7        000000
__Hbank8                                           bank8        000000
__Hbank9                                           bank9        000000
__Hbigbss                                          bigbss       000000
__Hbigdata                                         bigdata      000000
__Hbigram                                          bigram       000000
__Hbss                                             bss          000000
__HbssBANK0                                        bssBANK0     000000
__HbssCOMRAM                                       bssCOMRAM    000000
__Hcinit                                           cinit        000000
__Hclrtext                                         clrtext      000000
__Hcomram                                          comram       000000
__Hconfig                                          config       30000A
__Hconst                                           const        000000
__HcstackCOMRAM                                    cstackCOMRAM 000000
__Hdata                                            data         000000
__HdataBANK0                                       dataBANK0    000000
__HdataCOMRAM                                      dataCOMRAM   000000
__Heeprom_data                                     eeprom_data  000000
__Hfarbss                                          farbss       000000
__Hfardata                                         fardata      000000
__Hibigdata                                        ibigdata     000000
__Hidata                                           idata        000000
__HidataBANK0                                      idataBANK0   000000
__HidataCOMRAM                                     idataCOMRAM  000000
__Hidloc                                           idloc        200010
__Hifardata                                        ifardata     000000
__Hinit                                            init         00001E
__Hintsave_regs                                    intsave_regs 000000
__Hirdata                                          irdata       000000
__Hivt0x8                                          ivt0x8       00001A
__Hmediumconst                                     mediumconst  000000
__HnvBANK0                                         nvBANK0      000000
__HnvFARRAM                                        nvFARRAM     000000
__Hnvbit                                           nvbit        000000
__Hnvrram                                          nvrram       000000
__Hparam                                           rparam       000000
__Hpowerup                                         powerup      000000
__Hram                                             ram          000000
__Hramtop                                          ramtop       001000
__Hrbit                                            rbit         000000
__Hrbss                                            rbss         000000
__Hrdata                                           rdata        000000
__Hreset_vec                                       reset_vec    000004
__Hrparam                                          rparam       000000
__Hsfr                                             sfr          000000
__Hsmallconst                                      smallconst   000000
__Hspace_0                                         (abs)        30000A
__Hspace_1                                         (abs)        0000FD
__Hspace_2                                         (abs)        000000
__Hstack                                           stack        000000
__Hstruct                                          struct       000000
__Htemp                                            temp         000000
__Htext                                            text         000000
__Htext0                                           text0        000000
__Htext1                                           text1        000000
__Htext10                                          text10       000000
__Htext11                                          text11       000000
__Htext12                                          text12       000000
__Htext13                                          text13       000000
__Htext14                                          text14       000000
__Htext15                                          text15       000000
__Htext16                                          text16       000000
__Htext17                                          text17       000000
__Htext18                                          text18       000000
__Htext19                                          text19       000000
__Htext2                                           text2        000000
__Htext20                                          text20       000000
__Htext21                                          text21       000000
__Htext22                                          text22       000000
__Htext23                                          text23       000000
__Htext24                                          text24       000000
__Htext25                                          text25       000000
__Htext26                                          text26       000000
__Htext27                                          text27       000000
__Htext28                                          text28       000000
__Htext29                                          text29       000000
__Htext3                                           text3        000000
__Htext30                                          text30       000000
__Htext31                                          text31       000000
__Htext32                                          text32       000000
__Htext33                                          text33       000000
__Htext34                                          text34       000000
__Htext35                                          text35       000000
__Htext36                                          text36       000000
__Htext37                                          text37       000000
__Htext38                                          text38       000000
__Htext39                                          text39       000000
__Htext4                                           text4        000000
__Htext40                                          text40       000000
__Htext41                                          text41       000000
__Htext42                                          text42       000000
__Htext43                                          text43       000000
__Htext44                                          text44       000000
__Htext45                                          text45       000000
__Htext46                                          text46       000000
__Htext47                                          text47       000000
__Htext48                                          text48       000000
__Htext49                                          text49       000000
__Htext5                                           text5        000000
__Htext50                                          text50       000000
__Htext51                                          text51       000000
__Htext6                                           text6        000000
__Htext7                                           text7        000000
__Htext8                                           text8        000000
__Htext9                                           text9        000000
__LRAM                                             (abs)        000001
__Labs1                                            abs1         000000
__Lbank0                                           bank0        000000
__Lbank1                                           bank1        000000
__Lbank10                                          bank10       000000
__Lbank11                                          bank11       000000
__Lbank12                                          bank12       000000
__Lbank13                                          bank13       000000
__Lbank14                                          bank14       000000
__Lbank15                                          bank15       000000
__Lbank2                                           bank2        000000
__Lbank3                                           bank3        000000
__Lbank4                                           bank4        000000
__Lbank5                                           bank5        000000
__Lbank6                                           bank6        000000
__Lbank7                                           bank7        000000
__Lbank8                                           bank8        000000
__Lbank9                                           bank9        000000
__Lbigbss                                          bigbss       000000
__Lbigdata                                         bigdata      000000
__Lbigram                                          bigram       000000
__Lbss                                             bss          000000
__LbssBANK0                                        bssBANK0     000000
__LbssCOMRAM                                       bssCOMRAM    000000
__Lcinit                                           cinit        000000
__Lclrtext                                         clrtext      000000
__Lcomram                                          comram       000000
__Lconfig                                          config       300000
__Lconst                                           const        000000
__LcstackCOMRAM                                    cstackCOMRAM 000000
__Ldata                                            data         000000
__LdataBANK0                                       dataBANK0    000000
__LdataCOMRAM                                      dataCOMRAM   000000
__Leeprom_data                                     eeprom_data  000000
__Lfarbss                                          farbss       000000
__Lfardata                                         fardata      000000
__Libigdata                                        ibigdata     000000
__Lidata                                           idata        000000
__LidataBANK0                                      idataBANK0   000000
__LidataCOMRAM                                     idataCOMRAM  000000
__Lidloc                                           idloc        200000
__Lifardata                                        ifardata     000000
__Linit                                            init         00001A
__Lintsave_regs                                    intsave_regs 000000
__Lirdata                                          irdata       000000
__Livt0x8                                          ivt0x8       000008
__Lmediumconst                                     mediumconst  000000
__LnvBANK0                                         nvBANK0      000000
__LnvFARRAM                                        nvFARRAM     000000
__Lnvbit                                           nvbit        000000
__Lnvrram                                          nvrram       000000
__Lparam                                           rparam       000000
__Lpowerup                                         powerup      000000
__Lram                                             ram          000000
__Lramtop                                          ramtop       001000
__Lrbit                                            rbit         000000
__Lrbss                                            rbss         000000
__Lrdata                                           rdata        000000
__Lreset_vec                                       reset_vec    000000
__Lrparam                                          rparam       000000
__Lsfr                                             sfr          000000
__Lsmallconst                                      smallconst   000000
__Lspace_0                                         (abs)        000000
__Lspace_1                                         (abs)        000000
__Lspace_2                                         (abs)        000000
__Lstack                                           stack        000000
__Lstruct                                          struct       000000
__Ltemp                                            temp         000000
__Ltext                                            text         000000
__Ltext0                                           text0        000000
__Ltext1                                           text1        000000
__Ltext10                                          text10       000000
__Ltext11                                          text11       000000
__Ltext12                                          text12       000000
__Ltext13                                          text13       000000
__Ltext14                                          text14       000000
__Ltext15                                          text15       000000
__Ltext16                                          text16       000000
__Ltext17                                          text17       000000
__Ltext18                                          text18       000000
__Ltext19                                          text19       000000
__Ltext2                                           text2        000000
__Ltext20                                          text20       000000
__Ltext21                                          text21       000000
__Ltext22                                          text22       000000
__Ltext23                                          text23       000000
__Ltext24                                          text24       000000
__Ltext25                                          text25       000000
__Ltext26                                          text26       000000
__Ltext27                                          text27       000000
__Ltext28                                          text28       000000
__Ltext29                                          text29       000000
__Ltext3                                           text3        000000
__Ltext30                                          text30       000000
__Ltext31                                          text31       000000
__Ltext32                                          text32       000000
__Ltext33                                          text33       000000
__Ltext34                                          text34       000000
__Ltext35                                          text35       000000
__Ltext36                                          text36       000000
__Ltext37                                          text37       000000
__Ltext38                                          text38       000000
__Ltext39                                          text39       000000
__Ltext4                                           text4        000000
__Ltext40                                          text40       000000
__Ltext41                                          text41       000000
__Ltext42                                          text42       000000
__Ltext43                                          text43       000000
__Ltext44                                          text44       000000
__Ltext45                                          text45       000000
__Ltext46                                          text46       000000
__Ltext47                                          text47       000000
__Ltext48                                          text48       000000
__Ltext49                                          text49       000000
__Ltext5                                           text5        000000
__Ltext50                                          text50       000000
__Ltext51                                          text51       000000
__Ltext6                                           text6        000000
__Ltext7                                           text7        000000
__Ltext8                                           text8        000000
__Ltext9                                           text9        000000
__S0                                               (abs)        30000A
__S1                                               (abs)        0000FD
__S2                                               (abs)        000000
___inthi_sp                                        stack        000000
___intlo_sp                                        stack        000000
___param_bank                                      (abs)        000000
___rparam_used                                     (abs)        000001
___sp                                              stack        000000
__accesstop                                        (abs)        000060
__activetblptr                                     (abs)        000002
__end_of_CAN_filterToReg                           text40       001D06
__end_of_CAN_maskToReg                             text39       001C88
__end_of_CAN_receive                               text10       000632
__end_of_Can_rxCreateArrayFilter                   text38       001FA6
__end_of_Can_rxCreateArrayFilterTenBit             text37       001D76
__end_of_Can_rxCreateArrayMask                     text36       002032
__end_of_Can_rxCreateArrayMaskTenBit               text35       001DDE
__end_of_Can_rxJoin                                text34       001590
__end_of_Can_setFilters                            text33       00116E
__end_of_Can_setFiltersSimple                      text32       002068
__end_of_ECAN_Initialize                           text31       0018E2
__end_of_INTERRUPT_Initialize                      text30       0021EC
__end_of_INTERRUPT_InterruptManager                text41       001AE4
__end_of_IRQ_TIM6                                  text49       00217E
__end_of_OSCILLATOR_Initialize                     text29       00216E
__end_of_PIN_MANAGER_Initialize                    text28       001F06
__end_of_PMD_Initialize                            text27       002118
__end_of_SYSTEM_Initialize                         text18       002156
__end_of_TMR6_DefaultInterruptHandler              text50       0021F2
__end_of_TMR6_ISR                                  text48       00209C
__end_of_TMR6_Initialize                           text25       0020C8
__end_of_TMR6_SetInterruptHandler                  text26       0021D2
__end_of_UART1_DefaultErrorHandler                 text46       0021E8
__end_of_UART1_DefaultFramingErrorHandler          text45       0021F0
__end_of_UART1_DefaultOverrunErrorHandler          text44       0021EE
__end_of_UART1_Initialize                          text19       001A44
__end_of_UART1_Receive_ISR                         text43       00175E
__end_of_UART1_RxDataHandler                       text47       0020F4
__end_of_UART1_SetErrorHandler                     text24       0021C4
__end_of_UART1_SetFramingErrorHandler              text23       0021B6
__end_of_UART1_SetOverrunErrorHandler              text22       0021A8
__end_of_UART1_SetRxInterruptHandler               text21       00219A
__end_of_UART1_SetTxInterruptHandler               text20       00218C
__end_of_UART1_Transmit_ISR                        text42       001FEE
__end_of__initialization                           cinit        001E38
__end_of_atexAquire                                text13       001698
__end_of_atexAwaitingData                          text14       000AB8
__end_of_atexPerformChecks                         text1        001446
__end_of_atexPowerPermit                           text8        00199E
__end_of_atexResetUnsafeTime                       text9        002138
__end_of_atexVerifyPressures                       text5        00037A
__end_of_atexVerifyStat                            text4        001822
__end_of_atexVerifyTimeStamps                      text3        000890
__end_of_convertReg2ExtendedCANid                  text12       0012E8
__end_of_convertReg2StandardCANid                  text11       001C0A
__end_of_main                                      text0        000E4C
__end_of_memcpy                                    text17       001EA4
__end_of_memset                                    text7        000FE4
__end_of_msTickGet                                 text16       001F5E
__end_of_notifyAtexSafe                            text2        0021E2
__end_of_notifyAtexUnsafe                          text15       001B7C
__end_of_notifyAtexUnsafeWithOverride              text6        000CB2
__initialization                                   cinit        001DDE
__mediumconst                                      mediumconst  000000
__pbssBANK0                                        bssBANK0     000060
__pbssCOMRAM                                       bssCOMRAM    000057
__pcinit                                           cinit        001DDE
__pcstackCOMRAM                                    cstackCOMRAM 000001
__pdataBANK0                                       dataBANK0    0000F4
__pdataCOMRAM                                      dataCOMRAM   00005F
__pidataBANK0                                      idataBANK0   0021D2
__pidataCOMRAM                                     idataCOMRAM  0021F2
__pivt0x8                                          ivt0x8       000008
__pnvBANK0                                         nvBANK0      0000E7
__ptext0                                           text0        000CB2
__ptext1                                           text1        0012E8
__ptext10                                          text10       00037A
__ptext11                                          text11       001B7C
__ptext12                                          text12       00116E
__ptext13                                          text13       001590
__ptext14                                          text14       000890
__ptext15                                          text15       001AE4
__ptext16                                          text16       001F06
__ptext17                                          text17       001E42
__ptext18                                          text18       002138
__ptext19                                          text19       00199E
__ptext2                                           text2        0021DC
__ptext20                                          text20       00217E
__ptext21                                          text21       00218C
__ptext22                                          text22       00219A
__ptext23                                          text23       0021A8
__ptext24                                          text24       0021B6
__ptext25                                          text25       00209C
__ptext26                                          text26       0021C4
__ptext27                                          text27       0020F4
__ptext28                                          text28       001EA4
__ptext29                                          text29       002156
__ptext3                                           text3        000632
__ptext30                                          text30       0021E8
__ptext31                                          text31       001822
__ptext32                                          text32       002032
__ptext33                                          text33       000FE4
__ptext34                                          text34       001446
__ptext35                                          text35       001D76
__ptext36                                          text36       001FEE
__ptext37                                          text37       001D06
__ptext38                                          text38       001F5E
__ptext39                                          text39       001C0A
__ptext4                                           text4        00175E
__ptext40                                          text40       001C88
__ptext41                                          text41       001A44
__ptext42                                          text42       001FA6
__ptext43                                          text43       001698
__ptext44                                          text44       0021EC
__ptext45                                          text45       0021EE
__ptext46                                          text46       0021E2
__ptext47                                          text47       0020C8
__ptext48                                          text48       002068
__ptext49                                          text49       00216E
__ptext5                                           text5        00001E
__ptext50                                          text50       0021F0
__ptext51                                          text51       000000
__ptext6                                           text6        000AB8
__ptext7                                           text7        000E4C
__ptext8                                           text8        0018E2
__ptext9                                           text9        002118
__ramtop                                           ramtop       001000
__size_of_CAN_filterToReg                          (abs)        000000
__size_of_CAN_maskToReg                            (abs)        000000
__size_of_CAN_receive                              (abs)        000000
__size_of_Can_rxCreateArrayFilter                  (abs)        000000
__size_of_Can_rxCreateArrayFilterTenBit            (abs)        000000
__size_of_Can_rxCreateArrayMask                    (abs)        000000
__size_of_Can_rxCreateArrayMaskTenBit              (abs)        000000
__size_of_Can_rxJoin                               (abs)        000000
__size_of_Can_setFilters                           (abs)        000000
__size_of_Can_setFiltersSimple                     (abs)        000000
__size_of_ECAN_Initialize                          (abs)        000000
__size_of_INTERRUPT_Initialize                     (abs)        000000
__size_of_INTERRUPT_InterruptManager               (abs)        000000
__size_of_IRQ_TIM6                                 (abs)        000000
__size_of_OSCILLATOR_Initialize                    (abs)        000000
__size_of_PIN_MANAGER_Initialize                   (abs)        000000
__size_of_PMD_Initialize                           (abs)        000000
__size_of_SYSTEM_Initialize                        (abs)        000000
__size_of_TMR6_DefaultInterruptHandler             (abs)        000000
__size_of_TMR6_ISR                                 (abs)        000000
__size_of_TMR6_Initialize                          (abs)        000000
__size_of_TMR6_SetInterruptHandler                 (abs)        000000
__size_of_UART1_DefaultErrorHandler                (abs)        000000
__size_of_UART1_DefaultFramingErrorHandler         (abs)        000000
__size_of_UART1_DefaultOverrunErrorHandler         (abs)        000000
__size_of_UART1_Initialize                         (abs)        000000
__size_of_UART1_Receive_ISR                        (abs)        000000
__size_of_UART1_RxDataHandler                      (abs)        000000
__size_of_UART1_SetErrorHandler                    (abs)        000000
__size_of_UART1_SetFramingErrorHandler             (abs)        000000
__size_of_UART1_SetOverrunErrorHandler             (abs)        000000
__size_of_UART1_SetRxInterruptHandler              (abs)        000000
__size_of_UART1_SetTxInterruptHandler              (abs)        000000
__size_of_UART1_Transmit_ISR                       (abs)        000000
__size_of_atexAquire                               (abs)        000000
__size_of_atexAwaitingData                         (abs)        000000
__size_of_atexPerformChecks                        (abs)        000000
__size_of_atexPowerPermit                          (abs)        000000
__size_of_atexResetUnsafeTime                      (abs)        000000
__size_of_atexVerifyPressures                      (abs)        000000
__size_of_atexVerifyStat                           (abs)        000000
__size_of_atexVerifyTimeStamps                     (abs)        000000
__size_of_convertReg2ExtendedCANid                 (abs)        000000
__size_of_convertReg2StandardCANid                 (abs)        000000
__size_of_main                                     (abs)        000000
__size_of_memcpy                                   (abs)        000000
__size_of_memset                                   (abs)        000000
__size_of_msTickGet                                (abs)        000000
__size_of_notifyAtexSafe                           (abs)        000000
__size_of_notifyAtexUnsafe                         (abs)        000000
__size_of_notifyAtexUnsafeWithOverride             (abs)        000000
__smallconst                                       smallconst   000000
_atexAquire                                        text13       001590
_atexAquireGrp                                     bssBANK0     000097
_atexAwaitingData                                  text14       000890
_atexAwaitingDataGrp                               bssBANK0     0000BF
_atexLastGood                                      bssBANK0     000082
_atexPerformChecks                                 text1        0012E8
_atexPowerPermit                                   text8        0018E2
_atexResetUnsafeTime                               text9        002118
_atexVerifyPressures                               text5        00001E
_atexVerifyStat                                    text4        00175E
_atexVerifyTimeStamps                              text3        000632
_convertReg2ExtendedCANid                          text12       00116E
_convertReg2StandardCANid                          text11       001B7C
_dest                                              dataCOMRAM   00005F
_eAtexAquire                                       bssCOMRAM    000057
_eAtexData                                         bssCOMRAM    000058
_eAtexPerformChecks                                bssBANK0     000093
_eAtexVerifyPressures                              bssBANK0     000094
_eAtexVerifyStat                                   bssBANK0     000096
_eatexVerifyTimeStamps                             bssBANK0     000095
_failedAquired                                     bssBANK0     000086
_main                                              text0        000CB2
_memcpy                                            text17       001E42
_memset                                            text7        000E4C
_message                                           dataBANK0    0000FB
_msTick                                            dataBANK0    0000F4
_msTickGet                                         text16       001F06
_notifyAtexSafe                                    text2        0021DC
_notifyAtexUnsafe                                  text15       001AE4
_notifyAtexUnsafeWithOverride                      text6        000AB8
_sender                                            dataBANK0    0000F8
_travelFLagsAtexAwaitingData                       bssBANK0     000092
_travelFlags                                       bssBANK0     00008E
_travelFlagsAtexAquire                             bssBANK0     000091
_travelFlagsAtexVerifyPressure                     bssBANK0     00008F
_travelFlagsAtexVerifyTimeStamps                   bssBANK0     000090
_uart1RxBuffer                                     bssBANK0     000072
_uart1RxCount                                      bssCOMRAM    00005A
_uart1RxHead                                       bssCOMRAM    00005C
_uart1RxLastError                                  bssCOMRAM    000059
_uart1RxStatusBuffer                               bssBANK0     00006A
_uart1RxTail                                       bssCOMRAM    00005B
_uart1TxBuffer                                     bssBANK0     00007A
_uart1TxBufferRemaining                            nvBANK0      0000F3
_uart1TxHead                                       bssCOMRAM    00005E
_uart1TxTail                                       bssCOMRAM    00005D
atexAquire@aaState                                 cstackCOMRAM 000011
atexAquire@i                                       cstackCOMRAM 000012
atexAquire@returnVal                               cstackCOMRAM 000010
atexAwaitingData@F22983                            bssBANK0     000060
atexAwaitingData@adState                           cstackCOMRAM 000014
atexAwaitingData@arrayMod                          cstackCOMRAM 000015
atexAwaitingData@atexMsg                           cstackCOMRAM 00000C
atexAwaitingData@i                                 cstackCOMRAM 000013
atexAwaitingData@localConsec                       cstackCOMRAM 000012
atexAwaitingData@localPress                        cstackCOMRAM 000016
atexPerformChecks@apState                          cstackCOMRAM 000043
atexPowerPermit@LEDtimer                           cstackCOMRAM 00000A
atexPowerPermit@timeNow                            cstackCOMRAM 00000E
atexVerifyPressures@avState                        cstackCOMRAM 000040
atexVerifyPressures@i                              cstackCOMRAM 00003A
atexVerifyPressures@i_1852                         cstackCOMRAM 00003B
atexVerifyPressures@i_1856                         cstackCOMRAM 00003C
atexVerifyPressures@i_1857                         cstackCOMRAM 00003D
atexVerifyPressures@i_1861                         cstackCOMRAM 00003E
atexVerifyPressures@i_1862                         cstackCOMRAM 00003F
atexVerifyPressures@maxPressure                    cstackCOMRAM 000037
atexVerifyPressures@maxPressure_1859               cstackCOMRAM 000039
atexVerifyPressures@minPressure                    cstackCOMRAM 000036
atexVerifyPressures@minPressure_1858               cstackCOMRAM 000038
atexVerifyPressures@returnVal                      cstackCOMRAM 000035
atexVerifyStat@avsState                            cstackCOMRAM 000005
atexVerifyStat@i                                   cstackCOMRAM 000006
atexVerifyStat@returnVal                           cstackCOMRAM 000004
atexVerifyTimeStamps@avtState                      cstackCOMRAM 00001B
atexVerifyTimeStamps@currentTimeStamp              cstackCOMRAM 00000D
atexVerifyTimeStamps@i                             cstackCOMRAM 00001A
atexVerifyTimeStamps@i_1845                        cstackCOMRAM 00001C
atexVerifyTimeStamps@i_1846                        cstackCOMRAM 00001D
atexVerifyTimeStamps@maxTimeStamp                  cstackCOMRAM 000016
atexVerifyTimeStamps@minTimeStamp                  cstackCOMRAM 000012
atexVerifyTimeStamps@returnVal                     cstackCOMRAM 000011
convertReg2ExtendedCANid@CAN_standardLo_ID_hi3bits cstackCOMRAM 00000F
convertReg2ExtendedCANid@CAN_standardLo_ID_lo2bits cstackCOMRAM 00000E
convertReg2ExtendedCANid@ConvertedID               cstackCOMRAM 000010
convertReg2ExtendedCANid@returnValue               cstackCOMRAM 00000A
convertReg2ExtendedCANid@tempRXBn_EIDH             cstackCOMRAM 000009
convertReg2ExtendedCANid@tempRXBn_EIDL             cstackCOMRAM 000001
convertReg2ExtendedCANid@tempRXBn_SIDH             cstackCOMRAM 000002
convertReg2ExtendedCANid@tempRXBn_SIDL             cstackCOMRAM 000003
convertReg2StandardCANid@ConvertedID               cstackCOMRAM 00000C
convertReg2StandardCANid@returnValue               cstackCOMRAM 000008
convertReg2StandardCANid@tempRXBn_SIDH             cstackCOMRAM 000007
convertReg2StandardCANid@tempRXBn_SIDL             cstackCOMRAM 000001
end_of_initialization                              cinit        001E38
intlevel0                                          text         000000
intlevel1                                          text         000000
intlevel2                                          text         000000
intlevel3                                          text         000000
ivt0x8_base                                        ivt0x8       000008
main@LEDtimer                                      bssBANK0     00008A
main@atexPressure                                  cstackCOMRAM 000049
main@timeNow                                       cstackCOMRAM 000045
memcpy@d                                           cstackCOMRAM 000007
memcpy@d1                                          cstackCOMRAM 000001
memcpy@n                                           cstackCOMRAM 000005
memcpy@s                                           cstackCOMRAM 000009
memcpy@s1                                          cstackCOMRAM 000003
memcpy@tmp                                         cstackCOMRAM 00000B
memset@c                                           cstackCOMRAM 000003
memset@dest                                        cstackCOMRAM 000001
memset@k                                           cstackCOMRAM 000009
memset@n                                           cstackCOMRAM 000005
memset@s                                           cstackCOMRAM 00000B
msTickGet@tempTick                                 cstackCOMRAM 000005
notifyAtexUnsafeWithOverride@atexDump              cstackCOMRAM 000020
notifyAtexUnsafeWithOverride@ledTimer              cstackCOMRAM 000018
notifyAtexUnsafeWithOverride@timeNow               cstackCOMRAM 00001C
stackhi                                            (abs)        000FFF
stacklo                                            (abs)        0000FD
start                                              init         00001A
start_initialization                               cinit        001DDE


FUNCTION INFORMATION:

 *************** function _main *****************
 Defined at:
		line 84 in file "main.c"
 Parameters:    Size  Location     Type
		None
 Auto vars:     Size  Location     Type
  atexPressure   14   72[COMRAM] struct .
  timeNow         4   68[COMRAM] unsigned long 
 Return value:  Size  Location     Type
                  1    wreg      void 
 Registers used:
		wreg, fsr1l, fsr1h, fsr2l, fsr2h, status,2, status,0, prodl, prodh, cstack
 Tracked objects:
		On entry : 
		On exit  : 
		Unchanged: 
 Data sizes:     COMRAM   BANK0   BANK1   BANK2   BANK3   BANK4   BANK5   BANK6   BANK7   BANK8   BANK9  BANK10  BANK11  BANK12  BANK13  BANK14  BANK15
      Params:         0       0       0       0       0       0       0       0       0       0       0       0       0       0       0       0       0
      Locals:        18       0       0       0       0       0       0       0       0       0       0       0       0       0       0       0       0
      Temps:          1       0       0       0       0       0       0       0       0       0       0       0       0       0       0       0       0
      Totals:        19       0       0       0       0       0       0       0       0       0       0       0       0       0       0       0       0
Total ram usage:       19 bytes
 Hardware stack levels required when called:   10
 This function calls:
		_CAN_receive
		_Can_setFiltersSimple
		_SYSTEM_Initialize
		_TMR6_SetInterruptHandler
		_atexAwaitingData
		_atexPerformChecks
		_atexPowerPermit
		_msTickGet
		_notifyAtexUnsafe
 This function is called by:
		Startup code after reset
 This function uses a non-reentrant model


 *************** function _atexPerformChecks *****************
 Defined at:
		line 529 in file "C:/Users/Robert.Finch/OneDrive - Mini-Cam Ltd/Pic/Atex/PCB-005-419.X/Atex.c"
 Parameters:    Size  Location     Type
		None
 Auto vars:     Size  Location     Type
  apState         1   66[COMRAM] unsigned char 
 Return value:  Size  Location     Type
                  1    wreg      void 
 Registers used:
		wreg, fsr2l, fsr2h, status,2, status,0, prodl, prodh, cstack
 Tracked objects:
		On entry : 
		On exit  : 
		Unchanged: 
 Data sizes:     COMRAM   BANK0   BANK1   BANK2   BANK3   BANK4   BANK5   BANK6   BANK7   BANK8   BANK9  BANK10  BANK11  BANK12  BANK13  BANK14  BANK15
      Params:         0       0       0       0       0       0       0       0       0       0       0       0       0       0       0       0       0
      Locals:         1       0       0       0       0       0       0       0       0       0       0       0       0       0       0       0       0
      Temps:          2       0       0       0       0       0       0       0       0       0       0       0       0       0       0       0       0
      Totals:         3       0       0       0       0       0       0       0       0       0       0       0       0       0       0       0       0
Total ram usage:        3 bytes
 Hardware stack levels used:    1
 Hardware stack levels required when called:    9
 This function calls:
		_atexAquire
		_atexResetUnsafeTime
		_atexVerifyPressures
		_atexVerifyStat
		_atexVerifyTimeStamps
		_msTickGet
		_notifyAtexSafe
		_notifyAtexUnsafe
		_notifyAtexUnsafeWithOverride
 This function is called by:
		_main
 This function uses a non-reentrant model


 *************** function _notifyAtexSafe *****************
 Defined at:
		line 733 in file "C:/Users/Robert.Finch/OneDrive - Mini-Cam Ltd/Pic/Atex/PCB-005-419.X/Atex.c"
 Parameters:    Size  Location     Type
		None
 Auto vars:     Size  Location     Type
		None
 Return value:  Size  Location     Type
                  1    wreg      void 
 Registers used:
		None
 Tracked objects:
		On entry : 
		On exit  : 
		Unchanged: 
 Data sizes:     COMRAM   BANK0   BANK1   BANK2   BANK3   BANK4   BANK5   BANK6   BANK7   BANK8   BANK9  BANK10  BANK11  BANK12  BANK13  BANK14  BANK15
      Params:         0       0       0       0       0       0       0       0       0       0       0       0       0       0       0       0       0
      Locals:         0       0       0       0       0       0       0       0       0       0       0       0       0       0       0       0       0
      Temps:          0       0       0       0       0       0       0       0       0       0       0       0       0       0       0       0       0
      Totals:         0       0       0       0       0       0       0       0       0       0       0       0       0       0       0       0       0
Total ram usage:        0 bytes
 Hardware stack levels used:    1
 Hardware stack levels required when called:    4
 This function calls:
		Nothing
 This function is called by:
		_atexPerformChecks
 This function uses a non-reentrant model


 *************** function _atexVerifyTimeStamps *****************
 Defined at:
		line 266 in file "C:/Users/Robert.Finch/OneDrive - Mini-Cam Ltd/Pic/Atex/PCB-005-419.X/Atex.c"
 Parameters:    Size  Location     Type
		None
 Auto vars:     Size  Location     Type
  i               1   28[COMRAM] unsigned char 
  i               1   27[COMRAM] unsigned char 
  i               1   25[COMRAM] unsigned char 
  maxTimeStamp    4   21[COMRAM] unsigned long 
  minTimeStamp    4   17[COMRAM] unsigned long 
  currentTimeS    4   12[COMRAM] unsigned long 
  avtState        1   26[COMRAM] unsigned char 
  returnVal       1   16[COMRAM] unsigned char 
 Return value:  Size  Location     Type
                  1    wreg      unsigned char 
 Registers used:
		wreg, fsr2l, fsr2h, status,2, status,0, prodl, prodh, cstack
 Tracked objects:
		On entry : 
		On exit  : 
		Unchanged: 
 Data sizes:     COMRAM   BANK0   BANK1   BANK2   BANK3   BANK4   BANK5   BANK6   BANK7   BANK8   BANK9  BANK10  BANK11  BANK12  BANK13  BANK14  BANK15
      Params:         0       0       0       0       0       0       0       0       0       0       0       0       0       0       0       0       0
      Locals:        17       0       0       0       0       0       0       0       0       0       0       0       0       0       0       0       0
      Temps:          4       0       0       0       0       0       0       0       0       0       0       0       0       0       0       0       0
      Totals:        21       0       0       0       0       0       0       0       0       0       0       0       0       0       0       0       0
Total ram usage:       21 bytes
 Hardware stack levels used:    1
 Hardware stack levels required when called:    5
 This function calls:
		_msTickGet
		_notifyAtexUnsafe
 This function is called by:
		_atexPerformChecks
 This function uses a non-reentrant model


 *************** function _atexVerifyStat *****************
 Defined at:
		line 207 in file "C:/Users/Robert.Finch/OneDrive - Mini-Cam Ltd/Pic/Atex/PCB-005-419.X/Atex.c"
 Parameters:    Size  Location     Type
		None
 Auto vars:     Size  Location     Type
  i               1    5[COMRAM] unsigned char 
  avsState        1    4[COMRAM] unsigned char 
  returnVal       1    3[COMRAM] unsigned char 
 Return value:  Size  Location     Type
                  1    wreg      unsigned char 
 Registers used:
		wreg, fsr2l, fsr2h, status,2, status,0, prodl, prodh, cstack
 Tracked objects:
		On entry : 
		On exit  : 
		Unchanged: 
 Data sizes:     COMRAM   BANK0   BANK1   BANK2   BANK3   BANK4   BANK5   BANK6   BANK7   BANK8   BANK9  BANK10  BANK11  BANK12  BANK13  BANK14  BANK15
      Params:         0       0       0       0       0       0       0       0       0       0       0       0       0       0       0       0       0
      Locals:         3       0       0       0       0       0       0       0       0       0       0       0       0       0       0       0       0
      Temps:          2       0       0       0       0       0       0       0       0       0       0       0       0       0       0       0       0
      Totals:         5       0       0       0       0       0       0       0       0       0       0       0       0       0       0       0       0
Total ram usage:        5 bytes
 Hardware stack levels used:    1
 Hardware stack levels required when called:    5
 This function calls:
		_notifyAtexUnsafe
 This function is called by:
		_atexPerformChecks
 This function uses a non-reentrant model


 *************** function _atexVerifyPressures *****************
 Defined at:
		line 369 in file "C:/Users/Robert.Finch/OneDrive - Mini-Cam Ltd/Pic/Atex/PCB-005-419.X/Atex.c"
 Parameters:    Size  Location     Type
		None
 Auto vars:     Size  Location     Type
  i               1   62[COMRAM] unsigned char 
  i               1   61[COMRAM] unsigned char 
  i               1   60[COMRAM] unsigned char 
  i               1   59[COMRAM] unsigned char 
  i               1   58[COMRAM] unsigned char 
  i               1   57[COMRAM] unsigned char 
  maxPressure     1   56[COMRAM] unsigned char 
  minPressure     1   55[COMRAM] unsigned char 
  maxPressureL    1    0        unsigned char 
  maxPressure     1   54[COMRAM] unsigned char 
  minPressure     1   53[COMRAM] unsigned char 
  maxPressureL    1    0        unsigned char 
  avState         1   63[COMRAM] unsigned char 
  returnVal       1   52[COMRAM] unsigned char 
 Return value:  Size  Location     Type
                  1    wreg      unsigned char 
 Registers used:
		wreg, fsr2l, fsr2h, status,2, status,0, prodl, prodh, cstack
 Tracked objects:
		On entry : 
		On exit  : 
		Unchanged: 
 Data sizes:     COMRAM   BANK0   BANK1   BANK2   BANK3   BANK4   BANK5   BANK6   BANK7   BANK8   BANK9  BANK10  BANK11  BANK12  BANK13  BANK14  BANK15
      Params:         0       0       0       0       0       0       0       0       0       0       0       0       0       0       0       0       0
      Locals:        14       0       0       0       0       0       0       0       0       0       0       0       0       0       0       0       0
      Temps:          5       0       0       0       0       0       0       0       0       0       0       0       0       0       0       0       0
      Totals:        19       0       0       0       0       0       0       0       0       0       0       0       0       0       0       0       0
Total ram usage:       19 bytes
 Hardware stack levels used:    1
 Hardware stack levels required when called:    8
 This function calls:
		_memset
		_notifyAtexUnsafe
		_notifyAtexUnsafeWithOverride
 This function is called by:
		_atexPerformChecks
 This function uses a non-reentrant model


 *************** function _notifyAtexUnsafeWithOverride *****************
 Defined at:
		line 671 in file "C:/Users/Robert.Finch/OneDrive - Mini-Cam Ltd/Pic/Atex/PCB-005-419.X/Atex.c"
 Parameters:    Size  Location     Type
		None
 Auto vars:     Size  Location     Type
  atexDump       14   31[COMRAM] struct .
  timeNow         4   27[COMRAM] unsigned long 
  ledTimer        4   23[COMRAM] unsigned long 
 Return value:  Size  Location     Type
                  1    wreg      void 
 Registers used:
		wreg, fsr2l, fsr2h, status,2, status,0, cstack
 Tracked objects:
		On entry : 
		On exit  : 
		Unchanged: 
 Data sizes:     COMRAM   BANK0   BANK1   BANK2   BANK3   BANK4   BANK5   BANK6   BANK7   BANK8   BANK9  BANK10  BANK11  BANK12  BANK13  BANK14  BANK15
      Params:         0       0       0       0       0       0       0       0       0       0       0       0       0       0       0       0       0
      Locals:        22       0       0       0       0       0       0       0       0       0       0       0       0       0       0       0       0
      Temps:          1       0       0       0       0       0       0       0       0       0       0       0       0       0       0       0       0
      Totals:        23       0       0       0       0       0       0       0       0       0       0       0       0       0       0       0       0
Total ram usage:       23 bytes
 Hardware stack levels used:    1
 Hardware stack levels required when called:    7
 This function calls:
		_CAN_receive
		_atexPowerPermit
		_memset
		_msTickGet
 This function is called by:
		_atexVerifyPressures
		_atexPerformChecks
 This function uses a non-reentrant model


 *************** function _memset *****************
 Defined at:
		line 4 in file "C:\Program Files (x86)\Microchip\xc8\v2.10\pic\sources\c99\common\memset.c"
 Parameters:    Size  Location     Type
  dest            2    0[COMRAM] PTR void 
		 -> atexAquireGrp(40), atexAwaitingDataGrp(40), 
  c               2    2[COMRAM] int 
  n               2    4[COMRAM] unsigned int 
 Auto vars:     Size  Location     Type
  s               2   10[COMRAM] PTR unsigned char 
		 -> atexAquireGrp(40), atexAwaitingDataGrp(40), 
  k               2    8[COMRAM] unsigned int 
 Return value:  Size  Location     Type
                  2    0[COMRAM] PTR void 
 Registers used:
		wreg, fsr2l, fsr2h, status,2, status,0
 Tracked objects:
		On entry : 
		On exit  : 
		Unchanged: 
 Data sizes:     COMRAM   BANK0   BANK1   BANK2   BANK3   BANK4   BANK5   BANK6   BANK7   BANK8   BANK9  BANK10  BANK11  BANK12  BANK13  BANK14  BANK15
      Params:         6       0       0       0       0       0       0       0       0       0       0       0       0       0       0       0       0
      Locals:         4       0       0       0       0       0       0       0       0       0       0       0       0       0       0       0       0
      Temps:          2       0       0       0       0       0       0       0       0       0       0       0       0       0       0       0       0
      Totals:        12       0       0       0       0       0       0       0       0       0       0       0       0       0       0       0       0
Total ram usage:       12 bytes
 Hardware stack levels used:    1
 Hardware stack levels required when called:    4
 This function calls:
		Nothing
 This function is called by:
		_atexVerifyPressures
		_notifyAtexUnsafeWithOverride
 This function uses a non-reentrant model


 *************** function _atexPowerPermit *****************
 Defined at:
		line 643 in file "C:/Users/Robert.Finch/OneDrive - Mini-Cam Ltd/Pic/Atex/PCB-005-419.X/Atex.c"
 Parameters:    Size  Location     Type
		None
 Auto vars:     Size  Location     Type
  timeNow         4   13[COMRAM] unsigned long 
  LEDtimer        4    9[COMRAM] unsigned long 
 Return value:  Size  Location     Type
                  1    wreg      void 
 Registers used:
		wreg, status,2, status,0, cstack
 Tracked objects:
		On entry : 
		On exit  : 
		Unchanged: 
 Data sizes:     COMRAM   BANK0   BANK1   BANK2   BANK3   BANK4   BANK5   BANK6   BANK7   BANK8   BANK9  BANK10  BANK11  BANK12  BANK13  BANK14  BANK15
      Params:         0       0       0       0       0       0       0       0       0       0       0       0       0       0       0       0       0
      Locals:         8       0       0       0       0       0       0       0       0       0       0       0       0       0       0       0       0
      Temps:          1       0       0       0       0       0       0       0       0       0       0       0       0       0       0       0       0
      Totals:         9       0       0       0       0       0       0       0       0       0       0       0       0       0       0       0       0
Total ram usage:        9 bytes
 Hardware stack levels used:    1
 Hardware stack levels required when called:    6
 This function calls:
		_atexResetUnsafeTime
		_msTickGet
 This function is called by:
		_main
		_notifyAtexUnsafeWithOverride
 This function uses a non-reentrant model


 *************** function _atexResetUnsafeTime *****************
 Defined at:
		line 20 in file "C:/Users/Robert.Finch/OneDrive - Mini-Cam Ltd/Pic/Atex/PCB-005-419.X/Atex.c"
 Parameters:    Size  Location     Type
		None
 Auto vars:     Size  Location     Type
		None
 Return value:  Size  Location     Type
                  1    wreg      void 
 Registers used:
		wreg, status,2, status,0, cstack
 Tracked objects:
		On entry : 
		On exit  : 
		Unchanged: 
 Data sizes:     COMRAM   BANK0   BANK1   BANK2   BANK3   BANK4   BANK5   BANK6   BANK7   BANK8   BANK9  BANK10  BANK11  BANK12  BANK13  BANK14  BANK15
      Params:         0       0       0       0       0       0       0       0       0       0       0       0       0       0       0       0       0
      Locals:         0       0       0       0       0       0       0       0       0       0       0       0       0       0       0       0       0
      Temps:          0       0       0       0       0       0       0       0       0       0       0       0       0       0       0       0       0
      Totals:         0       0       0       0       0       0       0       0       0       0       0       0       0       0       0       0       0
Total ram usage:        0 bytes
 Hardware stack levels used:    1
 Hardware stack levels required when called:    5
 This function calls:
		_msTickGet
 This function is called by:
		_atexPerformChecks
		_atexPowerPermit
 This function uses a non-reentrant model


 *************** function _CAN_receive *****************
 Defined at:
		line 238 in file "mcc_generated_files/ecan.c"
 Parameters:    Size  Location     Type
  tempCanMsg      2   19[COMRAM] PTR struct .
		 -> notifyAtexUnsafeWithOverride@atexDump(14), main@atexPressure(14), 
 Auto vars:     Size  Location     Type
  returnValue     1   21[COMRAM] unsigned char 
 Return value:  Size  Location     Type
                  1    wreg      unsigned char 
 Registers used:
		wreg, fsr2l, fsr2h, status,2, status,0, cstack
 Tracked objects:
		On entry : 
		On exit  : 
		Unchanged: 
 Data sizes:     COMRAM   BANK0   BANK1   BANK2   BANK3   BANK4   BANK5   BANK6   BANK7   BANK8   BANK9  BANK10  BANK11  BANK12  BANK13  BANK14  BANK15
      Params:         2       0       0       0       0       0       0       0       0       0       0       0       0       0       0       0       0
      Locals:         1       0       0       0       0       0       0       0       0       0       0       0       0       0       0       0       0
      Temps:          0       0       0       0       0       0       0       0       0       0       0       0       0       0       0       0       0
      Totals:         3       0       0       0       0       0       0       0       0       0       0       0       0       0       0       0       0
Total ram usage:        3 bytes
 Hardware stack levels used:    1
 Hardware stack levels required when called:    5
 This function calls:
		_convertReg2ExtendedCANid
		_convertReg2StandardCANid
 This function is called by:
		_main
		_notifyAtexUnsafeWithOverride
 This function uses a non-reentrant model


 *************** function _convertReg2StandardCANid *****************
 Defined at:
		line 384 in file "mcc_generated_files/ecan.c"
 Parameters:    Size  Location     Type
  tempRXBn_SID    1    wreg     unsigned char 
  tempRXBn_SID    1    0[COMRAM] unsigned char 
 Auto vars:     Size  Location     Type
  tempRXBn_SID    1    6[COMRAM] unsigned char 
  ConvertedID     4   11[COMRAM] unsigned long 
  returnValue     4    7[COMRAM] unsigned long 
 Return value:  Size  Location     Type
                  4    0[COMRAM] unsigned long 
 Registers used:
		wreg, status,2, status,0
 Tracked objects:
		On entry : 
		On exit  : 
		Unchanged: 
 Data sizes:     COMRAM   BANK0   BANK1   BANK2   BANK3   BANK4   BANK5   BANK6   BANK7   BANK8   BANK9  BANK10  BANK11  BANK12  BANK13  BANK14  BANK15
      Params:         4       0       0       0       0       0       0       0       0       0       0       0       0       0       0       0       0
      Locals:         9       0       0       0       0       0       0       0       0       0       0       0       0       0       0       0       0
      Temps:          2       0       0       0       0       0       0       0       0       0       0       0       0       0       0       0       0
      Totals:        15       0       0       0       0       0       0       0       0       0       0       0       0       0       0       0       0
Total ram usage:       15 bytes
 Hardware stack levels used:    1
 Hardware stack levels required when called:    4
 This function calls:
		Nothing
 This function is called by:
		_CAN_receive
 This function uses a non-reentrant model


 *************** function _convertReg2ExtendedCANid *****************
 Defined at:
		line 363 in file "mcc_generated_files/ecan.c"
 Parameters:    Size  Location     Type
  tempRXBn_EID    1    wreg     unsigned char 
  tempRXBn_EID    1    0[COMRAM] unsigned char 
  tempRXBn_SID    1    1[COMRAM] unsigned char 
  tempRXBn_SID    1    2[COMRAM] unsigned char 
 Auto vars:     Size  Location     Type
  tempRXBn_EID    1    8[COMRAM] unsigned char 
  ConvertedID     4   15[COMRAM] unsigned long 
  returnValue     4    9[COMRAM] unsigned long 
  CAN_standard    1   14[COMRAM] unsigned char 
  CAN_standard    1   13[COMRAM] unsigned char 
 Return value:  Size  Location     Type
                  4    0[COMRAM] unsigned long 
 Registers used:
		wreg, status,2, status,0
 Tracked objects:
		On entry : 
		On exit  : 
		Unchanged: 
 Data sizes:     COMRAM   BANK0   BANK1   BANK2   BANK3   BANK4   BANK5   BANK6   BANK7   BANK8   BANK9  BANK10  BANK11  BANK12  BANK13  BANK14  BANK15
      Params:         4       0       0       0       0       0       0       0       0       0       0       0       0       0       0       0       0
      Locals:        11       0       0       0       0       0       0       0       0       0       0       0       0       0       0       0       0
      Temps:          4       0       0       0       0       0       0       0       0       0       0       0       0       0       0       0       0
      Totals:        19       0       0       0       0       0       0       0       0       0       0       0       0       0       0       0       0
Total ram usage:       19 bytes
 Hardware stack levels used:    1
 Hardware stack levels required when called:    4
 This function calls:
		Nothing
 This function is called by:
		_CAN_receive
 This function uses a non-reentrant model


 *************** function _atexAquire *****************
 Defined at:
		line 140 in file "C:/Users/Robert.Finch/OneDrive - Mini-Cam Ltd/Pic/Atex/PCB-005-419.X/Atex.c"
 Parameters:    Size  Location     Type
		None
 Auto vars:     Size  Location     Type
  i               1   17[COMRAM] unsigned char 
  aaState         1   16[COMRAM] unsigned char 
  returnVal       1   15[COMRAM] unsigned char 
 Return value:  Size  Location     Type
                  1    wreg      unsigned char 
 Registers used:
		wreg, fsr2l, fsr2h, status,2, status,0, prodl, prodh, cstack
 Tracked objects:
		On entry : 
		On exit  : 
		Unchanged: 
 Data sizes:     COMRAM   BANK0   BANK1   BANK2   BANK3   BANK4   BANK5   BANK6   BANK7   BANK8   BANK9  BANK10  BANK11  BANK12  BANK13  BANK14  BANK15
      Params:         0       0       0       0       0       0       0       0       0       0       0       0       0       0       0       0       0
      Locals:         3       0       0       0       0       0       0       0       0       0       0       0       0       0       0       0       0
      Temps:          4       0       0       0       0       0       0       0       0       0       0       0       0       0       0       0       0
      Totals:         7       0       0       0       0       0       0       0       0       0       0       0       0       0       0       0       0
Total ram usage:        7 bytes
 Hardware stack levels used:    1
 Hardware stack levels required when called:    5
 This function calls:
		_memcpy
		_notifyAtexUnsafe
 This function is called by:
		_atexPerformChecks
 This function uses a non-reentrant model


 *************** function _atexAwaitingData *****************
 Defined at:
		line 25 in file "C:/Users/Robert.Finch/OneDrive - Mini-Cam Ltd/Pic/Atex/PCB-005-419.X/Atex.c"
 Parameters:    Size  Location     Type
  atexMsg         2   11[COMRAM] PTR struct .
		 -> main@atexPressure(14), 
 Auto vars:     Size  Location     Type
  i               1   18[COMRAM] unsigned char 
  localConsec     1   17[COMRAM] unsigned char 
  localPress     10   21[COMRAM] struct .
  arrayMod        1   20[COMRAM] unsigned char 
  adState         1   19[COMRAM] unsigned char 
 Return value:  Size  Location     Type
                  1    wreg      void 
 Registers used:
		wreg, fsr1l, fsr1h, fsr2l, fsr2h, status,2, status,0, prodl, prodh, cstack
 Tracked objects:
		On entry : 
		On exit  : 
		Unchanged: 
 Data sizes:     COMRAM   BANK0   BANK1   BANK2   BANK3   BANK4   BANK5   BANK6   BANK7   BANK8   BANK9  BANK10  BANK11  BANK12  BANK13  BANK14  BANK15
      Params:         2       0       0       0       0       0       0       0       0       0       0       0       0       0       0       0       0
      Locals:        14       0       0       0       0       0       0       0       0       0       0       0       0       0       0       0       0
      Temps:          4       0       0       0       0       0       0       0       0       0       0       0       0       0       0       0       0
      Totals:        20       0       0       0       0       0       0       0       0       0       0       0       0       0       0       0       0
Total ram usage:       20 bytes
 Hardware stack levels used:    1
 Hardware stack levels required when called:    5
 This function calls:
		_memcpy
		_msTickGet
		_notifyAtexUnsafe
 This function is called by:
		_main
 This function uses a non-reentrant model


 *************** function _notifyAtexUnsafe *****************
 Defined at:
		line 626 in file "C:/Users/Robert.Finch/OneDrive - Mini-Cam Ltd/Pic/Atex/PCB-005-419.X/Atex.c"
 Parameters:    Size  Location     Type
		None
 Auto vars:     Size  Location     Type
		None
 Return value:  Size  Location     Type
                  1    wreg      void 
 Registers used:
		wreg, status,2, status,0
 Tracked objects:
		On entry : 
		On exit  : 
		Unchanged: 
 Data sizes:     COMRAM   BANK0   BANK1   BANK2   BANK3   BANK4   BANK5   BANK6   BANK7   BANK8   BANK9  BANK10  BANK11  BANK12  BANK13  BANK14  BANK15
      Params:         0       0       0       0       0       0       0       0       0       0       0       0       0       0       0       0       0
      Locals:         0       0       0       0       0       0       0       0       0       0       0       0       0       0       0       0       0
      Temps:          1       0       0       0       0       0       0       0       0       0       0       0       0       0       0       0       0
      Totals:         1       0       0       0       0       0       0       0       0       0       0       0       0       0       0       0       0
Total ram usage:        1 bytes
 Hardware stack levels used:    1
 Hardware stack levels required when called:    4
 This function calls:
		Nothing
 This function is called by:
		_main
		_atexAwaitingData
		_atexAquire
		_atexVerifyStat
		_atexVerifyTimeStamps
		_atexVerifyPressures
		_atexPerformChecks
 This function uses a non-reentrant model


 *************** function _msTickGet *****************
 Defined at:
		line 60 in file "main.c"
 Parameters:    Size  Location     Type
		None
 Auto vars:     Size  Location     Type
  tempTick        4    4[COMRAM] volatile unsigned long 
 Return value:  Size  Location     Type
                  4    0[COMRAM] unsigned long 
 Registers used:
		wreg, status,2, status,0
 Tracked objects:
		On entry : 
		On exit  : 
		Unchanged: 
 Data sizes:     COMRAM   BANK0   BANK1   BANK2   BANK3   BANK4   BANK5   BANK6   BANK7   BANK8   BANK9  BANK10  BANK11  BANK12  BANK13  BANK14  BANK15
      Params:         4       0       0       0       0       0       0       0       0       0       0       0       0       0       0       0       0
      Locals:         4       0       0       0       0       0       0       0       0       0       0       0       0       0       0       0       0
      Temps:          0       0       0       0       0       0       0       0       0       0       0       0       0       0       0       0       0
      Totals:         8       0       0       0       0       0       0       0       0       0       0       0       0       0       0       0       0
Total ram usage:        8 bytes
 Hardware stack levels used:    1
 Hardware stack levels required when called:    4
 This function calls:
		Nothing
 This function is called by:
		_main
		_atexResetUnsafeTime
		_atexAwaitingData
		_atexVerifyTimeStamps
		_atexPerformChecks
		_atexPowerPermit
		_notifyAtexUnsafeWithOverride
 This function uses a non-reentrant model


 *************** function _memcpy *****************
 Defined at:
		line 4 in file "C:\Program Files (x86)\Microchip\xc8\v2.10\pic\sources\c99\common\memcpy.c"
 Parameters:    Size  Location     Type
  d1              2    0[COMRAM] PTR void 
		 -> atexAquireGrp(40), atexAwaitingDataGrp(40), 
  s1              2    2[COMRAM] PTR const void 
		 -> atexAwaitingDataGrp(40), atexAwaitingData@localPress(10), 
  n               2    4[COMRAM] unsigned int 
 Auto vars:     Size  Location     Type
  s               2    8[COMRAM] PTR const unsigned char 
		 -> atexAwaitingDataGrp(40), atexAwaitingData@localPress(10), 
  d               2    6[COMRAM] PTR unsigned char 
		 -> atexAquireGrp(40), atexAwaitingDataGrp(40), 
  tmp             1   10[COMRAM] unsigned char 
 Return value:  Size  Location     Type
                  2    0[COMRAM] PTR void 
 Registers used:
		wreg, fsr2l, fsr2h, status,2, status,0
 Tracked objects:
		On entry : 
		On exit  : 
		Unchanged: 
 Data sizes:     COMRAM   BANK0   BANK1   BANK2   BANK3   BANK4   BANK5   BANK6   BANK7   BANK8   BANK9  BANK10  BANK11  BANK12  BANK13  BANK14  BANK15
      Params:         6       0       0       0       0       0       0       0       0       0       0       0       0       0       0       0       0
      Locals:         5       0       0       0       0       0       0       0       0       0       0       0       0       0       0       0       0
      Temps:          0       0       0       0       0       0       0       0       0       0       0       0       0       0       0       0       0
      Totals:        11       0       0       0       0       0       0       0       0       0       0       0       0       0       0       0       0
Total ram usage:       11 bytes
 Hardware stack levels used:    1
 Hardware stack levels required when called:    4
 This function calls:
		Nothing
 This function is called by:
		_atexAwaitingData
		_atexAquire
 This function uses a non-reentrant model


 *************** function _SYSTEM_Initialize *****************
 Defined at:
		line 50 in file "mcc_generated_files/mcc.c"
 Parameters:    Size  Location     Type
		None
 Auto vars:     Size  Location     Type
		None
 Return value:  Size  Location     Type
                  1    wreg      void 
 Registers used:
		wreg, status,2, status,0, cstack
 Tracked objects:
		On entry : 
		On exit  : 
		Unchanged: 
 Data sizes:     COMRAM   BANK0   BANK1   BANK2   BANK3   BANK4   BANK5   BANK6   BANK7   BANK8   BANK9  BANK10  BANK11  BANK12  BANK13  BANK14  BANK15
      Params:         0       0       0       0       0       0       0       0       0       0       0       0       0       0       0       0       0
      Locals:         0       0       0       0       0       0       0       0       0       0       0       0       0       0       0       0       0
      Temps:          0       0       0       0       0       0       0       0       0       0       0       0       0       0       0       0       0
      Totals:         0       0       0       0       0       0       0       0       0       0       0       0       0       0       0       0       0
Total ram usage:        0 bytes
 Hardware stack levels used:    1
 Hardware stack levels required when called:    6
 This function calls:
		_ECAN_Initialize
		_INTERRUPT_Initialize
		_OSCILLATOR_Initialize
		_PIN_MANAGER_Initialize
		_PMD_Initialize
		_TMR6_Initialize
		_UART1_Initialize
 This function is called by:
		_main
 This function uses a non-reentrant model


 *************** function _UART1_Initialize *****************
 Defined at:
		line 86 in file "mcc_generated_files/uart1.c"
 Parameters:    Size  Location     Type
		None
 Auto vars:     Size  Location     Type
		None
 Return value:  Size  Location     Type
                  1    wreg      void 
 Registers used:
		wreg, status,2, status,0, cstack
 Tracked objects:
		On entry : 
		On exit  : 
		Unchanged: 
 Data sizes:     COMRAM   BANK0   BANK1   BANK2   BANK3   BANK4   BANK5   BANK6   BANK7   BANK8   BANK9  BANK10  BANK11  BANK12  BANK13  BANK14  BANK15
      Params:         0       0       0       0       0       0       0       0       0       0       0       0       0       0       0       0       0
      Locals:         0       0       0       0       0       0       0       0       0       0       0       0       0       0       0       0       0
      Temps:          0       0       0       0       0       0       0       0       0       0       0       0       0       0       0       0       0
      Totals:         0       0       0       0       0       0       0       0       0       0       0       0       0       0       0       0       0
Total ram usage:        0 bytes
 Hardware stack levels used:    1
 Hardware stack levels required when called:    5
 This function calls:
		_UART1_SetErrorHandler
		_UART1_SetFramingErrorHandler
		_UART1_SetOverrunErrorHandler
		_UART1_SetRxInterruptHandler
		_UART1_SetTxInterruptHandler
 This function is called by:
		_SYSTEM_Initialize
 This function uses a non-reentrant model


 *************** function _UART1_SetTxInterruptHandler *****************
 Defined at:
		line 310 in file "mcc_generated_files/uart1.c"
 Parameters:    Size  Location     Type
  InterruptHan    2    0[COMRAM] PTR FTN()void 
		 -> UART1_Transmit_ISR(1), 
 Auto vars:     Size  Location     Type
		None
 Return value:  Size  Location     Type
                  1    wreg      void 
 Registers used:
		wreg, status,2, status,0
 Tracked objects:
		On entry : 
		On exit  : 
		Unchanged: 
 Data sizes:     COMRAM   BANK0   BANK1   BANK2   BANK3   BANK4   BANK5   BANK6   BANK7   BANK8   BANK9  BANK10  BANK11  BANK12  BANK13  BANK14  BANK15
      Params:         2       0       0       0       0       0       0       0       0       0       0       0       0       0       0       0       0
      Locals:         0       0       0       0       0       0       0       0       0       0       0       0       0       0       0       0       0
      Temps:          0       0       0       0       0       0       0       0       0       0       0       0       0       0       0       0       0
      Totals:         2       0       0       0       0       0       0       0       0       0       0       0       0       0       0       0       0
Total ram usage:        2 bytes
 Hardware stack levels used:    1
 Hardware stack levels required when called:    4
 This function calls:
		Nothing
 This function is called by:
		_UART1_Initialize
 This function uses a non-reentrant model


 *************** function _UART1_SetRxInterruptHandler *****************
 Defined at:
		line 306 in file "mcc_generated_files/uart1.c"
 Parameters:    Size  Location     Type
  InterruptHan    2    0[COMRAM] PTR FTN()void 
		 -> UART1_Receive_ISR(1), 
 Auto vars:     Size  Location     Type
		None
 Return value:  Size  Location     Type
                  1    wreg      void 
 Registers used:
		wreg, status,2, status,0
 Tracked objects:
		On entry : 
		On exit  : 
		Unchanged: 
 Data sizes:     COMRAM   BANK0   BANK1   BANK2   BANK3   BANK4   BANK5   BANK6   BANK7   BANK8   BANK9  BANK10  BANK11  BANK12  BANK13  BANK14  BANK15
      Params:         2       0       0       0       0       0       0       0       0       0       0       0       0       0       0       0       0
      Locals:         0       0       0       0       0       0       0       0       0       0       0       0       0       0       0       0       0
      Temps:          0       0       0       0       0       0       0       0       0       0       0       0       0       0       0       0       0
      Totals:         2       0       0       0       0       0       0       0       0       0       0       0       0       0       0       0       0
Total ram usage:        2 bytes
 Hardware stack levels used:    1
 Hardware stack levels required when called:    4
 This function calls:
		Nothing
 This function is called by:
		_UART1_Initialize
 This function uses a non-reentrant model


 *************** function _UART1_SetOverrunErrorHandler *****************
 Defined at:
		line 296 in file "mcc_generated_files/uart1.c"
 Parameters:    Size  Location     Type
  interruptHan    2    0[COMRAM] PTR FTN()void 
		 -> UART1_DefaultOverrunErrorHandler(1), 
 Auto vars:     Size  Location     Type
		None
 Return value:  Size  Location     Type
                  1    wreg      void 
 Registers used:
		wreg, status,2, status,0
 Tracked objects:
		On entry : 
		On exit  : 
		Unchanged: 
 Data sizes:     COMRAM   BANK0   BANK1   BANK2   BANK3   BANK4   BANK5   BANK6   BANK7   BANK8   BANK9  BANK10  BANK11  BANK12  BANK13  BANK14  BANK15
      Params:         2       0       0       0       0       0       0       0       0       0       0       0       0       0       0       0       0
      Locals:         0       0       0       0       0       0       0       0       0       0       0       0       0       0       0       0       0
      Temps:          0       0       0       0       0       0       0       0       0       0       0       0       0       0       0       0       0
      Totals:         2       0       0       0       0       0       0       0       0       0       0       0       0       0       0       0       0
Total ram usage:        2 bytes
 Hardware stack levels used:    1
 Hardware stack levels required when called:    4
 This function calls:
		Nothing
 This function is called by:
		_UART1_Initialize
 This function uses a non-reentrant model


 *************** function _UART1_SetFramingErrorHandler *****************
 Defined at:
		line 292 in file "mcc_generated_files/uart1.c"
 Parameters:    Size  Location     Type
  interruptHan    2    0[COMRAM] PTR FTN()void 
		 -> UART1_DefaultFramingErrorHandler(1), 
 Auto vars:     Size  Location     Type
		None
 Return value:  Size  Location     Type
                  1    wreg      void 
 Registers used:
		wreg, status,2, status,0
 Tracked objects:
		On entry : 
		On exit  : 
		Unchanged: 
 Data sizes:     COMRAM   BANK0   BANK1   BANK2   BANK3   BANK4   BANK5   BANK6   BANK7   BANK8   BANK9  BANK10  BANK11  BANK12  BANK13  BANK14  BANK15
      Params:         2       0       0       0       0       0       0       0       0       0       0       0       0       0       0       0       0
      Locals:         0       0       0       0       0       0       0       0       0       0       0       0       0       0       0       0       0
      Temps:          0       0       0       0       0       0       0       0       0       0       0       0       0       0       0       0       0
      Totals:         2       0       0       0       0       0       0       0       0       0       0       0       0       0       0       0       0
Total ram usage:        2 bytes
 Hardware stack levels used:    1
 Hardware stack levels required when called:    4
 This function calls:
		Nothing
 This function is called by:
		_UART1_Initialize
 This function uses a non-reentrant model


 *************** function _UART1_SetErrorHandler *****************
 Defined at:
		line 300 in file "mcc_generated_files/uart1.c"
 Parameters:    Size  Location     Type
  interruptHan    2    0[COMRAM] PTR FTN()void 
		 -> UART1_DefaultErrorHandler(1), 
 Auto vars:     Size  Location     Type
		None
 Return value:  Size  Location     Type
                  1    wreg      void 
 Registers used:
		wreg, status,2, status,0
 Tracked objects:
		On entry : 
		On exit  : 
		Unchanged: 
 Data sizes:     COMRAM   BANK0   BANK1   BANK2   BANK3   BANK4   BANK5   BANK6   BANK7   BANK8   BANK9  BANK10  BANK11  BANK12  BANK13  BANK14  BANK15
      Params:         2       0       0       0       0       0       0       0       0       0       0       0       0       0       0       0       0
      Locals:         0       0       0       0       0       0       0       0       0       0       0       0       0       0       0       0       0
      Temps:          0       0       0       0       0       0       0       0       0       0       0       0       0       0       0       0       0
      Totals:         2       0       0       0       0       0       0       0       0       0       0       0       0       0       0       0       0
Total ram usage:        2 bytes
 Hardware stack levels used:    1
 Hardware stack levels required when called:    4
 This function calls:
		Nothing
 This function is called by:
		_UART1_Initialize
 This function uses a non-reentrant model


 *************** function _TMR6_Initialize *****************
 Defined at:
		line 64 in file "mcc_generated_files/tmr6.c"
 Parameters:    Size  Location     Type
		None
 Auto vars:     Size  Location     Type
		None
 Return value:  Size  Location     Type
                  1    wreg      void 
 Registers used:
		wreg, status,2, status,0, cstack
 Tracked objects:
		On entry : 
		On exit  : 
		Unchanged: 
 Data sizes:     COMRAM   BANK0   BANK1   BANK2   BANK3   BANK4   BANK5   BANK6   BANK7   BANK8   BANK9  BANK10  BANK11  BANK12  BANK13  BANK14  BANK15
      Params:         0       0       0       0       0       0       0       0       0       0       0       0       0       0       0       0       0
      Locals:         0       0       0       0       0       0       0       0       0       0       0       0       0       0       0       0       0
      Temps:          0       0       0       0       0       0       0       0       0       0       0       0       0       0       0       0       0
      Totals:         0       0       0       0       0       0       0       0       0       0       0       0       0       0       0       0       0
Total ram usage:        0 bytes
 Hardware stack levels used:    1
 Hardware stack levels required when called:    5
 This function calls:
		_TMR6_SetInterruptHandler
 This function is called by:
		_SYSTEM_Initialize
 This function uses a non-reentrant model


 *************** function _TMR6_SetInterruptHandler *****************
 Defined at:
		line 178 in file "mcc_generated_files/tmr6.c"
 Parameters:    Size  Location     Type
  InterruptHan    2    0[COMRAM] PTR FTN()void 
		 -> IRQ_TIM6(1), TMR6_DefaultInterruptHandler(1), 
 Auto vars:     Size  Location     Type
		None
 Return value:  Size  Location     Type
                  1    wreg      void 
 Registers used:
		wreg, status,2, status,0
 Tracked objects:
		On entry : 
		On exit  : 
		Unchanged: 
 Data sizes:     COMRAM   BANK0   BANK1   BANK2   BANK3   BANK4   BANK5   BANK6   BANK7   BANK8   BANK9  BANK10  BANK11  BANK12  BANK13  BANK14  BANK15
      Params:         2       0       0       0       0       0       0       0       0       0       0       0       0       0       0       0       0
      Locals:         0       0       0       0       0       0       0       0       0       0       0       0       0       0       0       0       0
      Temps:          0       0       0       0       0       0       0       0       0       0       0       0       0       0       0       0       0
      Totals:         2       0       0       0       0       0       0       0       0       0       0       0       0       0       0       0       0
Total ram usage:        2 bytes
 Hardware stack levels used:    1
 Hardware stack levels required when called:    4
 This function calls:
		Nothing
 This function is called by:
		_TMR6_Initialize
		_main
 This function uses a non-reentrant model


 *************** function _PMD_Initialize *****************
 Defined at:
		line 75 in file "mcc_generated_files/mcc.c"
 Parameters:    Size  Location     Type
		None
 Auto vars:     Size  Location     Type
		None
 Return value:  Size  Location     Type
                  1    wreg      void 
 Registers used:
		wreg, status,2
 Tracked objects:
		On entry : 
		On exit  : 
		Unchanged: 
 Data sizes:     COMRAM   BANK0   BANK1   BANK2   BANK3   BANK4   BANK5   BANK6   BANK7   BANK8   BANK9  BANK10  BANK11  BANK12  BANK13  BANK14  BANK15
      Params:         0       0       0       0       0       0       0       0       0       0       0       0       0       0       0       0       0
      Locals:         0       0       0       0       0       0       0       0       0       0       0       0       0       0       0       0       0
      Temps:          0       0       0       0       0       0       0       0       0       0       0       0       0       0       0       0       0
      Totals:         0       0       0       0       0       0       0       0       0       0       0       0       0       0       0       0       0
Total ram usage:        0 bytes
 Hardware stack levels used:    1
 Hardware stack levels required when called:    4
 This function calls:
		Nothing
 This function is called by:
		_SYSTEM_Initialize
 This function uses a non-reentrant model


 *************** function _PIN_MANAGER_Initialize *****************
 Defined at:
		line 55 in file "mcc_generated_files/pin_manager.c"
 Parameters:    Size  Location     Type
		None
 Auto vars:     Size  Location     Type
		None
 Return value:  Size  Location     Type
                  1    wreg      void 
 Registers used:
		wreg, status,2
 Tracked objects:
		On entry : 
		On exit  : 
		Unchanged: 
 Data sizes:     COMRAM   BANK0   BANK1   BANK2   BANK3   BANK4   BANK5   BANK6   BANK7   BANK8   BANK9  BANK10  BANK11  BANK12  BANK13  BANK14  BANK15
      Params:         0       0       0       0       0       0       0       0       0       0       0       0       0       0       0       0       0
      Locals:         0       0       0       0       0       0       0       0       0       0       0       0       0       0       0       0       0
      Temps:          0       0       0       0       0       0       0       0       0       0       0       0       0       0       0       0       0
      Totals:         0       0       0       0       0       0       0       0       0       0       0       0       0       0       0       0       0
Total ram usage:        0 bytes
 Hardware stack levels used:    1
 Hardware stack levels required when called:    4
 This function calls:
		Nothing
 This function is called by:
		_SYSTEM_Initialize
 This function uses a non-reentrant model


 *************** function _OSCILLATOR_Initialize *****************
 Defined at:
		line 61 in file "mcc_generated_files/mcc.c"
 Parameters:    Size  Location     Type
		None
 Auto vars:     Size  Location     Type
		None
 Return value:  Size  Location     Type
                  1    wreg      void 
 Registers used:
		wreg, status,2
 Tracked objects:
		On entry : 
		On exit  : 
		Unchanged: 
 Data sizes:     COMRAM   BANK0   BANK1   BANK2   BANK3   BANK4   BANK5   BANK6   BANK7   BANK8   BANK9  BANK10  BANK11  BANK12  BANK13  BANK14  BANK15
      Params:         0       0       0       0       0       0       0       0       0       0       0       0       0       0       0       0       0
      Locals:         0       0       0       0       0       0       0       0       0       0       0       0       0       0       0       0       0
      Temps:          0       0       0       0       0       0       0       0       0       0       0       0       0       0       0       0       0
      Totals:         0       0       0       0       0       0       0       0       0       0       0       0       0       0       0       0       0
Total ram usage:        0 bytes
 Hardware stack levels used:    1
 Hardware stack levels required when called:    4
 This function calls:
		Nothing
 This function is called by:
		_SYSTEM_Initialize
 This function uses a non-reentrant model


 *************** function _INTERRUPT_Initialize *****************
 Defined at:
		line 52 in file "mcc_generated_files/interrupt_manager.c"
 Parameters:    Size  Location     Type
		None
 Auto vars:     Size  Location     Type
		None
 Return value:  Size  Location     Type
                  1    wreg      void 
 Registers used:
		None
 Tracked objects:
		On entry : 
		On exit  : 
		Unchanged: 
 Data sizes:     COMRAM   BANK0   BANK1   BANK2   BANK3   BANK4   BANK5   BANK6   BANK7   BANK8   BANK9  BANK10  BANK11  BANK12  BANK13  BANK14  BANK15
      Params:         0       0       0       0       0       0       0       0       0       0       0       0       0       0       0       0       0
      Locals:         0       0       0       0       0       0       0       0       0       0       0       0       0       0       0       0       0
      Temps:          0       0       0       0       0       0       0       0       0       0       0       0       0       0       0       0       0
      Totals:         0       0       0       0       0       0       0       0       0       0       0       0       0       0       0       0       0
Total ram usage:        0 bytes
 Hardware stack levels used:    1
 Hardware stack levels required when called:    4
 This function calls:
		Nothing
 This function is called by:
		_SYSTEM_Initialize
 This function uses a non-reentrant model


 *************** function _ECAN_Initialize *****************
 Defined at:
		line 61 in file "mcc_generated_files/ecan.c"
 Parameters:    Size  Location     Type
		None
 Auto vars:     Size  Location     Type
		None
 Return value:  Size  Location     Type
                  1    wreg      void 
 Registers used:
		wreg, status,2, status,0
 Tracked objects:
		On entry : 
		On exit  : 
		Unchanged: 
 Data sizes:     COMRAM   BANK0   BANK1   BANK2   BANK3   BANK4   BANK5   BANK6   BANK7   BANK8   BANK9  BANK10  BANK11  BANK12  BANK13  BANK14  BANK15
      Params:         0       0       0       0       0       0       0       0       0       0       0       0       0       0       0       0       0
      Locals:         0       0       0       0       0       0       0       0       0       0       0       0       0       0       0       0       0
      Temps:          1       0       0       0       0       0       0       0       0       0       0       0       0       0       0       0       0
      Totals:         1       0       0       0       0       0       0       0       0       0       0       0       0       0       0       0       0
Total ram usage:        1 bytes
 Hardware stack levels used:    1
 Hardware stack levels required when called:    4
 This function calls:
		Nothing
 This function is called by:
		_SYSTEM_Initialize
 This function uses a non-reentrant model


 *************** function _Can_setFiltersSimple *****************
 Defined at:
		line 139 in file "C:/Users/Robert.Finch/OneDrive - Mini-Cam Ltd/Pic/Atex/PCB-005-419.X/MCHAL_CAN.c"
 Parameters:    Size  Location     Type
		None
 Auto vars:     Size  Location     Type
		None
 Return value:  Size  Location     Type
                  1    wreg      void 
 Registers used:
		wreg, fsr2l, fsr2h, status,2, status,0, cstack
 Tracked objects:
		On entry : 
		On exit  : 
		Unchanged: 
 Data sizes:     COMRAM   BANK0   BANK1   BANK2   BANK3   BANK4   BANK5   BANK6   BANK7   BANK8   BANK9  BANK10  BANK11  BANK12  BANK13  BANK14  BANK15
      Params:         0       0       0       0       0       0       0       0       0       0       0       0       0       0       0       0       0
      Locals:         0       0       0       0       0       0       0       0       0       0       0       0       0       0       0       0       0
      Temps:          0       0       0       0       0       0       0       0       0       0       0       0       0       0       0       0       0
      Totals:         0       0       0       0       0       0       0       0       0       0       0       0       0       0       0       0       0
Total ram usage:        0 bytes
 Hardware stack levels used:    1
 Hardware stack levels required when called:    6
 This function calls:
		_Can_setFilters
 This function is called by:
		_main
 This function uses a non-reentrant model


 *************** function _Can_setFilters *****************
 Defined at:
		line 111 in file "C:/Users/Robert.Finch/OneDrive - Mini-Cam Ltd/Pic/Atex/PCB-005-419.X/MCHAL_CAN.c"
 Parameters:    Size  Location     Type
  msgID           2   18[COMRAM] PTR unsigned short 
		 -> message(2), 
  msgSize         2   20[COMRAM] unsigned short 
  send            2   22[COMRAM] PTR unsigned char 
		 -> sender(3), 
  sendSize        1   24[COMRAM] unsigned char 
  dest            2   25[COMRAM] PTR unsigned char 
		 -> dest(1), 
  destSize        1   27[COMRAM] unsigned char 
  seq             1   28[COMRAM] unsigned char 
  motorReel       1   29[COMRAM] unsigned char 
 Auto vars:     Size  Location     Type
  masterMask      4   34[COMRAM] unsigned long 
  masterFilt      4   30[COMRAM] unsigned long 
  msgMask         2   42[COMRAM] unsigned short 
  msgFilt         2   38[COMRAM] unsigned short 
  sendMask        1   45[COMRAM] unsigned char 
  destMask        1   44[COMRAM] unsigned char 
  sendFilt        1   41[COMRAM] unsigned char 
  destFilt        1   40[COMRAM] unsigned char 
 Return value:  Size  Location     Type
                  1    wreg      void 
 Registers used:
		wreg, fsr2l, fsr2h, status,2, status,0, cstack
 Tracked objects:
		On entry : 
		On exit  : 
		Unchanged: 
 Data sizes:     COMRAM   BANK0   BANK1   BANK2   BANK3   BANK4   BANK5   BANK6   BANK7   BANK8   BANK9  BANK10  BANK11  BANK12  BANK13  BANK14  BANK15
      Params:        12       0       0       0       0       0       0       0       0       0       0       0       0       0       0       0       0
      Locals:        16       0       0       0       0       0       0       0       0       0       0       0       0       0       0       0       0
      Temps:          0       0       0       0       0       0       0       0       0       0       0       0       0       0       0       0       0
      Totals:        28       0       0       0       0       0       0       0       0       0       0       0       0       0       0       0       0
Total ram usage:       28 bytes
 Hardware stack levels used:    1
 Hardware stack levels required when called:    5
 This function calls:
		_CAN_filterToReg
		_CAN_maskToReg
		_Can_rxCreateArrayFilter
		_Can_rxCreateArrayFilterTenBit
		_Can_rxCreateArrayMask
		_Can_rxCreateArrayMaskTenBit
		_Can_rxJoin
 This function is called by:
		_Can_setFiltersSimple
 This function uses a non-reentrant model


 *************** function _Can_rxJoin *****************
 Defined at:
		line 37 in file "C:/Users/Robert.Finch/OneDrive - Mini-Cam Ltd/Pic/Atex/PCB-005-419.X/MCHAL_CAN.c"
 Parameters:    Size  Location     Type
  sender          1    wreg     unsigned char 
  destination     1    0[COMRAM] unsigned char 
  messageID       2    1[COMRAM] unsigned short 
  seq             1    3[COMRAM] unsigned char 
  motorReel       1    4[COMRAM] unsigned char 
 Auto vars:     Size  Location     Type
  sender          1    9[COMRAM] unsigned char 
  shiftDump       4   14[COMRAM] unsigned long 
  mask            4   10[COMRAM] unsigned long 
 Return value:  Size  Location     Type
                  4    0[COMRAM] unsigned long 
 Registers used:
		wreg, status,2, status,0
 Tracked objects:
		On entry : 
		On exit  : 
		Unchanged: 
 Data sizes:     COMRAM   BANK0   BANK1   BANK2   BANK3   BANK4   BANK5   BANK6   BANK7   BANK8   BANK9  BANK10  BANK11  BANK12  BANK13  BANK14  BANK15
      Params:         5       0       0       0       0       0       0       0       0       0       0       0       0       0       0       0       0
      Locals:         9       0       0       0       0       0       0       0       0       0       0       0       0       0       0       0       0
      Temps:          4       0       0       0       0       0       0       0       0       0       0       0       0       0       0       0       0
      Totals:        18       0       0       0       0       0       0       0       0       0       0       0       0       0       0       0       0
Total ram usage:       18 bytes
 Hardware stack levels used:    1
 Hardware stack levels required when called:    4
 This function calls:
		Nothing
 This function is called by:
		_Can_setFilters
 This function uses a non-reentrant model


 *************** function _Can_rxCreateArrayMaskTenBit *****************
 Defined at:
		line 98 in file "C:/Users/Robert.Finch/OneDrive - Mini-Cam Ltd/Pic/Atex/PCB-005-419.X/MCHAL_CAN.c"
 Parameters:    Size  Location     Type
  arr             2    0[COMRAM] PTR unsigned short 
		 -> message(2), 
  num             2    2[COMRAM] unsigned short 
 Auto vars:     Size  Location     Type
  i               2    6[COMRAM] unsigned short 
  filterRet       2    4[COMRAM] unsigned short 
 Return value:  Size  Location     Type
                  2    0[COMRAM] unsigned short 
 Registers used:
		wreg, fsr2l, fsr2h, status,2, status,0
 Tracked objects:
		On entry : 
		On exit  : 
		Unchanged: 
 Data sizes:     COMRAM   BANK0   BANK1   BANK2   BANK3   BANK4   BANK5   BANK6   BANK7   BANK8   BANK9  BANK10  BANK11  BANK12  BANK13  BANK14  BANK15
      Params:         4       0       0       0       0       0       0       0       0       0       0       0       0       0       0       0       0
      Locals:         4       0       0       0       0       0       0       0       0       0       0       0       0       0       0       0       0
      Temps:          0       0       0       0       0       0       0       0       0       0       0       0       0       0       0       0       0
      Totals:         8       0       0       0       0       0       0       0       0       0       0       0       0       0       0       0       0
Total ram usage:        8 bytes
 Hardware stack levels used:    1
 Hardware stack levels required when called:    4
 This function calls:
		Nothing
 This function is called by:
		_Can_setFilters
 This function uses a non-reentrant model


 *************** function _Can_rxCreateArrayMask *****************
 Defined at:
		line 85 in file "C:/Users/Robert.Finch/OneDrive - Mini-Cam Ltd/Pic/Atex/PCB-005-419.X/MCHAL_CAN.c"
 Parameters:    Size  Location     Type
  arr             2    0[COMRAM] PTR unsigned char 
		 -> dest(1), sender(3), 
  num             1    2[COMRAM] unsigned char 
 Auto vars:     Size  Location     Type
  i               1    4[COMRAM] unsigned char 
  filterRet       1    3[COMRAM] unsigned char 
 Return value:  Size  Location     Type
                  1    wreg      unsigned char 
 Registers used:
		wreg, fsr2l, fsr2h, status,2, status,0
 Tracked objects:
		On entry : 
		On exit  : 
		Unchanged: 
 Data sizes:     COMRAM   BANK0   BANK1   BANK2   BANK3   BANK4   BANK5   BANK6   BANK7   BANK8   BANK9  BANK10  BANK11  BANK12  BANK13  BANK14  BANK15
      Params:         3       0       0       0       0       0       0       0       0       0       0       0       0       0       0       0       0
      Locals:         2       0       0       0       0       0       0       0       0       0       0       0       0       0       0       0       0
      Temps:          0       0       0       0       0       0       0       0       0       0       0       0       0       0       0       0       0
      Totals:         5       0       0       0       0       0       0       0       0       0       0       0       0       0       0       0       0
Total ram usage:        5 bytes
 Hardware stack levels used:    1
 Hardware stack levels required when called:    4
 This function calls:
		Nothing
 This function is called by:
		_Can_setFilters
 This function uses a non-reentrant model


 *************** function _Can_rxCreateArrayFilterTenBit *****************
 Defined at:
		line 72 in file "C:/Users/Robert.Finch/OneDrive - Mini-Cam Ltd/Pic/Atex/PCB-005-419.X/MCHAL_CAN.c"
 Parameters:    Size  Location     Type
  arr             2    0[COMRAM] PTR unsigned short 
		 -> message(2), 
  num             2    2[COMRAM] unsigned short 
 Auto vars:     Size  Location     Type
  i               2    6[COMRAM] unsigned short 
  filterRet       2    4[COMRAM] unsigned short 
 Return value:  Size  Location     Type
                  2    0[COMRAM] unsigned short 
 Registers used:
		wreg, fsr2l, fsr2h, status,2, status,0
 Tracked objects:
		On entry : 
		On exit  : 
		Unchanged: 
 Data sizes:     COMRAM   BANK0   BANK1   BANK2   BANK3   BANK4   BANK5   BANK6   BANK7   BANK8   BANK9  BANK10  BANK11  BANK12  BANK13  BANK14  BANK15
      Params:         4       0       0       0       0       0       0       0       0       0       0       0       0       0       0       0       0
      Locals:         4       0       0       0       0       0       0       0       0       0       0       0       0       0       0       0       0
      Temps:          0       0       0       0       0       0       0       0       0       0       0       0       0       0       0       0       0
      Totals:         8       0       0       0       0       0       0       0       0       0       0       0       0       0       0       0       0
Total ram usage:        8 bytes
 Hardware stack levels used:    1
 Hardware stack levels required when called:    4
 This function calls:
		Nothing
 This function is called by:
		_Can_setFilters
 This function uses a non-reentrant model


 *************** function _Can_rxCreateArrayFilter *****************
 Defined at:
		line 59 in file "C:/Users/Robert.Finch/OneDrive - Mini-Cam Ltd/Pic/Atex/PCB-005-419.X/MCHAL_CAN.c"
 Parameters:    Size  Location     Type
  arr             2    0[COMRAM] PTR unsigned char 
		 -> dest(1), sender(3), 
  num             1    2[COMRAM] unsigned char 
 Auto vars:     Size  Location     Type
  i               1    4[COMRAM] unsigned char 
  filterRet       1    3[COMRAM] unsigned char 
 Return value:  Size  Location     Type
                  1    wreg      unsigned char 
 Registers used:
		wreg, fsr2l, fsr2h, status,2, status,0
 Tracked objects:
		On entry : 
		On exit  : 
		Unchanged: 
 Data sizes:     COMRAM   BANK0   BANK1   BANK2   BANK3   BANK4   BANK5   BANK6   BANK7   BANK8   BANK9  BANK10  BANK11  BANK12  BANK13  BANK14  BANK15
      Params:         3       0       0       0       0       0       0       0       0       0       0       0       0       0       0       0       0
      Locals:         2       0       0       0       0       0       0       0       0       0       0       0       0       0       0       0       0
      Temps:          0       0       0       0       0       0       0       0       0       0       0       0       0       0       0       0       0
      Totals:         5       0       0       0       0       0       0       0       0       0       0       0       0       0       0       0       0
Total ram usage:        5 bytes
 Hardware stack levels used:    1
 Hardware stack levels required when called:    4
 This function calls:
		Nothing
 This function is called by:
		_Can_setFilters
 This function uses a non-reentrant model


 *************** function _CAN_maskToReg *****************
 Defined at:
		line 26 in file "C:/Users/Robert.Finch/OneDrive - Mini-Cam Ltd/Pic/Atex/PCB-005-419.X/MCHAL_CAN.c"
 Parameters:    Size  Location     Type
  filter          4    0[COMRAM] unsigned long 
 Auto vars:     Size  Location     Type
		None
 Return value:  Size  Location     Type
                  1    wreg      void 
 Registers used:
		wreg, status,2, status,0
 Tracked objects:
		On entry : 
		On exit  : 
		Unchanged: 
 Data sizes:     COMRAM   BANK0   BANK1   BANK2   BANK3   BANK4   BANK5   BANK6   BANK7   BANK8   BANK9  BANK10  BANK11  BANK12  BANK13  BANK14  BANK15
      Params:         4       0       0       0       0       0       0       0       0       0       0       0       0       0       0       0       0
      Locals:         0       0       0       0       0       0       0       0       0       0       0       0       0       0       0       0       0
      Temps:          4       0       0       0       0       0       0       0       0       0       0       0       0       0       0       0       0
      Totals:         8       0       0       0       0       0       0       0       0       0       0       0       0       0       0       0       0
Total ram usage:        8 bytes
 Hardware stack levels used:    1
 Hardware stack levels required when called:    4
 This function calls:
		Nothing
 This function is called by:
		_Can_setFilters
 This function uses a non-reentrant model


 *************** function _CAN_filterToReg *****************
 Defined at:
		line 14 in file "C:/Users/Robert.Finch/OneDrive - Mini-Cam Ltd/Pic/Atex/PCB-005-419.X/MCHAL_CAN.c"
 Parameters:    Size  Location     Type
  filter          4    0[COMRAM] unsigned long 
 Auto vars:     Size  Location     Type
		None
 Return value:  Size  Location     Type
                  1    wreg      void 
 Registers used:
		wreg, status,2, status,0
 Tracked objects:
		On entry : 
		On exit  : 
		Unchanged: 
 Data sizes:     COMRAM   BANK0   BANK1   BANK2   BANK3   BANK4   BANK5   BANK6   BANK7   BANK8   BANK9  BANK10  BANK11  BANK12  BANK13  BANK14  BANK15
      Params:         4       0       0       0       0       0       0       0       0       0       0       0       0       0       0       0       0
      Locals:         0       0       0       0       0       0       0       0       0       0       0       0       0       0       0       0       0
      Temps:          4       0       0       0       0       0       0       0       0       0       0       0       0       0       0       0       0
      Totals:         8       0       0       0       0       0       0       0       0       0       0       0       0       0       0       0       0
Total ram usage:        8 bytes
 Hardware stack levels used:    1
 Hardware stack levels required when called:    4
 This function calls:
		Nothing
 This function is called by:
		_Can_setFilters
 This function uses a non-reentrant model


 *************** function _INTERRUPT_InterruptManager *****************
 Defined at:
		line 58 in file "mcc_generated_files/interrupt_manager.c"
 Parameters:    Size  Location     Type
		None
 Auto vars:     Size  Location     Type
		None
 Return value:  Size  Location     Type
                  1    wreg      void 
 Registers used:
		wreg, fsr2l, fsr2h, status,2, status,0, pclath, tosl, cstack
 Tracked objects:
		On entry : 
		On exit  : 
		Unchanged: 
 Data sizes:     COMRAM   BANK0   BANK1   BANK2   BANK3   BANK4   BANK5   BANK6   BANK7   BANK8   BANK9  BANK10  BANK11  BANK12  BANK13  BANK14  BANK15
      Params:         0       0       0       0       0       0       0       0       0       0       0       0       0       0       0       0       0
      Locals:         0       0       0       0       0       0       0       0       0       0       0       0       0       0       0       0       0
      Temps:          0       0       0       0       0       0       0       0       0       0       0       0       0       0       0       0       0
      Totals:         0       0       0       0       0       0       0       0       0       0       0       0       0       0       0       0       0
Total ram usage:        0 bytes
 Hardware stack levels used:    1
 Hardware stack levels required when called:    3
 This function calls:
		Absolute function
		_TMR6_ISR
		_UART1_Receive_ISR
		_UART1_Transmit_ISR
 This function is called by:
		Interrupt level 2
 This function uses a non-reentrant model


 *************** function _UART1_Transmit_ISR *****************
 Defined at:
		line 230 in file "mcc_generated_files/uart1.c"
 Parameters:    Size  Location     Type
		None
 Auto vars:     Size  Location     Type
		None
 Return value:  Size  Location     Type
                  1    wreg      void 
 Registers used:
		wreg, fsr2l, fsr2h, status,2, status,0
 Tracked objects:
		On entry : 
		On exit  : 
		Unchanged: 
 Data sizes:     COMRAM   BANK0   BANK1   BANK2   BANK3   BANK4   BANK5   BANK6   BANK7   BANK8   BANK9  BANK10  BANK11  BANK12  BANK13  BANK14  BANK15
      Params:         0       0       0       0       0       0       0       0       0       0       0       0       0       0       0       0       0
      Locals:         0       0       0       0       0       0       0       0       0       0       0       0       0       0       0       0       0
      Temps:          0       0       0       0       0       0       0       0       0       0       0       0       0       0       0       0       0
      Totals:         0       0       0       0       0       0       0       0       0       0       0       0       0       0       0       0       0
Total ram usage:        0 bytes
 Hardware stack levels used:    1
 This function calls:
		Nothing
 This function is called by:
		_UART1_Initialize
		_INTERRUPT_InterruptManager
 This function uses a non-reentrant model


 *************** function _UART1_Receive_ISR *****************
 Defined at:
		line 250 in file "mcc_generated_files/uart1.c"
 Parameters:    Size  Location     Type
		None
 Auto vars:     Size  Location     Type
		None
 Return value:  Size  Location     Type
                  1    wreg      void 
 Registers used:
		wreg, fsr2l, fsr2h, status,2, status,0, pclath, tosl, cstack
 Tracked objects:
		On entry : 
		On exit  : 
		Unchanged: 
 Data sizes:     COMRAM   BANK0   BANK1   BANK2   BANK3   BANK4   BANK5   BANK6   BANK7   BANK8   BANK9  BANK10  BANK11  BANK12  BANK13  BANK14  BANK15
      Params:         0       0       0       0       0       0       0       0       0       0       0       0       0       0       0       0       0
      Locals:         0       0       0       0       0       0       0       0       0       0       0       0       0       0       0       0       0
      Temps:          0       0       0       0       0       0       0       0       0       0       0       0       0       0       0       0       0
      Totals:         0       0       0       0       0       0       0       0       0       0       0       0       0       0       0       0       0
Total ram usage:        0 bytes
 Hardware stack levels used:    1
 Hardware stack levels required when called:    2
 This function calls:
		Absolute function
		_UART1_DefaultErrorHandler
		_UART1_DefaultFramingErrorHandler
		_UART1_DefaultOverrunErrorHandler
		_UART1_RxDataHandler
 This function is called by:
		_UART1_Initialize
		_INTERRUPT_InterruptManager
 This function uses a non-reentrant model


 *************** function _UART1_DefaultOverrunErrorHandler *****************
 Defined at:
		line 286 in file "mcc_generated_files/uart1.c"
 Parameters:    Size  Location     Type
		None
 Auto vars:     Size  Location     Type
		None
 Return value:  Size  Location     Type
                  1    wreg      void 
 Registers used:
		None
 Tracked objects:
		On entry : 
		On exit  : 
		Unchanged: 
 Data sizes:     COMRAM   BANK0   BANK1   BANK2   BANK3   BANK4   BANK5   BANK6   BANK7   BANK8   BANK9  BANK10  BANK11  BANK12  BANK13  BANK14  BANK15
      Params:         0       0       0       0       0       0       0       0       0       0       0       0       0       0       0       0       0
      Locals:         0       0       0       0       0       0       0       0       0       0       0       0       0       0       0       0       0
      Temps:          0       0       0       0       0       0       0       0       0       0       0       0       0       0       0       0       0
      Totals:         0       0       0       0       0       0       0       0       0       0       0       0       0       0       0       0       0
Total ram usage:        0 bytes
 Hardware stack levels used:    1
 This function calls:
		Nothing
 This function is called by:
		_UART1_Initialize
		_UART1_Receive_ISR
 This function uses a non-reentrant model


 *************** function _UART1_DefaultFramingErrorHandler *****************
 Defined at:
		line 284 in file "mcc_generated_files/uart1.c"
 Parameters:    Size  Location     Type
		None
 Auto vars:     Size  Location     Type
		None
 Return value:  Size  Location     Type
                  1    wreg      void 
 Registers used:
		None
 Tracked objects:
		On entry : 
		On exit  : 
		Unchanged: 
 Data sizes:     COMRAM   BANK0   BANK1   BANK2   BANK3   BANK4   BANK5   BANK6   BANK7   BANK8   BANK9  BANK10  BANK11  BANK12  BANK13  BANK14  BANK15
      Params:         0       0       0       0       0       0       0       0       0       0       0       0       0       0       0       0       0
      Locals:         0       0       0       0       0       0       0       0       0       0       0       0       0       0       0       0       0
      Temps:          0       0       0       0       0       0       0       0       0       0       0       0       0       0       0       0       0
      Totals:         0       0       0       0       0       0       0       0       0       0       0       0       0       0       0       0       0
Total ram usage:        0 bytes
 Hardware stack levels used:    1
 This function calls:
		Nothing
 This function is called by:
		_UART1_Initialize
		_UART1_Receive_ISR
 This function uses a non-reentrant model


 *************** function _UART1_DefaultErrorHandler *****************
 Defined at:
		line 288 in file "mcc_generated_files/uart1.c"
 Parameters:    Size  Location     Type
		None
 Auto vars:     Size  Location     Type
		None
 Return value:  Size  Location     Type
                  1    wreg      void 
 Registers used:
		wreg, fsr2l, fsr2h, status,2, status,0, cstack
 Tracked objects:
		On entry : 
		On exit  : 
		Unchanged: 
 Data sizes:     COMRAM   BANK0   BANK1   BANK2   BANK3   BANK4   BANK5   BANK6   BANK7   BANK8   BANK9  BANK10  BANK11  BANK12  BANK13  BANK14  BANK15
      Params:         0       0       0       0       0       0       0       0       0       0       0       0       0       0       0       0       0
      Locals:         0       0       0       0       0       0       0       0       0       0       0       0       0       0       0       0       0
      Temps:          0       0       0       0       0       0       0       0       0       0       0       0       0       0       0       0       0
      Totals:         0       0       0       0       0       0       0       0       0       0       0       0       0       0       0       0       0
Total ram usage:        0 bytes
 Hardware stack levels used:    1
 Hardware stack levels required when called:    1
 This function calls:
		_UART1_RxDataHandler
 This function is called by:
		_UART1_Initialize
		_UART1_Receive_ISR
 This function uses a non-reentrant model


 *************** function _UART1_RxDataHandler *****************
 Defined at:
		line 274 in file "mcc_generated_files/uart1.c"
 Parameters:    Size  Location     Type
		None
 Auto vars:     Size  Location     Type
		None
 Return value:  Size  Location     Type
                  1    wreg      void 
 Registers used:
		wreg, fsr2l, fsr2h, status,2, status,0
 Tracked objects:
		On entry : 
		On exit  : 
		Unchanged: 
 Data sizes:     COMRAM   BANK0   BANK1   BANK2   BANK3   BANK4   BANK5   BANK6   BANK7   BANK8   BANK9  BANK10  BANK11  BANK12  BANK13  BANK14  BANK15
      Params:         0       0       0       0       0       0       0       0       0       0       0       0       0       0       0       0       0
      Locals:         0       0       0       0       0       0       0       0       0       0       0       0       0       0       0       0       0
      Temps:          0       0       0       0       0       0       0       0       0       0       0       0       0       0       0       0       0
      Totals:         0       0       0       0       0       0       0       0       0       0       0       0       0       0       0       0       0
Total ram usage:        0 bytes
 Hardware stack levels used:    1
 This function calls:
		Nothing
 This function is called by:
		_UART1_Receive_ISR
		_UART1_DefaultErrorHandler
 This function uses a non-reentrant model


 *************** function _TMR6_ISR *****************
 Defined at:
		line 165 in file "mcc_generated_files/tmr6.c"
 Parameters:    Size  Location     Type
		None
 Auto vars:     Size  Location     Type
		None
 Return value:  Size  Location     Type
                  1    wreg      void 
 Registers used:
		wreg, status,2, status,0, pclath, tosl, cstack
 Tracked objects:
		On entry : 
		On exit  : 
		Unchanged: 
 Data sizes:     COMRAM   BANK0   BANK1   BANK2   BANK3   BANK4   BANK5   BANK6   BANK7   BANK8   BANK9  BANK10  BANK11  BANK12  BANK13  BANK14  BANK15
      Params:         0       0       0       0       0       0       0       0       0       0       0       0       0       0       0       0       0
      Locals:         0       0       0       0       0       0       0       0       0       0       0       0       0       0       0       0       0
      Temps:          0       0       0       0       0       0       0       0       0       0       0       0       0       0       0       0       0
      Totals:         0       0       0       0       0       0       0       0       0       0       0       0       0       0       0       0       0
Total ram usage:        0 bytes
 Hardware stack levels used:    1
 Hardware stack levels required when called:    1
 This function calls:
		Absolute function
		_IRQ_TIM6
		_TMR6_DefaultInterruptHandler
 This function is called by:
		_INTERRUPT_InterruptManager
 This function uses a non-reentrant model


 *************** function _IRQ_TIM6 *****************
 Defined at:
		line 55 in file "main.c"
 Parameters:    Size  Location     Type
		None
 Auto vars:     Size  Location     Type
		None
 Return value:  Size  Location     Type
                  1    wreg      void 
 Registers used:
		wreg, status,2, status,0
 Tracked objects:
		On entry : 
		On exit  : 
		Unchanged: 
 Data sizes:     COMRAM   BANK0   BANK1   BANK2   BANK3   BANK4   BANK5   BANK6   BANK7   BANK8   BANK9  BANK10  BANK11  BANK12  BANK13  BANK14  BANK15
      Params:         0       0       0       0       0       0       0       0       0       0       0       0       0       0       0       0       0
      Locals:         0       0       0       0       0       0       0       0       0       0       0       0       0       0       0       0       0
      Temps:          0       0       0       0       0       0       0       0       0       0       0       0       0       0       0       0       0
      Totals:         0       0       0       0       0       0       0       0       0       0       0       0       0       0       0       0       0
Total ram usage:        0 bytes
 Hardware stack levels used:    1
 This function calls:
		Nothing
 This function is called by:
		_main
		_TMR6_ISR
 This function uses a non-reentrant model


 *************** function _TMR6_DefaultInterruptHandler *****************
 Defined at:
		line 182 in file "mcc_generated_files/tmr6.c"
 Parameters:    Size  Location     Type
		None
 Auto vars:     Size  Location     Type
		None
 Return value:  Size  Location     Type
                  1    wreg      void 
 Registers used:
		None
 Tracked objects:
		On entry : 
		On exit  : 
		Unchanged: 
 Data sizes:     COMRAM   BANK0   BANK1   BANK2   BANK3   BANK4   BANK5   BANK6   BANK7   BANK8   BANK9  BANK10  BANK11  BANK12  BANK13  BANK14  BANK15
      Params:         0       0       0       0       0       0       0       0       0       0       0       0       0       0       0       0       0
      Locals:         0       0       0       0       0       0       0       0       0       0       0       0       0       0       0       0       0
      Temps:          0       0       0       0       0       0       0       0       0       0       0       0       0       0       0       0       0
      Totals:         0       0       0       0       0       0       0       0       0       0       0       0       0       0       0       0       0
Total ram usage:        0 bytes
 Hardware stack levels used:    1
 This function calls:
		Nothing
 This function is called by:
		_TMR6_Initialize
		_TMR6_ISR
 This function uses a non-reentrant model



MODULE INFORMATION

Module		Function		Class		Link	Load	Size
mcc_generated_files/tmr6.c
		_TMR6_ISR      		CODE           	2068	0000	53
		_TMR6_Initialize		CODE           	209C	0000	45
		_TMR6_SetInterruptHandler		CODE           	21C4	0000	15
		_TMR6_DefaultInterruptHandler		CODE           	21F0	0000	3

mcc_generated_files/tmr6.c estimated size: 116

C:/Users/Robert.Finch/OneDrive - Mini-Cam Ltd/Pic/Atex/PCB-005-419.X/MCHAL_CAN.c
		_CAN_maskToReg 		CODE           	1C0A	0000	127
		_Can_setFiltersSimple		CODE           	2032	0000	55
		_CAN_filterToReg		CODE           	1C88	0000	127
		_Can_rxCreateArrayMask		CODE           	1FEE	0000	69
		_Can_setFilters		CODE           	0FE4	0000	395
		_Can_rxCreateArrayFilter		CODE           	1F5E	0000	73
		_Can_rxJoin    		CODE           	1446	0000	331
		_Can_rxCreateArrayMaskTenBit		CODE           	1D76	0000	105
		_Can_rxCreateArrayFilterTenBit		CODE           	1D06	0000	113

C:/Users/Robert.Finch/OneDrive - Mini-Cam Ltd/Pic/Atex/PCB-005-419.X/MCHAL_CAN.c estimated size: 1395

mcc_generated_files/interrupt_manager.c
		_INTERRUPT_Initialize		CODE           	21E8	0000	5
		_INTERRUPT_InterruptManager		CODE           	1A44	0000	161

mcc_generated_files/interrupt_manager.c estimated size: 166

C:\Program Files (x86)\Microchip\xc8\v2.10\pic\sources\c99\common\memset.c
		_memset        		CODE           	0E4C	0000	409

C:\Program Files (x86)\Microchip\xc8\v2.10\pic\sources\c99\common\memset.c estimated size: 409

mcc_generated_files/pin_manager.c
		_PIN_MANAGER_Initialize		CODE           	1EA4	0000	99

mcc_generated_files/pin_manager.c estimated size: 99

mcc_generated_files/ecan.c
		_CAN_receive   		CODE           	037A	0000	697
		_ECAN_Initialize		CODE           	1822	0000	193
		_convertReg2ExtendedCANid		CODE           	116E	0000	379
		_convertReg2StandardCANid		CODE           	1B7C	0000	143

mcc_generated_files/ecan.c estimated size: 1412

mcc_generated_files/uart1.c
		_UART1_SetFramingErrorHandler		CODE           	21A8	0000	15
		_UART1_SetOverrunErrorHandler		CODE           	219A	0000	15
		_UART1_Receive_ISR		CODE           	1698	0000	199
		_UART1_SetRxInterruptHandler		CODE           	218C	0000	15
		_UART1_SetTxInterruptHandler		CODE           	217E	0000	15
		_UART1_Initialize		CODE           	199E	0000	167
		_UART1_SetErrorHandler		CODE           	21B6	0000	15
		_UART1_Transmit_ISR		CODE           	1FA6	0000	73
		_UART1_DefaultFramingErrorHandler		CODE           	21EE	0000	3
		_UART1_DefaultErrorHandler		CODE           	21E2	0000	7
		_UART1_RxDataHandler		CODE           	20C8	0000	45
		_UART1_DefaultOverrunErrorHandler		CODE           	21EC	0000	3

mcc_generated_files/uart1.c estimated size: 572

C:/Users/Robert.Finch/OneDrive - Mini-Cam Ltd/Pic/Atex/PCB-005-419.X/Atex.c
		_atexResetUnsafeTime		CODE           	2118	0000	33
		_atexAwaitingData		CODE           	0890	0000	553
		_atexVerifyTimeStamps		CODE           	0632	0000	607
		_notifyAtexUnsafeWithOverride		CODE           	0AB8	0000	507
		_atexVerifyStat		CODE           	175E	0000	197
		_atexPerformChecks		CODE           	12E8	0000	351
		_notifyAtexUnsafe		CODE           	1AE4	0000	153
		_atexPowerPermit		CODE           	18E2	0000	189
		_atexVerifyPressures		CODE           	001E	0000	861
		_notifyAtexSafe		CODE           	21DC	0000	7
		_atexAquire    		CODE           	1590	0000	265

C:/Users/Robert.Finch/OneDrive - Mini-Cam Ltd/Pic/Atex/PCB-005-419.X/Atex.c estimated size: 3723

shared
		__initialization		CODE           	1DDE	0000	91

shared estimated size: 91

mcc_generated_files/mcc.c
		_PMD_Initialize		CODE           	20F4	0000	37
		_OSCILLATOR_Initialize		CODE           	2156	0000	25
		_SYSTEM_Initialize		CODE           	2138	0000	31

mcc_generated_files/mcc.c estimated size: 93

C:\Program Files (x86)\Microchip\xc8\v2.10\pic\sources\c99\common\memcpy.c
		_memcpy        		CODE           	1E42	0000	99

C:\Program Files (x86)\Microchip\xc8\v2.10\pic\sources\c99\common\memcpy.c estimated size: 99

main.c
		_msTickGet     		CODE           	1F06	0000	89
		_main          		CODE           	0CB2	0000	411
		_IRQ_TIM6      		CODE           	216E	0000	17

main.c estimated size: 517

