

Microchip MPLAB XC8 Assembler V2.10 build 88905656 
                                                                                               Fri Feb 28 09:34:51 2020

Microchip MPLAB XC8 C Compiler v2.10 (Free license) build 20190730164152 Og1 
     1                           	processor	18F26K83
     2                           	fnconf	rparam,??,?,0
     3                           	opt	pw 120
     4                           	opt	flic
     5                           	psect	idataCOMRAM,global,class=CODE,delta=1,noexec
     6                           	psect	idataBANK0,global,class=CODE,delta=1,noexec
     7                           	psect	nvBANK0,global,class=BANK0,space=1,delta=1,lowdata,noexec
     8                           	psect	cinit,global,reloc=2,class=CODE,delta=1
     9                           	psect	bssCOMRAM,global,class=COMRAM,space=1,delta=1,noexec
    10                           	psect	dataCOMRAM,global,class=COMRAM,space=1,delta=1,noexec
    11                           	psect	bssBANK0,global,class=BANK0,space=1,delta=1,lowdata,noexec
    12                           	psect	dataBANK0,global,class=BANK0,space=1,delta=1,lowdata,noexec
    13                           	psect	cstackCOMRAM,global,class=COMRAM,space=1,delta=1,noexec
    14                           	psect	text0,global,reloc=2,class=CODE,delta=1
    15                           	psect	text1,global,reloc=2,class=CODE,delta=1
    16                           	psect	text2,global,reloc=2,class=CODE,delta=1
    17                           	psect	text3,global,reloc=2,class=CODE,delta=1
    18                           	psect	text4,global,reloc=2,class=CODE,delta=1
    19                           	psect	text5,global,reloc=2,class=CODE,delta=1
    20                           	psect	text6,global,reloc=2,class=CODE,delta=1
    21                           	psect	text7,global,reloc=2,class=CODE,delta=1,group=2
    22                           	psect	text8,global,reloc=2,class=CODE,delta=1
    23                           	psect	text9,global,reloc=2,class=CODE,delta=1
    24                           	psect	text10,global,reloc=2,class=CODE,delta=1
    25                           	psect	text11,global,reloc=2,class=CODE,delta=1
    26                           	psect	text12,global,reloc=2,class=CODE,delta=1
    27                           	psect	text13,global,reloc=2,class=CODE,delta=1
    28                           	psect	text14,global,reloc=2,class=CODE,delta=1
    29                           	psect	text15,global,reloc=2,class=CODE,delta=1
    30                           	psect	text16,global,reloc=2,class=CODE,delta=1
    31                           	psect	text17,global,reloc=2,class=CODE,delta=1,group=2
    32                           	psect	text18,global,reloc=2,class=CODE,delta=1
    33                           	psect	text19,global,reloc=2,class=CODE,delta=1
    34                           	psect	text20,global,reloc=2,class=CODE,delta=1
    35                           	psect	text21,global,reloc=2,class=CODE,delta=1
    36                           	psect	text22,global,reloc=2,class=CODE,delta=1
    37                           	psect	text23,global,reloc=2,class=CODE,delta=1
    38                           	psect	text24,global,reloc=2,class=CODE,delta=1
    39                           	psect	text25,global,reloc=2,class=CODE,delta=1
    40                           	psect	text26,global,reloc=2,class=CODE,delta=1
    41                           	psect	text27,global,reloc=2,class=CODE,delta=1
    42                           	psect	text28,global,reloc=2,class=CODE,delta=1
    43                           	psect	text29,global,reloc=2,class=CODE,delta=1
    44                           	psect	text30,global,reloc=2,class=CODE,delta=1
    45                           	psect	text31,global,reloc=2,class=CODE,delta=1
    46                           	psect	text32,global,reloc=2,class=CODE,delta=1
    47                           	psect	text33,global,reloc=2,class=CODE,delta=1
    48                           	psect	text34,global,reloc=2,class=CODE,delta=1
    49                           	psect	text35,global,reloc=2,class=CODE,delta=1
    50                           	psect	text36,global,reloc=2,class=CODE,delta=1
    51                           	psect	text37,global,reloc=2,class=CODE,delta=1
    52                           	psect	text38,global,reloc=2,class=CODE,delta=1
    53                           	psect	text39,global,reloc=2,class=CODE,delta=1
    54                           	psect	text40,global,reloc=2,class=CODE,delta=1
    55                           	psect	text41,global,reloc=2,class=CODE,delta=1
    56                           	psect	text42,global,reloc=2,class=CODE,delta=1
    57                           	psect	text43,global,reloc=2,class=CODE,delta=1
    58                           	psect	text44,global,reloc=2,class=CODE,delta=1
    59                           	psect	text45,global,reloc=2,class=CODE,delta=1
    60                           	psect	text46,global,reloc=2,class=CODE,delta=1
    61                           	psect	text47,global,reloc=2,class=CODE,delta=1
    62                           	psect	text48,global,reloc=2,class=CODE,delta=1
    63                           	psect	text49,global,reloc=2,class=CODE,delta=1
    64                           	psect	text50,global,reloc=2,class=CODE,delta=1
    65                           	psect	ivt0x8,global,reloc=2,class=CODE,delta=1,noexec,keep,optim=
    66                           	psect	intsave_regs,global,class=BIGRAM,space=1,delta=1,noexec
    67                           	psect	text51,global,reloc=2,class=CODE,delta=1
    68                           	psect	rparam,global,class=COMRAM,space=1,delta=1,noexec
    69  0000                     
    70                           ; Version 2.10
    71                           ; Generated 31/07/2019 GMT
    72                           ; 
    73                           ; Copyright © 2019, Microchip Technology Inc. and its subsidiaries ("Microchip")
    74                           ; All rights reserved.
    75                           ; 
    76                           ; This software is developed by Microchip Technology Inc. and its subsidiaries ("Microch
      +                          ip").
    77                           ; 
    78                           ; Redistribution and use in source and binary forms, with or without modification, are
    79                           ; permitted provided that the following conditions are met:
    80                           ; 
    81                           ;     1. Redistributions of source code must retain the above copyright notice, this lis
      +                          t of
    82                           ;        conditions and the following disclaimer.
    83                           ; 
    84                           ;     2. Redistributions in binary form must reproduce the above copyright notice, this 
      +                          list
    85                           ;        of conditions and the following disclaimer in the documentation and/or other
    86                           ;        materials provided with the distribution.
    87                           ; 
    88                           ;     3. Microchip's name may not be used to endorse or promote products derived from th
      +                          is
    89                           ;        software without specific prior written permission.
    90                           ; 
    91                           ; THIS SOFTWARE IS PROVIDED BY MICROCHIP "AS IS" AND ANY EXPRESS OR IMPLIED WARRANTIES,
    92                           ; INCLUDING, BUT NOT LIMITED TO, THE IMPLIED WARRANTIES OF MERCHANTABILITY AND FITNESS F
      +                          OR
    93                           ; PURPOSE ARE DISCLAIMED.  IN NO EVENT SHALL MICROCHIP BE LIABLE FOR ANY DIRECT, INDIREC
      +                          T,
    94                           ; INCIDENTAL, SPECIAL, EXEMPLARY, OR CONSEQUENTIAL DAMAGES (INCLUDING BUT NOT LIMITED TO
    95                           ; PROCUREMENT OF SUBSTITUTE GOODS OR SERVICES; LOSS OF USE, DATA OR PROFITS; OR BUSINESS
    96                           ; INTERRUPTION) HOWSOEVER CAUSED AND ON ANY THEORY OF LIABILITY, WHETHER IN CONTRACT, ST
      +                          RICT
    97                           ; LIABILITY, OR TORT (INCLUDING NEGLIGENCE OR OTHERWISE) ARISING IN ANY WAY OUT OF THE U
      +                          SE OF
    98                           ; THIS SOFTWARE, EVEN IF ADVISED OF THE POSSIBILITY OF SUCH DAMAGE.
    99                           ; 
   100                           ; 
   101                           ; Code-generator required, PIC18F26K83 Definitions
   102                           ; 
   103                           ; SFR Addresses
   104  0000                     
   105                           	psect	idataCOMRAM
   106  0021F2                     __pidataCOMRAM:
   107                           	opt callstack 0
   108                           
   109                           ;initializer for _dest
   110  0021F2  01                 	db	1
   111                           
   112                           	psect	idataBANK0
   113  0021D2                     __pidataBANK0:
   114                           	opt callstack 0
   115                           
   116                           ;initializer for _msTick
   117  0021D2  0001               	dw	1
   118  0021D4  0000               	dw	0
   119                           
   120                           ;initializer for _sender
   121  0021D6  EF                 	db	239
   122  0021D7  EE                 	db	238
   123  0021D8  ED                 	db	237
   124                           
   125                           ;initializer for _message
   126  0021D9  0032               	dw	50
   127                           
   128                           	psect	nvBANK0
   129  0000E7                     __pnvBANK0:
   130                           	opt callstack 0
   131  0000E7                     _TMR6_InterruptHandler:
   132                           	opt callstack 0
   133  0000E7                     	ds	2
   134  0000E9                     _UART1_ErrorHandler:
   135                           	opt callstack 0
   136  0000E9                     	ds	2
   137  0000EB                     _UART1_OverrunErrorHandler:
   138                           	opt callstack 0
   139  0000EB                     	ds	2
   140  0000ED                     _UART1_FramingErrorHandler:
   141                           	opt callstack 0
   142  0000ED                     	ds	2
   143  0000EF                     _UART1_TxInterruptHandler:
   144                           	opt callstack 0
   145  0000EF                     	ds	2
   146  0000F1                     _UART1_RxInterruptHandler:
   147                           	opt callstack 0
   148  0000F1                     	ds	2
   149  0000F3                     _uart1TxBufferRemaining:
   150                           	opt callstack 0
   151  0000F3                     	ds	1
   152  0000                     _RXB1D7	set	14333
   153  0000                     _RXB1D6	set	14332
   154  0000                     _RXB1D5	set	14331
   155  0000                     _RXB1D4	set	14330
   156  0000                     _RXB1D3	set	14329
   157  0000                     _RXB1D2	set	14328
   158  0000                     _RXB1D1	set	14327
   159  0000                     _RXB1D0	set	14326
   160  0000                     _RXB1DLC	set	14325
   161  0000                     _RXB1SIDH	set	14321
   162  0000                     _RXB1EIDL	set	14324
   163  0000                     _RXB1EIDH	set	14323
   164  0000                     _RXB1SIDL	set	14322
   165  0000                     _RXB1CONbits	set	14320
   166  0000                     _TXB2D7	set	14285
   167  0000                     _TXB2D6	set	14284
   168  0000                     _TXB2D5	set	14283
   169  0000                     _TXB2D4	set	14282
   170  0000                     _TXB2D3	set	14281
   171  0000                     _TXB2D2	set	14280
   172  0000                     _TXB2D1	set	14279
   173  0000                     _TXB2D0	set	14278
   174  0000                     _TXB2DLC	set	14277
   175  0000                     _TXB2SIDL	set	14274
   176  0000                     _TXB2SIDH	set	14273
   177  0000                     _TXB2EIDL	set	14276
   178  0000                     _TXB2EIDH	set	14275
   179  0000                     _TXB2CONbits	set	14272
   180  0000                     _TXB1D7	set	14301
   181  0000                     _TXB1D6	set	14300
   182  0000                     _TXB1D5	set	14299
   183  0000                     _TXB1D4	set	14298
   184  0000                     _TXB1D3	set	14297
   185  0000                     _TXB1D2	set	14296
   186  0000                     _TXB1D1	set	14295
   187  0000                     _TXB1D0	set	14294
   188  0000                     _TXB1DLC	set	14293
   189  0000                     _TXB1SIDL	set	14290
   190  0000                     _TXB1SIDH	set	14289
   191  0000                     _TXB1EIDL	set	14292
   192  0000                     _TXB1EIDH	set	14291
   193  0000                     _TXB1CONbits	set	14288
   194  0000                     _TXB0D7	set	14317
   195  0000                     _TXB0D6	set	14316
   196  0000                     _TXB0D5	set	14315
   197  0000                     _TXB0D4	set	14314
   198  0000                     _TXB0D3	set	14313
   199  0000                     _TXB0D2	set	14312
   200  0000                     _TXB0D1	set	14311
   201  0000                     _TXB0D0	set	14310
   202  0000                     _TXB0DLC	set	14309
   203  0000                     _TXB0SIDL	set	14306
   204  0000                     _TXB0SIDH	set	14305
   205  0000                     _TXB0EIDL	set	14308
   206  0000                     _TXB0EIDH	set	14307
   207  0000                     _TXB0CONbits	set	14304
   208  0000                     _BRGCON3	set	14085
   209  0000                     _BRGCON2	set	14084
   210  0000                     _BRGCON1	set	14083
   211  0000                     _RXF5SIDL	set	14261
   212  0000                     _RXF5SIDH	set	14260
   213  0000                     _RXF5EIDL	set	14263
   214  0000                     _RXF5EIDH	set	14262
   215  0000                     _RXF4SIDL	set	14257
   216  0000                     _RXF4SIDH	set	14256
   217  0000                     _RXF4EIDL	set	14259
   218  0000                     _RXF4EIDH	set	14258
   219  0000                     _RXF3SIDL	set	14253
   220  0000                     _RXF3SIDH	set	14252
   221  0000                     _RXF3EIDL	set	14255
   222  0000                     _RXF3EIDH	set	14254
   223  0000                     _RXF2SIDL	set	14249
   224  0000                     _RXF2SIDH	set	14248
   225  0000                     _RXF2EIDL	set	14251
   226  0000                     _RXF2EIDH	set	14250
   227  0000                     _RXF1SIDL	set	14245
   228  0000                     _RXF1SIDH	set	14244
   229  0000                     _RXF1EIDL	set	14247
   230  0000                     _RXF1EIDH	set	14246
   231  0000                     _RXF0SIDL	set	14241
   232  0000                     _RXF0SIDH	set	14240
   233  0000                     _RXF0EIDL	set	14243
   234  0000                     _RXF0EIDH	set	14242
   235  0000                     _RXM1SIDL	set	14269
   236  0000                     _RXM1SIDH	set	14268
   237  0000                     _RXM1EIDL	set	14271
   238  0000                     _RXM1EIDH	set	14270
   239  0000                     _RXM0SIDL	set	14265
   240  0000                     _RXM0SIDH	set	14264
   241  0000                     _RXM0EIDL	set	14267
   242  0000                     _RXM0EIDH	set	14266
   243  0000                     _CIOCON	set	14080
   244  0000                     _PMD7	set	14791
   245  0000                     _PMD6	set	14790
   246  0000                     _PMD5	set	14789
   247  0000                     _PMD4	set	14788
   248  0000                     _PMD3	set	14787
   249  0000                     _PMD2	set	14786
   250  0000                     _PMD1	set	14785
   251  0000                     _PMD0	set	14784
   252  0000                     _OSCTUNE	set	14814
   253  0000                     _OSCFRQ	set	14815
   254  0000                     _OSCEN	set	14813
   255  0000                     _OSCCON3	set	14811
   256  0000                     _OSCCON1	set	14809
   257  0000                     _PIR3bits	set	14755
   258  0000                     _PIE3bits	set	14739
   259  0000                     _PIR9bits	set	14761
   260  0000                     _PIE9bits	set	14745
   261  0000                     _PIE5bits	set	14741
   262  0000                     _PIR5bits	set	14757
   263  0000                     _U1RXPPS	set	15079
   264  0000                     _RC6PPS	set	14870
   265  0000                     _CANRXPPS	set	15085
   266  0000                     _RB2PPS	set	14858
   267  0000                     _INLVLE	set	14980
   268  0000                     _INLVLC	set	14948
   269  0000                     _INLVLB	set	14932
   270  0000                     _INLVLA	set	14916
   271  0000                     _SLRCONC	set	14947
   272  0000                     _SLRCONB	set	14931
   273  0000                     _SLRCONA	set	14915
   274  0000                     _ODCONC	set	14946
   275  0000                     _ODCONB	set	14930
   276  0000                     _ODCONA	set	14914
   277  0000                     _WPUC	set	14945
   278  0000                     _WPUA	set	14913
   279  0000                     _WPUB	set	14929
   280  0000                     _WPUE	set	14977
   281  0000                     _ANSELA	set	14912
   282  0000                     _ANSELB	set	14928
   283  0000                     _ANSELC	set	14944
   284  0000                     _U1RXB	set	15848
   285  0000                     _U1TXB	set	15850
   286  0000                     _U1ERRIRbits	set	15865
   287  0000                     _U1ERRIE	set	15866
   288  0000                     _U1ERRIR	set	15865
   289  0000                     _U1UIR	set	15864
   290  0000                     _U1FIFO	set	15863
   291  0000                     _U1BRGH	set	15862
   292  0000                     _U1BRGL	set	15861
   293  0000                     _U1CON2	set	15860
   294  0000                     _U1CON1	set	15859
   295  0000                     _U1CON0	set	15858
   296  0000                     _U1P3H	set	15857
   297  0000                     _U1P3L	set	15856
   298  0000                     _U1P2H	set	15855
   299  0000                     _U1P2L	set	15854
   300  0000                     _U1P1H	set	15853
   301  0000                     _U1P1L	set	15852
   302  0000                     _PORTCbits	set	16332
   303  0000                     _PCON0	set	16368
   304  0000                     _LATAbits	set	16314
   305  0000                     _PR6	set	16275
   306  0000                     _TMR6	set	16274
   307  0000                     _T6CONbits	set	16276
   308  0000                     _T6RSTbits	set	16279
   309  0000                     _T6HLTbits	set	16277
   310  0000                     _T6CON	set	16276
   311  0000                     _T6TMR	set	16274
   312  0000                     _T6PR	set	16275
   313  0000                     _T6RST	set	16279
   314  0000                     _T6HLT	set	16277
   315  0000                     _T6CLKCON	set	16278
   316  0000                     _TRISC	set	16324
   317  0000                     _TRISB	set	16323
   318  0000                     _TRISA	set	16322
   319  0000                     _LATC	set	16316
   320  0000                     _LATB	set	16315
   321  0000                     _LATA	set	16314
   322  0000                     _INTCON0bits	set	16338
   323  0000                     _COMSTATbits	set	16272
   324  0000                     _RXB0D7	set	16269
   325  0000                     _RXB0D6	set	16268
   326  0000                     _RXB0D5	set	16267
   327  0000                     _RXB0D4	set	16266
   328  0000                     _RXB0D3	set	16265
   329  0000                     _RXB0D2	set	16264
   330  0000                     _RXB0D1	set	16263
   331  0000                     _RXB0D0	set	16262
   332  0000                     _RXB0DLC	set	16261
   333  0000                     _RXB0SIDH	set	16257
   334  0000                     _RXB0EIDL	set	16260
   335  0000                     _RXB0EIDH	set	16259
   336  0000                     _RXB0SIDL	set	16258
   337  0000                     _RXB0CONbits	set	16256
   338  0000                     _ECANCON	set	16273
   339  0000                     _CANSTAT	set	16270
   340  0000                     _CANCON	set	16271
   341                           
   342                           ; #config settings
   343  0000                     
   344                           	psect	cinit
   345  001DDE                     __pcinit:
   346                           	opt callstack 0
   347  001DDE                     start_initialization:
   348                           	opt callstack 0
   349  001DDE                     __initialization:
   350                           	opt callstack 0
   351                           
   352                           ; Initialize objects allocated to BANK0 (9 bytes)
   353                           ; load TBLPTR registers with __pidataBANK0
   354  001DDE  0ED2               	movlw	low __pidataBANK0
   355  001DE0  6EF6               	movwf	tblptrl,c
   356  001DE2  0E21               	movlw	high __pidataBANK0
   357  001DE4  6EF7               	movwf	tblptrh,c
   358  001DE6  0E00               	movlw	low (__pidataBANK0 shr (0+16))
   359  001DE8  6EF8               	movwf	tblptru,c
   360  001DEA  EE00  F0F4         	lfsr	0,__pdataBANK0
   361  001DEE  EE10 F009          	lfsr	1,9
   362  001DF2                     copy_data0:
   363  001DF2  0009               	tblrd		*+
   364  001DF4  006F FFD7 FFEE     	movff	tablat,postinc0
   365  001DFA  50E5               	movf	postdec1,w,c
   366  001DFC  50E1               	movf	fsr1l,w,c
   367  001DFE  E1F9               	bnz	copy_data0
   368                           
   369                           ; Initialize objects allocated to COMRAM (1 bytes)
   370                           ; load TBLPTR registers with __pidataCOMRAM
   371  001E00  0EF2               	movlw	low __pidataCOMRAM
   372  001E02  6EF6               	movwf	tblptrl,c
   373  001E04  0E21               	movlw	high __pidataCOMRAM
   374  001E06  6EF7               	movwf	tblptrh,c
   375  001E08  0E00               	movlw	low (__pidataCOMRAM shr (0+16))
   376  001E0A  6EF8               	movwf	tblptru,c
   377  001E0C  0009               	tblrd		*+	;fetch initializer
   378  001E0E  006F FFD4  F05F    	movff	tablat,__pdataCOMRAM
   379                           
   380                           ; Clear objects allocated to BANK0 (135 bytes)
   381  001E14  EE00  F060         	lfsr	0,__pbssBANK0
   382  001E18  0E87               	movlw	135
   383  001E1A                     clear_0:
   384  001E1A  6AEE               	clrf	postinc0,c
   385  001E1C  06E8               	decf	wreg,f,c
   386  001E1E  E1FD               	bnz	clear_0
   387                           
   388                           ; Clear objects allocated to COMRAM (8 bytes)
   389  001E20  EE00  F057         	lfsr	0,__pbssCOMRAM
   390  001E24  0E08               	movlw	8
   391  001E26                     clear_1:
   392  001E26  6AEE               	clrf	postinc0,c
   393  001E28  06E8               	decf	wreg,f,c
   394  001E2A  E1FD               	bnz	clear_1
   395                           
   396                           ;
   397                           ; Setup IVTBASE
   398                           ;
   399  001E2C  0E08               	movlw	(ivt0x8_base shr 0)& (0+255)
   400  001E2E  6ED5               	movwf	213,c
   401  001E30  0E00               	movlw	(ivt0x8_base shr (0+8))& (0+255)
   402  001E32  6ED6               	movwf	214,c
   403  001E34  0E00               	movlw	(ivt0x8_base shr (0+16))& (0+255)
   404  001E36  6ED7               	movwf	215,c
   405  001E38                     end_of_initialization:
   406                           	opt callstack 0
   407  001E38                     __end_of__initialization:
   408                           	opt callstack 0
   409  001E38  0E00               	movlw	low (__Lmediumconst shr (0+16))
   410  001E3A  6EF8               	movwf	tblptru,c
   411  001E3C  0100               	movlb	0
   412  001E3E  EF59  F006         	goto	_main	;jump to C main() function
   413                           
   414                           	psect	bssCOMRAM
   415  000057                     __pbssCOMRAM:
   416                           	opt callstack 0
   417  000057                     _eAtexAquire:
   418                           	opt callstack 0
   419  000057                     	ds	1
   420  000058                     _eAtexData:
   421                           	opt callstack 0
   422  000058                     	ds	1
   423  000059                     _uart1RxLastError:
   424                           	opt callstack 0
   425  000059                     	ds	1
   426  00005A                     _uart1RxCount:
   427                           	opt callstack 0
   428  00005A                     	ds	1
   429  00005B                     _uart1RxTail:
   430                           	opt callstack 0
   431  00005B                     	ds	1
   432  00005C                     _uart1RxHead:
   433                           	opt callstack 0
   434  00005C                     	ds	1
   435  00005D                     _uart1TxTail:
   436                           	opt callstack 0
   437  00005D                     	ds	1
   438  00005E                     _uart1TxHead:
   439                           	opt callstack 0
   440  00005E                     	ds	1
   441                           
   442                           	psect	dataCOMRAM
   443  00005F                     __pdataCOMRAM:
   444                           	opt callstack 0
   445  00005F                     _dest:
   446                           	opt callstack 0
   447  00005F                     	ds	1
   448                           
   449                           	psect	bssBANK0
   450  000060                     __pbssBANK0:
   451                           	opt callstack 0
   452  000060                     atexAwaitingData@F22983:
   453                           	opt callstack 0
   454  000060                     	ds	10
   455  00006A                     _uart1RxStatusBuffer:
   456                           	opt callstack 0
   457  00006A                     	ds	8
   458  000072                     _uart1RxBuffer:
   459                           	opt callstack 0
   460  000072                     	ds	8
   461  00007A                     _uart1TxBuffer:
   462                           	opt callstack 0
   463  00007A                     	ds	8
   464  000082                     _atexLastGood:
   465                           	opt callstack 0
   466  000082                     	ds	4
   467  000086                     _failedAquired:
   468                           	opt callstack 0
   469  000086                     	ds	4
   470  00008A                     main@LEDtimer:
   471                           	opt callstack 0
   472  00008A                     	ds	4
   473  00008E                     _travelFlags:
   474                           	opt callstack 0
   475  00008E                     	ds	1
   476  00008F                     _travelFlagsAtexVerifyPressure:
   477                           	opt callstack 0
   478  00008F                     	ds	1
   479  000090                     _travelFlagsAtexVerifyTimeStamps:
   480                           	opt callstack 0
   481  000090                     	ds	1
   482  000091                     _travelFlagsAtexAquire:
   483                           	opt callstack 0
   484  000091                     	ds	1
   485  000092                     _travelFLagsAtexAwaitingData:
   486                           	opt callstack 0
   487  000092                     	ds	1
   488  000093                     _eAtexPerformChecks:
   489                           	opt callstack 0
   490  000093                     	ds	1
   491  000094                     _eAtexVerifyPressures:
   492                           	opt callstack 0
   493  000094                     	ds	1
   494  000095                     _eatexVerifyTimeStamps:
   495                           	opt callstack 0
   496  000095                     	ds	1
   497  000096                     _eAtexVerifyStat:
   498                           	opt callstack 0
   499  000096                     	ds	1
   500  000097                     _atexAquireGrp:
   501                           	opt callstack 0
   502  000097                     	ds	40
   503  0000BF                     _atexAwaitingDataGrp:
   504                           	opt callstack 0
   505  0000BF                     	ds	40
   506                           
   507                           	psect	dataBANK0
   508  0000F4                     __pdataBANK0:
   509                           	opt callstack 0
   510  0000F4                     _msTick:
   511                           	opt callstack 0
   512  0000F4                     	ds	4
   513  0000F8                     _sender:
   514                           	opt callstack 0
   515  0000F8                     	ds	3
   516  0000FB                     _message:
   517                           	opt callstack 0
   518  0000FB                     	ds	2
   519                           
   520                           	psect	cstackCOMRAM
   521  000001                     __pcstackCOMRAM:
   522                           	opt callstack 0
   523  000001                     ??_notifyAtexUnsafe:
   524  000001                     ??_ECAN_Initialize:
   525  000001                     ?_Can_rxCreateArrayFilterTenBit:
   526                           	opt callstack 0
   527  000001                     ?_Can_rxCreateArrayMaskTenBit:
   528                           	opt callstack 0
   529  000001                     ?_convertReg2ExtendedCANid:
   530                           	opt callstack 0
   531  000001                     ?_convertReg2StandardCANid:
   532                           	opt callstack 0
   533  000001                     ?_msTickGet:
   534                           	opt callstack 0
   535  000001                     ?_Can_rxJoin:
   536                           	opt callstack 0
   537  000001                     convertReg2ExtendedCANid@tempRXBn_EIDL:
   538                           	opt callstack 0
   539  000001                     convertReg2StandardCANid@tempRXBn_SIDL:
   540                           	opt callstack 0
   541  000001                     Can_rxJoin@destination:
   542                           	opt callstack 0
   543  000001                     UART1_SetFramingErrorHandler@interruptHandler:
   544                           	opt callstack 0
   545  000001                     UART1_SetOverrunErrorHandler@interruptHandler:
   546                           	opt callstack 0
   547  000001                     UART1_SetErrorHandler@interruptHandler:
   548                           	opt callstack 0
   549  000001                     UART1_SetRxInterruptHandler@InterruptHandler:
   550                           	opt callstack 0
   551  000001                     UART1_SetTxInterruptHandler@InterruptHandler:
   552                           	opt callstack 0
   553  000001                     TMR6_SetInterruptHandler@InterruptHandler:
   554                           	opt callstack 0
   555  000001                     Can_rxCreateArrayFilter@arr:
   556                           	opt callstack 0
   557  000001                     Can_rxCreateArrayFilterTenBit@arr:
   558                           	opt callstack 0
   559  000001                     Can_rxCreateArrayMask@arr:
   560                           	opt callstack 0
   561  000001                     Can_rxCreateArrayMaskTenBit@arr:
   562                           	opt callstack 0
   563  000001                     memcpy@d1:
   564                           	opt callstack 0
   565  000001                     memset@dest:
   566                           	opt callstack 0
   567  000001                     CAN_filterToReg@filter:
   568                           	opt callstack 0
   569  000001                     CAN_maskToReg@filter:
   570                           	opt callstack 0
   571                           
   572                           ; 4 bytes @ 0x0
   573  000001                     	ds	1
   574  000002                     ??_atexVerifyStat:
   575  000002                     convertReg2ExtendedCANid@tempRXBn_SIDH:
   576                           	opt callstack 0
   577  000002                     Can_rxJoin@messageID:
   578                           	opt callstack 0
   579                           
   580                           ; 2 bytes @ 0x1
   581  000002                     	ds	1
   582  000003                     convertReg2ExtendedCANid@tempRXBn_SIDL:
   583                           	opt callstack 0
   584  000003                     Can_rxCreateArrayFilter@num:
   585                           	opt callstack 0
   586  000003                     Can_rxCreateArrayMask@num:
   587                           	opt callstack 0
   588  000003                     Can_rxCreateArrayFilterTenBit@num:
   589                           	opt callstack 0
   590  000003                     Can_rxCreateArrayMaskTenBit@num:
   591                           	opt callstack 0
   592  000003                     memcpy@s1:
   593                           	opt callstack 0
   594  000003                     memset@c:
   595                           	opt callstack 0
   596                           
   597                           ; 2 bytes @ 0x2
   598  000003                     	ds	1
   599  000004                     Can_rxJoin@seq:
   600                           	opt callstack 0
   601  000004                     Can_rxCreateArrayFilter@filterRet:
   602                           	opt callstack 0
   603  000004                     Can_rxCreateArrayMask@filterRet:
   604                           	opt callstack 0
   605  000004                     atexVerifyStat@returnVal:
   606                           	opt callstack 0
   607                           
   608                           ; 1 bytes @ 0x3
   609  000004                     	ds	1
   610  000005                     ??_convertReg2ExtendedCANid:
   611  000005                     ??_convertReg2StandardCANid:
   612  000005                     ??_CAN_filterToReg:
   613  000005                     ??_CAN_maskToReg:
   614  000005                     Can_rxJoin@motorReel:
   615                           	opt callstack 0
   616  000005                     Can_rxCreateArrayFilter@i:
   617                           	opt callstack 0
   618  000005                     Can_rxCreateArrayMask@i:
   619                           	opt callstack 0
   620  000005                     atexVerifyStat@avsState:
   621                           	opt callstack 0
   622  000005                     Can_rxCreateArrayFilterTenBit@filterRet:
   623                           	opt callstack 0
   624  000005                     Can_rxCreateArrayMaskTenBit@filterRet:
   625                           	opt callstack 0
   626  000005                     memcpy@n:
   627                           	opt callstack 0
   628  000005                     memset@n:
   629                           	opt callstack 0
   630  000005                     msTickGet@tempTick:
   631                           	opt callstack 0
   632                           
   633                           ; 4 bytes @ 0x4
   634  000005                     	ds	1
   635  000006                     ??_Can_rxJoin:
   636  000006                     atexVerifyStat@i:
   637                           	opt callstack 0
   638                           
   639                           ; 1 bytes @ 0x5
   640  000006                     	ds	1
   641  000007                     ??_memset:
   642  000007                     convertReg2StandardCANid@tempRXBn_SIDH:
   643                           	opt callstack 0
   644  000007                     Can_rxCreateArrayFilterTenBit@i:
   645                           	opt callstack 0
   646  000007                     Can_rxCreateArrayMaskTenBit@i:
   647                           	opt callstack 0
   648  000007                     memcpy@d:
   649                           	opt callstack 0
   650                           
   651                           ; 2 bytes @ 0x6
   652  000007                     	ds	1
   653  000008                     convertReg2StandardCANid@returnValue:
   654                           	opt callstack 0
   655                           
   656                           ; 4 bytes @ 0x7
   657  000008                     	ds	1
   658  000009                     ??_atexPowerPermit:
   659  000009                     ??_atexVerifyTimeStamps:
   660  000009                     convertReg2ExtendedCANid@tempRXBn_EIDH:
   661                           	opt callstack 0
   662  000009                     memcpy@s:
   663                           	opt callstack 0
   664  000009                     memset@k:
   665                           	opt callstack 0
   666                           
   667                           ; 2 bytes @ 0x8
   668  000009                     	ds	1
   669  00000A                     Can_rxJoin@sender:
   670                           	opt callstack 0
   671  00000A                     convertReg2ExtendedCANid@returnValue:
   672                           	opt callstack 0
   673  00000A                     atexPowerPermit@LEDtimer:
   674                           	opt callstack 0
   675                           
   676                           ; 4 bytes @ 0x9
   677  00000A                     	ds	1
   678  00000B                     memcpy@tmp:
   679                           	opt callstack 0
   680  00000B                     memset@s:
   681                           	opt callstack 0
   682  00000B                     Can_rxJoin@mask:
   683                           	opt callstack 0
   684                           
   685                           ; 4 bytes @ 0xA
   686  00000B                     	ds	1
   687  00000C                     ??_atexAquire:
   688  00000C                     atexAwaitingData@atexMsg:
   689                           	opt callstack 0
   690  00000C                     convertReg2StandardCANid@ConvertedID:
   691                           	opt callstack 0
   692                           
   693                           ; 4 bytes @ 0xB
   694  00000C                     	ds	1
   695  00000D                     atexVerifyTimeStamps@currentTimeStamp:
   696                           	opt callstack 0
   697                           
   698                           ; 4 bytes @ 0xC
   699  00000D                     	ds	1
   700  00000E                     ??_atexAwaitingData:
   701  00000E                     convertReg2ExtendedCANid@CAN_standardLo_ID_lo2bits:
   702                           	opt callstack 0
   703  00000E                     atexPowerPermit@timeNow:
   704                           	opt callstack 0
   705                           
   706                           ; 4 bytes @ 0xD
   707  00000E                     	ds	1
   708  00000F                     convertReg2ExtendedCANid@CAN_standardLo_ID_hi3bits:
   709                           	opt callstack 0
   710  00000F                     Can_rxJoin@shiftDump:
   711                           	opt callstack 0
   712                           
   713                           ; 4 bytes @ 0xE
   714  00000F                     	ds	1
   715  000010                     atexAquire@returnVal:
   716                           	opt callstack 0
   717  000010                     convertReg2ExtendedCANid@ConvertedID:
   718                           	opt callstack 0
   719                           
   720                           ; 4 bytes @ 0xF
   721  000010                     	ds	1
   722  000011                     atexAquire@aaState:
   723                           	opt callstack 0
   724  000011                     atexVerifyTimeStamps@returnVal:
   725                           	opt callstack 0
   726                           
   727                           ; 1 bytes @ 0x10
   728  000011                     	ds	1
   729  000012                     atexAwaitingData@localConsec:
   730                           	opt callstack 0
   731  000012                     atexAquire@i:
   732                           	opt callstack 0
   733  000012                     atexVerifyTimeStamps@minTimeStamp:
   734                           	opt callstack 0
   735                           
   736                           ; 4 bytes @ 0x11
   737  000012                     	ds	1
   738  000013                     atexAwaitingData@i:
   739                           	opt callstack 0
   740  000013                     Can_setFilters@msgID:
   741                           	opt callstack 0
   742                           
   743                           ; 2 bytes @ 0x12
   744  000013                     	ds	1
   745  000014                     atexAwaitingData@adState:
   746                           	opt callstack 0
   747  000014                     CAN_receive@tempCanMsg:
   748                           	opt callstack 0
   749                           
   750                           ; 2 bytes @ 0x13
   751  000014                     	ds	1
   752  000015                     atexAwaitingData@arrayMod:
   753                           	opt callstack 0
   754  000015                     Can_setFilters@msgSize:
   755                           	opt callstack 0
   756                           
   757                           ; 2 bytes @ 0x14
   758  000015                     	ds	1
   759  000016                     CAN_receive@returnValue:
   760                           	opt callstack 0
   761  000016                     atexVerifyTimeStamps@maxTimeStamp:
   762                           	opt callstack 0
   763  000016                     atexAwaitingData@localPress:
   764                           	opt callstack 0
   765                           
   766                           ; 10 bytes @ 0x15
   767  000016                     	ds	1
   768  000017                     ??_notifyAtexUnsafeWithOverride:
   769  000017                     Can_setFilters@send:
   770                           	opt callstack 0
   771                           
   772                           ; 2 bytes @ 0x16
   773  000017                     	ds	1
   774  000018                     notifyAtexUnsafeWithOverride@ledTimer:
   775                           	opt callstack 0
   776                           
   777                           ; 4 bytes @ 0x17
   778  000018                     	ds	1
   779  000019                     Can_setFilters@sendSize:
   780                           	opt callstack 0
   781                           
   782                           ; 1 bytes @ 0x18
   783  000019                     	ds	1
   784  00001A                     atexVerifyTimeStamps@i:
   785                           	opt callstack 0
   786  00001A                     Can_setFilters@dest:
   787                           	opt callstack 0
   788                           
   789                           ; 2 bytes @ 0x19
   790  00001A                     	ds	1
   791  00001B                     atexVerifyTimeStamps@avtState:
   792                           	opt callstack 0
   793                           
   794                           ; 1 bytes @ 0x1A
   795  00001B                     	ds	1
   796  00001C                     Can_setFilters@destSize:
   797                           	opt callstack 0
   798  00001C                     atexVerifyTimeStamps@i_1845:
   799                           	opt callstack 0
   800  00001C                     notifyAtexUnsafeWithOverride@timeNow:
   801                           	opt callstack 0
   802                           
   803                           ; 4 bytes @ 0x1B
   804  00001C                     	ds	1
   805  00001D                     Can_setFilters@seq:
   806                           	opt callstack 0
   807  00001D                     atexVerifyTimeStamps@i_1846:
   808                           	opt callstack 0
   809                           
   810                           ; 1 bytes @ 0x1C
   811  00001D                     	ds	1
   812  00001E                     Can_setFilters@motorReel:
   813                           	opt callstack 0
   814                           
   815                           ; 1 bytes @ 0x1D
   816  00001E                     	ds	1
   817  00001F                     Can_setFilters@masterFilt:
   818                           	opt callstack 0
   819                           
   820                           ; 4 bytes @ 0x1E
   821  00001F                     	ds	1
   822  000020                     notifyAtexUnsafeWithOverride@atexDump:
   823                           	opt callstack 0
   824                           
   825                           ; 14 bytes @ 0x1F
   826  000020                     	ds	3
   827  000023                     Can_setFilters@masterMask:
   828                           	opt callstack 0
   829                           
   830                           ; 4 bytes @ 0x22
   831  000023                     	ds	4
   832  000027                     Can_setFilters@msgFilt:
   833                           	opt callstack 0
   834                           
   835                           ; 2 bytes @ 0x26
   836  000027                     	ds	2
   837  000029                     Can_setFilters@destFilt:
   838                           	opt callstack 0
   839                           
   840                           ; 1 bytes @ 0x28
   841  000029                     	ds	1
   842  00002A                     Can_setFilters@sendFilt:
   843                           	opt callstack 0
   844                           
   845                           ; 1 bytes @ 0x29
   846  00002A                     	ds	1
   847  00002B                     Can_setFilters@msgMask:
   848                           	opt callstack 0
   849                           
   850                           ; 2 bytes @ 0x2A
   851  00002B                     	ds	2
   852  00002D                     Can_setFilters@destMask:
   853                           	opt callstack 0
   854                           
   855                           ; 1 bytes @ 0x2C
   856  00002D                     	ds	1
   857  00002E                     ??_atexVerifyPressures:
   858  00002E                     Can_setFilters@sendMask:
   859                           	opt callstack 0
   860                           
   861                           ; 1 bytes @ 0x2D
   862  00002E                     	ds	1
   863  00002F                     
   864                           ; 1 bytes @ 0x2E
   865  00002F                     	ds	6
   866  000035                     atexVerifyPressures@returnVal:
   867                           	opt callstack 0
   868                           
   869                           ; 1 bytes @ 0x34
   870  000035                     	ds	1
   871  000036                     atexVerifyPressures@minPressure:
   872                           	opt callstack 0
   873                           
   874                           ; 1 bytes @ 0x35
   875  000036                     	ds	1
   876  000037                     atexVerifyPressures@maxPressure:
   877                           	opt callstack 0
   878                           
   879                           ; 1 bytes @ 0x36
   880  000037                     	ds	1
   881  000038                     atexVerifyPressures@minPressure_1858:
   882                           	opt callstack 0
   883                           
   884                           ; 1 bytes @ 0x37
   885  000038                     	ds	1
   886  000039                     atexVerifyPressures@maxPressure_1859:
   887                           	opt callstack 0
   888                           
   889                           ; 1 bytes @ 0x38
   890  000039                     	ds	1
   891  00003A                     atexVerifyPressures@i:
   892                           	opt callstack 0
   893                           
   894                           ; 1 bytes @ 0x39
   895  00003A                     	ds	1
   896  00003B                     atexVerifyPressures@i_1852:
   897                           	opt callstack 0
   898                           
   899                           ; 1 bytes @ 0x3A
   900  00003B                     	ds	1
   901  00003C                     atexVerifyPressures@i_1856:
   902                           	opt callstack 0
   903                           
   904                           ; 1 bytes @ 0x3B
   905  00003C                     	ds	1
   906  00003D                     atexVerifyPressures@i_1857:
   907                           	opt callstack 0
   908                           
   909                           ; 1 bytes @ 0x3C
   910  00003D                     	ds	1
   911  00003E                     atexVerifyPressures@i_1861:
   912                           	opt callstack 0
   913                           
   914                           ; 1 bytes @ 0x3D
   915  00003E                     	ds	1
   916  00003F                     atexVerifyPressures@i_1862:
   917                           	opt callstack 0
   918                           
   919                           ; 1 bytes @ 0x3E
   920  00003F                     	ds	1
   921  000040                     atexVerifyPressures@avState:
   922                           	opt callstack 0
   923                           
   924                           ; 1 bytes @ 0x3F
   925  000040                     	ds	1
   926  000041                     ??_atexPerformChecks:
   927                           
   928                           ; 1 bytes @ 0x40
   929  000041                     	ds	2
   930  000043                     atexPerformChecks@apState:
   931                           	opt callstack 0
   932                           
   933                           ; 1 bytes @ 0x42
   934  000043                     	ds	1
   935  000044                     ??_main:
   936                           
   937                           ; 1 bytes @ 0x43
   938  000044                     	ds	1
   939  000045                     main@timeNow:
   940                           	opt callstack 0
   941                           
   942                           ; 4 bytes @ 0x44
   943  000045                     	ds	4
   944  000049                     main@atexPressure:
   945                           	opt callstack 0
   946                           
   947                           ; 14 bytes @ 0x48
   948  000049                     	ds	14
   949                           
   950 ;;
   951 ;;Main: autosize = 0, tempsize = 1, incstack = 0, save=0
   952 ;;
   953 ;; *************** function _main *****************
   954 ;; Defined at:
   955 ;;		line 84 in file "main.c"
   956 ;; Parameters:    Size  Location     Type
   957 ;;		None
   958 ;; Auto vars:     Size  Location     Type
   959 ;;  atexPressure   14   72[COMRAM] struct .
   960 ;;  timeNow         4   68[COMRAM] unsigned long 
   961 ;; Return value:  Size  Location     Type
   962 ;;                  1    wreg      void 
   963 ;; Registers used:
   964 ;;		wreg, fsr1l, fsr1h, fsr2l, fsr2h, status,2, status,0, prodl, prodh, cstack
   965 ;; Tracked objects:
   966 ;;		On entry : 0/0
   967 ;;		On exit  : 0/0
   968 ;;		Unchanged: 0/0
   969 ;; Data sizes:     COMRAM   BANK0   BANK1   BANK2   BANK3   BANK4   BANK5   BANK6   BANK7   BANK8   BANK9  BANK10  BANK1
      +1  BANK12  BANK13  BANK14  BANK15
   970 ;;      Params:         0       0       0       0       0       0       0       0       0       0       0       0       
      +0       0       0       0       0
   971 ;;      Locals:        18       0       0       0       0       0       0       0       0       0       0       0       
      +0       0       0       0       0
   972 ;;      Temps:          1       0       0       0       0       0       0       0       0       0       0       0       
      +0       0       0       0       0
   973 ;;      Totals:        19       0       0       0       0       0       0       0       0       0       0       0       
      +0       0       0       0       0
   974 ;;Total ram usage:       19 bytes
   975 ;; Hardware stack levels required when called:   10
   976 ;; This function calls:
   977 ;;		_CAN_receive
   978 ;;		_Can_setFiltersSimple
   979 ;;		_SYSTEM_Initialize
   980 ;;		_TMR6_SetInterruptHandler
   981 ;;		_atexAwaitingData
   982 ;;		_atexPerformChecks
   983 ;;		_atexPowerPermit
   984 ;;		_msTickGet
   985 ;;		_notifyAtexUnsafe
   986 ;; This function is called by:
   987 ;;		Startup code after reset
   988 ;; This function uses a non-reentrant model
   989 ;;
   990                           
   991                           	psect	text0
   992  000CB2                     __ptext0:
   993                           	opt callstack 0
   994  000CB2                     _main:
   995                           	opt callstack 21
   996  000CB2                     
   997                           ;main.c: 86:     uCAN_MSG atexPressure;;main.c: 92:     SYSTEM_Initialize();
   998  000CB2  EC9C  F010         	call	_SYSTEM_Initialize	;wreg free
   999  000CB6  8ABA               	bsf	186,5,c	;volatile
  1000  000CB8                     
  1001                           ;main.c: 100:     Can_setFiltersSimple();
  1002  000CB8  EC19  F010         	call	_Can_setFiltersSimple	;wreg free
  1003  000CBC                     
  1004                           ;main.c: 103:     TMR6_SetInterruptHandler(&IRQ_TIM6);
  1005  000CBC  0E6E               	movlw	low _IRQ_TIM6
  1006  000CBE  6E01               	movwf	TMR6_SetInterruptHandler@InterruptHandler^0,c
  1007  000CC0  0E21               	movlw	high _IRQ_TIM6
  1008  000CC2  6E02               	movwf	(TMR6_SetInterruptHandler@InterruptHandler+1)^0,c
  1009  000CC4  ECE2  F010         	call	_TMR6_SetInterruptHandler	;wreg free
  1010  000CC8                     
  1011                           ;main.c: 112:     if((PCON0 & 0x10) == 0)
  1012  000CC8  B8F0               	btfsc	240,4,c	;volatile
  1013  000CCA  EF69  F006         	goto	u2421
  1014  000CCE  EF6B  F006         	goto	u2420
  1015  000CD2                     u2421:
  1016  000CD2  EF6E  F006         	goto	l732
  1017  000CD6                     u2420:
  1018  000CD6                     
  1019                           ;main.c: 113:     {;main.c: 114:         PCON0 |= 0x10;
  1020  000CD6  88F0               	bsf	240,4,c	;volatile
  1021  000CD8                     
  1022                           ;main.c: 115:         notifyAtexUnsafe();
  1023  000CD8  EC72  F00D         	call	_notifyAtexUnsafe	;wreg free
  1024  000CDC                     l732:
  1025  000CDC  0004               	clrwdt		;# 
  1026  000CDE                     
  1027                           ;main.c: 131:     static uint32_t LEDtimer= 0;;main.c: 138:     (INTCON0bits.GIE = 1);
  1028  000CDE  8ED2               	bsf	210,7,c	;volatile
  1029  000CE0                     
  1030                           ;main.c: 142:     uint32_t timeNow = msTickGet();
  1031  000CE0  EC83  F00F         	call	_msTickGet	;wreg free
  1032  000CE4  0060  F004  F045   	movff	?_msTickGet,main@timeNow
  1033  000CEA  0060  F008  F046   	movff	?_msTickGet+1,main@timeNow+1
  1034  000CF0  0060  F00C  F047   	movff	?_msTickGet+2,main@timeNow+2
  1035  000CF6  0060  F010  F048   	movff	?_msTickGet+3,main@timeNow+3
  1036  000CFC                     
  1037                           ;main.c: 143:     LEDtimer = timeNow + 3000;
  1038  000CFC  0EB8               	movlw	184
  1039  000CFE  2445               	addwf	main@timeNow^0,w,c
  1040  000D00  0100               	movlb	0	; () banked
  1041  000D02  6F8A               	movwf	main@LEDtimer& (0+255),b
  1042  000D04  0E0B               	movlw	11
  1043  000D06  2046               	addwfc	(main@timeNow+1)^0,w,c
  1044  000D08  6F8B               	movwf	(main@LEDtimer+1)& (0+255),b
  1045  000D0A  0E00               	movlw	0
  1046  000D0C  2047               	addwfc	(main@timeNow+2)^0,w,c
  1047  000D0E  6F8C               	movwf	(main@LEDtimer+2)& (0+255),b
  1048  000D10  0E00               	movlw	0
  1049  000D12  2048               	addwfc	(main@timeNow+3)^0,w,c
  1050  000D14  6F8D               	movwf	(main@LEDtimer+3)& (0+255),b
  1051                           
  1052                           ;main.c: 146:     while(LEDtimer>timeNow)
  1053  000D16  EFAD  F006         	goto	l4350
  1054  000D1A                     l736:
  1055                           
  1056                           ; BSR set to: 0
  1057  000D1A  0004               	clrwdt		;# 
  1058  000D1C                     
  1059                           ;main.c: 149:         timeNow = msTickGet();
  1060  000D1C  EC83  F00F         	call	_msTickGet	;wreg free
  1061  000D20  0060  F004  F045   	movff	?_msTickGet,main@timeNow
  1062  000D26  0060  F008  F046   	movff	?_msTickGet+1,main@timeNow+1
  1063  000D2C  0060  F00C  F047   	movff	?_msTickGet+2,main@timeNow+2
  1064  000D32  0060  F010  F048   	movff	?_msTickGet+3,main@timeNow+3
  1065  000D38  B8BA               	btfsc	186,4,c	;volatile
  1066  000D3A  EFA1  F006         	goto	u2431
  1067  000D3E  EFA4  F006         	goto	u2430
  1068  000D42                     u2431:
  1069  000D42  0E01               	movlw	1
  1070  000D44  EFA5  F006         	goto	u2436
  1071  000D48                     u2430:
  1072  000D48  0E00               	movlw	0
  1073  000D4A                     u2436:
  1074  000D4A  0AFF               	xorlw	255
  1075  000D4C  6E44               	movwf	??_main^0,c
  1076  000D4E  3A44               	swapf	??_main^0,f,c
  1077  000D50  50BA               	movf	186,w,c	;volatile
  1078  000D52  1844               	xorwf	??_main^0,w,c
  1079  000D54  0BEF               	andlw	-17
  1080  000D56  1844               	xorwf	??_main^0,w,c
  1081  000D58  6EBA               	movwf	186,c	;volatile
  1082  000D5A                     l4350:
  1083                           
  1084                           ;main.c: 146:     while(LEDtimer>timeNow)
  1085  000D5A  0100               	movlb	0	; () banked
  1086  000D5C  518A               	movf	main@LEDtimer& (0+255),w,b
  1087  000D5E  5C45               	subwf	main@timeNow^0,w,c
  1088  000D60  518B               	movf	(main@LEDtimer+1)& (0+255),w,b
  1089  000D62  5846               	subwfb	(main@timeNow+1)^0,w,c
  1090  000D64  518C               	movf	(main@LEDtimer+2)& (0+255),w,b
  1091  000D66  5847               	subwfb	(main@timeNow+2)^0,w,c
  1092  000D68  518D               	movf	(main@LEDtimer+3)& (0+255),w,b
  1093  000D6A  5848               	subwfb	(main@timeNow+3)^0,w,c
  1094  000D6C  A0D8               	btfss	status,0,c
  1095  000D6E  EFBB  F006         	goto	u2441
  1096  000D72  EFBD  F006         	goto	u2440
  1097  000D76                     u2441:
  1098  000D76  EF8D  F006         	goto	l736
  1099  000D7A                     u2440:
  1100  000D7A                     
  1101                           ; BSR set to: 0
  1102                           ;main.c: 154:     atexPowerPermit();
  1103  000D7A  EC71  F00C         	call	_atexPowerPermit	;wreg free
  1104  000D7E                     l4354:
  1105  000D7E  0E49               	movlw	low main@atexPressure
  1106  000D80  6E14               	movwf	CAN_receive@tempCanMsg^0,c
  1107  000D82  0E00               	movlw	high main@atexPressure
  1108  000D84  6E15               	movwf	(CAN_receive@tempCanMsg+1)^0,c
  1109  000D86  ECBD  F001         	call	_CAN_receive	;wreg free
  1110  000D8A  0900               	iorlw	0
  1111  000D8C  A4D8               	btfss	status,2,c
  1112  000D8E  EFCB  F006         	goto	u2451
  1113  000D92  EFCD  F006         	goto	u2450
  1114  000D96                     u2451:
  1115  000D96  EFBF  F006         	goto	l4354
  1116  000D9A                     u2450:
  1117  000D9A  82BA               	bsf	186,1,c	;volatile
  1118  000D9C                     l745:
  1119  000D9C  0004               	clrwdt		;# 
  1120  000D9E                     
  1121                           ;main.c: 163:         timeNow = msTickGet();
  1122  000D9E  EC83  F00F         	call	_msTickGet	;wreg free
  1123  000DA2  0060  F004  F045   	movff	?_msTickGet,main@timeNow
  1124  000DA8  0060  F008  F046   	movff	?_msTickGet+1,main@timeNow+1
  1125  000DAE  0060  F00C  F047   	movff	?_msTickGet+2,main@timeNow+2
  1126  000DB4  0060  F010  F048   	movff	?_msTickGet+3,main@timeNow+3
  1127  000DBA                     
  1128                           ;main.c: 166:         if(timeNow>LEDtimer)
  1129  000DBA  5045               	movf	main@timeNow^0,w,c
  1130  000DBC  0100               	movlb	0	; () banked
  1131  000DBE  5D8A               	subwf	main@LEDtimer& (0+255),w,b
  1132  000DC0  5046               	movf	(main@timeNow+1)^0,w,c
  1133  000DC2  598B               	subwfb	(main@LEDtimer+1)& (0+255),w,b
  1134  000DC4  5047               	movf	(main@timeNow+2)^0,w,c
  1135  000DC6  598C               	subwfb	(main@LEDtimer+2)& (0+255),w,b
  1136  000DC8  5048               	movf	(main@timeNow+3)^0,w,c
  1137  000DCA  598D               	subwfb	(main@LEDtimer+3)& (0+255),w,b
  1138  000DCC  B0D8               	btfsc	status,0,c
  1139  000DCE  EFEB  F006         	goto	u2461
  1140  000DD2  EFED  F006         	goto	u2460
  1141  000DD6                     u2461:
  1142  000DD6  EF12  F007         	goto	l4364
  1143  000DDA                     u2460:
  1144  000DDA                     
  1145                           ; BSR set to: 0
  1146  000DDA  B8BA               	btfsc	186,4,c	;volatile
  1147  000DDC  EFF2  F006         	goto	u2471
  1148  000DE0  EFF5  F006         	goto	u2470
  1149  000DE4                     u2471:
  1150  000DE4  0E01               	movlw	1
  1151  000DE6  EFF6  F006         	goto	u2476
  1152  000DEA                     u2470:
  1153  000DEA  0E00               	movlw	0
  1154  000DEC                     u2476:
  1155  000DEC  0AFF               	xorlw	255
  1156  000DEE  6E44               	movwf	??_main^0,c
  1157  000DF0  3A44               	swapf	??_main^0,f,c
  1158  000DF2  50BA               	movf	186,w,c	;volatile
  1159  000DF4  1844               	xorwf	??_main^0,w,c
  1160  000DF6  0BEF               	andlw	-17
  1161  000DF8  1844               	xorwf	??_main^0,w,c
  1162  000DFA  6EBA               	movwf	186,c	;volatile
  1163  000DFC                     
  1164                           ; BSR set to: 0
  1165                           ;main.c: 170:             LEDtimer = timeNow + 500;
  1166  000DFC  0EF4               	movlw	244
  1167  000DFE  2445               	addwf	main@timeNow^0,w,c
  1168  000E00  6F8A               	movwf	main@LEDtimer& (0+255),b
  1169  000E02  0E01               	movlw	1
  1170  000E04  2046               	addwfc	(main@timeNow+1)^0,w,c
  1171  000E06  6F8B               	movwf	(main@LEDtimer+1)& (0+255),b
  1172  000E08  0E00               	movlw	0
  1173  000E0A  2047               	addwfc	(main@timeNow+2)^0,w,c
  1174  000E0C  6F8C               	movwf	(main@LEDtimer+2)& (0+255),b
  1175  000E0E  0E00               	movlw	0
  1176  000E10  2048               	addwfc	(main@timeNow+3)^0,w,c
  1177  000E12  6F8D               	movwf	(main@LEDtimer+3)& (0+255),b
  1178  000E14  EF12  F007         	goto	l4364
  1179  000E18                     l4362:
  1180                           
  1181                           ;main.c: 174:         {;main.c: 175:             atexAwaitingData(&atexPressure);
  1182  000E18  0E49               	movlw	low main@atexPressure
  1183  000E1A  6E0C               	movwf	atexAwaitingData@atexMsg^0,c
  1184  000E1C  0E00               	movlw	high main@atexPressure
  1185  000E1E  6E0D               	movwf	(atexAwaitingData@atexMsg+1)^0,c
  1186  000E20  EC48  F004         	call	_atexAwaitingData	;wreg free
  1187  000E24                     l4364:
  1188                           
  1189                           ;main.c: 173:         while(CAN_receive(&atexPressure))
  1190  000E24  0E49               	movlw	low main@atexPressure
  1191  000E26  6E14               	movwf	CAN_receive@tempCanMsg^0,c
  1192  000E28  0E00               	movlw	high main@atexPressure
  1193  000E2A  6E15               	movwf	(CAN_receive@tempCanMsg+1)^0,c
  1194  000E2C  ECBD  F001         	call	_CAN_receive	;wreg free
  1195  000E30  0900               	iorlw	0
  1196  000E32  A4D8               	btfss	status,2,c
  1197  000E34  EF1E  F007         	goto	u2481
  1198  000E38  EF20  F007         	goto	u2480
  1199  000E3C                     u2481:
  1200  000E3C  EF0C  F007         	goto	l4362
  1201  000E40                     u2480:
  1202  000E40                     
  1203                           ;main.c: 189:         {;main.c: 190:             atexPerformChecks();
  1204  000E40  EC74  F009         	call	_atexPerformChecks	;wreg free
  1205  000E44  EFCE  F006         	goto	l745
  1206  000E48  EF0D  F000         	goto	start
  1207  000E4C                     __end_of_main:
  1208                           	opt callstack 0
  1209                           
  1210 ;; *************** function _atexPerformChecks *****************
  1211 ;; Defined at:
  1212 ;;		line 529 in file "C:/Users/Robert.Finch/OneDrive - Mini-Cam Ltd/Pic/Atex/PCB-005-419.X/Atex.c"
  1213 ;; Parameters:    Size  Location     Type
  1214 ;;		None
  1215 ;; Auto vars:     Size  Location     Type
  1216 ;;  apState         1   66[COMRAM] unsigned char 
  1217 ;; Return value:  Size  Location     Type
  1218 ;;                  1    wreg      void 
  1219 ;; Registers used:
  1220 ;;		wreg, fsr2l, fsr2h, status,2, status,0, prodl, prodh, cstack
  1221 ;; Tracked objects:
  1222 ;;		On entry : 0/0
  1223 ;;		On exit  : 0/0
  1224 ;;		Unchanged: 0/0
  1225 ;; Data sizes:     COMRAM   BANK0   BANK1   BANK2   BANK3   BANK4   BANK5   BANK6   BANK7   BANK8   BANK9  BANK10  BANK1
      +1  BANK12  BANK13  BANK14  BANK15
  1226 ;;      Params:         0       0       0       0       0       0       0       0       0       0       0       0       
      +0       0       0       0       0
  1227 ;;      Locals:         1       0       0       0       0       0       0       0       0       0       0       0       
      +0       0       0       0       0
  1228 ;;      Temps:          2       0       0       0       0       0       0       0       0       0       0       0       
      +0       0       0       0       0
  1229 ;;      Totals:         3       0       0       0       0       0       0       0       0       0       0       0       
      +0       0       0       0       0
  1230 ;;Total ram usage:        3 bytes
  1231 ;; Hardware stack levels used:    1
  1232 ;; Hardware stack levels required when called:    9
  1233 ;; This function calls:
  1234 ;;		_atexAquire
  1235 ;;		_atexResetUnsafeTime
  1236 ;;		_atexVerifyPressures
  1237 ;;		_atexVerifyStat
  1238 ;;		_atexVerifyTimeStamps
  1239 ;;		_msTickGet
  1240 ;;		_notifyAtexSafe
  1241 ;;		_notifyAtexUnsafe
  1242 ;;		_notifyAtexUnsafeWithOverride
  1243 ;; This function is called by:
  1244 ;;		_main
  1245 ;; This function uses a non-reentrant model
  1246 ;;
  1247                           
  1248                           	psect	text1
  1249  0012E8                     __ptext1:
  1250                           	opt callstack 0
  1251  0012E8                     _atexPerformChecks:
  1252                           	opt callstack 21
  1253  0012E8                     
  1254                           ;C:/Users/Robert.Finch/OneDrive - Mini-Cam Ltd/Pic/Atex/PCB-005-419.X/Atex.c: 532:  uint
      +                          8_t apState = apAquire;
  1255  0012E8  0E01               	movlw	1
  1256  0012EA  6E43               	movwf	atexPerformChecks@apState^0,c
  1257                           
  1258                           ;C:/Users/Robert.Finch/OneDrive - Mini-Cam Ltd/Pic/Atex/PCB-005-419.X/Atex.c: 533:     t
      +                          ravelFlags = 0;
  1259  0012EC  0E00               	movlw	0
  1260  0012EE  0100               	movlb	0	; () banked
  1261  0012F0  6F8E               	movwf	_travelFlags& (0+255),b
  1262                           
  1263                           ;C:/Users/Robert.Finch/OneDrive - Mini-Cam Ltd/Pic/Atex/PCB-005-419.X/Atex.c: 535:  whil
      +                          e(apState)
  1264  0012F2  EF1A  F00A         	goto	l4268
  1265  0012F6                     l4210:
  1266                           
  1267                           ;C:/Users/Robert.Finch/OneDrive - Mini-Cam Ltd/Pic/Atex/PCB-005-419.X/Atex.c: 540:    {;
      +                          C:/Users/Robert.Finch/OneDrive - Mini-Cam Ltd/Pic/Atex/PCB-005-419.X/Atex.c: 541:     tr
      +                          avelFlags |= 0x1;
  1268  0012F6  0100               	movlb	0	; () banked
  1269  0012F8  818E               	bsf	_travelFlags& (0+255),0,b
  1270  0012FA                     
  1271                           ; BSR set to: 0
  1272                           ;C:/Users/Robert.Finch/OneDrive - Mini-Cam Ltd/Pic/Atex/PCB-005-419.X/Atex.c: 542:     a
      +                          pState = apUnsafe;
  1273  0012FA  0E06               	movlw	6
  1274  0012FC  6E43               	movwf	atexPerformChecks@apState^0,c
  1275  0012FE                     
  1276                           ; BSR set to: 0
  1277                           ;C:/Users/Robert.Finch/OneDrive - Mini-Cam Ltd/Pic/Atex/PCB-005-419.X/Atex.c: 543:     i
      +                          f(atexAquire())
  1278  0012FE  ECC8  F00A         	call	_atexAquire	;wreg free
  1279  001302  0900               	iorlw	0
  1280  001304  B4D8               	btfsc	status,2,c
  1281  001306  EF87  F009         	goto	u2231
  1282  00130A  EF89  F009         	goto	u2230
  1283  00130E                     u2231:
  1284  00130E  EF1A  F00A         	goto	l4268
  1285  001312                     u2230:
  1286  001312                     
  1287                           ;C:/Users/Robert.Finch/OneDrive - Mini-Cam Ltd/Pic/Atex/PCB-005-419.X/Atex.c: 544:     {
      +                          ;C:/Users/Robert.Finch/OneDrive - Mini-Cam Ltd/Pic/Atex/PCB-005-419.X/Atex.c: 545:      
      +                          apState = apVerifyStat;
  1288  001312  0E02               	movlw	2
  1289  001314  6E43               	movwf	atexPerformChecks@apState^0,c
  1290  001316  EF1A  F00A         	goto	l4268
  1291  00131A                     l4218:
  1292                           
  1293                           ;C:/Users/Robert.Finch/OneDrive - Mini-Cam Ltd/Pic/Atex/PCB-005-419.X/Atex.c: 551:    {;
      +                          C:/Users/Robert.Finch/OneDrive - Mini-Cam Ltd/Pic/Atex/PCB-005-419.X/Atex.c: 552:     tr
      +                          avelFlags |= 0x2;
  1294  00131A  0100               	movlb	0	; () banked
  1295  00131C  838E               	bsf	_travelFlags& (0+255),1,b
  1296  00131E                     
  1297                           ; BSR set to: 0
  1298                           ;C:/Users/Robert.Finch/OneDrive - Mini-Cam Ltd/Pic/Atex/PCB-005-419.X/Atex.c: 553:     a
      +                          pState = apUnsafe;
  1299  00131E  0E06               	movlw	6
  1300  001320  6E43               	movwf	atexPerformChecks@apState^0,c
  1301  001322                     
  1302                           ; BSR set to: 0
  1303                           ;C:/Users/Robert.Finch/OneDrive - Mini-Cam Ltd/Pic/Atex/PCB-005-419.X/Atex.c: 554:     i
      +                          f(atexVerifyStat())
  1304  001322  ECAF  F00B         	call	_atexVerifyStat	;wreg free
  1305  001326  0900               	iorlw	0
  1306  001328  B4D8               	btfsc	status,2,c
  1307  00132A  EF99  F009         	goto	u2241
  1308  00132E  EF9B  F009         	goto	u2240
  1309  001332                     u2241:
  1310  001332  EF1A  F00A         	goto	l4268
  1311  001336                     u2240:
  1312  001336                     
  1313                           ;C:/Users/Robert.Finch/OneDrive - Mini-Cam Ltd/Pic/Atex/PCB-005-419.X/Atex.c: 555:     {
      +                          ;C:/Users/Robert.Finch/OneDrive - Mini-Cam Ltd/Pic/Atex/PCB-005-419.X/Atex.c: 556:      
      +                          apState = apVerifyTimeStamps;
  1314  001336  0E03               	movlw	3
  1315  001338  6E43               	movwf	atexPerformChecks@apState^0,c
  1316  00133A  EF1A  F00A         	goto	l4268
  1317  00133E                     l4226:
  1318                           
  1319                           ;C:/Users/Robert.Finch/OneDrive - Mini-Cam Ltd/Pic/Atex/PCB-005-419.X/Atex.c: 562:    {;
      +                          C:/Users/Robert.Finch/OneDrive - Mini-Cam Ltd/Pic/Atex/PCB-005-419.X/Atex.c: 563:     tr
      +                          avelFlags |= 0x4;
  1320  00133E  0100               	movlb	0	; () banked
  1321  001340  858E               	bsf	_travelFlags& (0+255),2,b
  1322  001342                     
  1323                           ; BSR set to: 0
  1324                           ;C:/Users/Robert.Finch/OneDrive - Mini-Cam Ltd/Pic/Atex/PCB-005-419.X/Atex.c: 564:     a
      +                          pState = apUnsafe;
  1325  001342  0E06               	movlw	6
  1326  001344  6E43               	movwf	atexPerformChecks@apState^0,c
  1327  001346                     
  1328                           ; BSR set to: 0
  1329                           ;C:/Users/Robert.Finch/OneDrive - Mini-Cam Ltd/Pic/Atex/PCB-005-419.X/Atex.c: 565:     i
      +                          f(atexVerifyTimeStamps())
  1330  001346  EC19  F003         	call	_atexVerifyTimeStamps	;wreg free
  1331  00134A  0900               	iorlw	0
  1332  00134C  B4D8               	btfsc	status,2,c
  1333  00134E  EFAB  F009         	goto	u2251
  1334  001352  EFAD  F009         	goto	u2250
  1335  001356                     u2251:
  1336  001356  EF1A  F00A         	goto	l4268
  1337  00135A                     u2250:
  1338  00135A                     
  1339                           ;C:/Users/Robert.Finch/OneDrive - Mini-Cam Ltd/Pic/Atex/PCB-005-419.X/Atex.c: 566:     {
      +                          ;C:/Users/Robert.Finch/OneDrive - Mini-Cam Ltd/Pic/Atex/PCB-005-419.X/Atex.c: 567:      
      +                          apState = apVerifyPressures;
  1340  00135A  0E04               	movlw	4
  1341  00135C  6E43               	movwf	atexPerformChecks@apState^0,c
  1342  00135E  EF1A  F00A         	goto	l4268
  1343  001362                     l4234:
  1344                           
  1345                           ;C:/Users/Robert.Finch/OneDrive - Mini-Cam Ltd/Pic/Atex/PCB-005-419.X/Atex.c: 573:    {;
      +                          C:/Users/Robert.Finch/OneDrive - Mini-Cam Ltd/Pic/Atex/PCB-005-419.X/Atex.c: 574:     tr
      +                          avelFlags |= 0x08;
  1346  001362  0100               	movlb	0	; () banked
  1347  001364  878E               	bsf	_travelFlags& (0+255),3,b
  1348  001366                     
  1349                           ; BSR set to: 0
  1350                           ;C:/Users/Robert.Finch/OneDrive - Mini-Cam Ltd/Pic/Atex/PCB-005-419.X/Atex.c: 575:     a
      +                          pState = apExit;
  1351  001366  0E00               	movlw	0
  1352  001368  6E43               	movwf	atexPerformChecks@apState^0,c
  1353  00136A                     
  1354                           ; BSR set to: 0
  1355                           ;C:/Users/Robert.Finch/OneDrive - Mini-Cam Ltd/Pic/Atex/PCB-005-419.X/Atex.c: 576:     i
      +                          f(atexVerifyPressures())
  1356  00136A  EC0F  F000         	call	_atexVerifyPressures	;wreg free
  1357  00136E  0900               	iorlw	0
  1358  001370  B4D8               	btfsc	status,2,c
  1359  001372  EFBD  F009         	goto	u2261
  1360  001376  EFBF  F009         	goto	u2260
  1361  00137A                     u2261:
  1362  00137A  EF1A  F00A         	goto	l4268
  1363  00137E                     u2260:
  1364  00137E                     
  1365                           ;C:/Users/Robert.Finch/OneDrive - Mini-Cam Ltd/Pic/Atex/PCB-005-419.X/Atex.c: 577:     {
      +                          ;C:/Users/Robert.Finch/OneDrive - Mini-Cam Ltd/Pic/Atex/PCB-005-419.X/Atex.c: 578:      
      +                          apState = apAtexSafe;
  1366  00137E  0E05               	movlw	5
  1367  001380  6E43               	movwf	atexPerformChecks@apState^0,c
  1368  001382  EF1A  F00A         	goto	l4268
  1369  001386                     l4242:
  1370                           
  1371                           ;C:/Users/Robert.Finch/OneDrive - Mini-Cam Ltd/Pic/Atex/PCB-005-419.X/Atex.c: 584:    {;
      +                          C:/Users/Robert.Finch/OneDrive - Mini-Cam Ltd/Pic/Atex/PCB-005-419.X/Atex.c: 585:     ap
      +                          State = apExit;
  1372  001386  0E00               	movlw	0
  1373  001388  6E43               	movwf	atexPerformChecks@apState^0,c
  1374                           
  1375                           ;C:/Users/Robert.Finch/OneDrive - Mini-Cam Ltd/Pic/Atex/PCB-005-419.X/Atex.c: 586:     b
      +                          reak;
  1376  00138A  EF1A  F00A         	goto	l4268
  1377  00138E                     l4244:
  1378                           
  1379                           ;C:/Users/Robert.Finch/OneDrive - Mini-Cam Ltd/Pic/Atex/PCB-005-419.X/Atex.c: 590:    {;
      +                          C:/Users/Robert.Finch/OneDrive - Mini-Cam Ltd/Pic/Atex/PCB-005-419.X/Atex.c: 591:     tr
      +                          avelFlags |= 0x80;
  1380  00138E  0100               	movlb	0	; () banked
  1381  001390  8F8E               	bsf	_travelFlags& (0+255),7,b
  1382  001392                     
  1383                           ; BSR set to: 0
  1384                           ;C:/Users/Robert.Finch/OneDrive - Mini-Cam Ltd/Pic/Atex/PCB-005-419.X/Atex.c: 592:     a
      +                          pState = apExit;
  1385  001392  0E00               	movlw	0
  1386  001394  6E43               	movwf	atexPerformChecks@apState^0,c
  1387  001396                     
  1388                           ; BSR set to: 0
  1389                           ;C:/Users/Robert.Finch/OneDrive - Mini-Cam Ltd/Pic/Atex/PCB-005-419.X/Atex.c: 593:     a
      +                          texResetUnsafeTime();
  1390  001396  EC8C  F010         	call	_atexResetUnsafeTime	;wreg free
  1391  00139A                     
  1392                           ;C:/Users/Robert.Finch/OneDrive - Mini-Cam Ltd/Pic/Atex/PCB-005-419.X/Atex.c: 594:     n
      +                          otifyAtexSafe();
  1393  00139A  ECEE  F010         	call	_notifyAtexSafe	;wreg free
  1394                           
  1395                           ;C:/Users/Robert.Finch/OneDrive - Mini-Cam Ltd/Pic/Atex/PCB-005-419.X/Atex.c: 596:     b
      +                          reak;
  1396  00139E  EF1A  F00A         	goto	l4268
  1397  0013A2                     l4252:
  1398                           
  1399                           ;C:/Users/Robert.Finch/OneDrive - Mini-Cam Ltd/Pic/Atex/PCB-005-419.X/Atex.c: 600:    {;
      +                          C:/Users/Robert.Finch/OneDrive - Mini-Cam Ltd/Pic/Atex/PCB-005-419.X/Atex.c: 601:     ap
      +                          State = apExit;
  1400  0013A2  0E00               	movlw	0
  1401  0013A4  6E43               	movwf	atexPerformChecks@apState^0,c
  1402  0013A6                     
  1403                           ;C:/Users/Robert.Finch/OneDrive - Mini-Cam Ltd/Pic/Atex/PCB-005-419.X/Atex.c: 602:      
      +                                     travelFlags |= 0x10;
  1404  0013A6  0100               	movlb	0	; () banked
  1405  0013A8  898E               	bsf	_travelFlags& (0+255),4,b
  1406  0013AA                     
  1407                           ; BSR set to: 0
  1408                           ;C:/Users/Robert.Finch/OneDrive - Mini-Cam Ltd/Pic/Atex/PCB-005-419.X/Atex.c: 603:     i
      +                          f(atexLastGood < (msTickGet()))
  1409  0013AA  EC83  F00F         	call	_msTickGet	;wreg free
  1410  0013AE  5001               	movf	?_msTickGet^0,w,c
  1411  0013B0  0100               	movlb	0	; () banked
  1412  0013B2  5D82               	subwf	_atexLastGood& (0+255),w,b
  1413  0013B4  5002               	movf	(?_msTickGet+1)^0,w,c
  1414  0013B6  5983               	subwfb	(_atexLastGood+1)& (0+255),w,b
  1415  0013B8  5003               	movf	(?_msTickGet+2)^0,w,c
  1416  0013BA  5984               	subwfb	(_atexLastGood+2)& (0+255),w,b
  1417  0013BC  5004               	movf	(?_msTickGet+3)^0,w,c
  1418  0013BE  5985               	subwfb	(_atexLastGood+3)& (0+255),w,b
  1419  0013C0  B0D8               	btfsc	status,0,c
  1420  0013C2  EFE5  F009         	goto	u2271
  1421  0013C6  EFE7  F009         	goto	u2270
  1422  0013CA                     u2271:
  1423  0013CA  EF1A  F00A         	goto	l4268
  1424  0013CE                     u2270:
  1425  0013CE                     
  1426                           ; BSR set to: 0
  1427                           ;C:/Users/Robert.Finch/OneDrive - Mini-Cam Ltd/Pic/Atex/PCB-005-419.X/Atex.c: 604:     {
      +                          ;C:/Users/Robert.Finch/OneDrive - Mini-Cam Ltd/Pic/Atex/PCB-005-419.X/Atex.c: 605:      
      +                          notifyAtexUnsafeWithOverride();
  1428  0013CE  EC5C  F005         	call	_notifyAtexUnsafeWithOverride	;wreg free
  1429  0013D2  EF1A  F00A         	goto	l4268
  1430  0013D6                     l4260:
  1431                           
  1432                           ;C:/Users/Robert.Finch/OneDrive - Mini-Cam Ltd/Pic/Atex/PCB-005-419.X/Atex.c: 613:    {;
      +                          C:/Users/Robert.Finch/OneDrive - Mini-Cam Ltd/Pic/Atex/PCB-005-419.X/Atex.c: 614:     tr
      +                          avelFlags |= 0x20;
  1433  0013D6  0100               	movlb	0	; () banked
  1434  0013D8  8B8E               	bsf	_travelFlags& (0+255),5,b
  1435  0013DA                     
  1436                           ; BSR set to: 0
  1437                           ;C:/Users/Robert.Finch/OneDrive - Mini-Cam Ltd/Pic/Atex/PCB-005-419.X/Atex.c: 615:     n
      +                          otifyAtexUnsafe();
  1438  0013DA  EC72  F00D         	call	_notifyAtexUnsafe	;wreg free
  1439                           
  1440                           ;C:/Users/Robert.Finch/OneDrive - Mini-Cam Ltd/Pic/Atex/PCB-005-419.X/Atex.c: 617:     b
      +                          reak;
  1441  0013DE  EF1A  F00A         	goto	l4268
  1442  0013E2                     l4266:
  1443  0013E2  5043               	movf	atexPerformChecks@apState^0,w,c
  1444  0013E4  6E41               	movwf	??_atexPerformChecks^0,c
  1445  0013E6  6A42               	clrf	(??_atexPerformChecks+1)^0,c
  1446                           
  1447                           ; Switch on 2 bytes has been partitioned into a top level switch of size 1, and 1 sub-sw
      +                          itches
  1448                           ; Switch size 1, requested type "simple"
  1449                           ; Number of cases is 1, Range of values is 0 to 0
  1450                           ; switch strategies available:
  1451                           ; Name         Instructions Cycles
  1452                           ; simple_byte            4     3 (average)
  1453                           ;	Chosen strategy is simple_byte
  1454  0013E8  5042               	movf	(??_atexPerformChecks+1)^0,w,c
  1455  0013EA  0A00               	xorlw	0	; case 0
  1456  0013EC  B4D8               	btfsc	status,2,c
  1457  0013EE  EFFB  F009         	goto	l4488
  1458  0013F2  EFEB  F009         	goto	l4260
  1459  0013F6                     l4488:
  1460                           
  1461                           ; Switch size 1, requested type "simple"
  1462                           ; Number of cases is 7, Range of values is 0 to 6
  1463                           ; switch strategies available:
  1464                           ; Name         Instructions Cycles
  1465                           ; simple_byte           22    12 (average)
  1466                           ;	Chosen strategy is simple_byte
  1467  0013F6  5041               	movf	??_atexPerformChecks^0,w,c
  1468  0013F8  0A00               	xorlw	0	; case 0
  1469  0013FA  B4D8               	btfsc	status,2,c
  1470  0013FC  EFC3  F009         	goto	l4242
  1471  001400  0A01               	xorlw	1	; case 1
  1472  001402  B4D8               	btfsc	status,2,c
  1473  001404  EF7B  F009         	goto	l4210
  1474  001408  0A03               	xorlw	3	; case 2
  1475  00140A  B4D8               	btfsc	status,2,c
  1476  00140C  EF8D  F009         	goto	l4218
  1477  001410  0A01               	xorlw	1	; case 3
  1478  001412  B4D8               	btfsc	status,2,c
  1479  001414  EF9F  F009         	goto	l4226
  1480  001418  0A07               	xorlw	7	; case 4
  1481  00141A  B4D8               	btfsc	status,2,c
  1482  00141C  EFB1  F009         	goto	l4234
  1483  001420  0A01               	xorlw	1	; case 5
  1484  001422  B4D8               	btfsc	status,2,c
  1485  001424  EFC7  F009         	goto	l4244
  1486  001428  0A03               	xorlw	3	; case 6
  1487  00142A  B4D8               	btfsc	status,2,c
  1488  00142C  EFD1  F009         	goto	l4252
  1489  001430  EFEB  F009         	goto	l4260
  1490  001434                     l4268:
  1491                           
  1492                           ;C:/Users/Robert.Finch/OneDrive - Mini-Cam Ltd/Pic/Atex/PCB-005-419.X/Atex.c: 535:  whil
      +                          e(apState)
  1493  001434  5043               	movf	atexPerformChecks@apState^0,w,c
  1494  001436  A4D8               	btfss	status,2,c
  1495  001438  EF20  F00A         	goto	u2281
  1496  00143C  EF22  F00A         	goto	u2280
  1497  001440                     u2281:
  1498  001440  EFF1  F009         	goto	l4266
  1499  001444                     u2280:
  1500  001444  0012               	return		;funcret
  1501  001446                     __end_of_atexPerformChecks:
  1502                           	opt callstack 0
  1503                           
  1504 ;; *************** function _notifyAtexSafe *****************
  1505 ;; Defined at:
  1506 ;;		line 733 in file "C:/Users/Robert.Finch/OneDrive - Mini-Cam Ltd/Pic/Atex/PCB-005-419.X/Atex.c"
  1507 ;; Parameters:    Size  Location     Type
  1508 ;;		None
  1509 ;; Auto vars:     Size  Location     Type
  1510 ;;		None
  1511 ;; Return value:  Size  Location     Type
  1512 ;;                  1    wreg      void 
  1513 ;; Registers used:
  1514 ;;		None
  1515 ;; Tracked objects:
  1516 ;;		On entry : 0/0
  1517 ;;		On exit  : 0/0
  1518 ;;		Unchanged: 0/0
  1519 ;; Data sizes:     COMRAM   BANK0   BANK1   BANK2   BANK3   BANK4   BANK5   BANK6   BANK7   BANK8   BANK9  BANK10  BANK1
      +1  BANK12  BANK13  BANK14  BANK15
  1520 ;;      Params:         0       0       0       0       0       0       0       0       0       0       0       0       
      +0       0       0       0       0
  1521 ;;      Locals:         0       0       0       0       0       0       0       0       0       0       0       0       
      +0       0       0       0       0
  1522 ;;      Temps:          0       0       0       0       0       0       0       0       0       0       0       0       
      +0       0       0       0       0
  1523 ;;      Totals:         0       0       0       0       0       0       0       0       0       0       0       0       
      +0       0       0       0       0
  1524 ;;Total ram usage:        0 bytes
  1525 ;; Hardware stack levels used:    1
  1526 ;; Hardware stack levels required when called:    4
  1527 ;; This function calls:
  1528 ;;		Nothing
  1529 ;; This function is called by:
  1530 ;;		_atexPerformChecks
  1531 ;; This function uses a non-reentrant model
  1532 ;;
  1533                           
  1534                           	psect	text2
  1535  0021DC                     __ptext2:
  1536                           	opt callstack 0
  1537  0021DC                     _notifyAtexSafe:
  1538                           	opt callstack 25
  1539  0021DC  8ABA               	bsf	186,5,c	;volatile
  1540  0021DE  82BA               	bsf	186,1,c	;volatile
  1541  0021E0  0012               	return		;funcret
  1542  0021E2                     __end_of_notifyAtexSafe:
  1543                           	opt callstack 0
  1544                           
  1545 ;; *************** function _atexVerifyTimeStamps *****************
  1546 ;; Defined at:
  1547 ;;		line 266 in file "C:/Users/Robert.Finch/OneDrive - Mini-Cam Ltd/Pic/Atex/PCB-005-419.X/Atex.c"
  1548 ;; Parameters:    Size  Location     Type
  1549 ;;		None
  1550 ;; Auto vars:     Size  Location     Type
  1551 ;;  i               1   28[COMRAM] unsigned char 
  1552 ;;  i               1   27[COMRAM] unsigned char 
  1553 ;;  i               1   25[COMRAM] unsigned char 
  1554 ;;  maxTimeStamp    4   21[COMRAM] unsigned long 
  1555 ;;  minTimeStamp    4   17[COMRAM] unsigned long 
  1556 ;;  currentTimeS    4   12[COMRAM] unsigned long 
  1557 ;;  avtState        1   26[COMRAM] unsigned char 
  1558 ;;  returnVal       1   16[COMRAM] unsigned char 
  1559 ;; Return value:  Size  Location     Type
  1560 ;;                  1    wreg      unsigned char 
  1561 ;; Registers used:
  1562 ;;		wreg, fsr2l, fsr2h, status,2, status,0, prodl, prodh, cstack
  1563 ;; Tracked objects:
  1564 ;;		On entry : 0/0
  1565 ;;		On exit  : 0/0
  1566 ;;		Unchanged: 0/0
  1567 ;; Data sizes:     COMRAM   BANK0   BANK1   BANK2   BANK3   BANK4   BANK5   BANK6   BANK7   BANK8   BANK9  BANK10  BANK1
      +1  BANK12  BANK13  BANK14  BANK15
  1568 ;;      Params:         0       0       0       0       0       0       0       0       0       0       0       0       
      +0       0       0       0       0
  1569 ;;      Locals:        17       0       0       0       0       0       0       0       0       0       0       0       
      +0       0       0       0       0
  1570 ;;      Temps:          4       0       0       0       0       0       0       0       0       0       0       0       
      +0       0       0       0       0
  1571 ;;      Totals:        21       0       0       0       0       0       0       0       0       0       0       0       
      +0       0       0       0       0
  1572 ;;Total ram usage:       21 bytes
  1573 ;; Hardware stack levels used:    1
  1574 ;; Hardware stack levels required when called:    5
  1575 ;; This function calls:
  1576 ;;		_msTickGet
  1577 ;;		_notifyAtexUnsafe
  1578 ;; This function is called by:
  1579 ;;		_atexPerformChecks
  1580 ;; This function uses a non-reentrant model
  1581 ;;
  1582                           
  1583                           	psect	text3
  1584  000632                     __ptext3:
  1585                           	opt callstack 0
  1586  000632                     _atexVerifyTimeStamps:
  1587                           	opt callstack 24
  1588  000632                     
  1589                           ;C:/Users/Robert.Finch/OneDrive - Mini-Cam Ltd/Pic/Atex/PCB-005-419.X/Atex.c: 268:  uint
      +                          8_t avtState = avtCheckTimeStampAge,
  1590  000632  0E02               	movlw	2
  1591  000634  6E1B               	movwf	atexVerifyTimeStamps@avtState^0,c
  1592                           
  1593                           ;C:/Users/Robert.Finch/OneDrive - Mini-Cam Ltd/Pic/Atex/PCB-005-419.X/Atex.c: 269:    re
      +                          turnVal = 0;
  1594  000636  0E00               	movlw	0
  1595  000638  6E11               	movwf	atexVerifyTimeStamps@returnVal^0,c
  1596                           
  1597                           ;C:/Users/Robert.Finch/OneDrive - Mini-Cam Ltd/Pic/Atex/PCB-005-419.X/Atex.c: 271:     t
      +                          ravelFlagsAtexVerifyTimeStamps = 0;
  1598  00063A  0E00               	movlw	0
  1599  00063C  0100               	movlb	0	; () banked
  1600  00063E  6F90               	movwf	_travelFlagsAtexVerifyTimeStamps& (0+255),b
  1601                           
  1602                           ;C:/Users/Robert.Finch/OneDrive - Mini-Cam Ltd/Pic/Atex/PCB-005-419.X/Atex.c: 273:  whil
      +                          e(avtState)
  1603  000640  EF3E  F004         	goto	l3898
  1604  000644                     l3814:
  1605                           
  1606                           ;C:/Users/Robert.Finch/OneDrive - Mini-Cam Ltd/Pic/Atex/PCB-005-419.X/Atex.c: 278:      
      +                                 {;C:/Users/Robert.Finch/OneDrive - Mini-Cam Ltd/Pic/Atex/PCB-005-419.X/Atex.c: 27
      +                          9:                 uint32_t currentTimeStamp = msTickGet();
  1607  000644  EC83  F00F         	call	_msTickGet	;wreg free
  1608  000648  0060  F004  F00D   	movff	?_msTickGet,atexVerifyTimeStamps@currentTimeStamp
  1609  00064E  0060  F008  F00E   	movff	?_msTickGet+1,atexVerifyTimeStamps@currentTimeStamp+1
  1610  000654  0060  F00C  F00F   	movff	?_msTickGet+2,atexVerifyTimeStamps@currentTimeStamp+2
  1611  00065A  0060  F010  F010   	movff	?_msTickGet+3,atexVerifyTimeStamps@currentTimeStamp+3
  1612  000660                     
  1613                           ;C:/Users/Robert.Finch/OneDrive - Mini-Cam Ltd/Pic/Atex/PCB-005-419.X/Atex.c: 280:      
      +                                     travelFlagsAtexVerifyTimeStamps |= 0x02;
  1614  000660  0100               	movlb	0	; () banked
  1615  000662  8390               	bsf	_travelFlagsAtexVerifyTimeStamps& (0+255),1,b
  1616  000664                     
  1617                           ; BSR set to: 0
  1618                           ;C:/Users/Robert.Finch/OneDrive - Mini-Cam Ltd/Pic/Atex/PCB-005-419.X/Atex.c: 282:      
      +                                     avtState = avtCheckTimeStampRange;
  1619  000664  0E01               	movlw	1
  1620  000666  6E1B               	movwf	atexVerifyTimeStamps@avtState^0,c
  1621  000668                     
  1622                           ; BSR set to: 0
  1623                           ;C:/Users/Robert.Finch/OneDrive - Mini-Cam Ltd/Pic/Atex/PCB-005-419.X/Atex.c: 283:     f
      +                          or(uint8_t i =0;i<((sizeof(atexAquireGrp))/(sizeof(atexPressure)));i++)
  1624  000668  0E00               	movlw	0
  1625  00066A  6E1A               	movwf	atexVerifyTimeStamps@i^0,c
  1626  00066C                     l3826:
  1627                           
  1628                           ;C:/Users/Robert.Finch/OneDrive - Mini-Cam Ltd/Pic/Atex/PCB-005-419.X/Atex.c: 284:     {
      +                          ;C:/Users/Robert.Finch/OneDrive - Mini-Cam Ltd/Pic/Atex/PCB-005-419.X/Atex.c: 285:      
      +                          if((atexAquireGrp[i].timeStamp + 2000) < (currentTimeStamp))
  1629  00066C  501A               	movf	atexVerifyTimeStamps@i^0,w,c
  1630  00066E  0D0A               	mullw	10
  1631  000670  0E9D               	movlw	low (_atexAquireGrp+6)
  1632  000672  24F3               	addwf	243,w,c
  1633  000674  6ED9               	movwf	fsr2l,c
  1634  000676  0E00               	movlw	high (_atexAquireGrp+6)
  1635  000678  20F4               	addwfc	prodh,w,c
  1636  00067A  6EDA               	movwf	fsr2h,c
  1637  00067C  0ED0               	movlw	208
  1638  00067E  24DE               	addwf	postinc2,w,c
  1639  000680  6E09               	movwf	??_atexVerifyTimeStamps^0,c
  1640  000682  0E07               	movlw	7
  1641  000684  20DE               	addwfc	postinc2,w,c
  1642  000686  6E0A               	movwf	(??_atexVerifyTimeStamps+1)^0,c
  1643  000688  0E00               	movlw	0
  1644  00068A  20DE               	addwfc	postinc2,w,c
  1645  00068C  6E0B               	movwf	(??_atexVerifyTimeStamps+2)^0,c
  1646  00068E  0E00               	movlw	0
  1647  000690  20DE               	addwfc	postinc2,w,c
  1648  000692  6E0C               	movwf	(??_atexVerifyTimeStamps+3)^0,c
  1649  000694  500D               	movf	atexVerifyTimeStamps@currentTimeStamp^0,w,c
  1650  000696  5C09               	subwf	??_atexVerifyTimeStamps^0,w,c
  1651  000698  500E               	movf	(atexVerifyTimeStamps@currentTimeStamp+1)^0,w,c
  1652  00069A  580A               	subwfb	(??_atexVerifyTimeStamps+1)^0,w,c
  1653  00069C  500F               	movf	(atexVerifyTimeStamps@currentTimeStamp+2)^0,w,c
  1654  00069E  580B               	subwfb	(??_atexVerifyTimeStamps+2)^0,w,c
  1655  0006A0  5010               	movf	(atexVerifyTimeStamps@currentTimeStamp+3)^0,w,c
  1656  0006A2  580C               	subwfb	(??_atexVerifyTimeStamps+3)^0,w,c
  1657  0006A4  B0D8               	btfsc	status,0,c
  1658  0006A6  EF57  F003         	goto	u1821
  1659  0006AA  EF59  F003         	goto	u1820
  1660  0006AE                     u1821:
  1661  0006AE  EF5B  F003         	goto	l3830
  1662  0006B2                     u1820:
  1663  0006B2                     
  1664                           ;C:/Users/Robert.Finch/OneDrive - Mini-Cam Ltd/Pic/Atex/PCB-005-419.X/Atex.c: 286:      
      +                          {;C:/Users/Robert.Finch/OneDrive - Mini-Cam Ltd/Pic/Atex/PCB-005-419.X/Atex.c: 287:     
      +                            avtState = avtUnsafe;
  1665  0006B2  0E04               	movlw	4
  1666  0006B4  6E1B               	movwf	atexVerifyTimeStamps@avtState^0,c
  1667  0006B6                     l3830:
  1668                           
  1669                           ;C:/Users/Robert.Finch/OneDrive - Mini-Cam Ltd/Pic/Atex/PCB-005-419.X/Atex.c: 289:     }
  1670  0006B6  2A1A               	incf	atexVerifyTimeStamps@i^0,f,c
  1671  0006B8  0E03               	movlw	3
  1672  0006BA  641A               	cpfsgt	atexVerifyTimeStamps@i^0,c
  1673  0006BC  EF62  F003         	goto	u1831
  1674  0006C0  EF64  F003         	goto	u1830
  1675  0006C4                     u1831:
  1676  0006C4  EF36  F003         	goto	l3826
  1677  0006C8                     u1830:
  1678  0006C8  EF3E  F004         	goto	l3898
  1679  0006CC                     l3834:
  1680                           
  1681                           ;C:/Users/Robert.Finch/OneDrive - Mini-Cam Ltd/Pic/Atex/PCB-005-419.X/Atex.c: 295:    {;
      +                          C:/Users/Robert.Finch/OneDrive - Mini-Cam Ltd/Pic/Atex/PCB-005-419.X/Atex.c: 296:       
      +                                    travelFlagsAtexVerifyTimeStamps |= 0x01;
  1682  0006CC  0100               	movlb	0	; () banked
  1683  0006CE  8190               	bsf	_travelFlagsAtexVerifyTimeStamps& (0+255),0,b
  1684  0006D0                     
  1685                           ; BSR set to: 0
  1686                           ;C:/Users/Robert.Finch/OneDrive - Mini-Cam Ltd/Pic/Atex/PCB-005-419.X/Atex.c: 297:     a
      +                          vtState = avtAtexSafe;
  1687  0006D0  0E03               	movlw	3
  1688  0006D2  6E1B               	movwf	atexVerifyTimeStamps@avtState^0,c
  1689  0006D4                     
  1690                           ; BSR set to: 0
  1691                           ;C:/Users/Robert.Finch/OneDrive - Mini-Cam Ltd/Pic/Atex/PCB-005-419.X/Atex.c: 299:     u
      +                          int32_t minTimeStamp = 0xFFFFFFFF,
  1692  0006D4  6812               	setf	atexVerifyTimeStamps@minTimeStamp^0,c
  1693  0006D6  6813               	setf	(atexVerifyTimeStamps@minTimeStamp+1)^0,c
  1694  0006D8  6814               	setf	(atexVerifyTimeStamps@minTimeStamp+2)^0,c
  1695  0006DA  6815               	setf	(atexVerifyTimeStamps@minTimeStamp+3)^0,c
  1696  0006DC                     
  1697                           ; BSR set to: 0
  1698                           ;C:/Users/Robert.Finch/OneDrive - Mini-Cam Ltd/Pic/Atex/PCB-005-419.X/Atex.c: 300:      
      +                            maxTimeStamp = 0;
  1699  0006DC  0E00               	movlw	0
  1700  0006DE  6E16               	movwf	atexVerifyTimeStamps@maxTimeStamp^0,c
  1701  0006E0  0E00               	movlw	0
  1702  0006E2  6E17               	movwf	(atexVerifyTimeStamps@maxTimeStamp+1)^0,c
  1703  0006E4  0E00               	movlw	0
  1704  0006E6  6E18               	movwf	(atexVerifyTimeStamps@maxTimeStamp+2)^0,c
  1705  0006E8  0E00               	movlw	0
  1706  0006EA  6E19               	movwf	(atexVerifyTimeStamps@maxTimeStamp+3)^0,c
  1707  0006EC                     
  1708                           ; BSR set to: 0
  1709                           ;C:/Users/Robert.Finch/OneDrive - Mini-Cam Ltd/Pic/Atex/PCB-005-419.X/Atex.c: 303:     f
      +                          or(uint8_t i =0;i<((sizeof(atexAquireGrp))/(sizeof(atexPressure)));i++)
  1710  0006EC  0E00               	movlw	0
  1711  0006EE  6E1C               	movwf	atexVerifyTimeStamps@i_1845^0,c
  1712  0006F0                     l3848:
  1713                           
  1714                           ;C:/Users/Robert.Finch/OneDrive - Mini-Cam Ltd/Pic/Atex/PCB-005-419.X/Atex.c: 304:     {
      +                          ;C:/Users/Robert.Finch/OneDrive - Mini-Cam Ltd/Pic/Atex/PCB-005-419.X/Atex.c: 305:      
      +                          if(atexAquireGrp[i].timeStamp < minTimeStamp)
  1715  0006F0  501C               	movf	atexVerifyTimeStamps@i_1845^0,w,c
  1716  0006F2  0D0A               	mullw	10
  1717  0006F4  0E9D               	movlw	low (_atexAquireGrp+6)
  1718  0006F6  24F3               	addwf	243,w,c
  1719  0006F8  6ED9               	movwf	fsr2l,c
  1720  0006FA  0E00               	movlw	high (_atexAquireGrp+6)
  1721  0006FC  20F4               	addwfc	prodh,w,c
  1722  0006FE  6EDA               	movwf	fsr2h,c
  1723  000700  5012               	movf	atexVerifyTimeStamps@minTimeStamp^0,w,c
  1724  000702  5CDE               	subwf	postinc2,w,c
  1725  000704  5013               	movf	(atexVerifyTimeStamps@minTimeStamp+1)^0,w,c
  1726  000706  58DE               	subwfb	postinc2,w,c
  1727  000708  5014               	movf	(atexVerifyTimeStamps@minTimeStamp+2)^0,w,c
  1728  00070A  58DE               	subwfb	postinc2,w,c
  1729  00070C  5015               	movf	(atexVerifyTimeStamps@minTimeStamp+3)^0,w,c
  1730  00070E  58DE               	subwfb	postinc2,w,c
  1731  000710  B0D8               	btfsc	status,0,c
  1732  000712  EF8D  F003         	goto	u1841
  1733  000716  EF8F  F003         	goto	u1840
  1734  00071A                     u1841:
  1735  00071A  EFA3  F003         	goto	l3852
  1736  00071E                     u1840:
  1737  00071E                     
  1738                           ;C:/Users/Robert.Finch/OneDrive - Mini-Cam Ltd/Pic/Atex/PCB-005-419.X/Atex.c: 306:      
      +                          {;C:/Users/Robert.Finch/OneDrive - Mini-Cam Ltd/Pic/Atex/PCB-005-419.X/Atex.c: 307:     
      +                            minTimeStamp = atexAquireGrp[i].timeStamp;
  1739  00071E  501C               	movf	atexVerifyTimeStamps@i_1845^0,w,c
  1740  000720  0D0A               	mullw	10
  1741  000722  0E9D               	movlw	low (_atexAquireGrp+6)
  1742  000724  24F3               	addwf	243,w,c
  1743  000726  6ED9               	movwf	fsr2l,c
  1744  000728  0E00               	movlw	high (_atexAquireGrp+6)
  1745  00072A  20F4               	addwfc	prodh,w,c
  1746  00072C  6EDA               	movwf	fsr2h,c
  1747  00072E  006F FF78  F012    	movff	postinc2,atexVerifyTimeStamps@minTimeStamp
  1748  000734  006F FF78  F013    	movff	postinc2,atexVerifyTimeStamps@minTimeStamp+1
  1749  00073A  006F FF78  F014    	movff	postinc2,atexVerifyTimeStamps@minTimeStamp+2
  1750  000740  006F FF78  F015    	movff	postinc2,atexVerifyTimeStamps@minTimeStamp+3
  1751  000746                     l3852:
  1752                           
  1753                           ;C:/Users/Robert.Finch/OneDrive - Mini-Cam Ltd/Pic/Atex/PCB-005-419.X/Atex.c: 309:     }
  1754  000746  2A1C               	incf	atexVerifyTimeStamps@i_1845^0,f,c
  1755  000748  0E03               	movlw	3
  1756  00074A  641C               	cpfsgt	atexVerifyTimeStamps@i_1845^0,c
  1757  00074C  EFAA  F003         	goto	u1851
  1758  000750  EFAC  F003         	goto	u1850
  1759  000754                     u1851:
  1760  000754  EF78  F003         	goto	l3848
  1761  000758                     u1850:
  1762  000758                     
  1763                           ;C:/Users/Robert.Finch/OneDrive - Mini-Cam Ltd/Pic/Atex/PCB-005-419.X/Atex.c: 312:     f
      +                          or(uint8_t i =0;i<((sizeof(atexAquireGrp))/(sizeof(atexPressure)));i++)
  1764  000758  0E00               	movlw	0
  1765  00075A  6E1D               	movwf	atexVerifyTimeStamps@i_1846^0,c
  1766  00075C                     l3862:
  1767                           
  1768                           ;C:/Users/Robert.Finch/OneDrive - Mini-Cam Ltd/Pic/Atex/PCB-005-419.X/Atex.c: 313:     {
      +                          ;C:/Users/Robert.Finch/OneDrive - Mini-Cam Ltd/Pic/Atex/PCB-005-419.X/Atex.c: 314:      
      +                          if(atexAquireGrp[i].timeStamp > maxTimeStamp)
  1769  00075C  501D               	movf	atexVerifyTimeStamps@i_1846^0,w,c
  1770  00075E  0D0A               	mullw	10
  1771  000760  0E9D               	movlw	low (_atexAquireGrp+6)
  1772  000762  24F3               	addwf	243,w,c
  1773  000764  6ED9               	movwf	fsr2l,c
  1774  000766  0E00               	movlw	high (_atexAquireGrp+6)
  1775  000768  20F4               	addwfc	prodh,w,c
  1776  00076A  6EDA               	movwf	fsr2h,c
  1777  00076C  50DE               	movf	postinc2,w,c
  1778  00076E  5C16               	subwf	atexVerifyTimeStamps@maxTimeStamp^0,w,c
  1779  000770  50DE               	movf	postinc2,w,c
  1780  000772  5817               	subwfb	(atexVerifyTimeStamps@maxTimeStamp+1)^0,w,c
  1781  000774  50DE               	movf	postinc2,w,c
  1782  000776  5818               	subwfb	(atexVerifyTimeStamps@maxTimeStamp+2)^0,w,c
  1783  000778  50DE               	movf	postinc2,w,c
  1784  00077A  5819               	subwfb	(atexVerifyTimeStamps@maxTimeStamp+3)^0,w,c
  1785  00077C  B0D8               	btfsc	status,0,c
  1786  00077E  EFC3  F003         	goto	u1861
  1787  000782  EFC5  F003         	goto	u1860
  1788  000786                     u1861:
  1789  000786  EFD9  F003         	goto	l3866
  1790  00078A                     u1860:
  1791  00078A                     
  1792                           ;C:/Users/Robert.Finch/OneDrive - Mini-Cam Ltd/Pic/Atex/PCB-005-419.X/Atex.c: 315:      
      +                          {;C:/Users/Robert.Finch/OneDrive - Mini-Cam Ltd/Pic/Atex/PCB-005-419.X/Atex.c: 316:     
      +                            maxTimeStamp = atexAquireGrp[i].timeStamp;
  1793  00078A  501D               	movf	atexVerifyTimeStamps@i_1846^0,w,c
  1794  00078C  0D0A               	mullw	10
  1795  00078E  0E9D               	movlw	low (_atexAquireGrp+6)
  1796  000790  24F3               	addwf	243,w,c
  1797  000792  6ED9               	movwf	fsr2l,c
  1798  000794  0E00               	movlw	high (_atexAquireGrp+6)
  1799  000796  20F4               	addwfc	prodh,w,c
  1800  000798  6EDA               	movwf	fsr2h,c
  1801  00079A  006F FF78  F016    	movff	postinc2,atexVerifyTimeStamps@maxTimeStamp
  1802  0007A0  006F FF78  F017    	movff	postinc2,atexVerifyTimeStamps@maxTimeStamp+1
  1803  0007A6  006F FF78  F018    	movff	postinc2,atexVerifyTimeStamps@maxTimeStamp+2
  1804  0007AC  006F FF78  F019    	movff	postinc2,atexVerifyTimeStamps@maxTimeStamp+3
  1805  0007B2                     l3866:
  1806                           
  1807                           ;C:/Users/Robert.Finch/OneDrive - Mini-Cam Ltd/Pic/Atex/PCB-005-419.X/Atex.c: 318:     }
  1808  0007B2  2A1D               	incf	atexVerifyTimeStamps@i_1846^0,f,c
  1809  0007B4  0E03               	movlw	3
  1810  0007B6  641D               	cpfsgt	atexVerifyTimeStamps@i_1846^0,c
  1811  0007B8  EFE0  F003         	goto	u1871
  1812  0007BC  EFE2  F003         	goto	u1870
  1813  0007C0                     u1871:
  1814  0007C0  EFAE  F003         	goto	l3862
  1815  0007C4                     u1870:
  1816  0007C4                     
  1817                           ;C:/Users/Robert.Finch/OneDrive - Mini-Cam Ltd/Pic/Atex/PCB-005-419.X/Atex.c: 320:     i
      +                          f(maxTimeStamp > (5000 + minTimeStamp))
  1818  0007C4  0E88               	movlw	136
  1819  0007C6  2412               	addwf	atexVerifyTimeStamps@minTimeStamp^0,w,c
  1820  0007C8  6E09               	movwf	??_atexVerifyTimeStamps^0,c
  1821  0007CA  0E13               	movlw	19
  1822  0007CC  2013               	addwfc	(atexVerifyTimeStamps@minTimeStamp+1)^0,w,c
  1823  0007CE  6E0A               	movwf	(??_atexVerifyTimeStamps+1)^0,c
  1824  0007D0  0E00               	movlw	0
  1825  0007D2  2014               	addwfc	(atexVerifyTimeStamps@minTimeStamp+2)^0,w,c
  1826  0007D4  6E0B               	movwf	(??_atexVerifyTimeStamps+2)^0,c
  1827  0007D6  0E00               	movlw	0
  1828  0007D8  2015               	addwfc	(atexVerifyTimeStamps@minTimeStamp+3)^0,w,c
  1829  0007DA  6E0C               	movwf	(??_atexVerifyTimeStamps+3)^0,c
  1830  0007DC  5016               	movf	atexVerifyTimeStamps@maxTimeStamp^0,w,c
  1831  0007DE  5C09               	subwf	??_atexVerifyTimeStamps^0,w,c
  1832  0007E0  5017               	movf	(atexVerifyTimeStamps@maxTimeStamp+1)^0,w,c
  1833  0007E2  580A               	subwfb	(??_atexVerifyTimeStamps+1)^0,w,c
  1834  0007E4  5018               	movf	(atexVerifyTimeStamps@maxTimeStamp+2)^0,w,c
  1835  0007E6  580B               	subwfb	(??_atexVerifyTimeStamps+2)^0,w,c
  1836  0007E8  5019               	movf	(atexVerifyTimeStamps@maxTimeStamp+3)^0,w,c
  1837  0007EA  580C               	subwfb	(??_atexVerifyTimeStamps+3)^0,w,c
  1838  0007EC  B0D8               	btfsc	status,0,c
  1839  0007EE  EFFB  F003         	goto	u1881
  1840  0007F2  EFFD  F003         	goto	u1880
  1841  0007F6                     u1881:
  1842  0007F6  EF3E  F004         	goto	l3898
  1843  0007FA                     u1880:
  1844  0007FA                     
  1845                           ;C:/Users/Robert.Finch/OneDrive - Mini-Cam Ltd/Pic/Atex/PCB-005-419.X/Atex.c: 321:     {
      +                          ;C:/Users/Robert.Finch/OneDrive - Mini-Cam Ltd/Pic/Atex/PCB-005-419.X/Atex.c: 322:      
      +                          avtState = avtUnsafe;
  1846  0007FA  0E04               	movlw	4
  1847  0007FC  6E1B               	movwf	atexVerifyTimeStamps@avtState^0,c
  1848  0007FE  EF3E  F004         	goto	l3898
  1849  000802                     l3874:
  1850                           
  1851                           ;C:/Users/Robert.Finch/OneDrive - Mini-Cam Ltd/Pic/Atex/PCB-005-419.X/Atex.c: 329:    {;
      +                          C:/Users/Robert.Finch/OneDrive - Mini-Cam Ltd/Pic/Atex/PCB-005-419.X/Atex.c: 330:       
      +                                    travelFlagsAtexVerifyTimeStamps |= 0x04;
  1852  000802  0100               	movlb	0	; () banked
  1853  000804  8590               	bsf	_travelFlagsAtexVerifyTimeStamps& (0+255),2,b
  1854  000806                     
  1855                           ; BSR set to: 0
  1856                           ;C:/Users/Robert.Finch/OneDrive - Mini-Cam Ltd/Pic/Atex/PCB-005-419.X/Atex.c: 331:     a
      +                          vtState = avtExit;
  1857  000806  0E00               	movlw	0
  1858  000808  6E1B               	movwf	atexVerifyTimeStamps@avtState^0,c
  1859                           
  1860                           ;C:/Users/Robert.Finch/OneDrive - Mini-Cam Ltd/Pic/Atex/PCB-005-419.X/Atex.c: 332:     b
      +                          reak;
  1861  00080A  EF3E  F004         	goto	l3898
  1862  00080E                     l3878:
  1863                           
  1864                           ;C:/Users/Robert.Finch/OneDrive - Mini-Cam Ltd/Pic/Atex/PCB-005-419.X/Atex.c: 336:    {;
      +                          C:/Users/Robert.Finch/OneDrive - Mini-Cam Ltd/Pic/Atex/PCB-005-419.X/Atex.c: 337:       
      +                                    travelFlagsAtexVerifyTimeStamps |= 0x08;
  1865  00080E  0100               	movlb	0	; () banked
  1866  000810  8790               	bsf	_travelFlagsAtexVerifyTimeStamps& (0+255),3,b
  1867  000812                     
  1868                           ; BSR set to: 0
  1869                           ;C:/Users/Robert.Finch/OneDrive - Mini-Cam Ltd/Pic/Atex/PCB-005-419.X/Atex.c: 338:     a
      +                          vtState = avtExit;
  1870  000812  0E00               	movlw	0
  1871  000814  6E1B               	movwf	atexVerifyTimeStamps@avtState^0,c
  1872  000816                     
  1873                           ; BSR set to: 0
  1874                           ;C:/Users/Robert.Finch/OneDrive - Mini-Cam Ltd/Pic/Atex/PCB-005-419.X/Atex.c: 339:     r
      +                          eturnVal = 1;
  1875  000816  0E01               	movlw	1
  1876  000818  6E11               	movwf	atexVerifyTimeStamps@returnVal^0,c
  1877                           
  1878                           ;C:/Users/Robert.Finch/OneDrive - Mini-Cam Ltd/Pic/Atex/PCB-005-419.X/Atex.c: 340:     b
      +                          reak;
  1879  00081A  EF3E  F004         	goto	l3898
  1880  00081E                     l3884:
  1881                           
  1882                           ;C:/Users/Robert.Finch/OneDrive - Mini-Cam Ltd/Pic/Atex/PCB-005-419.X/Atex.c: 344:    {;
      +                          C:/Users/Robert.Finch/OneDrive - Mini-Cam Ltd/Pic/Atex/PCB-005-419.X/Atex.c: 345:       
      +                                    travelFlagsAtexVerifyTimeStamps |= 0x10;
  1883  00081E  0100               	movlb	0	; () banked
  1884  000820  8990               	bsf	_travelFlagsAtexVerifyTimeStamps& (0+255),4,b
  1885  000822                     
  1886                           ; BSR set to: 0
  1887                           ;C:/Users/Robert.Finch/OneDrive - Mini-Cam Ltd/Pic/Atex/PCB-005-419.X/Atex.c: 347:     a
      +                          vtState = avtExit;
  1888  000822  0E00               	movlw	0
  1889  000824  6E1B               	movwf	atexVerifyTimeStamps@avtState^0,c
  1890  000826                     
  1891                           ; BSR set to: 0
  1892                           ;C:/Users/Robert.Finch/OneDrive - Mini-Cam Ltd/Pic/Atex/PCB-005-419.X/Atex.c: 348:     r
      +                          eturnVal = 0;
  1893  000826  0E00               	movlw	0
  1894  000828  6E11               	movwf	atexVerifyTimeStamps@returnVal^0,c
  1895                           
  1896                           ;C:/Users/Robert.Finch/OneDrive - Mini-Cam Ltd/Pic/Atex/PCB-005-419.X/Atex.c: 350:     b
      +                          reak;
  1897  00082A  EF3E  F004         	goto	l3898
  1898  00082E                     l3890:
  1899                           
  1900                           ;C:/Users/Robert.Finch/OneDrive - Mini-Cam Ltd/Pic/Atex/PCB-005-419.X/Atex.c: 355:    {;
      +                          C:/Users/Robert.Finch/OneDrive - Mini-Cam Ltd/Pic/Atex/PCB-005-419.X/Atex.c: 356:     tr
      +                          avelFlagsAtexVerifyTimeStamps |= 0x80;
  1901  00082E  0100               	movlb	0	; () banked
  1902  000830  8F90               	bsf	_travelFlagsAtexVerifyTimeStamps& (0+255),7,b
  1903  000832                     
  1904                           ; BSR set to: 0
  1905                           ;C:/Users/Robert.Finch/OneDrive - Mini-Cam Ltd/Pic/Atex/PCB-005-419.X/Atex.c: 357:     n
      +                          otifyAtexUnsafe();
  1906  000832  EC72  F00D         	call	_notifyAtexUnsafe	;wreg free
  1907                           
  1908                           ;C:/Users/Robert.Finch/OneDrive - Mini-Cam Ltd/Pic/Atex/PCB-005-419.X/Atex.c: 359:     b
      +                          reak;
  1909  000836  EF3E  F004         	goto	l3898
  1910  00083A                     l3896:
  1911  00083A  501B               	movf	atexVerifyTimeStamps@avtState^0,w,c
  1912  00083C  6E09               	movwf	??_atexVerifyTimeStamps^0,c
  1913  00083E  6A0A               	clrf	(??_atexVerifyTimeStamps+1)^0,c
  1914                           
  1915                           ; Switch on 2 bytes has been partitioned into a top level switch of size 1, and 1 sub-sw
      +                          itches
  1916                           ; Switch size 1, requested type "simple"
  1917                           ; Number of cases is 1, Range of values is 0 to 0
  1918                           ; switch strategies available:
  1919                           ; Name         Instructions Cycles
  1920                           ; simple_byte            4     3 (average)
  1921                           ;	Chosen strategy is simple_byte
  1922  000840  500A               	movf	(??_atexVerifyTimeStamps+1)^0,w,c
  1923  000842  0A00               	xorlw	0	; case 0
  1924  000844  B4D8               	btfsc	status,2,c
  1925  000846  EF27  F004         	goto	l4490
  1926  00084A  EF17  F004         	goto	l3890
  1927  00084E                     l4490:
  1928                           
  1929                           ; Switch size 1, requested type "simple"
  1930                           ; Number of cases is 5, Range of values is 0 to 4
  1931                           ; switch strategies available:
  1932                           ; Name         Instructions Cycles
  1933                           ; simple_byte           16     9 (average)
  1934                           ;	Chosen strategy is simple_byte
  1935  00084E  5009               	movf	??_atexVerifyTimeStamps^0,w,c
  1936  000850  0A00               	xorlw	0	; case 0
  1937  000852  B4D8               	btfsc	status,2,c
  1938  000854  EF01  F004         	goto	l3874
  1939  000858  0A01               	xorlw	1	; case 1
  1940  00085A  B4D8               	btfsc	status,2,c
  1941  00085C  EF66  F003         	goto	l3834
  1942  000860  0A03               	xorlw	3	; case 2
  1943  000862  B4D8               	btfsc	status,2,c
  1944  000864  EF22  F003         	goto	l3814
  1945  000868  0A01               	xorlw	1	; case 3
  1946  00086A  B4D8               	btfsc	status,2,c
  1947  00086C  EF07  F004         	goto	l3878
  1948  000870  0A07               	xorlw	7	; case 4
  1949  000872  B4D8               	btfsc	status,2,c
  1950  000874  EF0F  F004         	goto	l3884
  1951  000878  EF17  F004         	goto	l3890
  1952  00087C                     l3898:
  1953                           
  1954                           ;C:/Users/Robert.Finch/OneDrive - Mini-Cam Ltd/Pic/Atex/PCB-005-419.X/Atex.c: 273:  whil
      +                          e(avtState)
  1955  00087C  501B               	movf	atexVerifyTimeStamps@avtState^0,w,c
  1956  00087E  A4D8               	btfss	status,2,c
  1957  000880  EF44  F004         	goto	u1891
  1958  000884  EF46  F004         	goto	u1890
  1959  000888                     u1891:
  1960  000888  EF1D  F004         	goto	l3896
  1961  00088C                     u1890:
  1962  00088C                     
  1963                           ;C:/Users/Robert.Finch/OneDrive - Mini-Cam Ltd/Pic/Atex/PCB-005-419.X/Atex.c: 364:  retu
      +                          rn returnVal;
  1964  00088C  5011               	movf	atexVerifyTimeStamps@returnVal^0,w,c
  1965  00088E  0012               	return		;funcret
  1966  000890                     __end_of_atexVerifyTimeStamps:
  1967                           	opt callstack 0
  1968                           
  1969 ;; *************** function _atexVerifyStat *****************
  1970 ;; Defined at:
  1971 ;;		line 207 in file "C:/Users/Robert.Finch/OneDrive - Mini-Cam Ltd/Pic/Atex/PCB-005-419.X/Atex.c"
  1972 ;; Parameters:    Size  Location     Type
  1973 ;;		None
  1974 ;; Auto vars:     Size  Location     Type
  1975 ;;  i               1    5[COMRAM] unsigned char 
  1976 ;;  avsState        1    4[COMRAM] unsigned char 
  1977 ;;  returnVal       1    3[COMRAM] unsigned char 
  1978 ;; Return value:  Size  Location     Type
  1979 ;;                  1    wreg      unsigned char 
  1980 ;; Registers used:
  1981 ;;		wreg, fsr2l, fsr2h, status,2, status,0, prodl, prodh, cstack
  1982 ;; Tracked objects:
  1983 ;;		On entry : 0/0
  1984 ;;		On exit  : 0/0
  1985 ;;		Unchanged: 0/0
  1986 ;; Data sizes:     COMRAM   BANK0   BANK1   BANK2   BANK3   BANK4   BANK5   BANK6   BANK7   BANK8   BANK9  BANK10  BANK1
      +1  BANK12  BANK13  BANK14  BANK15
  1987 ;;      Params:         0       0       0       0       0       0       0       0       0       0       0       0       
      +0       0       0       0       0
  1988 ;;      Locals:         3       0       0       0       0       0       0       0       0       0       0       0       
      +0       0       0       0       0
  1989 ;;      Temps:          2       0       0       0       0       0       0       0       0       0       0       0       
      +0       0       0       0       0
  1990 ;;      Totals:         5       0       0       0       0       0       0       0       0       0       0       0       
      +0       0       0       0       0
  1991 ;;Total ram usage:        5 bytes
  1992 ;; Hardware stack levels used:    1
  1993 ;; Hardware stack levels required when called:    5
  1994 ;; This function calls:
  1995 ;;		_notifyAtexUnsafe
  1996 ;; This function is called by:
  1997 ;;		_atexPerformChecks
  1998 ;; This function uses a non-reentrant model
  1999 ;;
  2000                           
  2001                           	psect	text4
  2002  00175E                     __ptext4:
  2003                           	opt callstack 0
  2004  00175E                     _atexVerifyStat:
  2005                           	opt callstack 24
  2006  00175E                     
  2007                           ;C:/Users/Robert.Finch/OneDrive - Mini-Cam Ltd/Pic/Atex/PCB-005-419.X/Atex.c: 209:  uint
      +                          8_t avsState = avsCheckStatFlag,
  2008  00175E  0E01               	movlw	1
  2009  001760  6E05               	movwf	atexVerifyStat@avsState^0,c
  2010                           
  2011                           ;C:/Users/Robert.Finch/OneDrive - Mini-Cam Ltd/Pic/Atex/PCB-005-419.X/Atex.c: 210:    re
      +                          turnVal = 0;
  2012  001762  0E00               	movlw	0
  2013  001764  6E04               	movwf	atexVerifyStat@returnVal^0,c
  2014                           
  2015                           ;C:/Users/Robert.Finch/OneDrive - Mini-Cam Ltd/Pic/Atex/PCB-005-419.X/Atex.c: 212:  whil
      +                          e(avsState)
  2016  001766  EF07  F00C         	goto	l3802
  2017  00176A                     l3776:
  2018                           
  2019                           ;C:/Users/Robert.Finch/OneDrive - Mini-Cam Ltd/Pic/Atex/PCB-005-419.X/Atex.c: 217:    {;
      +                          C:/Users/Robert.Finch/OneDrive - Mini-Cam Ltd/Pic/Atex/PCB-005-419.X/Atex.c: 218:     av
      +                          sState = avsAtexSafe;
  2020  00176A  0E02               	movlw	2
  2021  00176C  6E05               	movwf	atexVerifyStat@avsState^0,c
  2022                           
  2023                           ;C:/Users/Robert.Finch/OneDrive - Mini-Cam Ltd/Pic/Atex/PCB-005-419.X/Atex.c: 219:     f
      +                          or(uint8_t i =0;i<((sizeof(atexAquireGrp))/(sizeof(atexPressure)));i++)
  2024  00176E  0E00               	movlw	0
  2025  001770  6E06               	movwf	atexVerifyStat@i^0,c
  2026  001772                     l3782:
  2027                           
  2028                           ;C:/Users/Robert.Finch/OneDrive - Mini-Cam Ltd/Pic/Atex/PCB-005-419.X/Atex.c: 220:     {
      +                          ;C:/Users/Robert.Finch/OneDrive - Mini-Cam Ltd/Pic/Atex/PCB-005-419.X/Atex.c: 221:      
      +                          if(atexAquireGrp[i].stat != 0)
  2029  001772  5006               	movf	atexVerifyStat@i^0,w,c
  2030  001774  0D0A               	mullw	10
  2031  001776  0E9B               	movlw	low (_atexAquireGrp+4)
  2032  001778  24F3               	addwf	243,w,c
  2033  00177A  6ED9               	movwf	fsr2l,c
  2034  00177C  0E00               	movlw	high (_atexAquireGrp+4)
  2035  00177E  20F4               	addwfc	prodh,w,c
  2036  001780  6EDA               	movwf	fsr2h,c
  2037  001782  50DF               	movf	indf2,w,c
  2038  001784  B4D8               	btfsc	status,2,c
  2039  001786  EFC7  F00B         	goto	u1791
  2040  00178A  EFC9  F00B         	goto	u1790
  2041  00178E                     u1791:
  2042  00178E  EFCB  F00B         	goto	l3786
  2043  001792                     u1790:
  2044  001792                     
  2045                           ;C:/Users/Robert.Finch/OneDrive - Mini-Cam Ltd/Pic/Atex/PCB-005-419.X/Atex.c: 222:      
      +                          {;C:/Users/Robert.Finch/OneDrive - Mini-Cam Ltd/Pic/Atex/PCB-005-419.X/Atex.c: 223:     
      +                            avsState = avsUnsafe;
  2046  001792  0E03               	movlw	3
  2047  001794  6E05               	movwf	atexVerifyStat@avsState^0,c
  2048  001796                     l3786:
  2049                           
  2050                           ;C:/Users/Robert.Finch/OneDrive - Mini-Cam Ltd/Pic/Atex/PCB-005-419.X/Atex.c: 225:     }
  2051  001796  2A06               	incf	atexVerifyStat@i^0,f,c
  2052  001798  0E03               	movlw	3
  2053  00179A  6406               	cpfsgt	atexVerifyStat@i^0,c
  2054  00179C  EFD2  F00B         	goto	u1801
  2055  0017A0  EFD4  F00B         	goto	u1800
  2056  0017A4                     u1801:
  2057  0017A4  EFB9  F00B         	goto	l3782
  2058  0017A8                     u1800:
  2059  0017A8  EF07  F00C         	goto	l3802
  2060  0017AC                     l3790:
  2061                           
  2062                           ;C:/Users/Robert.Finch/OneDrive - Mini-Cam Ltd/Pic/Atex/PCB-005-419.X/Atex.c: 230:    {;
      +                          C:/Users/Robert.Finch/OneDrive - Mini-Cam Ltd/Pic/Atex/PCB-005-419.X/Atex.c: 231:     av
      +                          sState = avsExit;
  2063  0017AC  0E00               	movlw	0
  2064  0017AE  6E05               	movwf	atexVerifyStat@avsState^0,c
  2065                           
  2066                           ;C:/Users/Robert.Finch/OneDrive - Mini-Cam Ltd/Pic/Atex/PCB-005-419.X/Atex.c: 232:     b
      +                          reak;
  2067  0017B0  EF07  F00C         	goto	l3802
  2068  0017B4                     l3792:
  2069                           
  2070                           ;C:/Users/Robert.Finch/OneDrive - Mini-Cam Ltd/Pic/Atex/PCB-005-419.X/Atex.c: 236:    {;
      +                          C:/Users/Robert.Finch/OneDrive - Mini-Cam Ltd/Pic/Atex/PCB-005-419.X/Atex.c: 237:     av
      +                          sState = avsExit;
  2071  0017B4  0E00               	movlw	0
  2072  0017B6  6E05               	movwf	atexVerifyStat@avsState^0,c
  2073                           
  2074                           ;C:/Users/Robert.Finch/OneDrive - Mini-Cam Ltd/Pic/Atex/PCB-005-419.X/Atex.c: 239:     r
      +                          eturnVal = 1;
  2075  0017B8  0E01               	movlw	1
  2076  0017BA  6E04               	movwf	atexVerifyStat@returnVal^0,c
  2077                           
  2078                           ;C:/Users/Robert.Finch/OneDrive - Mini-Cam Ltd/Pic/Atex/PCB-005-419.X/Atex.c: 240:     b
      +                          reak;
  2079  0017BC  EF07  F00C         	goto	l3802
  2080  0017C0                     l3794:
  2081                           
  2082                           ;C:/Users/Robert.Finch/OneDrive - Mini-Cam Ltd/Pic/Atex/PCB-005-419.X/Atex.c: 244:    {;
      +                          C:/Users/Robert.Finch/OneDrive - Mini-Cam Ltd/Pic/Atex/PCB-005-419.X/Atex.c: 245:     av
      +                          sState = avsExit;
  2083  0017C0  0E00               	movlw	0
  2084  0017C2  6E05               	movwf	atexVerifyStat@avsState^0,c
  2085                           
  2086                           ;C:/Users/Robert.Finch/OneDrive - Mini-Cam Ltd/Pic/Atex/PCB-005-419.X/Atex.c: 246:     r
      +                          eturnVal = 0;
  2087  0017C4  0E00               	movlw	0
  2088  0017C6  6E04               	movwf	atexVerifyStat@returnVal^0,c
  2089                           
  2090                           ;C:/Users/Robert.Finch/OneDrive - Mini-Cam Ltd/Pic/Atex/PCB-005-419.X/Atex.c: 248:     b
      +                          reak;
  2091  0017C8  EF07  F00C         	goto	l3802
  2092  0017CC                     l3796:
  2093                           
  2094                           ;C:/Users/Robert.Finch/OneDrive - Mini-Cam Ltd/Pic/Atex/PCB-005-419.X/Atex.c: 253:    {;
      +                          C:/Users/Robert.Finch/OneDrive - Mini-Cam Ltd/Pic/Atex/PCB-005-419.X/Atex.c: 255:     no
      +                          tifyAtexUnsafe();
  2095  0017CC  EC72  F00D         	call	_notifyAtexUnsafe	;wreg free
  2096                           
  2097                           ;C:/Users/Robert.Finch/OneDrive - Mini-Cam Ltd/Pic/Atex/PCB-005-419.X/Atex.c: 257:     b
      +                          reak;
  2098  0017D0  EF07  F00C         	goto	l3802
  2099  0017D4                     l3800:
  2100  0017D4  5005               	movf	atexVerifyStat@avsState^0,w,c
  2101  0017D6  6E02               	movwf	??_atexVerifyStat^0,c
  2102  0017D8  6A03               	clrf	(??_atexVerifyStat+1)^0,c
  2103                           
  2104                           ; Switch on 2 bytes has been partitioned into a top level switch of size 1, and 1 sub-sw
      +                          itches
  2105                           ; Switch size 1, requested type "simple"
  2106                           ; Number of cases is 1, Range of values is 0 to 0
  2107                           ; switch strategies available:
  2108                           ; Name         Instructions Cycles
  2109                           ; simple_byte            4     3 (average)
  2110                           ;	Chosen strategy is simple_byte
  2111  0017DA  5003               	movf	(??_atexVerifyStat+1)^0,w,c
  2112  0017DC  0A00               	xorlw	0	; case 0
  2113  0017DE  B4D8               	btfsc	status,2,c
  2114  0017E0  EFF4  F00B         	goto	l4492
  2115  0017E4  EFE6  F00B         	goto	l3796
  2116  0017E8                     l4492:
  2117                           
  2118                           ; Switch size 1, requested type "simple"
  2119                           ; Number of cases is 4, Range of values is 0 to 3
  2120                           ; switch strategies available:
  2121                           ; Name         Instructions Cycles
  2122                           ; simple_byte           13     7 (average)
  2123                           ;	Chosen strategy is simple_byte
  2124  0017E8  5002               	movf	??_atexVerifyStat^0,w,c
  2125  0017EA  0A00               	xorlw	0	; case 0
  2126  0017EC  B4D8               	btfsc	status,2,c
  2127  0017EE  EFD6  F00B         	goto	l3790
  2128  0017F2  0A01               	xorlw	1	; case 1
  2129  0017F4  B4D8               	btfsc	status,2,c
  2130  0017F6  EFB5  F00B         	goto	l3776
  2131  0017FA  0A03               	xorlw	3	; case 2
  2132  0017FC  B4D8               	btfsc	status,2,c
  2133  0017FE  EFDA  F00B         	goto	l3792
  2134  001802  0A01               	xorlw	1	; case 3
  2135  001804  B4D8               	btfsc	status,2,c
  2136  001806  EFE0  F00B         	goto	l3794
  2137  00180A  EFE6  F00B         	goto	l3796
  2138  00180E                     l3802:
  2139                           
  2140                           ;C:/Users/Robert.Finch/OneDrive - Mini-Cam Ltd/Pic/Atex/PCB-005-419.X/Atex.c: 212:  whil
      +                          e(avsState)
  2141  00180E  5005               	movf	atexVerifyStat@avsState^0,w,c
  2142  001810  A4D8               	btfss	status,2,c
  2143  001812  EF0D  F00C         	goto	u1811
  2144  001816  EF0F  F00C         	goto	u1810
  2145  00181A                     u1811:
  2146  00181A  EFEA  F00B         	goto	l3800
  2147  00181E                     u1810:
  2148  00181E                     
  2149                           ;C:/Users/Robert.Finch/OneDrive - Mini-Cam Ltd/Pic/Atex/PCB-005-419.X/Atex.c: 262:  retu
      +                          rn returnVal;
  2150  00181E  5004               	movf	atexVerifyStat@returnVal^0,w,c
  2151  001820  0012               	return		;funcret
  2152  001822                     __end_of_atexVerifyStat:
  2153                           	opt callstack 0
  2154                           
  2155 ;; *************** function _atexVerifyPressures *****************
  2156 ;; Defined at:
  2157 ;;		line 369 in file "C:/Users/Robert.Finch/OneDrive - Mini-Cam Ltd/Pic/Atex/PCB-005-419.X/Atex.c"
  2158 ;; Parameters:    Size  Location     Type
  2159 ;;		None
  2160 ;; Auto vars:     Size  Location     Type
  2161 ;;  i               1   62[COMRAM] unsigned char 
  2162 ;;  i               1   61[COMRAM] unsigned char 
  2163 ;;  i               1   60[COMRAM] unsigned char 
  2164 ;;  i               1   59[COMRAM] unsigned char 
  2165 ;;  i               1   58[COMRAM] unsigned char 
  2166 ;;  i               1   57[COMRAM] unsigned char 
  2167 ;;  maxPressure     1   56[COMRAM] unsigned char 
  2168 ;;  minPressure     1   55[COMRAM] unsigned char 
  2169 ;;  maxPressureL    1    0        unsigned char 
  2170 ;;  maxPressure     1   54[COMRAM] unsigned char 
  2171 ;;  minPressure     1   53[COMRAM] unsigned char 
  2172 ;;  maxPressureL    1    0        unsigned char 
  2173 ;;  avState         1   63[COMRAM] unsigned char 
  2174 ;;  returnVal       1   52[COMRAM] unsigned char 
  2175 ;; Return value:  Size  Location     Type
  2176 ;;                  1    wreg      unsigned char 
  2177 ;; Registers used:
  2178 ;;		wreg, fsr2l, fsr2h, status,2, status,0, prodl, prodh, cstack
  2179 ;; Tracked objects:
  2180 ;;		On entry : 0/0
  2181 ;;		On exit  : 0/0
  2182 ;;		Unchanged: 0/0
  2183 ;; Data sizes:     COMRAM   BANK0   BANK1   BANK2   BANK3   BANK4   BANK5   BANK6   BANK7   BANK8   BANK9  BANK10  BANK1
      +1  BANK12  BANK13  BANK14  BANK15
  2184 ;;      Params:         0       0       0       0       0       0       0       0       0       0       0       0       
      +0       0       0       0       0
  2185 ;;      Locals:        14       0       0       0       0       0       0       0       0       0       0       0       
      +0       0       0       0       0
  2186 ;;      Temps:          5       0       0       0       0       0       0       0       0       0       0       0       
      +0       0       0       0       0
  2187 ;;      Totals:        19       0       0       0       0       0       0       0       0       0       0       0       
      +0       0       0       0       0
  2188 ;;Total ram usage:       19 bytes
  2189 ;; Hardware stack levels used:    1
  2190 ;; Hardware stack levels required when called:    8
  2191 ;; This function calls:
  2192 ;;		_memset
  2193 ;;		_notifyAtexUnsafe
  2194 ;;		_notifyAtexUnsafeWithOverride
  2195 ;; This function is called by:
  2196 ;;		_atexPerformChecks
  2197 ;; This function uses a non-reentrant model
  2198 ;;
  2199                           
  2200                           	psect	text5
  2201  00001E                     __ptext5:
  2202                           	opt callstack 0
  2203  00001E                     _atexVerifyPressures:
  2204                           	opt callstack 21
  2205  00001E                     
  2206                           ;C:/Users/Robert.Finch/OneDrive - Mini-Cam Ltd/Pic/Atex/PCB-005-419.X/Atex.c: 371:  uint
      +                          8_t avState = avCheckMinPressure,
  2207  00001E  0E01               	movlw	1
  2208  000020  6E40               	movwf	atexVerifyPressures@avState^0,c
  2209                           
  2210                           ;C:/Users/Robert.Finch/OneDrive - Mini-Cam Ltd/Pic/Atex/PCB-005-419.X/Atex.c: 372:    re
      +                          turnVal = 0;
  2211  000022  0E00               	movlw	0
  2212  000024  6E35               	movwf	atexVerifyPressures@returnVal^0,c
  2213                           
  2214                           ;C:/Users/Robert.Finch/OneDrive - Mini-Cam Ltd/Pic/Atex/PCB-005-419.X/Atex.c: 374:  trav
      +                          elFlagsAtexVerifyPressure = 0x00;
  2215  000026  0E00               	movlw	0
  2216  000028  0100               	movlb	0	; () banked
  2217  00002A  6F8F               	movwf	_travelFlagsAtexVerifyPressure& (0+255),b
  2218                           
  2219                           ;C:/Users/Robert.Finch/OneDrive - Mini-Cam Ltd/Pic/Atex/PCB-005-419.X/Atex.c: 376:  whil
      +                          e(avState)
  2220  00002C  EFB3  F001         	goto	l4064
  2221  000030                     l3910:
  2222                           
  2223                           ;C:/Users/Robert.Finch/OneDrive - Mini-Cam Ltd/Pic/Atex/PCB-005-419.X/Atex.c: 381:    {;
      +                          C:/Users/Robert.Finch/OneDrive - Mini-Cam Ltd/Pic/Atex/PCB-005-419.X/Atex.c: 382:       
      +                                    travelFlagsAtexVerifyPressure |= 0x01;
  2224  000030  0100               	movlb	0	; () banked
  2225  000032  818F               	bsf	_travelFlagsAtexVerifyPressure& (0+255),0,b
  2226  000034                     
  2227                           ; BSR set to: 0
  2228                           ;C:/Users/Robert.Finch/OneDrive - Mini-Cam Ltd/Pic/Atex/PCB-005-419.X/Atex.c: 383:     a
      +                          vState = avCheckMaxPressure;
  2229  000034  0E02               	movlw	2
  2230  000036  6E40               	movwf	atexVerifyPressures@avState^0,c
  2231  000038                     
  2232                           ; BSR set to: 0
  2233                           ;C:/Users/Robert.Finch/OneDrive - Mini-Cam Ltd/Pic/Atex/PCB-005-419.X/Atex.c: 385:     f
      +                          or(uint8_t i =0;i<((sizeof(atexAquireGrp))/(sizeof(atexPressure)));i++)
  2234  000038  0E00               	movlw	0
  2235  00003A  6E3A               	movwf	atexVerifyPressures@i^0,c
  2236  00003C                     l3920:
  2237                           
  2238                           ;C:/Users/Robert.Finch/OneDrive - Mini-Cam Ltd/Pic/Atex/PCB-005-419.X/Atex.c: 386:     {
      +                          ;C:/Users/Robert.Finch/OneDrive - Mini-Cam Ltd/Pic/Atex/PCB-005-419.X/Atex.c: 387:      
      +                          if(atexAquireGrp[i].kPa < 107)
  2239  00003C  503A               	movf	atexVerifyPressures@i^0,w,c
  2240  00003E  0D0A               	mullw	10
  2241  000040  0E99               	movlw	low (_atexAquireGrp+2)
  2242  000042  24F3               	addwf	243,w,c
  2243  000044  6ED9               	movwf	fsr2l,c
  2244  000046  0E00               	movlw	high (_atexAquireGrp+2)
  2245  000048  20F4               	addwfc	prodh,w,c
  2246  00004A  6EDA               	movwf	fsr2h,c
  2247  00004C  0E6B               	movlw	107
  2248  00004E  60DF               	cpfslt	indf2,c
  2249  000050  EF2C  F000         	goto	u1901
  2250  000054  EF2E  F000         	goto	u1900
  2251  000058                     u1901:
  2252  000058  EF30  F000         	goto	l3924
  2253  00005C                     u1900:
  2254  00005C                     
  2255                           ;C:/Users/Robert.Finch/OneDrive - Mini-Cam Ltd/Pic/Atex/PCB-005-419.X/Atex.c: 388:      
      +                          {;C:/Users/Robert.Finch/OneDrive - Mini-Cam Ltd/Pic/Atex/PCB-005-419.X/Atex.c: 389:     
      +                            avState = avUnsafe;
  2256  00005C  0E06               	movlw	6
  2257  00005E  6E40               	movwf	atexVerifyPressures@avState^0,c
  2258  000060                     l3924:
  2259                           
  2260                           ;C:/Users/Robert.Finch/OneDrive - Mini-Cam Ltd/Pic/Atex/PCB-005-419.X/Atex.c: 391:     }
  2261  000060  2A3A               	incf	atexVerifyPressures@i^0,f,c
  2262  000062  0E03               	movlw	3
  2263  000064  643A               	cpfsgt	atexVerifyPressures@i^0,c
  2264  000066  EF37  F000         	goto	u1911
  2265  00006A  EF39  F000         	goto	u1910
  2266  00006E                     u1911:
  2267  00006E  EF1E  F000         	goto	l3920
  2268  000072                     u1910:
  2269  000072  EFB3  F001         	goto	l4064
  2270  000076                     l3928:
  2271                           
  2272                           ;C:/Users/Robert.Finch/OneDrive - Mini-Cam Ltd/Pic/Atex/PCB-005-419.X/Atex.c: 396:    {;
      +                          C:/Users/Robert.Finch/OneDrive - Mini-Cam Ltd/Pic/Atex/PCB-005-419.X/Atex.c: 397:       
      +                                    travelFlagsAtexVerifyPressure |= 0x02;
  2273  000076  0100               	movlb	0	; () banked
  2274  000078  838F               	bsf	_travelFlagsAtexVerifyPressure& (0+255),1,b
  2275  00007A                     
  2276                           ; BSR set to: 0
  2277                           ;C:/Users/Robert.Finch/OneDrive - Mini-Cam Ltd/Pic/Atex/PCB-005-419.X/Atex.c: 398:     a
      +                          vState = avCheckPressureRangeGroupOne;
  2278  00007A  0E03               	movlw	3
  2279  00007C  6E40               	movwf	atexVerifyPressures@avState^0,c
  2280  00007E                     
  2281                           ; BSR set to: 0
  2282                           ;C:/Users/Robert.Finch/OneDrive - Mini-Cam Ltd/Pic/Atex/PCB-005-419.X/Atex.c: 399:     f
      +                          or(uint8_t i =0;i<((sizeof(atexAquireGrp))/(sizeof(atexPressure)));i++)
  2283  00007E  0E00               	movlw	0
  2284  000080  6E3B               	movwf	atexVerifyPressures@i_1852^0,c
  2285  000082                     l3938:
  2286                           
  2287                           ;C:/Users/Robert.Finch/OneDrive - Mini-Cam Ltd/Pic/Atex/PCB-005-419.X/Atex.c: 400:     {
      +                          ;C:/Users/Robert.Finch/OneDrive - Mini-Cam Ltd/Pic/Atex/PCB-005-419.X/Atex.c: 402:      
      +                                         if(atexAquireGrp[i].kPa > ( 250))
  2288  000082  503B               	movf	atexVerifyPressures@i_1852^0,w,c
  2289  000084  0D0A               	mullw	10
  2290  000086  0E99               	movlw	low (_atexAquireGrp+2)
  2291  000088  24F3               	addwf	243,w,c
  2292  00008A  6ED9               	movwf	fsr2l,c
  2293  00008C  0E00               	movlw	high (_atexAquireGrp+2)
  2294  00008E  20F4               	addwfc	prodh,w,c
  2295  000090  6EDA               	movwf	fsr2h,c
  2296  000092  0EFA               	movlw	250
  2297  000094  64DF               	cpfsgt	indf2,c
  2298  000096  EF4F  F000         	goto	u1921
  2299  00009A  EF51  F000         	goto	u1920
  2300  00009E                     u1921:
  2301  00009E  EF53  F000         	goto	l3942
  2302  0000A2                     u1920:
  2303  0000A2                     
  2304                           ;C:/Users/Robert.Finch/OneDrive - Mini-Cam Ltd/Pic/Atex/PCB-005-419.X/Atex.c: 403:      
      +                          {;C:/Users/Robert.Finch/OneDrive - Mini-Cam Ltd/Pic/Atex/PCB-005-419.X/Atex.c: 404:     
      +                            avState = avUnsafe;
  2305  0000A2  0E06               	movlw	6
  2306  0000A4  6E40               	movwf	atexVerifyPressures@avState^0,c
  2307  0000A6                     l3942:
  2308                           
  2309                           ;C:/Users/Robert.Finch/OneDrive - Mini-Cam Ltd/Pic/Atex/PCB-005-419.X/Atex.c: 406:      
      +                                         if(atexAquireGrp[i].mp > 250)
  2310  0000A6  503B               	movf	atexVerifyPressures@i_1852^0,w,c
  2311  0000A8  0D0A               	mullw	10
  2312  0000AA  0E9C               	movlw	low (_atexAquireGrp+5)
  2313  0000AC  24F3               	addwf	243,w,c
  2314  0000AE  6ED9               	movwf	fsr2l,c
  2315  0000B0  0E00               	movlw	high (_atexAquireGrp+5)
  2316  0000B2  20F4               	addwfc	prodh,w,c
  2317  0000B4  6EDA               	movwf	fsr2h,c
  2318  0000B6  0EFA               	movlw	250
  2319  0000B8  64DF               	cpfsgt	indf2,c
  2320  0000BA  EF61  F000         	goto	u1931
  2321  0000BE  EF63  F000         	goto	u1930
  2322  0000C2                     u1931:
  2323  0000C2  EF65  F000         	goto	l3946
  2324  0000C6                     u1930:
  2325  0000C6                     
  2326                           ;C:/Users/Robert.Finch/OneDrive - Mini-Cam Ltd/Pic/Atex/PCB-005-419.X/Atex.c: 407:      
      +                                         {;C:/Users/Robert.Finch/OneDrive - Mini-Cam Ltd/Pic/Atex/PCB-005-419.X/At
      +                          ex.c: 408:                         avState = avUnsafe;
  2327  0000C6  0E06               	movlw	6
  2328  0000C8  6E40               	movwf	atexVerifyPressures@avState^0,c
  2329  0000CA                     l3946:
  2330                           
  2331                           ;C:/Users/Robert.Finch/OneDrive - Mini-Cam Ltd/Pic/Atex/PCB-005-419.X/Atex.c: 410:     }
  2332  0000CA  2A3B               	incf	atexVerifyPressures@i_1852^0,f,c
  2333  0000CC  0E03               	movlw	3
  2334  0000CE  643B               	cpfsgt	atexVerifyPressures@i_1852^0,c
  2335  0000D0  EF6C  F000         	goto	u1941
  2336  0000D4  EF6E  F000         	goto	u1940
  2337  0000D8                     u1941:
  2338  0000D8  EF41  F000         	goto	l3938
  2339  0000DC                     u1940:
  2340  0000DC  EFB3  F001         	goto	l4064
  2341  0000E0                     l3950:
  2342                           
  2343                           ;C:/Users/Robert.Finch/OneDrive - Mini-Cam Ltd/Pic/Atex/PCB-005-419.X/Atex.c: 416:    {;
      +                          C:/Users/Robert.Finch/OneDrive - Mini-Cam Ltd/Pic/Atex/PCB-005-419.X/Atex.c: 417:       
      +                                    travelFlagsAtexVerifyPressure |= 0x04;
  2344  0000E0  0100               	movlb	0	; () banked
  2345  0000E2  858F               	bsf	_travelFlagsAtexVerifyPressure& (0+255),2,b
  2346  0000E4                     
  2347                           ; BSR set to: 0
  2348                           ;C:/Users/Robert.Finch/OneDrive - Mini-Cam Ltd/Pic/Atex/PCB-005-419.X/Atex.c: 418:     a
      +                          vState = avUnsafe;
  2349  0000E4  0E06               	movlw	6
  2350  0000E6  6E40               	movwf	atexVerifyPressures@avState^0,c
  2351  0000E8                     
  2352                           ; BSR set to: 0
  2353                           ;C:/Users/Robert.Finch/OneDrive - Mini-Cam Ltd/Pic/Atex/PCB-005-419.X/Atex.c: 420:     u
      +                          int8_t minPressure = 0xFF,
  2354  0000E8  6836               	setf	atexVerifyPressures@minPressure^0,c
  2355  0000EA                     
  2356                           ; BSR set to: 0
  2357                           ;C:/Users/Robert.Finch/OneDrive - Mini-Cam Ltd/Pic/Atex/PCB-005-419.X/Atex.c: 421:      
      +                           maxPressure = 0,
  2358  0000EA  0E00               	movlw	0
  2359  0000EC  6E37               	movwf	atexVerifyPressures@maxPressure^0,c
  2360  0000EE                     
  2361                           ; BSR set to: 0
  2362                           ;C:/Users/Robert.Finch/OneDrive - Mini-Cam Ltd/Pic/Atex/PCB-005-419.X/Atex.c: 425:     f
      +                          or(uint8_t i =0;i<(((sizeof(atexAquireGrp))/(sizeof(atexPressure)))/2);i++)
  2363  0000EE  0E00               	movlw	0
  2364  0000F0  6E3C               	movwf	atexVerifyPressures@i_1856^0,c
  2365  0000F2                     l3966:
  2366                           
  2367                           ;C:/Users/Robert.Finch/OneDrive - Mini-Cam Ltd/Pic/Atex/PCB-005-419.X/Atex.c: 426:     {
      +                          ;C:/Users/Robert.Finch/OneDrive - Mini-Cam Ltd/Pic/Atex/PCB-005-419.X/Atex.c: 427:      
      +                          if(atexAquireGrp[i].kPa < minPressure)
  2368  0000F2  503C               	movf	atexVerifyPressures@i_1856^0,w,c
  2369  0000F4  0D0A               	mullw	10
  2370  0000F6  0E99               	movlw	low (_atexAquireGrp+2)
  2371  0000F8  24F3               	addwf	243,w,c
  2372  0000FA  6ED9               	movwf	fsr2l,c
  2373  0000FC  0E00               	movlw	high (_atexAquireGrp+2)
  2374  0000FE  20F4               	addwfc	prodh,w,c
  2375  000100  6EDA               	movwf	fsr2h,c
  2376  000102  5036               	movf	atexVerifyPressures@minPressure^0,w,c
  2377  000104  5CDE               	subwf	postinc2,w,c
  2378  000106  B0D8               	btfsc	status,0,c
  2379  000108  EF88  F000         	goto	u1951
  2380  00010C  EF8A  F000         	goto	u1950
  2381  000110                     u1951:
  2382  000110  EF94  F000         	goto	l3970
  2383  000114                     u1950:
  2384  000114                     
  2385                           ;C:/Users/Robert.Finch/OneDrive - Mini-Cam Ltd/Pic/Atex/PCB-005-419.X/Atex.c: 428:      
      +                          {;C:/Users/Robert.Finch/OneDrive - Mini-Cam Ltd/Pic/Atex/PCB-005-419.X/Atex.c: 429:     
      +                            minPressure = atexAquireGrp[i].kPa;
  2386  000114  503C               	movf	atexVerifyPressures@i_1856^0,w,c
  2387  000116  0D0A               	mullw	10
  2388  000118  0E99               	movlw	low (_atexAquireGrp+2)
  2389  00011A  24F3               	addwf	243,w,c
  2390  00011C  6ED9               	movwf	fsr2l,c
  2391  00011E  0E00               	movlw	high (_atexAquireGrp+2)
  2392  000120  20F4               	addwfc	prodh,w,c
  2393  000122  6EDA               	movwf	fsr2h,c
  2394  000124  50DF               	movf	indf2,w,c
  2395  000126  6E36               	movwf	atexVerifyPressures@minPressure^0,c
  2396  000128                     l3970:
  2397                           
  2398                           ;C:/Users/Robert.Finch/OneDrive - Mini-Cam Ltd/Pic/Atex/PCB-005-419.X/Atex.c: 431:     }
  2399  000128  2A3C               	incf	atexVerifyPressures@i_1856^0,f,c
  2400  00012A  0E01               	movlw	1
  2401  00012C  643C               	cpfsgt	atexVerifyPressures@i_1856^0,c
  2402  00012E  EF9B  F000         	goto	u1961
  2403  000132  EF9D  F000         	goto	u1960
  2404  000136                     u1961:
  2405  000136  EF79  F000         	goto	l3966
  2406  00013A                     u1960:
  2407  00013A                     
  2408                           ;C:/Users/Robert.Finch/OneDrive - Mini-Cam Ltd/Pic/Atex/PCB-005-419.X/Atex.c: 434:     f
      +                          or(uint8_t i =0;i<(((sizeof(atexAquireGrp))/(sizeof(atexPressure)))/2);i++)
  2409  00013A  0E00               	movlw	0
  2410  00013C  6E3D               	movwf	atexVerifyPressures@i_1857^0,c
  2411  00013E                     l3980:
  2412                           
  2413                           ;C:/Users/Robert.Finch/OneDrive - Mini-Cam Ltd/Pic/Atex/PCB-005-419.X/Atex.c: 435:     {
      +                          ;C:/Users/Robert.Finch/OneDrive - Mini-Cam Ltd/Pic/Atex/PCB-005-419.X/Atex.c: 436:      
      +                          if(atexAquireGrp[i].kPa > maxPressure)
  2414  00013E  503D               	movf	atexVerifyPressures@i_1857^0,w,c
  2415  000140  0D0A               	mullw	10
  2416  000142  0E99               	movlw	low (_atexAquireGrp+2)
  2417  000144  24F3               	addwf	243,w,c
  2418  000146  6ED9               	movwf	fsr2l,c
  2419  000148  0E00               	movlw	high (_atexAquireGrp+2)
  2420  00014A  20F4               	addwfc	prodh,w,c
  2421  00014C  6EDA               	movwf	fsr2h,c
  2422  00014E  50DE               	movf	postinc2,w,c
  2423  000150  5C37               	subwf	atexVerifyPressures@maxPressure^0,w,c
  2424  000152  B0D8               	btfsc	status,0,c
  2425  000154  EFAE  F000         	goto	u1971
  2426  000158  EFB0  F000         	goto	u1970
  2427  00015C                     u1971:
  2428  00015C  EFBA  F000         	goto	l3984
  2429  000160                     u1970:
  2430  000160                     
  2431                           ;C:/Users/Robert.Finch/OneDrive - Mini-Cam Ltd/Pic/Atex/PCB-005-419.X/Atex.c: 437:      
      +                          {;C:/Users/Robert.Finch/OneDrive - Mini-Cam Ltd/Pic/Atex/PCB-005-419.X/Atex.c: 438:     
      +                            maxPressure = atexAquireGrp[i].kPa;
  2432  000160  503D               	movf	atexVerifyPressures@i_1857^0,w,c
  2433  000162  0D0A               	mullw	10
  2434  000164  0E99               	movlw	low (_atexAquireGrp+2)
  2435  000166  24F3               	addwf	243,w,c
  2436  000168  6ED9               	movwf	fsr2l,c
  2437  00016A  0E00               	movlw	high (_atexAquireGrp+2)
  2438  00016C  20F4               	addwfc	prodh,w,c
  2439  00016E  6EDA               	movwf	fsr2h,c
  2440  000170  50DF               	movf	indf2,w,c
  2441  000172  6E37               	movwf	atexVerifyPressures@maxPressure^0,c
  2442  000174                     l3984:
  2443                           
  2444                           ;C:/Users/Robert.Finch/OneDrive - Mini-Cam Ltd/Pic/Atex/PCB-005-419.X/Atex.c: 440:     }
  2445  000174  2A3D               	incf	atexVerifyPressures@i_1857^0,f,c
  2446  000176  0E01               	movlw	1
  2447  000178  643D               	cpfsgt	atexVerifyPressures@i_1857^0,c
  2448  00017A  EFC1  F000         	goto	u1981
  2449  00017E  EFC3  F000         	goto	u1980
  2450  000182                     u1981:
  2451  000182  EF9F  F000         	goto	l3980
  2452  000186                     u1980:
  2453  000186                     
  2454                           ;C:/Users/Robert.Finch/OneDrive - Mini-Cam Ltd/Pic/Atex/PCB-005-419.X/Atex.c: 442:     i
      +                          f(maxPressure < (5 + minPressure))
  2455  000186  5036               	movf	atexVerifyPressures@minPressure^0,w,c
  2456  000188  6E2E               	movwf	??_atexVerifyPressures^0,c
  2457  00018A  6A2F               	clrf	(??_atexVerifyPressures+1)^0,c
  2458  00018C  0E05               	movlw	5
  2459  00018E  262E               	addwf	??_atexVerifyPressures^0,f,c
  2460  000190  0E00               	movlw	0
  2461  000192  222F               	addwfc	(??_atexVerifyPressures+1)^0,f,c
  2462  000194  5037               	movf	atexVerifyPressures@maxPressure^0,w,c
  2463  000196  6E30               	movwf	(??_atexVerifyPressures+2)^0,c
  2464  000198  6A31               	clrf	(??_atexVerifyPressures+3)^0,c
  2465  00019A  502E               	movf	??_atexVerifyPressures^0,w,c
  2466  00019C  5C30               	subwf	(??_atexVerifyPressures+2)^0,w,c
  2467  00019E  5031               	movf	(??_atexVerifyPressures+3)^0,w,c
  2468  0001A0  0A80               	xorlw	128
  2469  0001A2  6E32               	movwf	(??_atexVerifyPressures+4)^0,c
  2470  0001A4  502F               	movf	(??_atexVerifyPressures+1)^0,w,c
  2471  0001A6  0A80               	xorlw	128
  2472  0001A8  5832               	subwfb	(??_atexVerifyPressures+4)^0,w,c
  2473  0001AA  B0D8               	btfsc	status,0,c
  2474  0001AC  EFDA  F000         	goto	u1991
  2475  0001B0  EFDC  F000         	goto	u1990
  2476  0001B4                     u1991:
  2477  0001B4  EFB3  F001         	goto	l4064
  2478  0001B8                     u1990:
  2479  0001B8                     
  2480                           ;C:/Users/Robert.Finch/OneDrive - Mini-Cam Ltd/Pic/Atex/PCB-005-419.X/Atex.c: 443:     {
      +                          ;C:/Users/Robert.Finch/OneDrive - Mini-Cam Ltd/Pic/Atex/PCB-005-419.X/Atex.c: 444:      
      +                          avState = avCheckPressureRangeGroupTwo;
  2481  0001B8  0E04               	movlw	4
  2482  0001BA  6E40               	movwf	atexVerifyPressures@avState^0,c
  2483  0001BC  EFB3  F001         	goto	l4064
  2484  0001C0                     l3992:
  2485                           
  2486                           ;C:/Users/Robert.Finch/OneDrive - Mini-Cam Ltd/Pic/Atex/PCB-005-419.X/Atex.c: 451:    {;
      +                          C:/Users/Robert.Finch/OneDrive - Mini-Cam Ltd/Pic/Atex/PCB-005-419.X/Atex.c: 452:       
      +                                    travelFlagsAtexVerifyPressure |= 0x08;
  2487  0001C0  0100               	movlb	0	; () banked
  2488  0001C2  878F               	bsf	_travelFlagsAtexVerifyPressure& (0+255),3,b
  2489  0001C4                     
  2490                           ; BSR set to: 0
  2491                           ;C:/Users/Robert.Finch/OneDrive - Mini-Cam Ltd/Pic/Atex/PCB-005-419.X/Atex.c: 453:     a
      +                          vState = avUnsafe;
  2492  0001C4  0E06               	movlw	6
  2493  0001C6  6E40               	movwf	atexVerifyPressures@avState^0,c
  2494  0001C8                     
  2495                           ; BSR set to: 0
  2496                           ;C:/Users/Robert.Finch/OneDrive - Mini-Cam Ltd/Pic/Atex/PCB-005-419.X/Atex.c: 455:     u
      +                          int8_t minPressure = 0xFF,
  2497  0001C8  6838               	setf	atexVerifyPressures@minPressure_1858^0,c
  2498  0001CA                     
  2499                           ; BSR set to: 0
  2500                           ;C:/Users/Robert.Finch/OneDrive - Mini-Cam Ltd/Pic/Atex/PCB-005-419.X/Atex.c: 456:      
      +                           maxPressure = 0,
  2501  0001CA  0E00               	movlw	0
  2502  0001CC  6E39               	movwf	atexVerifyPressures@maxPressure_1859^0,c
  2503  0001CE                     
  2504                           ; BSR set to: 0
  2505                           ;C:/Users/Robert.Finch/OneDrive - Mini-Cam Ltd/Pic/Atex/PCB-005-419.X/Atex.c: 460:     f
      +                          or(uint8_t i =2;i<(((sizeof(atexAquireGrp))/(sizeof(atexPressure)))/1);i++)
  2506  0001CE  0E02               	movlw	2
  2507  0001D0  6E3E               	movwf	atexVerifyPressures@i_1861^0,c
  2508  0001D2                     l4008:
  2509                           
  2510                           ;C:/Users/Robert.Finch/OneDrive - Mini-Cam Ltd/Pic/Atex/PCB-005-419.X/Atex.c: 461:     {
      +                          ;C:/Users/Robert.Finch/OneDrive - Mini-Cam Ltd/Pic/Atex/PCB-005-419.X/Atex.c: 462:      
      +                          if(atexAquireGrp[i].kPa < minPressure)
  2511  0001D2  503E               	movf	atexVerifyPressures@i_1861^0,w,c
  2512  0001D4  0D0A               	mullw	10
  2513  0001D6  0E99               	movlw	low (_atexAquireGrp+2)
  2514  0001D8  24F3               	addwf	243,w,c
  2515  0001DA  6ED9               	movwf	fsr2l,c
  2516  0001DC  0E00               	movlw	high (_atexAquireGrp+2)
  2517  0001DE  20F4               	addwfc	prodh,w,c
  2518  0001E0  6EDA               	movwf	fsr2h,c
  2519  0001E2  5038               	movf	atexVerifyPressures@minPressure_1858^0,w,c
  2520  0001E4  5CDE               	subwf	postinc2,w,c
  2521  0001E6  B0D8               	btfsc	status,0,c
  2522  0001E8  EFF8  F000         	goto	u2001
  2523  0001EC  EFFA  F000         	goto	u2000
  2524  0001F0                     u2001:
  2525  0001F0  EF04  F001         	goto	l4012
  2526  0001F4                     u2000:
  2527  0001F4                     
  2528                           ;C:/Users/Robert.Finch/OneDrive - Mini-Cam Ltd/Pic/Atex/PCB-005-419.X/Atex.c: 463:      
      +                          {;C:/Users/Robert.Finch/OneDrive - Mini-Cam Ltd/Pic/Atex/PCB-005-419.X/Atex.c: 464:     
      +                            minPressure = atexAquireGrp[i].kPa;
  2529  0001F4  503E               	movf	atexVerifyPressures@i_1861^0,w,c
  2530  0001F6  0D0A               	mullw	10
  2531  0001F8  0E99               	movlw	low (_atexAquireGrp+2)
  2532  0001FA  24F3               	addwf	243,w,c
  2533  0001FC  6ED9               	movwf	fsr2l,c
  2534  0001FE  0E00               	movlw	high (_atexAquireGrp+2)
  2535  000200  20F4               	addwfc	prodh,w,c
  2536  000202  6EDA               	movwf	fsr2h,c
  2537  000204  50DF               	movf	indf2,w,c
  2538  000206  6E38               	movwf	atexVerifyPressures@minPressure_1858^0,c
  2539  000208                     l4012:
  2540                           
  2541                           ;C:/Users/Robert.Finch/OneDrive - Mini-Cam Ltd/Pic/Atex/PCB-005-419.X/Atex.c: 466:     }
  2542  000208  2A3E               	incf	atexVerifyPressures@i_1861^0,f,c
  2543  00020A  0E03               	movlw	3
  2544  00020C  643E               	cpfsgt	atexVerifyPressures@i_1861^0,c
  2545  00020E  EF0B  F001         	goto	u2011
  2546  000212  EF0D  F001         	goto	u2010
  2547  000216                     u2011:
  2548  000216  EFE9  F000         	goto	l4008
  2549  00021A                     u2010:
  2550  00021A                     
  2551                           ;C:/Users/Robert.Finch/OneDrive - Mini-Cam Ltd/Pic/Atex/PCB-005-419.X/Atex.c: 469:     f
      +                          or(uint8_t i =2;i<(((sizeof(atexAquireGrp))/(sizeof(atexPressure)))/1);i++)
  2552  00021A  0E02               	movlw	2
  2553  00021C  6E3F               	movwf	atexVerifyPressures@i_1862^0,c
  2554  00021E                     l4022:
  2555                           
  2556                           ;C:/Users/Robert.Finch/OneDrive - Mini-Cam Ltd/Pic/Atex/PCB-005-419.X/Atex.c: 470:     {
      +                          ;C:/Users/Robert.Finch/OneDrive - Mini-Cam Ltd/Pic/Atex/PCB-005-419.X/Atex.c: 471:      
      +                          if(atexAquireGrp[i].kPa > maxPressure)
  2557  00021E  503F               	movf	atexVerifyPressures@i_1862^0,w,c
  2558  000220  0D0A               	mullw	10
  2559  000222  0E99               	movlw	low (_atexAquireGrp+2)
  2560  000224  24F3               	addwf	243,w,c
  2561  000226  6ED9               	movwf	fsr2l,c
  2562  000228  0E00               	movlw	high (_atexAquireGrp+2)
  2563  00022A  20F4               	addwfc	prodh,w,c
  2564  00022C  6EDA               	movwf	fsr2h,c
  2565  00022E  50DE               	movf	postinc2,w,c
  2566  000230  5C39               	subwf	atexVerifyPressures@maxPressure_1859^0,w,c
  2567  000232  B0D8               	btfsc	status,0,c
  2568  000234  EF1E  F001         	goto	u2021
  2569  000238  EF20  F001         	goto	u2020
  2570  00023C                     u2021:
  2571  00023C  EF2A  F001         	goto	l4026
  2572  000240                     u2020:
  2573  000240                     
  2574                           ;C:/Users/Robert.Finch/OneDrive - Mini-Cam Ltd/Pic/Atex/PCB-005-419.X/Atex.c: 472:      
      +                          {;C:/Users/Robert.Finch/OneDrive - Mini-Cam Ltd/Pic/Atex/PCB-005-419.X/Atex.c: 473:     
      +                            maxPressure = atexAquireGrp[i].kPa;
  2575  000240  503F               	movf	atexVerifyPressures@i_1862^0,w,c
  2576  000242  0D0A               	mullw	10
  2577  000244  0E99               	movlw	low (_atexAquireGrp+2)
  2578  000246  24F3               	addwf	243,w,c
  2579  000248  6ED9               	movwf	fsr2l,c
  2580  00024A  0E00               	movlw	high (_atexAquireGrp+2)
  2581  00024C  20F4               	addwfc	prodh,w,c
  2582  00024E  6EDA               	movwf	fsr2h,c
  2583  000250  50DF               	movf	indf2,w,c
  2584  000252  6E39               	movwf	atexVerifyPressures@maxPressure_1859^0,c
  2585  000254                     l4026:
  2586                           
  2587                           ;C:/Users/Robert.Finch/OneDrive - Mini-Cam Ltd/Pic/Atex/PCB-005-419.X/Atex.c: 475:     }
  2588  000254  2A3F               	incf	atexVerifyPressures@i_1862^0,f,c
  2589  000256  0E03               	movlw	3
  2590  000258  643F               	cpfsgt	atexVerifyPressures@i_1862^0,c
  2591  00025A  EF31  F001         	goto	u2031
  2592  00025E  EF33  F001         	goto	u2030
  2593  000262                     u2031:
  2594  000262  EF0F  F001         	goto	l4022
  2595  000266                     u2030:
  2596  000266                     
  2597                           ;C:/Users/Robert.Finch/OneDrive - Mini-Cam Ltd/Pic/Atex/PCB-005-419.X/Atex.c: 477:     i
      +                          f(maxPressure < (5 + minPressure))
  2598  000266  5038               	movf	atexVerifyPressures@minPressure_1858^0,w,c
  2599  000268  6E2E               	movwf	??_atexVerifyPressures^0,c
  2600  00026A  6A2F               	clrf	(??_atexVerifyPressures+1)^0,c
  2601  00026C  0E05               	movlw	5
  2602  00026E  262E               	addwf	??_atexVerifyPressures^0,f,c
  2603  000270  0E00               	movlw	0
  2604  000272  222F               	addwfc	(??_atexVerifyPressures+1)^0,f,c
  2605  000274  5039               	movf	atexVerifyPressures@maxPressure_1859^0,w,c
  2606  000276  6E30               	movwf	(??_atexVerifyPressures+2)^0,c
  2607  000278  6A31               	clrf	(??_atexVerifyPressures+3)^0,c
  2608  00027A  502E               	movf	??_atexVerifyPressures^0,w,c
  2609  00027C  5C30               	subwf	(??_atexVerifyPressures+2)^0,w,c
  2610  00027E  5031               	movf	(??_atexVerifyPressures+3)^0,w,c
  2611  000280  0A80               	xorlw	128
  2612  000282  6E32               	movwf	(??_atexVerifyPressures+4)^0,c
  2613  000284  502F               	movf	(??_atexVerifyPressures+1)^0,w,c
  2614  000286  0A80               	xorlw	128
  2615  000288  5832               	subwfb	(??_atexVerifyPressures+4)^0,w,c
  2616  00028A  B0D8               	btfsc	status,0,c
  2617  00028C  EF4A  F001         	goto	u2041
  2618  000290  EF4C  F001         	goto	u2040
  2619  000294                     u2041:
  2620  000294  EFB3  F001         	goto	l4064
  2621  000298                     u2040:
  2622  000298                     
  2623                           ;C:/Users/Robert.Finch/OneDrive - Mini-Cam Ltd/Pic/Atex/PCB-005-419.X/Atex.c: 478:     {
      +                          ;C:/Users/Robert.Finch/OneDrive - Mini-Cam Ltd/Pic/Atex/PCB-005-419.X/Atex.c: 479:      
      +                          avState = avAtexSafe;
  2624  000298  0E05               	movlw	5
  2625  00029A  6E40               	movwf	atexVerifyPressures@avState^0,c
  2626  00029C  EFB3  F001         	goto	l4064
  2627  0002A0                     l4034:
  2628                           
  2629                           ;C:/Users/Robert.Finch/OneDrive - Mini-Cam Ltd/Pic/Atex/PCB-005-419.X/Atex.c: 486:    {;
      +                          C:/Users/Robert.Finch/OneDrive - Mini-Cam Ltd/Pic/Atex/PCB-005-419.X/Atex.c: 487:       
      +                                    travelFlagsAtexVerifyPressure |= 0x10;
  2630  0002A0  0100               	movlb	0	; () banked
  2631  0002A2  898F               	bsf	_travelFlagsAtexVerifyPressure& (0+255),4,b
  2632  0002A4                     
  2633                           ; BSR set to: 0
  2634                           ;C:/Users/Robert.Finch/OneDrive - Mini-Cam Ltd/Pic/Atex/PCB-005-419.X/Atex.c: 488:     a
      +                          vState = avExit;
  2635  0002A4  0E00               	movlw	0
  2636  0002A6  6E40               	movwf	atexVerifyPressures@avState^0,c
  2637                           
  2638                           ;C:/Users/Robert.Finch/OneDrive - Mini-Cam Ltd/Pic/Atex/PCB-005-419.X/Atex.c: 489:     b
      +                          reak;
  2639  0002A8  EFB3  F001         	goto	l4064
  2640  0002AC                     l4038:
  2641                           
  2642                           ;C:/Users/Robert.Finch/OneDrive - Mini-Cam Ltd/Pic/Atex/PCB-005-419.X/Atex.c: 493:    {;
      +                          C:/Users/Robert.Finch/OneDrive - Mini-Cam Ltd/Pic/Atex/PCB-005-419.X/Atex.c: 494:       
      +                                    travelFlagsAtexVerifyPressure |= 0x20;
  2643  0002AC  0100               	movlb	0	; () banked
  2644  0002AE  8B8F               	bsf	_travelFlagsAtexVerifyPressure& (0+255),5,b
  2645  0002B0                     
  2646                           ; BSR set to: 0
  2647                           ;C:/Users/Robert.Finch/OneDrive - Mini-Cam Ltd/Pic/Atex/PCB-005-419.X/Atex.c: 495:      
      +                                     memset(&atexAquireGrp,0,sizeof(atexAquireGrp));
  2648  0002B0  0E97               	movlw	low _atexAquireGrp
  2649  0002B2  6E01               	movwf	memset@dest^0,c
  2650  0002B4  0E00               	movlw	high _atexAquireGrp
  2651  0002B6  6E02               	movwf	(memset@dest+1)^0,c
  2652  0002B8  0E00               	movlw	0
  2653  0002BA  6E04               	movwf	(memset@c+1)^0,c
  2654  0002BC  0E00               	movlw	0
  2655  0002BE  6E03               	movwf	memset@c^0,c
  2656  0002C0  0E00               	movlw	0
  2657  0002C2  6E06               	movwf	(memset@n+1)^0,c
  2658  0002C4  0E28               	movlw	40
  2659  0002C6  6E05               	movwf	memset@n^0,c
  2660  0002C8  EC26  F007         	call	_memset	;wreg free
  2661  0002CC                     
  2662                           ;C:/Users/Robert.Finch/OneDrive - Mini-Cam Ltd/Pic/Atex/PCB-005-419.X/Atex.c: 496:     a
      +                          vState = avExit;
  2663  0002CC  0E00               	movlw	0
  2664  0002CE  6E40               	movwf	atexVerifyPressures@avState^0,c
  2665  0002D0                     
  2666                           ;C:/Users/Robert.Finch/OneDrive - Mini-Cam Ltd/Pic/Atex/PCB-005-419.X/Atex.c: 497:     r
      +                          eturnVal = 1;
  2667  0002D0  0E01               	movlw	1
  2668  0002D2  6E35               	movwf	atexVerifyPressures@returnVal^0,c
  2669                           
  2670                           ;C:/Users/Robert.Finch/OneDrive - Mini-Cam Ltd/Pic/Atex/PCB-005-419.X/Atex.c: 498:     b
      +                          reak;
  2671  0002D4  EFB3  F001         	goto	l4064
  2672  0002D8                     l4046:
  2673                           
  2674                           ;C:/Users/Robert.Finch/OneDrive - Mini-Cam Ltd/Pic/Atex/PCB-005-419.X/Atex.c: 502:    {;
      +                          C:/Users/Robert.Finch/OneDrive - Mini-Cam Ltd/Pic/Atex/PCB-005-419.X/Atex.c: 503:       
      +                                    travelFlagsAtexVerifyPressure |= 0x40;
  2675  0002D8  0100               	movlb	0	; () banked
  2676  0002DA  8D8F               	bsf	_travelFlagsAtexVerifyPressure& (0+255),6,b
  2677  0002DC                     
  2678                           ; BSR set to: 0
  2679                           ;C:/Users/Robert.Finch/OneDrive - Mini-Cam Ltd/Pic/Atex/PCB-005-419.X/Atex.c: 504:      
      +                                     memset(&atexAquireGrp,0,sizeof(atexAquireGrp));
  2680  0002DC  0E97               	movlw	low _atexAquireGrp
  2681  0002DE  6E01               	movwf	memset@dest^0,c
  2682  0002E0  0E00               	movlw	high _atexAquireGrp
  2683  0002E2  6E02               	movwf	(memset@dest+1)^0,c
  2684  0002E4  0E00               	movlw	0
  2685  0002E6  6E04               	movwf	(memset@c+1)^0,c
  2686  0002E8  0E00               	movlw	0
  2687  0002EA  6E03               	movwf	memset@c^0,c
  2688  0002EC  0E00               	movlw	0
  2689  0002EE  6E06               	movwf	(memset@n+1)^0,c
  2690  0002F0  0E28               	movlw	40
  2691  0002F2  6E05               	movwf	memset@n^0,c
  2692  0002F4  EC26  F007         	call	_memset	;wreg free
  2693  0002F8                     
  2694                           ;C:/Users/Robert.Finch/OneDrive - Mini-Cam Ltd/Pic/Atex/PCB-005-419.X/Atex.c: 505:     a
      +                          vState = avExit;
  2695  0002F8  0E00               	movlw	0
  2696  0002FA  6E40               	movwf	atexVerifyPressures@avState^0,c
  2697  0002FC                     
  2698                           ;C:/Users/Robert.Finch/OneDrive - Mini-Cam Ltd/Pic/Atex/PCB-005-419.X/Atex.c: 506:     r
      +                          eturnVal = 0;
  2699  0002FC  0E00               	movlw	0
  2700  0002FE  6E35               	movwf	atexVerifyPressures@returnVal^0,c
  2701  000300                     
  2702                           ;C:/Users/Robert.Finch/OneDrive - Mini-Cam Ltd/Pic/Atex/PCB-005-419.X/Atex.c: 508:     n
      +                          otifyAtexUnsafeWithOverride();
  2703  000300  EC5C  F005         	call	_notifyAtexUnsafeWithOverride	;wreg free
  2704                           
  2705                           ;C:/Users/Robert.Finch/OneDrive - Mini-Cam Ltd/Pic/Atex/PCB-005-419.X/Atex.c: 509:     b
      +                          reak;
  2706  000304  EFB3  F001         	goto	l4064
  2707  000308                     l4056:
  2708                           
  2709                           ;C:/Users/Robert.Finch/OneDrive - Mini-Cam Ltd/Pic/Atex/PCB-005-419.X/Atex.c: 514:    {;
      +                          C:/Users/Robert.Finch/OneDrive - Mini-Cam Ltd/Pic/Atex/PCB-005-419.X/Atex.c: 515:     tr
      +                          avelFlagsAtexVerifyPressure |= 0x80;
  2710  000308  0100               	movlb	0	; () banked
  2711  00030A  8F8F               	bsf	_travelFlagsAtexVerifyPressure& (0+255),7,b
  2712  00030C                     
  2713                           ; BSR set to: 0
  2714                           ;C:/Users/Robert.Finch/OneDrive - Mini-Cam Ltd/Pic/Atex/PCB-005-419.X/Atex.c: 516:     n
      +                          otifyAtexUnsafe();
  2715  00030C  EC72  F00D         	call	_notifyAtexUnsafe	;wreg free
  2716                           
  2717                           ;C:/Users/Robert.Finch/OneDrive - Mini-Cam Ltd/Pic/Atex/PCB-005-419.X/Atex.c: 518:     b
      +                          reak;
  2718  000310  EFB3  F001         	goto	l4064
  2719  000314                     l4062:
  2720  000314  5040               	movf	atexVerifyPressures@avState^0,w,c
  2721  000316  6E2E               	movwf	??_atexVerifyPressures^0,c
  2722  000318  6A2F               	clrf	(??_atexVerifyPressures+1)^0,c
  2723                           
  2724                           ; Switch on 2 bytes has been partitioned into a top level switch of size 1, and 1 sub-sw
      +                          itches
  2725                           ; Switch size 1, requested type "simple"
  2726                           ; Number of cases is 1, Range of values is 0 to 0
  2727                           ; switch strategies available:
  2728                           ; Name         Instructions Cycles
  2729                           ; simple_byte            4     3 (average)
  2730                           ;	Chosen strategy is simple_byte
  2731  00031A  502F               	movf	(??_atexVerifyPressures+1)^0,w,c
  2732  00031C  0A00               	xorlw	0	; case 0
  2733  00031E  B4D8               	btfsc	status,2,c
  2734  000320  EF94  F001         	goto	l4494
  2735  000324  EF84  F001         	goto	l4056
  2736  000328                     l4494:
  2737                           
  2738                           ; Switch size 1, requested type "simple"
  2739                           ; Number of cases is 7, Range of values is 0 to 6
  2740                           ; switch strategies available:
  2741                           ; Name         Instructions Cycles
  2742                           ; simple_byte           22    12 (average)
  2743                           ;	Chosen strategy is simple_byte
  2744  000328  502E               	movf	??_atexVerifyPressures^0,w,c
  2745  00032A  0A00               	xorlw	0	; case 0
  2746  00032C  B4D8               	btfsc	status,2,c
  2747  00032E  EF50  F001         	goto	l4034
  2748  000332  0A01               	xorlw	1	; case 1
  2749  000334  B4D8               	btfsc	status,2,c
  2750  000336  EF18  F000         	goto	l3910
  2751  00033A  0A03               	xorlw	3	; case 2
  2752  00033C  B4D8               	btfsc	status,2,c
  2753  00033E  EF3B  F000         	goto	l3928
  2754  000342  0A01               	xorlw	1	; case 3
  2755  000344  B4D8               	btfsc	status,2,c
  2756  000346  EF70  F000         	goto	l3950
  2757  00034A  0A07               	xorlw	7	; case 4
  2758  00034C  B4D8               	btfsc	status,2,c
  2759  00034E  EFE0  F000         	goto	l3992
  2760  000352  0A01               	xorlw	1	; case 5
  2761  000354  B4D8               	btfsc	status,2,c
  2762  000356  EF56  F001         	goto	l4038
  2763  00035A  0A03               	xorlw	3	; case 6
  2764  00035C  B4D8               	btfsc	status,2,c
  2765  00035E  EF6C  F001         	goto	l4046
  2766  000362  EF84  F001         	goto	l4056
  2767  000366                     l4064:
  2768                           
  2769                           ;C:/Users/Robert.Finch/OneDrive - Mini-Cam Ltd/Pic/Atex/PCB-005-419.X/Atex.c: 376:  whil
      +                          e(avState)
  2770  000366  5040               	movf	atexVerifyPressures@avState^0,w,c
  2771  000368  A4D8               	btfss	status,2,c
  2772  00036A  EFB9  F001         	goto	u2051
  2773  00036E  EFBB  F001         	goto	u2050
  2774  000372                     u2051:
  2775  000372  EF8A  F001         	goto	l4062
  2776  000376                     u2050:
  2777  000376                     
  2778                           ;C:/Users/Robert.Finch/OneDrive - Mini-Cam Ltd/Pic/Atex/PCB-005-419.X/Atex.c: 523: retur
      +                          n returnVal;
  2779  000376  5035               	movf	atexVerifyPressures@returnVal^0,w,c
  2780  000378  0012               	return		;funcret
  2781  00037A                     __end_of_atexVerifyPressures:
  2782                           	opt callstack 0
  2783                           
  2784 ;; *************** function _notifyAtexUnsafeWithOverride *****************
  2785 ;; Defined at:
  2786 ;;		line 671 in file "C:/Users/Robert.Finch/OneDrive - Mini-Cam Ltd/Pic/Atex/PCB-005-419.X/Atex.c"
  2787 ;; Parameters:    Size  Location     Type
  2788 ;;		None
  2789 ;; Auto vars:     Size  Location     Type
  2790 ;;  atexDump       14   31[COMRAM] struct .
  2791 ;;  timeNow         4   27[COMRAM] unsigned long 
  2792 ;;  ledTimer        4   23[COMRAM] unsigned long 
  2793 ;; Return value:  Size  Location     Type
  2794 ;;                  1    wreg      void 
  2795 ;; Registers used:
  2796 ;;		wreg, fsr2l, fsr2h, status,2, status,0, cstack
  2797 ;; Tracked objects:
  2798 ;;		On entry : 0/0
  2799 ;;		On exit  : 0/0
  2800 ;;		Unchanged: 0/0
  2801 ;; Data sizes:     COMRAM   BANK0   BANK1   BANK2   BANK3   BANK4   BANK5   BANK6   BANK7   BANK8   BANK9  BANK10  BANK1
      +1  BANK12  BANK13  BANK14  BANK15
  2802 ;;      Params:         0       0       0       0       0       0       0       0       0       0       0       0       
      +0       0       0       0       0
  2803 ;;      Locals:        22       0       0       0       0       0       0       0       0       0       0       0       
      +0       0       0       0       0
  2804 ;;      Temps:          1       0       0       0       0       0       0       0       0       0       0       0       
      +0       0       0       0       0
  2805 ;;      Totals:        23       0       0       0       0       0       0       0       0       0       0       0       
      +0       0       0       0       0
  2806 ;;Total ram usage:       23 bytes
  2807 ;; Hardware stack levels used:    1
  2808 ;; Hardware stack levels required when called:    7
  2809 ;; This function calls:
  2810 ;;		_CAN_receive
  2811 ;;		_atexPowerPermit
  2812 ;;		_memset
  2813 ;;		_msTickGet
  2814 ;; This function is called by:
  2815 ;;		_atexVerifyPressures
  2816 ;;		_atexPerformChecks
  2817 ;; This function uses a non-reentrant model
  2818 ;;
  2819                           
  2820                           	psect	text6
  2821  000AB8                     __ptext6:
  2822                           	opt callstack 0
  2823  000AB8                     _notifyAtexUnsafeWithOverride:
  2824                           	opt callstack 22
  2825  000AB8                     
  2826                           ;C:/Users/Robert.Finch/OneDrive - Mini-Cam Ltd/Pic/Atex/PCB-005-419.X/Atex.c: 673:     u
      +                          CAN_MSG atexDump;;C:/Users/Robert.Finch/OneDrive - Mini-Cam Ltd/Pic/Atex/PCB-005-419.X/A
      +                          tex.c: 674:     uint32_t ledTimer = 0,
  2827  000AB8  0E00               	movlw	0
  2828  000ABA  6E18               	movwf	notifyAtexUnsafeWithOverride@ledTimer^0,c
  2829  000ABC  0E00               	movlw	0
  2830  000ABE  6E19               	movwf	(notifyAtexUnsafeWithOverride@ledTimer+1)^0,c
  2831  000AC0  0E00               	movlw	0
  2832  000AC2  6E1A               	movwf	(notifyAtexUnsafeWithOverride@ledTimer+2)^0,c
  2833  000AC4  0E00               	movlw	0
  2834  000AC6  6E1B               	movwf	(notifyAtexUnsafeWithOverride@ledTimer+3)^0,c
  2835  000AC8  92BA               	bcf	186,1,c	;volatile
  2836  000ACA  88BA               	bsf	186,4,c	;volatile
  2837  000ACC  8ABA               	bsf	186,5,c	;volatile
  2838  000ACE                     
  2839                           ;C:/Users/Robert.Finch/OneDrive - Mini-Cam Ltd/Pic/Atex/PCB-005-419.X/Atex.c: 684:     m
      +                          emset(&atexAquireGrp,0,sizeof(atexAquireGrp));
  2840  000ACE  0E97               	movlw	low _atexAquireGrp
  2841  000AD0  6E01               	movwf	memset@dest^0,c
  2842  000AD2  0E00               	movlw	high _atexAquireGrp
  2843  000AD4  6E02               	movwf	(memset@dest+1)^0,c
  2844  000AD6  0E00               	movlw	0
  2845  000AD8  6E04               	movwf	(memset@c+1)^0,c
  2846  000ADA  0E00               	movlw	0
  2847  000ADC  6E03               	movwf	memset@c^0,c
  2848  000ADE  0E00               	movlw	0
  2849  000AE0  6E06               	movwf	(memset@n+1)^0,c
  2850  000AE2  0E28               	movlw	40
  2851  000AE4  6E05               	movwf	memset@n^0,c
  2852  000AE6  EC26  F007         	call	_memset	;wreg free
  2853  000AEA                     
  2854                           ;C:/Users/Robert.Finch/OneDrive - Mini-Cam Ltd/Pic/Atex/PCB-005-419.X/Atex.c: 685:     m
      +                          emset(&atexAwaitingDataGrp,0,sizeof(atexAwaitingDataGrp));
  2855  000AEA  0EBF               	movlw	low _atexAwaitingDataGrp
  2856  000AEC  6E01               	movwf	memset@dest^0,c
  2857  000AEE  0E00               	movlw	high _atexAwaitingDataGrp
  2858  000AF0  6E02               	movwf	(memset@dest+1)^0,c
  2859  000AF2  0E00               	movlw	0
  2860  000AF4  6E04               	movwf	(memset@c+1)^0,c
  2861  000AF6  0E00               	movlw	0
  2862  000AF8  6E03               	movwf	memset@c^0,c
  2863  000AFA  0E00               	movlw	0
  2864  000AFC  6E06               	movwf	(memset@n+1)^0,c
  2865  000AFE  0E28               	movlw	40
  2866  000B00  6E05               	movwf	memset@n^0,c
  2867  000B02  EC26  F007         	call	_memset	;wreg free
  2868                           
  2869                           ;C:/Users/Robert.Finch/OneDrive - Mini-Cam Ltd/Pic/Atex/PCB-005-419.X/Atex.c: 687:     w
      +                          hile(!PORTCbits.RC1)
  2870  000B06  EFD0  F005         	goto	l3574
  2871  000B0A                     l1057:
  2872  000B0A  0004               	clrwdt		;# 
  2873  000B0C                     
  2874                           ;C:/Users/Robert.Finch/OneDrive - Mini-Cam Ltd/Pic/Atex/PCB-005-419.X/Atex.c: 693:      
      +                                 timeNow = msTickGet();
  2875  000B0C  EC83  F00F         	call	_msTickGet	;wreg free
  2876  000B10  0060  F004  F01C   	movff	?_msTickGet,notifyAtexUnsafeWithOverride@timeNow
  2877  000B16  0060  F008  F01D   	movff	?_msTickGet+1,notifyAtexUnsafeWithOverride@timeNow+1
  2878  000B1C  0060  F00C  F01E   	movff	?_msTickGet+2,notifyAtexUnsafeWithOverride@timeNow+2
  2879  000B22  0060  F010  F01F   	movff	?_msTickGet+3,notifyAtexUnsafeWithOverride@timeNow+3
  2880  000B28                     
  2881                           ;C:/Users/Robert.Finch/OneDrive - Mini-Cam Ltd/Pic/Atex/PCB-005-419.X/Atex.c: 694:      
      +                                 if(ledTimer < timeNow)
  2882  000B28  501C               	movf	notifyAtexUnsafeWithOverride@timeNow^0,w,c
  2883  000B2A  5C18               	subwf	notifyAtexUnsafeWithOverride@ledTimer^0,w,c
  2884  000B2C  501D               	movf	(notifyAtexUnsafeWithOverride@timeNow+1)^0,w,c
  2885  000B2E  5819               	subwfb	(notifyAtexUnsafeWithOverride@ledTimer+1)^0,w,c
  2886  000B30  501E               	movf	(notifyAtexUnsafeWithOverride@timeNow+2)^0,w,c
  2887  000B32  581A               	subwfb	(notifyAtexUnsafeWithOverride@ledTimer+2)^0,w,c
  2888  000B34  501F               	movf	(notifyAtexUnsafeWithOverride@timeNow+3)^0,w,c
  2889  000B36  581B               	subwfb	(notifyAtexUnsafeWithOverride@ledTimer+3)^0,w,c
  2890  000B38  B0D8               	btfsc	status,0,c
  2891  000B3A  EFA1  F005         	goto	u1641
  2892  000B3E  EFA3  F005         	goto	u1640
  2893  000B42                     u1641:
  2894  000B42  EFC1  F005         	goto	l3570
  2895  000B46                     u1640:
  2896  000B46  BABA               	btfsc	186,5,c	;volatile
  2897  000B48  EFA8  F005         	goto	u1651
  2898  000B4C  EFAB  F005         	goto	u1650
  2899  000B50                     u1651:
  2900  000B50  0E01               	movlw	1
  2901  000B52  EFAC  F005         	goto	u1656
  2902  000B56                     u1650:
  2903  000B56  0E00               	movlw	0
  2904  000B58                     u1656:
  2905  000B58  0AFF               	xorlw	255
  2906  000B5A  6E17               	movwf	??_notifyAtexUnsafeWithOverride^0,c
  2907  000B5C  3A17               	swapf	??_notifyAtexUnsafeWithOverride^0,f,c
  2908  000B5E  4617               	rlncf	??_notifyAtexUnsafeWithOverride^0,f,c
  2909  000B60  50BA               	movf	186,w,c	;volatile
  2910  000B62  1817               	xorwf	??_notifyAtexUnsafeWithOverride^0,w,c
  2911  000B64  0BDF               	andlw	-33
  2912  000B66  1817               	xorwf	??_notifyAtexUnsafeWithOverride^0,w,c
  2913  000B68  6EBA               	movwf	186,c	;volatile
  2914  000B6A                     
  2915                           ;C:/Users/Robert.Finch/OneDrive - Mini-Cam Ltd/Pic/Atex/PCB-005-419.X/Atex.c: 697:      
      +                                     ledTimer = timeNow + 50;
  2916  000B6A  0E32               	movlw	50
  2917  000B6C  241C               	addwf	notifyAtexUnsafeWithOverride@timeNow^0,w,c
  2918  000B6E  6E18               	movwf	notifyAtexUnsafeWithOverride@ledTimer^0,c
  2919  000B70  0E00               	movlw	0
  2920  000B72  201D               	addwfc	(notifyAtexUnsafeWithOverride@timeNow+1)^0,w,c
  2921  000B74  6E19               	movwf	(notifyAtexUnsafeWithOverride@ledTimer+1)^0,c
  2922  000B76  0E00               	movlw	0
  2923  000B78  201E               	addwfc	(notifyAtexUnsafeWithOverride@timeNow+2)^0,w,c
  2924  000B7A  6E1A               	movwf	(notifyAtexUnsafeWithOverride@ledTimer+2)^0,c
  2925  000B7C  0E00               	movlw	0
  2926  000B7E  201F               	addwfc	(notifyAtexUnsafeWithOverride@timeNow+3)^0,w,c
  2927  000B80  6E1B               	movwf	(notifyAtexUnsafeWithOverride@ledTimer+3)^0,c
  2928  000B82                     l3570:
  2929                           
  2930                           ;C:/Users/Robert.Finch/OneDrive - Mini-Cam Ltd/Pic/Atex/PCB-005-419.X/Atex.c: 689:      
      +                             while(!PORTCbits.RC1)
  2931  000B82  A2CC               	btfss	204,1,c	;volatile
  2932  000B84  EFC6  F005         	goto	u1661
  2933  000B88  EFC8  F005         	goto	u1660
  2934  000B8C                     u1661:
  2935  000B8C  EF85  F005         	goto	l1057
  2936  000B90                     u1660:
  2937  000B90                     
  2938                           ;C:/Users/Robert.Finch/OneDrive - Mini-Cam Ltd/Pic/Atex/PCB-005-419.X/Atex.c: 701:      
      +                             _delay((unsigned long)((10)*(10000000/4000.0)));
  2939  000B90  0E21               	movlw	33
  2940  000B92  6E17               	movwf	??_notifyAtexUnsafeWithOverride^0,c
  2941  000B94  0E76               	movlw	118
  2942  000B96                     u2497:
  2943  000B96  2EE8               	decfsz	wreg,f,c
  2944  000B98  D7FE               	bra	u2497
  2945  000B9A  2E17               	decfsz	??_notifyAtexUnsafeWithOverride^0,f,c
  2946  000B9C  D7FC               	bra	u2497
  2947  000B9E  D000               	nop2	
  2948  000BA0                     l3574:
  2949                           
  2950                           ;C:/Users/Robert.Finch/OneDrive - Mini-Cam Ltd/Pic/Atex/PCB-005-419.X/Atex.c: 687:     w
      +                          hile(!PORTCbits.RC1)
  2951  000BA0  A2CC               	btfss	204,1,c	;volatile
  2952  000BA2  EFD5  F005         	goto	u1671
  2953  000BA6  EFD7  F005         	goto	u1670
  2954  000BAA                     u1671:
  2955  000BAA  EFC1  F005         	goto	l3570
  2956  000BAE                     u1670:
  2957  000BAE  82BA               	bsf	186,1,c	;volatile
  2958  000BB0  9ABA               	bcf	186,5,c	;volatile
  2959  000BB2  88BA               	bsf	186,4,c	;volatile
  2960  000BB4                     
  2961                           ;C:/Users/Robert.Finch/OneDrive - Mini-Cam Ltd/Pic/Atex/PCB-005-419.X/Atex.c: 707:     l
      +                          edTimer = 0;
  2962  000BB4  0E00               	movlw	0
  2963  000BB6  6E18               	movwf	notifyAtexUnsafeWithOverride@ledTimer^0,c
  2964  000BB8  0E00               	movlw	0
  2965  000BBA  6E19               	movwf	(notifyAtexUnsafeWithOverride@ledTimer+1)^0,c
  2966  000BBC  0E00               	movlw	0
  2967  000BBE  6E1A               	movwf	(notifyAtexUnsafeWithOverride@ledTimer+2)^0,c
  2968  000BC0  0E00               	movlw	0
  2969  000BC2  6E1B               	movwf	(notifyAtexUnsafeWithOverride@ledTimer+3)^0,c
  2970                           
  2971                           ;C:/Users/Robert.Finch/OneDrive - Mini-Cam Ltd/Pic/Atex/PCB-005-419.X/Atex.c: 709:     w
      +                          hile(PORTCbits.RC1)
  2972  000BC4  EF40  F006         	goto	l3588
  2973  000BC8                     l1072:
  2974  000BC8  0004               	clrwdt		;# 
  2975  000BCA                     
  2976                           ;C:/Users/Robert.Finch/OneDrive - Mini-Cam Ltd/Pic/Atex/PCB-005-419.X/Atex.c: 715:      
      +                                 timeNow = msTickGet();
  2977  000BCA  EC83  F00F         	call	_msTickGet	;wreg free
  2978  000BCE  0060  F004  F01C   	movff	?_msTickGet,notifyAtexUnsafeWithOverride@timeNow
  2979  000BD4  0060  F008  F01D   	movff	?_msTickGet+1,notifyAtexUnsafeWithOverride@timeNow+1
  2980  000BDA  0060  F00C  F01E   	movff	?_msTickGet+2,notifyAtexUnsafeWithOverride@timeNow+2
  2981  000BE0  0060  F010  F01F   	movff	?_msTickGet+3,notifyAtexUnsafeWithOverride@timeNow+3
  2982  000BE6                     
  2983                           ;C:/Users/Robert.Finch/OneDrive - Mini-Cam Ltd/Pic/Atex/PCB-005-419.X/Atex.c: 716:      
      +                                 if(ledTimer < timeNow)
  2984  000BE6  501C               	movf	notifyAtexUnsafeWithOverride@timeNow^0,w,c
  2985  000BE8  5C18               	subwf	notifyAtexUnsafeWithOverride@ledTimer^0,w,c
  2986  000BEA  501D               	movf	(notifyAtexUnsafeWithOverride@timeNow+1)^0,w,c
  2987  000BEC  5819               	subwfb	(notifyAtexUnsafeWithOverride@ledTimer+1)^0,w,c
  2988  000BEE  501E               	movf	(notifyAtexUnsafeWithOverride@timeNow+2)^0,w,c
  2989  000BF0  581A               	subwfb	(notifyAtexUnsafeWithOverride@ledTimer+2)^0,w,c
  2990  000BF2  501F               	movf	(notifyAtexUnsafeWithOverride@timeNow+3)^0,w,c
  2991  000BF4  581B               	subwfb	(notifyAtexUnsafeWithOverride@ledTimer+3)^0,w,c
  2992  000BF6  B0D8               	btfsc	status,0,c
  2993  000BF8  EF00  F006         	goto	u1681
  2994  000BFC  EF02  F006         	goto	u1680
  2995  000C00                     u1681:
  2996  000C00  EF31  F006         	goto	l3584
  2997  000C04                     u1680:
  2998  000C04  BABA               	btfsc	186,5,c	;volatile
  2999  000C06  EF07  F006         	goto	u1691
  3000  000C0A  EF0A  F006         	goto	u1690
  3001  000C0E                     u1691:
  3002  000C0E  0E01               	movlw	1
  3003  000C10  EF0B  F006         	goto	u1696
  3004  000C14                     u1690:
  3005  000C14  0E00               	movlw	0
  3006  000C16                     u1696:
  3007  000C16  0AFF               	xorlw	255
  3008  000C18  6E17               	movwf	??_notifyAtexUnsafeWithOverride^0,c
  3009  000C1A  3A17               	swapf	??_notifyAtexUnsafeWithOverride^0,f,c
  3010  000C1C  4617               	rlncf	??_notifyAtexUnsafeWithOverride^0,f,c
  3011  000C1E  50BA               	movf	186,w,c	;volatile
  3012  000C20  1817               	xorwf	??_notifyAtexUnsafeWithOverride^0,w,c
  3013  000C22  0BDF               	andlw	-33
  3014  000C24  1817               	xorwf	??_notifyAtexUnsafeWithOverride^0,w,c
  3015  000C26  6EBA               	movwf	186,c	;volatile
  3016  000C28  B8BA               	btfsc	186,4,c	;volatile
  3017  000C2A  EF19  F006         	goto	u1701
  3018  000C2E  EF1C  F006         	goto	u1700
  3019  000C32                     u1701:
  3020  000C32  0E01               	movlw	1
  3021  000C34  EF1D  F006         	goto	u1706
  3022  000C38                     u1700:
  3023  000C38  0E00               	movlw	0
  3024  000C3A                     u1706:
  3025  000C3A  0AFF               	xorlw	255
  3026  000C3C  6E17               	movwf	??_notifyAtexUnsafeWithOverride^0,c
  3027  000C3E  3A17               	swapf	??_notifyAtexUnsafeWithOverride^0,f,c
  3028  000C40  50BA               	movf	186,w,c	;volatile
  3029  000C42  1817               	xorwf	??_notifyAtexUnsafeWithOverride^0,w,c
  3030  000C44  0BEF               	andlw	-17
  3031  000C46  1817               	xorwf	??_notifyAtexUnsafeWithOverride^0,w,c
  3032  000C48  6EBA               	movwf	186,c	;volatile
  3033  000C4A                     
  3034                           ;C:/Users/Robert.Finch/OneDrive - Mini-Cam Ltd/Pic/Atex/PCB-005-419.X/Atex.c: 720:      
      +                                     ledTimer = timeNow + 500;
  3035  000C4A  0EF4               	movlw	244
  3036  000C4C  241C               	addwf	notifyAtexUnsafeWithOverride@timeNow^0,w,c
  3037  000C4E  6E18               	movwf	notifyAtexUnsafeWithOverride@ledTimer^0,c
  3038  000C50  0E01               	movlw	1
  3039  000C52  201D               	addwfc	(notifyAtexUnsafeWithOverride@timeNow+1)^0,w,c
  3040  000C54  6E19               	movwf	(notifyAtexUnsafeWithOverride@ledTimer+1)^0,c
  3041  000C56  0E00               	movlw	0
  3042  000C58  201E               	addwfc	(notifyAtexUnsafeWithOverride@timeNow+2)^0,w,c
  3043  000C5A  6E1A               	movwf	(notifyAtexUnsafeWithOverride@ledTimer+2)^0,c
  3044  000C5C  0E00               	movlw	0
  3045  000C5E  201F               	addwfc	(notifyAtexUnsafeWithOverride@timeNow+3)^0,w,c
  3046  000C60  6E1B               	movwf	(notifyAtexUnsafeWithOverride@ledTimer+3)^0,c
  3047  000C62                     l3584:
  3048                           
  3049                           ;C:/Users/Robert.Finch/OneDrive - Mini-Cam Ltd/Pic/Atex/PCB-005-419.X/Atex.c: 711:      
      +                             while(PORTCbits.RC1)
  3050  000C62  B2CC               	btfsc	204,1,c	;volatile
  3051  000C64  EF36  F006         	goto	u1711
  3052  000C68  EF38  F006         	goto	u1710
  3053  000C6C                     u1711:
  3054  000C6C  EFE4  F005         	goto	l1072
  3055  000C70                     u1710:
  3056  000C70                     
  3057                           ;C:/Users/Robert.Finch/OneDrive - Mini-Cam Ltd/Pic/Atex/PCB-005-419.X/Atex.c: 723:      
      +                             _delay((unsigned long)((10)*(10000000/4000.0)));
  3058  000C70  0E21               	movlw	33
  3059  000C72  6E17               	movwf	??_notifyAtexUnsafeWithOverride^0,c
  3060  000C74  0E76               	movlw	118
  3061  000C76                     u2507:
  3062  000C76  2EE8               	decfsz	wreg,f,c
  3063  000C78  D7FE               	bra	u2507
  3064  000C7A  2E17               	decfsz	??_notifyAtexUnsafeWithOverride^0,f,c
  3065  000C7C  D7FC               	bra	u2507
  3066  000C7E  D000               	nop2	
  3067  000C80                     l3588:
  3068                           
  3069                           ;C:/Users/Robert.Finch/OneDrive - Mini-Cam Ltd/Pic/Atex/PCB-005-419.X/Atex.c: 709:     w
      +                          hile(PORTCbits.RC1)
  3070  000C80  B2CC               	btfsc	204,1,c	;volatile
  3071  000C82  EF45  F006         	goto	u1721
  3072  000C86  EF47  F006         	goto	u1720
  3073  000C8A                     u1721:
  3074  000C8A  EF31  F006         	goto	l3584
  3075  000C8E                     u1720:
  3076  000C8E                     l3590:
  3077  000C8E  0E20               	movlw	low notifyAtexUnsafeWithOverride@atexDump
  3078  000C90  6E14               	movwf	CAN_receive@tempCanMsg^0,c
  3079  000C92  0E00               	movlw	high notifyAtexUnsafeWithOverride@atexDump
  3080  000C94  6E15               	movwf	(CAN_receive@tempCanMsg+1)^0,c
  3081  000C96  ECBD  F001         	call	_CAN_receive	;wreg free
  3082  000C9A  0900               	iorlw	0
  3083  000C9C  A4D8               	btfss	status,2,c
  3084  000C9E  EF53  F006         	goto	u1731
  3085  000CA2  EF55  F006         	goto	u1730
  3086  000CA6                     u1731:
  3087  000CA6  EF47  F006         	goto	l3590
  3088  000CAA                     u1730:
  3089  000CAA  8ABA               	bsf	186,5,c	;volatile
  3090  000CAC                     
  3091                           ;C:/Users/Robert.Finch/OneDrive - Mini-Cam Ltd/Pic/Atex/PCB-005-419.X/Atex.c: 730:     a
      +                          texPowerPermit();
  3092  000CAC  EC71  F00C         	call	_atexPowerPermit	;wreg free
  3093  000CB0  0012               	return		;funcret
  3094  000CB2                     __end_of_notifyAtexUnsafeWithOverride:
  3095                           	opt callstack 0
  3096                           
  3097 ;; *************** function _memset *****************
  3098 ;; Defined at:
  3099 ;;		line 4 in file "C:\Program Files (x86)\Microchip\xc8\v2.10\pic\sources\c99\common\memset.c"
  3100 ;; Parameters:    Size  Location     Type
  3101 ;;  dest            2    0[COMRAM] PTR void 
