:020000040000FA
:040000000DEF00F010
:0400080022EF0DF0E6
:10001800FF00EFEF0EF0010E406E000E356E000E81
:1000280000018F6FB3EF01F000018F81020E406E67
:10003800000E3A6E3A500A0D990EF324D96E000E4E
:10004800F420DA6E6B0EDF602CEF00F02EEF00F07C
:1000580030EF00F0060E406E3A2A030E3A6437EF8E
:1000680000F039EF00F01EEF00F0B3EF01F00001EF
:100078008F83030E406E000E3B6E3B500A0D990EA7
:10008800F324D96E000EF420DA6EFA0EDF644FEF17
:1000980000F051EF00F053EF00F0060E406E3B50B9
:1000A8000A0D9C0EF324D96E000EF420DA6EFA0EB7
:1000B800DF6461EF00F063EF00F065EF00F0060E1B
:1000C800406E3B2A030E3B646CEF00F06EEF00F0CD
:1000D80041EF00F0B3EF01F000018F85060E406E8E
:1000E8003668000E376E000E3C6E3C500A0D990EB5
:1000F800F324D96E000EF420DA6E3650DE5CD8B0E8
:1001080088EF00F08AEF00F094EF00F03C500A0D01
:10011800990EF324D96E000EF420DA6EDF50366E95
:100128003C2A010E3C649BEF00F09DEF00F079EF54
:1001380000F0000E3D6E3D500A0D990EF324D96E65
:10014800000EF420DA6EDE50375CD8B0AEEF00F067
:10015800B0EF00F0BAEF00F03D500A0D990EF3240D
:10016800D96E000EF420DA6EDF50376E3D2A010E8C
:100178003D64C1EF00F0C3EF00F09FEF00F0365090
:100188002E6E2F6A050E2E26000E2F223750306E47
:10019800316A2E50305C3150800A326E2F50800AFE
:1001A8003258D8B0DAEF00F0DCEF00F0B3EF01F02E
:1001B800040E406EB3EF01F000018F87060E406E0B
:1001C8003868000E396E020E3E6E3E500A0D990ECA
:1001D800F324D96E000EF420DA6E3850DE5CD8B005
:1001E800F8EF00F0FAEF00F004EF01F03E500A0DCE
:1001F800990EF324D96E000EF420DA6EDF50386EB3
:100208003E2A030E3E640BEF01F00DEF01F0E9EF1B
:1002180000F0020E3F6E3F500A0D990EF324D96E7E
:10022800000EF420DA6EDE50395CD8B01EEF01F013
:1002380020EF01F02AEF01F03F500A0D990EF32448
:10024800D96E000EF420DA6EDF50396E3F2A030EA5
:100258003F6431EF01F033EF01F00FEF01F0385058
:100268002E6E2F6A050E2E26000E2F223950306E64
:10027800316A2E50305C3150800A326E2F50800A1D
:100288003258D8B04AEF01F04CEF01F0B3EF01F06B
:10029800050E406EB3EF01F000018F89000E406E2D
:1002A800B3EF01F000018F8B970E016E000E026E06
:1002B800000E046E000E036E000E066E280E056E0C
:1002C80026EC07F0000E406E010E356EB3EF01F01C
:1002D80000018F8D970E016E000E026E000E046EE7
:1002E800000E036E000E066E280E056E26EC07F053
:1002F800000E406E000E356E5CEC05F0B3EF01F0B9
:1003080000018F8F72EC0DF0B3EF01F040502E6EAC
:100318002F6A2F50000AD8B494EF01F084EF01F04F
:100328002E50000AD8B450EF01F0010AD8B418EFE3
:1003380000F0030AD8B43BEF00F0010AD8B470EF1C
:1003480000F0070AD8B4E0EF00F0010AD8B456EF7D
:1003580001F0030AD8B46CEF01F084EF01F04050CB
:10036800D8A4B9EF01F0BBEF01F08AEF01F03550E6
:100378001200000E166E80AEC4EF01F0C6EF01F059
:100388006BEF02F082A6CBEF01F0CDEF01F0F5EFB5
:1003980001F0600053F0D9FF600057F0DAFF020E59
:1003A800DF6E6F0010FE01F06F0004FE02F06F00B8
:1003B80008FE03F08350B7EC08F020EE01F014506B
:1003C800D9261550DA22600007F0DEFF60000BF036
:1003D800DEFF60000FF0DEFF600013F0DEFF15EFB8
:1003E80002F0600053F0D9FF600057F0DAFF010E09
:1003F800DF6E6F0008FE01F08150BEEC0DF020EEBC
:1004080001F01450D9261550DA22600007F0DEFFFB
:1004180060000BF0DEFF60000FF0DEFF600013F0FD
:10042800DEFF20EE05F01450D9261550DA226F00B1
:1004380017FEDFFF20EE06F01450D9261550DA22F9
:100448006F001BFEDFFF20EE07F01450D926155071
:10045800DA226F001FFEDFFF20EE08F01450D926C5
:100468001550DA226F0023FEDFFF20EE09F014504A
:10047800D9261550DA226F0027FEDFFF20EE0AF09A
:100488001450D9261550DA226F002BFEDFFF20EE1C
:100498000BF01450D9261550DA226F002FFEDFFF1B
:1004A80020EE0CF01450D9261550DA226F0033FED6
:1004B800DFFF20EE0DF01450D9261550DA226F0018
:1004C80037FEDFFF809E010E166E17EF03F037012F
:1004D800F0AF71EF02F073EF02F017EF03F0F2A73D
:1004E80078EF02F07AEF02F0A2EF02F0600053F02A
:1004F800D9FF600057F0DAFF020EDF6E6D00D0FF03
:1005080001F06D00C4FF02F06D00C8FF03F0F35165
:10051800B7EC08F020EE01F01450D9261550DA2275
:10052800600007F0DEFF60000BF0DEFF60000FF0F8
:10053800DEFF600013F0DEFFC2EF02F0600053F050
:10054800D9FF600057F0DAFF010EDF6E6D00C8FFBB
:1005580001F0F151BEEC0DF020EE01F01450D92657
:100568001550DA22600007F0DEFF60000BF0DEFFB6
:1005780060000FF0DEFF600013F0DEFF20EE05F0F4
:100588001450D9261550DA226D00D7FFDFFF20EE70
:1005980006F01450D9261550DA226D00DBFFDFFF74
:1005A80020EE07F01450D9261550DA226D00DFFF2F
:1005B800DFFF20EE08F01450D9261550DA226D001E
:1005C800E3FFDFFF20EE09F01450D9261550DA2298
:1005D8006D00E7FFDFFF20EE0AF01450D926155012
:1005E800DA226D00EBFFDFFF20EE0BF01450D92666
:1005F8001550DA226D00EFFFDFFF20EE0CF01450EB
:10060800D9261550DA226D00F3FFDFFF20EE0DF03A
:100618001450D9261550DA226D00F7FFDFFF370195
:10062800F09F67EF02F016501200020E1B6E000ECC
:10063800116E000E0001906F3EEF04F083EC0FF096
:10064800600004F00DF0600008F00EF060000CF09F
:100658000FF0600010F010F000019083010E1B6E87
:10066800000E1A6E1A500A0D9D0EF324D96E000E54
:10067800F420DA6ED00EDE24096E070EDE200A6E34
:10068800000EDE200B6E000EDE200C6E0D50095C95
:100698000E500A580F500B5810500C58D8B057EF3E
:1006A80003F059EF03F05BEF03F0040E1B6E1A2AF8
:1006B800030E1A6462EF03F064EF03F036EF03F001
:1006C8003EEF04F000019081030E1B6E1268136860
:1006D80014681568000E166E000E176E000E186E60
:1006E800000E196E000E1C6E1C500A0D9D0EF32490
:1006F800D96E000EF420DA6E1250DE5C1350DE580C
:100708001450DE581550DE58D8B08DEF03F08FEF37
:1007180003F0A3EF03F01C500A0D9D0EF324D96ECD
:10072800000EF420DA6E6F0078FF12F06F0078FF89
:1007380013F06F0078FF14F06F0078FF15F01C2A93
:10074800030E1C64AAEF03F0ACEF03F078EF03F09C
:10075800000E1D6E1D500A0D9D0EF324D96E000E5D
:10076800F420DA6EDE50165CDE501758DE5018584A
:10077800DE501958D8B0C3EF03F0C5EF03F0D9EF36
:1007880003F01D500A0D9D0EF324D96E000EF420BF
:10079800DA6E6F0078FF16F06F0078FF17F06F00C1
:1007A80078FF18F06F0078FF19F01D2A030E1D64FA
:1007B800E0EF03F0E2EF03F0AEEF03F0880E12244F
:1007C800096E130E13200A6E000E14200B6E000E15
:1007D80015200C6E1650095C17500A5818500B5803
:1007E80019500C58D8B0FBEF03F0FDEF03F03EEFC3
:1007F80004F0040E1B6E3EEF04F000019085000E1D
:100808001B6E3EEF04F000019087000E1B6E010E78
:10081800116E3EEF04F000019089000E1B6E000E71
:10082800116E3EEF04F00001908F72EC0DF03EEF78
:1008380004F01B50096E0A6A0A50000AD8B427EF60
:1008480004F017EF04F00950000AD8B401EF04F0DF
:10085800010AD8B466EF03F0030AD8B422EF03F014
:10086800010AD8B407EF04F0070AD8B40FEF04F070
:1008780017EF04F01B50D8A444EF04F046EF04F03F
:100888001DEF04F01150120020EE60F010EE16F08B
:10089800090E6F006FFFE3FFE806FBE220EE06F0AB
:1008A8000C50D9260D50DA22DF50166E20EE07F0D4
:1008B8000C50D9260D50DA22DF50176E20EE08F0C2
:1008C8000C50D9260D50DA22DF50186E20EE09F0B0
:1008D8000C50D9260D50DA22DF50196E20EE0AF09E
:1008E8000C50D9260D50DA22DF501A6E20EE0BF08C
:1008F8000C50D9260D50DA22DF501B6E000E1C6EEC
:10090800000E1D6E000E1E6E000E1F6E83EC0FF0A3
:10091800600004F01CF0600008F01DF060000CF0AE
:100928001EF0600010F01FF0000E156E010E146E20
:10093800600058F00EF0300E0E16D8B4A6EF04F092
:10094800A8EF04F0AAEF04F0020E156E1650030B80
:100958001524156E15500001921353EF05F015502C
:100968000A0DC50EF324D96E000EF420DA6EDE509F
:10097800DE10DE10DE10D8A4C4EF04F0C6EF04F0D9
:10098800CAEF04F0040E146E53EF05F0020E146E55
:1009980053EF05F060005CF012F01206050E146EBD
:1009A800000E136E120615500A0DC00EF324D96EF0
:1009B800000EF420DA6EDF500E6E0E041218D8A462
:1009C800E8EF04F0EAEF04F0EEEF04F0030E146E23
:1009D80053EF05F0132A090E1364F5EF04F0F7EF4F
:1009E80004F0D6EF04F053EF05F0050E146E155021
:1009F8000A0DC50EF324D96E000EF420DA6E1C50D1
:100A0800DE5C1D50DE581E50DE581F50DE58D8B030
:100A180010EF05F012EF05F053EF05F0C6EF04F004
:100A280015500A0DBF0EF324016E000EF420026E5D
:100A3800160E036E000E046E000E066E0A0E056E8C
:100A480021EC0FF0000E146E53EF05F072EC0DF070
:100A580053EF05F014500E6E0F6A0F50000AD8B409
:100A680038EF05F02AEF05F00E50000AD8B426EF4B
:100A780005F0010AD8B4B3EF04F0030AD8B4CEEFF6
:100A880004F0010AD8B4F9EF04F0070AD8B414EF57
:100A980005F0010AD8B426EF05F02AEF05F0145046
:100AA800D8A459EF05F05BEF05F02EEF05F0120022
:100AB800000E186E000E196E000E1A6E000E1B6ED8
:100AC800BA92BA88BA8A970E016E000E026E000EAC
:100AD800046E000E036E000E066E280E056E26ECE0
:100AE80007F0BF0E016E000E026E000E046E000EBF
:100AF800036E000E066E280E056E26EC07F0D0EF8A
:100B080005F0040083EC0FF0600004F01CF06000B6
:100B180008F01DF060000CF01EF0600010F01FF0EF
:100B28001C50185C1D5019581E501A581F501B583D
:100B3800D8B0A1EF05F0A3EF05F0C1EF05F0BABA00
:100B4800A8EF05F0ABEF05F0010EACEF05F0000ED5
:100B5800FF0A176E173A1746BA501718DF0B1718FF
:100B6800BA6E320E1C24186E000E1D20196E000E6F
:100B78001E201A6E000E1F201B6ECCA2C6EF05F0B9
:100B8800C8EF05F085EF05F0210E176E760EE82EFA
:100B9800FED7172EFCD700D0CCA2D5EF05F0D7EFA3
:100BA80005F0C1EF05F0BA82BA9ABA88000E186E3D
:100BB800000E196E000E1A6E000E1B6E40EF06F046
:100BC800040083EC0FF0600004F01CF0600008F0F3
:100BD8001DF060000CF01EF0600010F01FF01C50BB
:100BE800185C1D5019581E501A581F501B58D8B061
:100BF80000EF06F002EF06F031EF06F0BABA07EFA1
:100C080006F00AEF06F0010E0BEF06F0000EFF0AE1
:100C1800176E173A1746BA501718DF0B1718BA6E1F
:100C2800BAB819EF06F01CEF06F0010E1DEF06F03A
:100C3800000EFF0A176E173ABA501718EF0B17185D
:100C4800BA6EF40E1C24186E010E1D20196E000ECB
:100C58001E201A6E000E1F201B6ECCB236EF06F057
:100C680038EF06F0E4EF05F0210E176E760EE82E49
:100C7800FED7172EFCD700D0CCB245EF06F047EFD1
:100C880006F031EF06F0200E146E000E156EBDEC66
:100C980001F00009D8A453EF06F055EF06F047EF2E
:100CA80006F0BA8A71EC0CF012009CEC10F0BA8ACB
:100CB80019EC10F06E0E016E210E026EE2EC10F0CF
:100CC800F0B869EF06F06BEF06F06EEF06F0F0880B
:100CD80072EC0DF00400D28E83EC0FF0600004F08B
:100CE80045F0600008F046F060000CF047F0600046
:100CF80010F048F0B80E452400018A6F0B0E46200C
:100D08008B6F000E47208C6F000E48208D6FADEF63
:100D180006F0040083EC0FF0600004F045F060007A
:100D280008F046F060000CF047F0600010F048F062
:100D3800BAB8A1EF06F0A4EF06F0010EA5EF06F091
:100D4800000EFF0A446E443ABA504418EF0B441898
:100D5800BA6E00018A51455C8B5146588C514758F0
:100D68008D514858D8A0BBEF06F0BDEF06F08DEFC7
:100D780006F071EC0CF0490E146E000E156EBDEC09
:100D880001F00009D8A4CBEF06F0CDEF06F0BFEFD5
:100D980006F0BA82040083EC0FF0600004F045F01E
:100DA800600008F046F060000CF047F0600010F0BA
:100DB80048F0455000018A5D46508B5947508C5980
:100DC80048508D59D8B0EBEF06F0EDEF06F012EF72
:100DD80007F0BAB8F2EF06F0F5EF06F0010EF6EFFD
:100DE80006F0000EFF0A446E443ABA504418EF0B5E
:100DF8004418BA6EF40E45248A6F010E46208B6F94
:100E0800000E47208C6F000E48208D6F12EF07F000
:100E1800490E0C6E000E0D6E48EC04F0490E146E6F
:100E2800000E156EBDEC01F00009D8A41EEF07F006
:100E380020EF07F00CEF07F074EC09F0CEEF06F0A6
:100E48000DEF00F0600004F00BF0600008F00CF00B
:100E580005500610D8A433EF07F035EF07F037EF49
:100E680007F0F1EF07F060002FF0D9FF600033F0D2
:100E7800DAFF60000FF0DFFF05500B24076E065005
:100E88000C20086EFF0E0724D96EFF0E0820DA6EBC
:100E980060000FF0DFFF065007E1030E055CD8B0D5
:100EA80058EF07F05AEF07F05CEF07F0F1EF07F0A3
:100EB80020EE01F00B50D9260C50DA2260000FF01A
:100EC800DFFF20EE02F00B50D9260C50DA2260002A
:100ED8000FF0DFFF05500B24076E06500C20086E3C
:100EE800FE0E0724D96EFF0E0820DA6E60000FF0A0
:100EF800DFFF05500B24076E06500C20086EFD0E10
:100F08000724D96EFF0E0820DA6E60000FF0DFFFAD
:100F1800065007E1070E055CD8B095EF07F097EF8C
:100F280007F099EF07F0F1EF07F020EE03F00B5010
:100F3800D9260C50DA2260000FF0DFFF05500B2491
:100F4800076E06500C20086EFC0E0724D96EFF0EA3
:100F58000820DA6E60000FF0DFFF065007E1090E87
:100F6800055CD8B0BAEF07F0BCEF07F0BEEF07F0AA
:100F7800F1EF07F060002CF007F0600030F008F0A7
:100F8800071E081E074A082A030E0714096E0A6A74
:100F980009500B260A500C220950055E0A50065AC1
:100FA800FC0E0516FF0E0616E8EF07F060002FF09E
:100FB800D9FF600033F0DAFF60000FF0DFFF0506AD
:100FC800D8A006060B4A0C2A05500610D8A4EFEF45
:100FD80007F0F1EF07F0DAEF07F01200600068F0B1
:100FE80001F060006CF002F0600070F003F0AFEC0C
:100FF8000FF0296E600068F001F060006CF002F0FC
:10100800600070F003F0F7EC0FF02D6E60005CF0FC
:1010180001F0600060F002F0600064F003F0AFECF3
:101028000FF02A6E60005CF001F0600060F002F0E2
:10103800600064F003F0F7EC0FF02E6E60004CF0E7
:1010480001F0600050F002F0600054F003F060001E
:1010580058F004F083EC0EF0600004F027F0600014
:1010680008F028F060004CF001F0600050F002F049
:10107800600054F003F0600058F004F0BBEC0EF090
:10108800600004F02BF0600008F02CF02D502918B7
:101098002D6E2E502A182E6E27502B182B6E285086
:1010A8002C182C6E2D1E2E1EFF0E2B182B6E030EC9
:1010B8002C182C6E6000A4F001F060009CF002F087
:1010C8006000A0F003F0600074F004F0600078F0B5
:1010D80005F02A5023EC0AF0600004F01FF06000CD
:1010E80008F020F060000CF021F0600010F022F011
:1010F8006000B4F001F06000ACF002F06000B0F005
:1011080003F01D50030A046E1E50010A056E2E508E
:1011180023EC0AF0600004F023F0600008F024F0EB
:1011280060000CF025F0600010F026F060007CF004
:1011380001F0600080F002F0600084F003F06000CD
:1011480088F004F044EC0EF060008CF001F06000D0
:1011580090F002F0600094F003F0600098F004F062
:1011680005EC0EF01200096E000E106E000E116EE6
:10117800000E126E000E136E0350030B0E6E033832
:10118800E842070B0F6E0250056E066AD8900536C6
:101198000636D89005360636D890053606366000ED
:1011A80014F010F0600018F011F0000E11BEFF0EE0
:1011B800126E136E0F501024106E000E1120116E57
:1011C800000E1220126E000E1320136E600040F005
:1011D80005F0600044F006F0600048F007F0600099
:1011E8004CF008F0020ED890053606360736083659
:1011F800E82EF7EF08F0600014F010F0600018F027
:1012080011F060001CF012F0600020F013F00E5096
:101218001024106E000E1120116E000E1220126E96
:10122800000E1320136E600040F006F0600044F0DA
:1012380007F0600048F008F0056A600014F010F04C
:10124800600018F011F060001CF012F0600020F04F
:1012580013F009501024106E000E1120116E000EAC
:101268001220126E000E1320136E600040F006F07C
:10127800600044F007F0600048F008F0056A60007C
:1012880014F010F0600018F011F060001CF012F07B
:10129800600020F013F001501024106E000E112091
:1012A800116E000E1220126E000E1320136E6000D5
:1012B80040F00AF0600044F00BF0600048F00CF0D9
:1012C80060004CF00DF0600028F001F060002CF098
:1012D80002F0600030F003F0600034F004F0120017
:1012E800010E436E000E00018E6F1AEF0AF0000126
:1012F8008E81060E436EC8EC0AF00009D8B487EF59
:1013080009F089EF09F01AEF0AF0020E436E1AEF9E
:101318000AF000018E83060E436EAFEC0BF0000955
:10132800D8B499EF09F09BEF09F01AEF0AF0030E11
:10133800436E1AEF0AF000018E85060E436E19EC13
:1013480003F00009D8B4ABEF09F0ADEF09F01AEFDC
:101358000AF0040E436E1AEF0AF000018E87000EA1
:10136800436E0FEC00F00009D8B4BDEF09F0BFEFF1
:1013780009F01AEF0AF0050E436E1AEF0AF0000E94
:10138800436E1AEF0AF000018E8F000E436E8CEC4C
:1013980010F0EEEC10F01AEF0AF0000E436E0001A8
:1013A8008E8983EC0FF001500001825D0250835951
:1013B8000350845904508559D8B0E5EF09F0E7EF98
:1013C80009F01AEF0AF05CEC05F01AEF0AF00001D8
:1013D8008E8B72EC0DF01AEF0AF04350416E426AA0
:1013E8004250000AD8B4FBEF09F0EBEF09F0415086
:1013F800000AD8B4C3EF09F0010AD8B47BEF09F0AA
:10140800030AD8B48DEF09F0010AD8B49FEF09F0A8
:10141800070AD8B4B1EF09F0010AD8B4C7EF09F048
:10142800030AD8B4D1EF09F0EBEF09F04350D8A480
:1014380020EF0AF022EF0AF0F1EF09F012000A6E2D
:1014480005500F6E106A116A126A010E0F14066EAB
:10145800000E1014076E000E1114086E000E121400
:10146800096E1C0ED8900636073608360936E82E5F
:1014780036EF0AF0600018F00BF060001CF00CF07A
:10148800600020F00DF0600024F00EF0600008F01D
:101498000FF060000CF010F0116A126AFF0E0F14C2
:1014A800066E030E1014076E000E1114086E000E5F
:1014B8001214096E120ED890063607360836093609
:1014C800E82E5FEF0AF006500B1207500C12085076
:1014D8000D1209500E1201500F6E106A116A126A2D
:1014E800FF0E0F14066E000E1014076E000E111476
:1014F800086E000E1214096E0A0ED89006360736CA
:1015080008360936E82E81EF0AF006500B1207500C
:101518000C1208500D1209500E1204500F6E106A6A
:10152800116A126A030E0F14066E000E1014076E6D
:10153800000E1114086E000E1214096E600020F0DF
:1015480009F060001CF008F0600018F007F0066A67
:1015580006500B1207500C1208500D1209500E12AB
:101568000A500F6E106A116A126A0F500B1260004F
:101578002CF001F0600030F002F0600034F003F06D
:10158800600038F004F01200010E116E000E106EAB
:10159800000E0001916F42EF0BF0020E116E000178
:1015A8009181000E126E12500A0DC50EF324D96EE9
:1015B800000EF420DA6EDE50DE10DE10DE10D8A445
:1015C800E8EF0AF0EAEF0AF0EEEF0AF0030E116E08
:1015D800F7EF0AF0122A030E1264F5EF0AF0F7EF9C
:1015E8000AF0D7EF0AF00001918342EF0BF00001F7
:1015F8009185000E116E970E016E000E026EBF0EE1
:10160800036E000E046E000E066E280E056E21ECA9
:101618000FF0010E106E42EF0BF000019187000EE3
:10162800116E42EF0BF000019189000E116E000E51
:10163800106E42EF0BF00001918F72EC0DF042EF4B
:101648000BF011500C6E0D6A0D50000AD8B42FEF34
:101658000BF01FEF0BF00C50000AD8B411EF0BF091
:10166800010AD8B4D1EF0AF0030AD8B4FBEF0AF0A4
:10167800010AD8B417EF0BF01FEF0BF01150D8A4E4
:1016880048EF0BF04AEF0BF025EF0BF0105012006B
:101698006A0E5C24D96EDA6A000EDA22000EDF6E5A
:1016A8003D01F9A75AEF0BF05CEF0BF071EF0BF06F
:1016B8006A0E5C24D96EDA6A000EDA220001DF8233
:1016C80002D871EF0BF00500FA6EED51FD6EEE5188
:1016D800FE6EF850FF6EFA5012003D01F9A377EF45
:1016E8000BF079EF0BF08EEF0BF06A0E5C24D96EDD
:1016F800DA6A000EDA220001DF8402D88EEF0BF0DE
:101708000500FA6EEB51FD6EEC51FE6EF850FF6E5F
:10171800FA5012006A0E5C24D96EDA6A000EDA22D8
:10172800DF50D8B49AEF0BF09CEF0BF0ACEF0BF056
:1017380002D8AAEF0BF005000001FA6EE951FD6E20
:10174800EA51FE6EF850FF6EFA501200AEEF0BF041
:1017580064EC10F01200010E056E000E046E07EF27
:101768000CF0020E056E000E066E06500A0D9B0E5A
:10177800F324D96E000EF420DA6EDF50D8B4C7EF28
:101788000BF0C9EF0BF0CBEF0BF0030E056E062A3A
:10179800030E0664D2EF0BF0D4EF0BF0B9EF0BF0A9
:1017A80007EF0CF0000E056E07EF0CF0000E056E4B
:1017B800010E046E07EF0CF0000E056E000E046EAD
:1017C80007EF0CF072EC0DF007EF0CF00550026E0D
:1017D800036A0350000AD8B4F4EF0BF0E6EF0BF0FD
:1017E8000250000AD8B4D6EF0BF0010AD8B4B5EF0E
:1017F8000BF0030AD8B4DAEF0BF0010AD8B4E0EF23
:101808000BF0E6EF0BF00550D8A40DEF0CF00FEF3E
:101818000CF0EAEF0BF004501200800E8F6E8E5021
:10182800E00B800AD8A41BEF0CF01DEF0CF013EFAF
:101838000CF0000E916E000E3701006FBA69BB699B
:10184800B869E30EB96FBE69BF69BC69E30EBD6FC5
:10185800010EA26F230EA36F000EA06F080EA16FDA
:10186800000EA66F000EA76F000EA46F000EA56FE6
:10187800000EAA6F000EAB6F000EA86F000EA96FC6
:10188800000EAE6F000EAF6F000EAC6F000EAD6FA6
:10189800000EB26F000EB36F000EB06F000EB16F86
:1018A800000EB66F000EB76F000EB46F000EB56F66
:1018B800030E036FBF0E046F470E056F000E8F6E89
:1018C8006F0038FE01F0E00E0116D8A46EEF0CF0A0
:1018D80070EF0CF064EF0CF01200000E0A6E000EB0
:1018E8000B6E000E0C6E000E0D6EC5EF0CF00400B2
:1018F80083EC0FF0600004F00EF0600008F00FF0C9
:1019080060000CF010F0600010F011F00E500A5C4E
:101918000F500B5810500C5811500D58D8B097EF65
:101928000CF099EF0CF0B6EF0CF0BAB89EEF0CF093
:10193800A1EF0CF0010EA2EF0CF0000EFF0A096EE9
:10194800093ABA500918EF0B0918BA6E640E0E243A
:101958000A6E000E0F200B6E000E10200C6E000E8B
:1019680011200D6ECCA0BBEF0CF0BDEF0CF07BEF9F
:101978000CF0210E096E760EE82EFED7092EFCD744
:1019880000D0CCA0CAEF0CF0CCEF0CF0B6EF0CF006
:101998008CEC10F0120039019397980E016E160E18
:1019A800026EC6EC10F039019399A60E016E1F0E57
:1019B800026EBFEC10F0000E3D01EC6F000EED6FF3
:1019C800000EEE6F000EEF6F000EF06F000EF16F5D
:1019D800B00EF26F800EF36F000EF46F030EF56F0A
:1019E800010EF66F000EF76F000EF86F000EF96F1C
:1019F800000EFA6FEE0E016E210E026ED4EC10F09E
:101A0800EC0E016E210E026ECDEC10F0E20E016EAE
:101A1800210E026EDBEC10F0000E596E000E5E6EA9
:101A2800000E5D6E080E0001F36F000E5C6E000E76
:101A38005B6E000E5A6E390193871200390199A323
:101A480028EF0DF02AEF0DF035EF0DF0A9A32FEFD9
:101A58000DF031EF0DF035EF0DF034EC10F071EFC3
:101A68000DF093A93AEF0DF03CEF0DF053EF0DF0A8
:101A7800A3A941EF0DF043EF0DF053EF0DF002D89D
:101A880051EF0DF005000001FA6EEF51FD6EF051B7
:101A9800FE6EF850FF6EFA50120071EF0DF093A72A
:101AA80058EF0DF05AEF0DF071EF0DF0A3A75FEFAF
:101AB8000DF061EF0DF071EF0DF002D86FEF0DF042
:101AC80005000001FA6EF151FD6EF251FE6EF850FC
:101AD800FF6EFA50120071EF0DF01100BA92BA9A27
:101AE8000400BAB87AEF0DF07DEF0DF0010E7EEF2D
:101AF8000DF0000EFF0A016E013ABA500118EF0B03
:101B08000118BA6EBABA8BEF0DF08EEF0DF0010E18
:101B18008FEF0DF0000EFF0A016E013A0146BA5030
:101B28000118DF0B0118BA6EA30E016E550EE82ED0
:101B3800FED7012EFCD700F00400BABAA6EF0DF0CC
:101B4800A9EF0DF0010EAAEF0DF0000EFF0A016ECD
:101B5800013A0146BA500118DF0B0118BA6EA30EFC
:101B6800016E550EE82EFED7012EFCD700F074EF5B
:101B78000DF01200076E0750056E066AD8900536FC
:101B88000636D89005360636D890053606366000F3
:101B980014F00CF0600018F00DF0000E0DBEFF0EF2
:101BA8000E6E0F6E600004F005F0050E066ED890FC
:101BB8000532062EDBEF0DF005500C240C6E000EDE
:101BC8000D200D6E000E0E200E6E000E0F200F6EF3
:101BD800600030F008F0600034F009F0600038F080
:101BE8000AF060003CF00BF0600020F001F06000AB
:101BF80024F002F0600028F003F060002CF004F0FC
:101C08001200600007F0BBF760000BF0BAF7035052
:101C1800030B3701B96F600004F005F0600008F0AD
:101C280006F060000CF007F0600010F008F00E0EEF
:101C380023EF0EF0D8900832073206320532E82E2C
:101C48001EEF0EF00550E00BB913B987600004F0E1
:101C580005F0600008F006F060000CF007F0600086
:101C680010F008F0160E3EEF0EF0D890083207324A
:101C780006320532E82E39EF0EF00550B86F120023
:101C8800600007F0A3F760000BF0A2F70350030B06
:101C98003701A16F600004F005F0600008F006F05D
:101CA80060000CF007F0600010F008F00E0E62EF14
:101CB8000EF0D8900832073206320532E82E5DEF72
:101CC8000EF00550E00BA113A187600004F005F0A9
:101CD800600008F006F060000CF007F0600010F0FB
:101CE80008F0160E7DEF0EF0D89008320732063253
:101CF8000532E82E78EF0EF00550A06F1200600054
:101D080007F0D9FF60000BF0DAFF6F0078FF05F0ED
:101D18006F0074FF06F0020E0126000E0222000E6C
:101D2800086E010E076EA9EF0EF0600007F0D9FFEC
:101D380060000BF0DAFFDE500516DD500616020EC5
:101D48000126000E0222074A082A0350075C0450A5
:101D58000858D8A0B2EF0EF0B4EF0EF099EF0EF0DD
:101D6800FF0E0514016E030E0614026E12006000C9
:101D780007F0D9FF60000BF0DAFF6F0078FF05F07D
:101D88006F0074FF06F0000E086E000E076EDDEFA0
:101D98000EF0600007F0D9FF60000BF0DAFFDE50AC
:101DA8000512DD500612020E0126000E0222074A15
:101DB800082A0350075C04500858D8A0E6EF0EF034
:101DC800E8EF0EF0CDEF0EF0FF0E0514016E030ED6
:101DD8000614026E1200D20EF66E210EF76E000E79
:101DE800F86E00EEF4F010EE09F009006F00D7FF6E
:101DF800EEFFE550E150F9E1F20EF66E210EF76EB6
:101E0800000EF86E09006F00D4FF5FF000EE60F07E
:101E1800870EEE6AE806FDE100EE57F0080EEE6A5E
:101E2800E806FDE1080ED56E000ED66E000ED76EE0
:101E3800000EF86E000159EF06F060000CF009F092
:101E4800600010F00AF0600004F007F0600008F08D
:101E580008F044EF0FF0600027F0D9FF60002BF086
:101E6800DAFFDF500B6E094A0A2A60001FF0D9FF1B
:101E7800600023F0DAFF60002FF0DFFF074A082A2E
:101E88000506D8A00606052806E10628D8A44FEFBF
:101E98000FF051EF0FF02FEF0FF01200000EBA6E97
:101EA800000EBB6E000EBC6ECD0EC26EFB0EC36E76
:101EB800BF0EC46E700E3A01606FF70E506F406926
:101EC800000E816F000E516F000E416F000E616FA2
:101ED800000E426F000E526F000E626F4369536925
:101EE8006369446954696469080E846F330E0A6F24
:101EF8000B0EED6F130E166F170EE76F12006000D2
:101F0800D0F305F06000D4F306F06000D8F307F0D2
:101F18006000DCF308F00001F45105180DE1F551FB
:101F280006180AE1F651071807E1F7510818D8A46E
:101F3800A0EF0FF0A2EF0FF083EF0FF0600014F0A6
:101F480001F0600018F002F060001CF003F060007F
:101F580020F004F01200600007F0D9FF60000BF0D9
:101F6800DAFFDF50046E014A022A010E056EC8EF3F
:101F78000FF0600007F0D9FF60000BF0DAFFDF50C8
:101F88000416014A022A052A0350055CD8A0CFEF9F
:101F98000FF0D1EF0FF0BDEF0FF004501200080E54
:101FA8000001F361DAEF0FF0DCEF0FF0F4EF0FF060
:101FB8007A0E5D24D96EDA6A000EDA22DF503D010E
:101FC800EA6F5D2A070E5D64ECEF0FF0EEEF0FF09D
:101FD800F0EF0FF0000E5D6E0001F32BF6EF0FF03F
:101FE800390193991200600007F0D9FF60000BF0E7
:101FF800DAFFDF50046E000E056E0EEF10F0600081
:1020080007F0D9FF60000BF0DAFFDF500412014A35
:10201800022A052A0350055CD8A015EF10F017EF27
:1020280010F003EF10F004501200FB0E136E000EB8
:10203800146E000E166E010E156EF80E176E000E59
:10204800186E030E196E5F0E1A6E000E1B6E010ECF
:102058001C6E000E1D6E000E1E6EF2EC07F01200D4
:102068003901A9930001E751E811D8B43EEF10F007
:1020780040EF10F04DEF10F002D84DEF10F00500D2
:10208800FA6EE751FD6EE851FE6EF850FF6EFA5099
:1020980012001200030E966E000E956E000E976EDB
:1020A8003E0E936E000E926E3901A9939983F00E3D
:1020B800016E210E026EE2EC10F0F00E946E12002A
:1020C800720E5C24D96EDA6A000EDA226F00A3F76A
:1020D800DFFF5C2A070E5C6474EF10F076EF10F0F7
:1020E80078EF10F0000E5C6E5A2A1200000E3901CB
:1020F800C06F000EC16F000EC26F000EC36F000EDE
:10210800C46F000EC56F000EC66F000EC76F1200B9
:1021180083EC0FF0880E01240001826F130E022059
:10212800836F000E0320846F000E0420856F120059
:10213800F4EC10F07AEC10F052EC0FF0ABEC10F07D
:102148004EEC10F0CFEC0CF011EC0CF01200700E0D
:102158003901D96F000EDB6F000EDD6F030EDF6FE4
:10216800000EDE6F1200010E0001F427000EF523A9
:10217800F623F7231200600004F0EFF0600008F087
:10218800F0F01200600004F0F1F0600008F0F2F0E6
:102198001200600004F0EBF0600008F0ECF01200B0
:1021A800600004F0EDF0600008F0EEF0120060004E
:1021B80004F0E9F0600008F0EAF01200600004F0B2
:1021C800E7F0600008F0E8F0120001000000EFEE10
:0321D800ED3200E5
:1021DC00BA8ABA82120064EC10F01200D29A120081
:0721EC0012001200120001B5
:020000040020DA
:10000000FF0FFF0FFF0FFF0FFF0FFF0FFF0FFF0F80
:020000040030CA
:0A000000FFFFF7FFE9C7FFFFFFFF56
:00000001FF
