:020000040000FA
:040000000DEF00F010
:040008003BEF0DF0CD
:10001800FF0008EF0FF0010E3F6E000E356E000E68
:1000280000018F6FCCEF01F000018F81020E3F6E4F
:10003800000E3A6E3A500A0D990EF324D96E000E4E
:10004800F420DA6E6B0EDF602CEF00F02EEF00F07C
:1000580030EF00F0060E3F6E3A2A030E3A6437EF8F
:1000680000F039EF00F01EEF00F0CCEF01F00001D6
:100078008F83030E3F6E000E406E40500A0D990E9E
:10008800F324D96E000EF420DA6EDF502E6E2F6A3C
:1000980040500A0D9C0EF324D96E000EF420DA6E3F
:1000A800DF50306E316A640E3026000E31222E5039
:1000B800305C3150800A326E2F50800A3258D8B0E6
:1000C80068EF00F06AEF00F06CEF00F0060E3F6E8C
:1000D80040500A0D9C0EF324D96E000EF420DA6EFF
:1000E800FA0EDF647AEF00F07CEF00F07EEF00F0AC
:1000F800060E3F6E402A030E406485EF00F087EF3E
:1001080000F041EF00F0CCEF01F000018F85060E02
:100118003F6E3668000E376E000E3B6E3B500A0D80
:10012800990EF324D96E000EF420DA6E3650DE5C98
:10013800D8B0A1EF00F0A3EF00F0ADEF00F03B5016
:100148000A0D990EF324D96E000EF420DA6EDF50F2
:10015800366E3B2A010E3B64B4EF00F0B6EF00F0B8
:1001680092EF00F0000E3C6E3C500A0D990EF324FD
:10017800D96E000EF420DA6EDE50375CD8B0C7EFC7
:1001880000F0C9EF00F0D3EF00F03C500A0D990ED3
:10019800F324D96E000EF420DA6EDF50376E3C2A55
:1001A800010E3C64DAEF00F0DCEF00F0B8EF00F08D
:1001B80036502E6E2F6A050E2E26000E2F2237502F
:1001C800306E316A2E50305C3150800A326E2F50BA
:1001D800800A3258D8B0F3EF00F0F5EF00F0CCEF1A
:1001E80001F0040E3F6ECCEF01F000018F87060E80
:1001F8003F6E3868000E396E020E3D6E3D500A0D96
:10020800990EF324D96E000EF420DA6E3850DE5CB5
:10021800D8B011EF01F013EF01F01DEF01F03D50E0
:100228000A0D990EF324D96E000EF420DA6EDF5011
:10023800386E3D2A030E3D6424EF01F026EF01F0ED
:1002480002EF01F0020E3E6E3E500A0D990EF324A5
:10025800D96E000EF420DA6EDE50395CD8B037EF74
:1002680001F039EF01F043EF01F03E500A0D990E0D
:10027800F324D96E000EF420DA6EDF50396E3E2A70
:10028800030E3E644AEF01F04CEF01F028EF01F055
:1002980038502E6E2F6A050E2E26000E2F2239504A
:1002A800306E316A2E50305C3150800A326E2F50D9
:1002B800800A3258D8B063EF01F065EF01F0CCEF57
:1002C80001F0050E3F6ECCEF01F000018F89000EA2
:1002D8003F6ECCEF01F000018F8B970E016E000E80
:1002E800026E000E046E000E036E000E066E280EDF
:1002F800056E3FEC07F0000E3F6E010E356ECCEF39
:1003080001F000018F8D970E016E000E026E000E37
:10031800046E000E036E000E066E280E056E3FEC8E
:1003280007F0000E3F6E000E356E75EC05F0CCEF51
:1003380001F000018F8F8BEC0DF0CCEF01F03F50F6
:100348002E6E2F6A2F50000AD8B4ADEF01F09DEF42
:1003580001F02E50000AD8B469EF01F0010AD8B4B0
:1003680018EF00F0030AD8B43BEF00F0010AD8B444
:1003780089EF00F0070AD8B4F9EF00F0010AD8B401
:100388006FEF01F0030AD8B485EF01F09DEF01F09B
:100398003F50D8A4D2EF01F0D4EF01F0A3EF01F061
:1003A80035501200000E166E80AEDDEF01F0DFEF63
:1003B80001F084EF02F082A6E4EF01F0E6EF01F02D
:1003C8000EEF02F0600053F0D9FF600057F0DAFF3B
:1003D800020EDF6E6F0010FE01F06F0004FE02F0E7
:1003E8006F0008FE03F08350D0EC08F020EE01F017
:1003F8001450D9261550DA22600007F0DEFF60009D
:100408000BF0DEFF60000FF0DEFF600013F0DEFF90
:100418002EEF02F0600053F0D9FF600057F0DAFFCA
:10042800010EDF6E6F0008FE01F08150D7EC0DF071
:1004380020EE01F01450D9261550DA22600007F09A
:10044800DEFF60000BF0DEFF60000FF0DEFF6000F3
:1004580013F0DEFF20EE05F01450D9261550DA22ED
:100468006F0017FEDFFF20EE06F01450D926155056
:10047800DA226F001BFEDFFF20EE07F01450D926AA
:100488001550DA226F001FFEDFFF20EE08F014502F
:10049800D9261550DA226F0023FEDFFF20EE09F07F
:1004A8001450D9261550DA226F0027FEDFFF20EE00
:1004B8000AF01450D9261550DA226F002BFEDFFF00
:1004C80020EE0BF01450D9261550DA226F002FFEBB
:1004D800DFFF20EE0CF01450D9261550DA226F00F9
:1004E80033FEDFFF20EE0DF01450D9261550DA2226
:1004F8006F0037FEDFFF809E010E166E30EF03F0AF
:100508003701F0AF8AEF02F08CEF02F030EF03F022
:10051800F2A791EF02F093EF02F0BBEF02F0600058
:1005280053F0D9FF600057F0DAFF020EDF6E6D005E
:10053800D0FF01F06D00C4FF02F06D00C8FF03F0AA
:10054800F351D0EC08F020EE01F01450D9261550E4
:10055800DA22600007F0DEFF60000BF0DEFF6000CB
:100568000FF0DEFF600013F0DEFFDBEF02F060004B
:1005780053F0D9FF600057F0DAFF010EDF6E6D000F
:10058800C8FF01F0F151D7EC0DF020EE01F0145046
:10059800D9261550DA22600007F0DEFF60000BF064
:1005A800DEFF60000FF0DEFF600013F0DEFF20EEDC
:1005B80005F01450D9261550DA226D00D7FFDFFF59
:1005C80020EE06F01450D9261550DA226D00DBFF14
:1005D800DFFF20EE07F01450D9261550DA226D00FF
:1005E800DFFFDFFF20EE08F01450D9261550DA227D
:1005F8006D00E3FFDFFF20EE09F01450D9261550F7
:10060800DA226D00E7FFDFFF20EE0AF01450D9264A
:100618001550DA226D00EBFFDFFF20EE0BF01450CF
:10062800D9261550DA226D00EFFFDFFF20EE0CF01F
:100638001450D9261550DA226D00F3FFDFFF20EEA3
:100648000DF01450D9261550DA226D00F7FFDFFFA0
:100658003701F09F80EF02F016501200020E1B6E59
:10066800000E116E000E0001906F57EF04F09CEC25
:100678000FF0600004F00DF0600008F00EF060006C
:100688000CF00FF0600010F010F000019083010EE4
:100698001B6E000E1A6E1A500A0D9D0EF324D96EA9
:1006A800000EF420DA6ED00EDE24096E070EDE206E
:1006B8000A6E000EDE200B6E000EDE200C6E0D5052
:1006C800095C0E500A580F500B5810500C58D8B0EF
:1006D80070EF03F072EF03F074EF03F0040E1B6E7B
:1006E8001A2A030E1A647BEF03F07DEF03F04FEF35
:1006F80003F057EF04F000019081030E1B6E12689F
:10070800136814681568000E166E000E176E000E3A
:10071800186E000E196E000E1C6E1C500A0D9D0EF0
:10072800F324D96E000EF420DA6E1250DE5C1350FA
:10073800DE581450DE581550DE58D8B0A6EF03F036
:10074800A8EF03F0BCEF03F01C500A0D9D0EF32434
:10075800D96E000EF420DA6E6F0078FF12F06F0089
:1007680078FF13F06F0078FF14F06F0078FF15F032
:100778001C2A030E1C64C3EF03F0C5EF03F091EFCE
:1007880003F0000E1D6E1D500A0D9D0EF324D96E48
:10079800000EF420DA6EDE50165CDE501758DE507C
:1007A8001858DE501958D8B0DCEF03F0DEEF03F02C
:1007B800F2EF03F01D500A0D9D0EF324D96E000EC2
:1007C800F420DA6E6F0078FF16F06F0078FF17F0EC
:1007D8006F0078FF18F06F0078FF19F01D2A030EDC
:1007E8001D64F9EF03F0FBEF03F0C7EF03F0880E89
:1007F8001224096E130E13200A6E000E14200B6EBD
:10080800000E15200C6E1650095C17500A58185027
:100818000B5819500C58D8B014EF04F016EF04F028
:1008280057EF04F0040E1B6E57EF04F0000190859B
:10083800000E1B6E57EF04F000019087000E1B6E30
:10084800010E116E57EF04F000019089000E1B6E27
:10085800000E116E57EF04F00001908F8BEC0DF035
:1008680057EF04F01B50096E0A6A0A50000AD8B400
:1008780040EF04F030EF04F00950000AD8B41AEF42
:1008880004F0010AD8B47FEF03F0030AD8B43BEFB1
:1008980003F0010AD8B420EF04F0070AD8B428EF0F
:1008A80004F030EF04F01B50D8A45DEF04F05FEFC4
:1008B80004F036EF04F01150120020EE60F010EE54
:1008C80016F0090E6F006FFFE3FFE806FBE220EE6B
:1008D80006F00C50D9260D50DA22DF50166E20EEA5
:1008E80007F00C50D9260D50DA22DF50176E20EE93
:1008F80008F00C50D9260D50DA22DF50186E20EE81
:1009080009F00C50D9260D50DA22DF50196E20EE6E
:100918000AF00C50D9260D50DA22DF501A6E20EE5C
:100928000BF00C50D9260D50DA22DF501B6E000E4A
:100938001C6E000E1D6E000E1E6E000E1F6E9CECCF
:100948000FF0600004F01CF0600008F01DF060007B
:100958000CF01EF0600010F01FF0000E156E010E76
:10096800146E600058F00EF0300E0E16D8B4BFEFBB
:1009780004F0C1EF04F0C3EF04F0020E156E165038
:10098800030B1524156E1550000192136CEF05F03A
:1009980015500A0DC50EF324D96E000EF420DA6E38
:1009A800DE50DE10DE10DE10D8A4DDEF04F0DFEF3D
:1009B80004F0E3EF04F0040E146E6CEF05F0020E81
:1009C800146E6CEF05F060005CF012F01206050E74
:1009D800146E000E136E120615500A0DC00EF32485
:1009E800D96E000EF420DA6EDF500E6E0E04121867
:1009F800D8A401EF05F003EF05F007EF05F0030EAB
:100A0800146E6CEF05F0132A090E13640EEF05F04F
:100A180010EF05F0EFEF04F06CEF05F0050E146E23
:100A280015500A0DC50EF324D96E000EF420DA6EA7
:100A38001C50DE5C1D50DE581E50DE581F50DE581C
:100A4800D8B029EF05F02BEF05F06CEF05F0DFEFDC
:100A580004F015500A0DBF0EF324016E000EF420A9
:100A6800026E160E036E000E046E000E066E0A0E5F
:100A7800056E3AEC0FF0000E146E6CEF05F08BEC7F
:100A88000DF06CEF05F014500E6E0F6A0F50000A4F
:100A9800D8B451EF05F043EF05F00E50000AD8B472
:100AA8003FEF05F0010AD8B4CCEF04F0030AD8B43C
:100AB800E7EF04F0010AD8B412EF05F0070AD8B43A
:100AC8002DEF05F0010AD8B43FEF05F043EF05F02C
:100AD8001450D8A472EF05F074EF05F047EF05F055
:100AE8001200000E186E000E196E000E1A6E000E1F
:100AF8001B6EBA92BA88BA8A970E016E000E026E01
:100B0800000E046E000E036E000E066E280E056EB3
:100B18003FEC07F0BF0E016E000E026E000E046E71
:100B2800000E036E000E066E280E056E3FEC07F0F1
:100B3800E9EF05F004009CEC0FF0600004F01CF0F5
:100B4800600008F01DF060000CF01EF0600010F06E
:100B58001FF01C50185C1D5019581E501A581F5071
:100B68001B58D8B0BAEF05F0BCEF05F0DAEF05F086
:100B7800BABAC1EF05F0C4EF05F0010EC5EF05F0F4
:100B8800000EFF0A176E173A1746BA501718DF0BF0
:100B98001718BA6E320E1C24186E000E1D20196E1E
:100BA800000E1E201A6E000E1F201B6ECCA2DFEF57
:100BB80005F0E1EF05F09EEF05F0210E176E760EB9
:100BC800E82EFED7172EFCD700D0CCA2EEEF05F00A
:100BD800F0EF05F0DAEF05F0BA82BA9ABA88000E9B
:100BE800186E000E196E000E1A6E000E1B6E59EF6D
:100BF80006F004009CEC0FF0600004F01CF06000AC
:100C080008F01DF060000CF01EF0600010F01FF0FE
:100C18001C50185C1D5019581E501A581F501B584C
:100C2800D8B019EF06F01BEF06F04AEF06F0BABA93
:100C380020EF06F023EF06F0010E24EF06F0000E79
:100C4800FF0A176E173A1746BA501718DF0B17180E
:100C5800BA6EBAB832EF06F035EF06F0010E36EF8D
:100C680006F0000EFF0A176E173ABA501718EF0B66
:100C78001718BA6EF40E1C24186E010E1D20196E7A
:100C8800000E1E201A6E000E1F201B6ECCB24FEFF6
:100C980006F051EF06F0FDEF05F0210E176E760E07
:100CA800E82EFED7172EFCD700D0CCB25EEF06F0A8
:100CB80060EF06F04AEF06F0200E146E000E156E77
:100CC800D6EC01F00009D8A46CEF06F06EEF06F040
:100CD80060EF06F0BA8A8AEC0CF01200B5EC10F05E
:100CE800BA8A32EC10F0A00E016E210E026EFBECF7
:100CF80010F0F0B882EF06F084EF06F087EF06F008
:100D0800F0888BEC0DF00400D28E9CEC0FF06000A4
:100D180004F045F0600008F046F060000CF047F081
:100D2800600010F048F0B80E452400018A6F0B0EE1
:100D380046208B6F000E47208C6F000E48208D6F69
:100D4800C6EF06F004009CEC0FF0600004F045F0DC
:100D5800600008F046F060000CF047F0600010F00A
:100D680048F0BAB8BAEF06F0BDEF06F0010EBEEFD4
:100D780006F0000EFF0A446E443ABA504418EF0BCE
:100D88004418BA6E00018A51455C8B5146588C5103
:100D980047588D514858D8A0D4EF06F0D6EF06F042
:100DA800A6EF06F08AEC0CF0490E146E000E156ED4
:100DB800D6EC01F00009D8A4E4EF06F0E6EF06F05F
:100DC800D8EF06F0BA8204009CEC0FF0600004F043
:100DD80045F0600008F046F060000CF047F0600055
:100DE80010F048F0455000018A5D46508B59475035
:100DF8008C5948508D59D8B004EF07F006EF07F02A
:100E08002BEF07F0BAB80BEF07F00EEF07F0010E63
:100E18000FEF07F0000EFF0A446E443ABA50441828
:100E2800EF0B4418BA6EF40E45248A6F010E462063
:100E38008B6F000E47208C6F000E48208D6F2BEFB4
:100E480007F0490E0C6E000E0D6E61EC04F0490EB1
:100E5800146E000E156ED6EC01F00009D8A437EF19
:100E680007F039EF07F025EF07F08DEC09F0E7EF11
:100E780006F00DEF00F0600004F00BF0600008F0E1
:100E88000CF005500610D8A44CEF07F04EEF07F011
:100E980050EF07F00AEF08F060002FF0D9FF60006C
:100EA80033F0DAFF60000FF0DFFF05500B24076E08
:100EB80006500C20086EFF0E0724D96EFF0E08207E
:100EC800DA6E60000FF0DFFF065007E1030E055CE5
:100ED800D8B071EF07F073EF07F075EF07F00AEF7E
:100EE80008F020EE01F00B50D9260C50DA226000F1
:100EF8000FF0DFFF20EE02F00B50D9260C50DA225B
:100F080060000FF0DFFF05500B24076E06500C2021
:100F1800086EFE0E0724D96EFF0E0820DA6E6000F8
:100F28000FF0DFFF05500B24076E06500C20086EEB
:100F3800FD0E0724D96EFF0E0820DA6E60000FF050
:100F4800DFFF065007E1070E055CD8B0AEEF07F0EB
:100F5800B0EF07F0B2EF07F00AEF08F020EE03F069
:100F68000B50D9260C50DA2260000FF0DFFF055035
:100F78000B24076E06500C20086EFC0E0724D96E51
:100F8800FF0E0820DA6E60000FF0DFFF065007E161
:100F9800090E055CD8B0D3EF07F0D5EF07F0D7EF0F
:100FA80007F00AEF08F060002CF007F0600030F05E
:100FB80008F0071E081E074A082A030E0714096EC0
:100FC8000A6A09500B260A500C220950055E0A507D
:100FD800065AFC0E0516FF0E061601EF08F0600013
:100FE8002FF0D9FF600033F0DAFF60000FF0DFFF69
:100FF8000506D8A006060B4A0C2A05500610D8A4E8
:1010080008EF08F00AEF08F0F3EF07F012006000AD
:1010180068F001F060006CF002F0600070F003F01E
:10102800C8EC0FF0296E600068F001F060006CF009
:1010380002F0600070F003F010EC10F02D6E60000C
:101048005CF001F0600060F002F0600064F003F012
:10105800C8EC0FF02A6E60005CF001F0600060F0F0
:1010680002F0600064F003F010EC10F02E6E6000E7
:101078004CF001F0600050F002F0600054F003F012
:10108800600058F004F09CEC0EF0600004F027F0CB
:10109800600008F028F060004CF001F0600050F0AB
:1010A80002F0600054F003F0600058F004F0D4EC53
:1010B8000EF0600004F02BF0600008F02CF02D50CA
:1010C80029182D6E2E502A182E6E27502B182B6E8D
:1010D80028502C182C6E2D1E2E1EFF0E2B182B6E32
:1010E800030E2C182C6E6000A4F001F060009CF038
:1010F80002F06000A0F003F0600074F004F06000FB
:1011080078F005F02A503CEC0AF0600004F01FF07B
:10111800600008F020F060000CF021F0600010F092
:1011280022F06000B4F001F06000ACF002F0600062
:10113800B0F003F01D50030A046E1E50010A056E3C
:101148002E503CEC0AF0600004F023F0600008F038
:1011580024F060000CF025F0600010F026F060002C
:101168007CF001F0600080F002F0600084F003F091
:10117800600088F004F05DEC0EF060008CF001F087
:10118800600090F002F0600094F003F0600098F0C6
:1011980004F01EEC0EF01200096E000E106E000E28
:1011A800116E000E126E000E136E0350030B0E6EBE
:1011B8000338E842070B0F6E0250056E066AD89096
:1011C80005360636D89005360636D89005360636E2
:1011D800600014F010F0600018F011F0000E11BE5D
:1011E800FF0E126E136E0F501024106E000E112099
:1011F800116E000E1220126E000E1320136E600086
:1012080040F005F0600044F006F0600048F007F098
:1012180060004CF008F0020ED89005360636073606
:101228000836E82E10EF09F0600014F010F06000A6
:1012380018F011F060001CF012F0600020F013F0BC
:101248000E501024106E000E1120116E000E122088
:10125800126E000E1320136E600040F006F060005E
:1012680044F007F0600048F008F0056A600014F0E8
:1012780010F0600018F011F060001CF012F060002F
:1012880020F013F009501024106E000E1120116E7A
:10129800000E1220126E000E1320136E600040F034
:1012A80006F0600044F007F0600048F008F0056AB6
:1012B800600014F010F0600018F011F060001CF0ED
:1012C80012F0600020F013F001501024106E000E90
:1012D8001120116E000E1220126E000E1320136ED4
:1012E800600040F00AF0600044F00BF0600048F045
:1012F8000CF060004CF00DF0600028F001F0600088
:101308002CF002F0600030F003F0600034F004F0DC
:101318001200010E436E000E00018E6F33EF0AF0CB
:1013280000018E81060E436EE1EC0AF00009D8B484
:10133800A0EF09F0A2EF09F033EF0AF0020E436EB6
:1013480033EF0AF000018E83060E436EC8EC0BF0F3
:101358000009D8B4B2EF09F0B4EF09F033EF0AF09E
:10136800030E436E33EF0AF000018E85060E436EBE
:1013780032EC03F00009D8B4C4EF09F0C6EF09F065
:1013880033EF0AF0040E436E33EF0AF000018E8744
:10139800000E436E0FEC00F00009D8B4D6EF09F048
:1013A800D8EF09F033EF0AF0050E436E33EF0AF079
:1013B800000E436E33EF0AF000018E8F000E436E6D
:1013C800A5EC10F007EC11F033EF0AF0000E436EB5
:1013D80000018E899CEC0FF001500001825D0250E3
:1013E80083590350845904508559D8B0FEEF09F049
:1013F80000EF0AF033EF0AF075EC05F033EF0AF06E
:1014080000018E8B8BEC0DF033EF0AF04350416EE8
:10141800426A4250000AD8B414EF0AF004EF0AF006
:101428004150000AD8B4DCEF09F0010AD8B494EFAF
:1014380009F0030AD8B4A6EF09F0010AD8B4B8EF46
:1014480009F0070AD8B4CAEF09F0010AD8B4E0EFE6
:1014580009F0030AD8B4EAEF09F004EF0AF04350A0
:10146800D8A439EF0AF03BEF0AF00AEF0AF01200AD
:101478000A6E05500F6E106A116A126A010E0F1477
:10148800066E000E1014076E000E1114086E000E82
:101498001214096E1C0ED89006360736083609361F
:1014A800E82E4FEF0AF0600018F00BF060001CF017
:1014B8000CF0600020F00DF0600024F00EF06000E9
:1014C80008F00FF060000CF010F0116A126AFF0EBD
:1014D8000F14066E030E1014076E000E1114086E1A
:1014E800000E1214096E120ED8900636073608360A
:1014F8000936E82E78EF0AF006500B1207500C1246
:1015080008500D1209500E1201500F6E106A116A20
:10151800126AFF0E0F14066E000E1014076E000EEE
:101528001114086E000E1214096E0A0ED8900636B1
:10153800073608360936E82E9AEF0AF006500B12DD
:1015480007500C1208500D1209500E1204500F6E5D
:10155800106A116A126A030E0F14066E000E101438
:10156800076E000E1114086E000E1214096E60004A
:1015780020F009F060001CF008F0600018F007F097
:10158800066A06500B1207500C1208500D1209502B
:101598000E120A500F6E106A116A126A0F500B125F
:1015A80060002CF001F0600030F002F0600034F0D0
:1015B80003F0600038F004F01200010E116E000E06
:1015C800106E000E0001916F5BEF0BF0020E116EB2
:1015D80000019181000E126E12500A0DC50EF324FF
:1015E800D96E000EF420DA6EDE50DE10DE10DE104A
:1015F800D8A401EF0BF003EF0BF007EF0BF0030E8D
:10160800116E10EF0BF0122A030E12640EEF0BF09E
:1016180010EF0BF0F0EF0AF0000191835BEF0BF095
:1016280000019185000E116E970E016E000E026E7C
:10163800BF0E036E000E046E000E066E280E056EB9
:101648003AEC0FF0010E106E5BEF0BF00001918782
:10165800000E116E5BEF0BF000019189000E116E08
:10166800000E106E5BEF0BF00001918F8BEC0DF00C
:101678005BEF0BF011500C6E0D6A0D50000AD8B4D8
:1016880048EF0BF038EF0BF00C50000AD8B42AEFF3
:101698000BF0010AD8B4EAEF0AF0030AD8B414EF41
:1016A8000BF0010AD8B430EF0BF038EF0BF0115003
:1016B800D8A461EF0BF063EF0BF03EEF0BF0105086
:1016C80012006A0E5C24D96EDA6A000EDA22000E65
:1016D800DF6E3D01F9A773EF0BF075EF0BF08AEFA2
:1016E8000BF06A0E5C24D96EDA6A000EDA22000169
:1016F800DF8202D88AEF0BF00500FA6EED51FD6E1D
:10170800EE51FE6EF850FF6EFA5012003D01F9A33B
:1017180090EF0BF092EF0BF0A7EF0BF06A0E5C2442
:10172800D96EDA6A000EDA220001DF8402D8A7EF48
:101738000BF00500FA6EEB51FD6EEC51FE6EF850A1
:10174800FF6EFA5012006A0E5C24D96EDA6A000E37
:10175800DA22DF50D8B4B3EF0BF0B5EF0BF0C5EFDA
:101768000BF002D8C3EF0BF005000001FA6EE95147
:10177800FD6EEA51FE6EF850FF6EFA501200C7EF88
:101788000BF07DEC10F01200010E056E000E046ED9
:1017980020EF0CF0020E056E000E066E06500A0DC4
:1017A8009B0EF324D96E000EF420DA6EDF50D8B405
:1017B800E0EF0BF0E2EF0BF0E4EF0BF0030E056E39
:1017C800062A030E0664EBEF0BF0EDEF0BF0D2EFF9
:1017D8000BF020EF0CF0000E056E20EF0CF0000E61
:1017E800056E010E046E20EF0CF0000E056E000E63
:1017F800046E20EF0CF08BEC0DF020EF0CF0055090
:10180800026E036A0350000AD8B40DEF0CF0FFEF24
:101818000BF00250000AD8B4EFEF0BF0010AD8B46D
:10182800CEEF0BF0030AD8B4F3EF0BF0010AD8B4EB
:10183800F9EF0BF0FFEF0BF00550D8A426EF0CF0F2
:1018480028EF0CF003EF0CF004501200800E8F6E9E
:101858008E50E00B800AD8A434EF0CF036EF0CF071
:101868002CEF0CF0000E916E000E3701006FBA6974
:10187800BB69B869E30EB96FBE69BF69BC69E30E9D
:10188800BD6F010EA26F230EA36F000EA06F080E8E
:10189800A16F000EA66F000EA76F000EA46F000EBA
:1018A800A56F000EAA6F000EAB6F000EA86F000E9A
:1018B800A96F000EAE6F000EAF6F000EAC6F000E7A
:1018C800AD6F000EB26F000EB36F000EB06F000E5A
:1018D800B16F000EB66F000EB76F000EB46F000E3A
:1018E800B56F030E036FBF0E046F470E056F000E32
:1018F8008F6E6F0038FE01F0E00E0116D8A487EF56
:101908000CF089EF0CF07DEF0CF01200000E0A6E5F
:10191800000E0B6E000E0C6E000E0D6EDEEF0CF05E
:1019280004009CEC0FF0600004F00EF0600008F07A
:101938000FF060000CF010F0600010F011F00E5085
:101948000A5C0F500B5810500C5811500D58D8B055
:10195800B0EF0CF0B2EF0CF0CFEF0CF0BAB8B7EF75
:101968000CF0BAEF0CF0010EBBEF0CF0000EFF0A02
:10197800096E093ABA500918EF0B0918BA6E640EC5
:101988000E240A6E000E0F200B6E000E10200C6E37
:10199800000E11200D6ECCA0D4EF0CF0D6EF0CF099
:1019A80094EF0CF0210E096E760EE82EFED7092E64
:1019B800FCD700D0CCA0E3EF0CF0E5EF0CF0CFEFB4
:1019C8000CF0A5EC10F0120039019397CA0E016EC5
:1019D800160E026EDFEC10F039019399D80E016EE5
:1019E8001F0E026ED8EC10F0000E3D01EC6F000ED9
:1019F800ED6F000EEE6F000EEF6F000EF06F000E31
:101A0800F16FB00EF26F800EF36F000EF46F030EDD
:101A1800F56F010EF66F000EF76F000EF86F000EEF
:101A2800F96F000EFA6F200E016E220E026EEDECB9
:101A380010F01E0E016E220E026EE6EC10F0140E6F
:101A4800016E220E026EF4EC10F0000E596E000EBC
:101A58005E6E000E5D6E080E0001F36F000E5C6E88
:101A6800000E5B6E000E5A6E390193871200390121
:101A780099A341EF0DF043EF0DF04EEF0DF0A9A340
:101A880048EF0DF04AEF0DF04EEF0DF04DEC10F071
:101A98008AEF0DF093A953EF0DF055EF0DF06CEFB1
:101AA8000DF0A3A95AEF0DF05CEF0DF06CEF0DF0FF
:101AB80002D86AEF0DF005000001FA6EEF51FD6ED5
:101AC800F051FE6EF850FF6EFA5012008AEF0DF0DA
:101AD80093A771EF0DF073EF0DF08AEF0DF0A3A748
:101AE80078EF0DF07AEF0DF08AEF0DF002D888EF5D
:101AF8000DF005000001FA6EF151FD6EF251FE6E17
:101B0800F850FF6EFA5012008AEF0DF01100BA92E9
:101B1800BA9A0400BAB893EF0DF096EF0DF0010EE3
:101B280097EF0DF0000EFF0A016E013ABA50011846
:101B3800EF0B0118BA6EBABAA4EF0DF0A7EF0DF0CB
:101B4800010EA8EF0DF0000EFF0A016E013A0146E2
:101B5800BA500118DF0B0118BA6EA30E016E550EAC
:101B6800E82EFED7012EFCD700F00400BABABFEF6A
:101B78000DF0C2EF0DF0010EC3EF0DF0000EFF0ADD
:101B8800016E013A0146BA500118DF0B0118BA6E0E
:101B9800A30E016E550EE82EFED7012EFCD700F0DD
:101BA8008DEF0DF01200076E0750056E066AD8908B
:101BB80005360636D89005360636D89005360636E8
:101BC800600014F00CF0600018F00DF0000E0DBE6F
:101BD800FF0E0E6E0F6E600004F005F0050E066E27
:101BE800D8900532062EF4EF0DF005500C240C6E3B
:101BF800000E0D200D6E000E0E200E6E000E0F2032
:101C08000F6E600030F008F0600034F009F06000FA
:101C180038F00AF060003CF00BF0600020F001F0B2
:101C2800600024F002F0600028F003F060002CF05F
:101C380004F01200600007F0BBF760000BF0BAF781
:101C48000350030B3701B96F600004F005F0600022
:101C580008F006F060000CF007F0600010F008F0E3
:101C68000E0E3CEF0EF0D8900832073206320532DD
:101C7800E82E37EF0EF00550E00BB913B987600076
:101C880004F005F0600008F006F060000CF007F0C2
:101C9800600010F008F0160E57EF0EF0D8900832DA
:101CA800073206320532E82E52EF0EF00550B86FB3
:101CB8001200600007F0A3F760000BF0A2F70350D2
:101CC800030B3701A16F600004F005F0600008F015
:101CD80006F060000CF007F0600010F008F00E0E3F
:101CE8007BEF0EF0D8900832073206320532E82E24
:101CF80076EF0EF00550E00BA113A187600004F009
:101D080005F0600008F006F060000CF007F06000D5
:101D180010F008F0160E96EF0EF0D8900832073241
:101D280006320532E82E91EF0EF00550A06F120032
:101D3800600007F0D9FF60000BF0DAFF6F0078FF52
:101D480005F06F0074FF06F0020E0126000E022255
:101D5800000E086E010E076EC2EF0EF0600007F06D
:101D6800D9FF60000BF0DAFFDE500516DD500616CD
:101D7800020E0126000E0222074A082A0350075CB9
:101D880004500858D8A0CBEF0EF0CDEF0EF0B2EF0C
:101D98000EF0FF0E0514016E030E0614026E1200FB
:101DA800600007F0D9FF60000BF0DAFF6F0078FFE2
:101DB80005F06F0074FF06F0000E086E000E076E47
:101DC800F6EF0EF0600007F0D9FF60000BF0DAFFC5
:101DD800DE500512DD500612020E0126000E022208
:101DE800074A082A0350075C04500858D8A0FFEF98
:101DF8000EF001EF0FF0E6EF0EF0FF0E0514016E86
:101E0800030E0614026E1200040EF66E220EF76E12
:101E1800000EF86E00EEF4F010EE09F009006F0005
:101E2800D7FFEEFFE550E150F9E1240EF66E220EE1
:101E3800F76E000EF86E09006F00D4FF5FF000EE39
:101E480060F0870EEE6AE806FDE100EE57F0080E36
:101E5800EE6AE806FDE1080ED56E000ED66E000E9D
:101E6800D76E000EF86E000172EF06F060000CF0FD
:101E780009F0600010F00AF0600004F007F060005C
:101E880008F008F05DEF0FF0600027F0D9FF600060
:101E98002BF0DAFFDF500B6E094A0A2A60001FF0A8
:101EA800D9FF600023F0DAFF60002FF0DFFF074A58
:101EB800082A0506D8A00606052806E10628D8A49B
:101EC80068EF0FF06AEF0FF048EF0FF01200000E06
:101ED800BA6E000EBB6E000EBC6ECD0EC26EFB0E4F
:101EE800C36EBF0EC46E700E3A01606FF70E506F6E
:101EF8004069000E816F000E516F000E416F000E99
:101F0800616F000E426F000E526F000E626F4369E0
:101F180053696369446954696469080E846F330EB0
:101F28000A6F0B0EED6F130E166F170EE76F120088
:101F38006000D0F305F06000D4F306F06000D8F339
:101F480007F06000DCF308F00001F45105180DE11A
:101F5800F55106180AE1F651071807E1F751081874
:101F6800D8A4B9EF0FF0BBEF0FF09CEF0FF06000B3
:101F780014F001F0600018F002F060001CF003F0AB
:101F8800600020F004F01200600007F0D9FF600044
:101F98000BF0DAFFDF50046E014A022A010E056ECB
:101FA800E1EF0FF0600007F0D9FF60000BF0DAFFF7
:101FB800DF500416014A022A052A0350055CD8A0FE
:101FC800E8EF0FF0EAEF0FF0D6EF0FF00450120031
:101FD800080E0001F361F3EF0FF0F5EF0FF00DEFCE
:101FE80010F07A0E5D24D96EDA6A000EDA22DF501C
:101FF8003D01EA6F5D2A070E5D6405EF10F007EFFB
:1020080010F009EF10F0000E5D6E0001F32B0FEFDA
:1020180010F0390193991200600007F0D9FF6000B1
:102028000BF0DAFFDF50046E000E056E27EF10F09C
:10203800600007F0D9FF60000BF0DAFFDF500412F0
:10204800014A022A052A0350055CD8A02EEF10F099
:1020580030EF10F01CEF10F004501200FB0E136E5E
:10206800000E146E000E166E010E156EF80E176E29
:10207800000E186E030E196E5F0E1A6E000E1B6EA0
:10208800010E1C6E000E1D6E000E1E6E0BEC08F08D
:1020980012003901A9930001E751E811D8B457EFAC
:1020A80010F059EF10F066EF10F002D866EF10F05C
:1020B8000500FA6EE751FD6EE851FE6EF850FF6EAE
:1020C800FA5012001200030E966E000E956E000E66
:1020D800976E3E0E936E000E926E3901A993998306
:1020E800220E016E220E026EFBEC10F0F00E946EC2
:1020F8001200720E5C24D96EDA6A000EDA226F00C2
:10210800A3F7DFFF5C2A070E5C648DEF10F08FEFFA
:1021180010F091EF10F0000E5C6E5A2A1200000EBB
:102128003901C06F000EC16F000EC26F000EC36F81
:10213800000EC46F000EC56F000EC66F000EC76F8D
:1021480012009CEC0FF0880E01240001826F130E20
:102158000220836F000E0320846F000E0420856F19
:1021680012000DEC11F093EC10F06BEC0FF0C4ECD6
:1021780010F067EC10F0E8EC0CF02AEC0CF0120010
:10218800700E3901D96F000EDB6F000EDD6F030E84
:10219800DF6F000EDE6F1200010E0001F427000E43
:1021A800F523F623F7231200600004F0EFF0600037
:1021B80008F0F0F01200600004F0F1F0600008F0A0
:1021C800F2F01200600004F0EBF0600008F0ECF0B0
:1021D8001200600004F0EDF0600008F0EEF012006C
:1021E800600004F0E9F0600008F0EAF01200600016
:1021F80004F0E7F0600008F0E8F0120001000000C9
:05220800EFEEED3200D5
:10220E00BA8ABA8212007DEC10F01200D29A120035
:07221E001200120012000182
:020000040020DA
:10000000FF0FFF0FFF0FFF0FFF0FFF0FFF0FFF0F80
:020000040030CA
:0A000000FFFFF7FFE9C7FFFFFFFF56
:00000001FF
